{
  "abi": [
    {
      "anonymous": false,
      "inputs": [
        {
          "indexed": true,
          "internalType": "address",
          "name": "owner",
          "type": "address"
        },
        {
          "indexed": true,
          "internalType": "address",
          "name": "spender",
          "type": "address"
        },
        {
          "indexed": false,
          "internalType": "uint256",
          "name": "value",
          "type": "uint256"
        }
      ],
      "name": "Approval",
      "type": "event"
    },
    {
      "anonymous": false,
      "inputs": [
        {
          "indexed": true,
          "internalType": "address",
          "name": "user",
          "type": "address"
        },
        {
          "indexed": true,
          "internalType": "uint256",
          "name": "timestamp",
          "type": "uint256"
        }
      ],
      "name": "Claim",
      "type": "event"
    },
    {
      "anonymous": false,
      "inputs": [
        {
          "indexed": true,
          "internalType": "address",
          "name": "user",
          "type": "address"
        },
        {
          "indexed": true,
          "internalType": "uint256",
          "name": "timestamp",
          "type": "uint256"
        },
        {
          "indexed": false,
          "internalType": "uint256",
          "name": "amount",
          "type": "uint256"
        }
      ],
      "name": "NewDeposit",
      "type": "event"
    },
    {
      "anonymous": false,
      "inputs": [
        {
          "indexed": true,
          "internalType": "address",
          "name": "previousOwner",
          "type": "address"
        },
        {
          "indexed": true,
          "internalType": "address",
          "name": "newOwner",
          "type": "address"
        }
      ],
      "name": "OwnershipTransferred",
      "type": "event"
    },
    {
      "anonymous": false,
      "inputs": [
        {
          "indexed": false,
          "internalType": "address",
          "name": "account",
          "type": "address"
        }
      ],
      "name": "Paused",
      "type": "event"
    },
    {
      "anonymous": false,
      "inputs": [
        {
          "indexed": true,
          "internalType": "address",
          "name": "user",
          "type": "address"
        },
        {
          "indexed": true,
          "internalType": "uint256",
          "name": "timestamp",
          "type": "uint256"
        },
        {
          "indexed": false,
          "internalType": "uint256",
          "name": "amount",
          "type": "uint256"
        },
        {
          "indexed": false,
          "internalType": "uint256",
          "name": "slotIndex",
          "type": "uint256"
        }
      ],
      "name": "ResetSlot",
      "type": "event"
    },
    {
      "anonymous": false,
      "inputs": [
        {
          "indexed": true,
          "internalType": "address",
          "name": "from",
          "type": "address"
        },
        {
          "indexed": true,
          "internalType": "address",
          "name": "to",
          "type": "address"
        },
        {
          "indexed": false,
          "internalType": "uint256",
          "name": "value",
          "type": "uint256"
        }
      ],
      "name": "Transfer",
      "type": "event"
    },
    {
      "anonymous": false,
      "inputs": [
        {
          "indexed": true,
          "internalType": "address",
          "name": "user",
          "type": "address"
        },
        {
          "indexed": true,
          "internalType": "uint256",
          "name": "timestamp",
          "type": "uint256"
        },
        {
          "indexed": false,
          "internalType": "uint256",
          "name": "amount",
          "type": "uint256"
        }
      ],
      "name": "Unlock",
      "type": "event"
    },
    {
      "anonymous": false,
      "inputs": [
        {
          "indexed": true,
          "internalType": "address",
          "name": "user",
          "type": "address"
        },
        {
          "indexed": true,
          "internalType": "uint256",
          "name": "timestamp",
          "type": "uint256"
        },
        {
          "indexed": false,
          "internalType": "uint256",
          "name": "amount",
          "type": "uint256"
        },
        {
          "indexed": false,
          "internalType": "uint256",
          "name": "strategyIndex",
          "type": "uint256"
        }
      ],
      "name": "UnlockStarts",
      "type": "event"
    },
    {
      "anonymous": false,
      "inputs": [
        {
          "indexed": false,
          "internalType": "address",
          "name": "account",
          "type": "address"
        }
      ],
      "name": "Unpaused",
      "type": "event"
    },
    {
      "inputs": [],
      "name": "DENOMINATOR",
      "outputs": [
        {
          "internalType": "uint256",
          "name": "",
          "type": "uint256"
        }
      ],
      "stateMutability": "view",
      "type": "function"
    },
    {
      "inputs": [],
      "name": "VTX",
      "outputs": [
        {
          "internalType": "contract IERC20",
          "name": "",
          "type": "address"
        }
      ],
      "stateMutability": "view",
      "type": "function"
    },
    {
      "inputs": [
        {
          "internalType": "address",
          "name": "_masterchief",
          "type": "address"
        },
        {
          "internalType": "uint256",
          "name": "_maxSlots",
          "type": "uint256"
        },
        {
          "internalType": "address",
          "name": "_previousLocker",
          "type": "address"
        },
        {
          "internalType": "address",
          "name": "_rewarder",
          "type": "address"
        },
        {
          "internalType": "address",
          "name": "_stakingToken",
          "type": "address"
        }
      ],
      "name": "__LockerV2_init_",
      "outputs": [],
      "stateMutability": "nonpayable",
      "type": "function"
    },
    {
      "inputs": [
        {
          "internalType": "uint256",
          "name": "_lockTime",
          "type": "uint256"
        },
        {
          "internalType": "uint256",
          "name": "_rewardPercent",
          "type": "uint256"
        },
        {
          "internalType": "uint256",
          "name": "_forfeitPercent",
          "type": "uint256"
        },
        {
          "internalType": "uint256",
          "name": "_instantUnstakePercent",
          "type": "uint256"
        },
        {
          "internalType": "bool",
          "name": "_isLinear",
          "type": "bool"
        }
      ],
      "name": "addNewStrategy",
      "outputs": [],
      "stateMutability": "nonpayable",
      "type": "function"
    },
    {
      "inputs": [
        {
          "internalType": "uint256",
          "name": "amount",
          "type": "uint256"
        },
        {
          "internalType": "uint256",
          "name": "slotIndex",
          "type": "uint256"
        }
      ],
      "name": "addToUnlock",
      "outputs": [],
      "stateMutability": "nonpayable",
      "type": "function"
    },
    {
      "inputs": [
        {
          "internalType": "address",
          "name": "owner",
          "type": "address"
        },
        {
          "internalType": "address",
          "name": "spender",
          "type": "address"
        }
      ],
      "name": "allowance",
      "outputs": [
        {
          "internalType": "uint256",
          "name": "",
          "type": "uint256"
        }
      ],
      "stateMutability": "view",
      "type": "function"
    },
    {
      "inputs": [
        {
          "internalType": "address",
          "name": "spender",
          "type": "address"
        },
        {
          "internalType": "uint256",
          "name": "amount",
          "type": "uint256"
        }
      ],
      "name": "approve",
      "outputs": [
        {
          "internalType": "bool",
          "name": "",
          "type": "bool"
        }
      ],
      "stateMutability": "nonpayable",
      "type": "function"
    },
    {
      "inputs": [
        {
          "internalType": "address",
          "name": "account",
          "type": "address"
        }
      ],
      "name": "balanceOf",
      "outputs": [
        {
          "internalType": "uint256",
          "name": "",
          "type": "uint256"
        }
      ],
      "stateMutability": "view",
      "type": "function"
    },
    {
      "inputs": [],
      "name": "bribeManager",
      "outputs": [
        {
          "internalType": "address",
          "name": "",
          "type": "address"
        }
      ],
      "stateMutability": "view",
      "type": "function"
    },
    {
      "inputs": [
        {
          "internalType": "uint256",
          "name": "slotIndex",
          "type": "uint256"
        }
      ],
      "name": "cancelUnlock",
      "outputs": [],
      "stateMutability": "nonpayable",
      "type": "function"
    },
    {
      "inputs": [],
      "name": "claim",
      "outputs": [],
      "stateMutability": "nonpayable",
      "type": "function"
    },
    {
      "inputs": [
        {
          "internalType": "address",
          "name": "_for",
          "type": "address"
        }
      ],
      "name": "claimFor",
      "outputs": [],
      "stateMutability": "nonpayable",
      "type": "function"
    },
    {
      "inputs": [],
      "name": "decimals",
      "outputs": [
        {
          "internalType": "uint8",
          "name": "",
          "type": "uint8"
        }
      ],
      "stateMutability": "view",
      "type": "function"
    },
    {
      "inputs": [
        {
          "internalType": "address",
          "name": "spender",
          "type": "address"
        },
        {
          "internalType": "uint256",
          "name": "subtractedValue",
          "type": "uint256"
        }
      ],
      "name": "decreaseAllowance",
      "outputs": [
        {
          "internalType": "bool",
          "name": "",
          "type": "bool"
        }
      ],
      "stateMutability": "nonpayable",
      "type": "function"
    },
    {
      "inputs": [
        {
          "internalType": "uint256",
          "name": "_amount",
          "type": "uint256"
        }
      ],
      "name": "deposit",
      "outputs": [],
      "stateMutability": "nonpayable",
      "type": "function"
    },
    {
      "inputs": [
        {
          "internalType": "address",
          "name": "_for",
          "type": "address"
        },
        {
          "internalType": "uint256",
          "name": "_amount",
          "type": "uint256"
        }
      ],
      "name": "depositFor",
      "outputs": [],
      "stateMutability": "nonpayable",
      "type": "function"
    },
    {
      "inputs": [
        {
          "internalType": "address",
          "name": "_user",
          "type": "address"
        }
      ],
      "name": "getAllUserUnlocking",
      "outputs": [
        {
          "components": [
            {
              "internalType": "uint256",
              "name": "startTime",
              "type": "uint256"
            },
            {
              "internalType": "uint256",
              "name": "endTime",
              "type": "uint256"
            },
            {
              "internalType": "uint256",
              "name": "amount",
              "type": "uint256"
            },
            {
              "internalType": "uint256",
              "name": "unlockingStrategy",
              "type": "uint256"
            },
            {
              "internalType": "uint256",
              "name": "alreadyUnstaked",
              "type": "uint256"
            },
            {
              "internalType": "uint256",
              "name": "alreadyWithdrawn",
              "type": "uint256"
            }
          ],
          "internalType": "struct LockerV2.UserUnlocking[]",
          "name": "slots",
          "type": "tuple[]"
        }
      ],
      "stateMutability": "view",
      "type": "function"
    },
    {
      "inputs": [
        {
          "internalType": "address",
          "name": "_user",
          "type": "address"
        },
        {
          "internalType": "uint256",
          "name": "n",
          "type": "uint256"
        }
      ],
      "name": "getUserNthSlot",
      "outputs": [
        {
          "internalType": "uint256",
          "name": "startTime",
          "type": "uint256"
        },
        {
          "internalType": "uint256",
          "name": "endTime",
          "type": "uint256"
        },
        {
          "internalType": "uint256",
          "name": "amount",
          "type": "uint256"
        },
        {
          "internalType": "uint256",
          "name": "unlockingStrategy",
          "type": "uint256"
        },
        {
          "internalType": "uint256",
          "name": "alreadyUnstaked",
          "type": "uint256"
        },
        {
          "internalType": "uint256",
          "name": "alreadyWithdrawn",
          "type": "uint256"
        }
      ],
      "stateMutability": "view",
      "type": "function"
    },
    {
      "inputs": [
        {
          "internalType": "address",
          "name": "_user",
          "type": "address"
        }
      ],
      "name": "getUserRewardPercentage",
      "outputs": [
        {
          "internalType": "uint256",
          "name": "rewardPercentage",
          "type": "uint256"
        }
      ],
      "stateMutability": "view",
      "type": "function"
    },
    {
      "inputs": [
        {
          "internalType": "address",
          "name": "_user",
          "type": "address"
        }
      ],
      "name": "getUserSlotLength",
      "outputs": [
        {
          "internalType": "uint256",
          "name": "",
          "type": "uint256"
        }
      ],
      "stateMutability": "view",
      "type": "function"
    },
    {
      "inputs": [
        {
          "internalType": "address",
          "name": "_user",
          "type": "address"
        }
      ],
      "name": "getUserTotalDeposit",
      "outputs": [
        {
          "internalType": "uint256",
          "name": "",
          "type": "uint256"
        }
      ],
      "stateMutability": "view",
      "type": "function"
    },
    {
      "inputs": [],
      "name": "harvest",
      "outputs": [],
      "stateMutability": "nonpayable",
      "type": "function"
    },
    {
      "inputs": [
        {
          "internalType": "address",
          "name": "spender",
          "type": "address"
        },
        {
          "internalType": "uint256",
          "name": "addedValue",
          "type": "uint256"
        }
      ],
      "name": "increaseAllowance",
      "outputs": [
        {
          "internalType": "bool",
          "name": "",
          "type": "bool"
        }
      ],
      "stateMutability": "nonpayable",
      "type": "function"
    },
    {
      "inputs": [],
      "name": "masterchief",
      "outputs": [
        {
          "internalType": "address",
          "name": "",
          "type": "address"
        }
      ],
      "stateMutability": "view",
      "type": "function"
    },
    {
      "inputs": [],
      "name": "maxSlot",
      "outputs": [
        {
          "internalType": "uint256",
          "name": "",
          "type": "uint256"
        }
      ],
      "stateMutability": "view",
      "type": "function"
    },
    {
      "inputs": [
        {
          "internalType": "address",
          "name": "user",
          "type": "address"
        },
        {
          "internalType": "bool[]",
          "name": "onlyDeposit",
          "type": "bool[]"
        }
      ],
      "name": "migrate",
      "outputs": [],
      "stateMutability": "nonpayable",
      "type": "function"
    },
    {
      "inputs": [
        {
          "internalType": "address",
          "name": "_from",
          "type": "address"
        },
        {
          "internalType": "address",
          "name": "_to",
          "type": "address"
        },
        {
          "internalType": "bool[]",
          "name": "onlyDeposit",
          "type": "bool[]"
        }
      ],
      "name": "migrateFor",
      "outputs": [],
      "stateMutability": "nonpayable",
      "type": "function"
    },
    {
      "inputs": [
        {
          "internalType": "address",
          "name": "",
          "type": "address"
        }
      ],
      "name": "migrated",
      "outputs": [
        {
          "internalType": "bool",
          "name": "",
          "type": "bool"
        }
      ],
      "stateMutability": "view",
      "type": "function"
    },
    {
      "inputs": [],
      "name": "name",
      "outputs": [
        {
          "internalType": "string",
          "name": "",
          "type": "string"
        }
      ],
      "stateMutability": "view",
      "type": "function"
    },
    {
      "inputs": [],
      "name": "owner",
      "outputs": [
        {
          "internalType": "address",
          "name": "",
          "type": "address"
        }
      ],
      "stateMutability": "view",
      "type": "function"
    },
    {
      "inputs": [],
      "name": "pause",
      "outputs": [],
      "stateMutability": "nonpayable",
      "type": "function"
    },
    {
      "inputs": [],
      "name": "paused",
      "outputs": [
        {
          "internalType": "bool",
          "name": "",
          "type": "bool"
        }
      ],
      "stateMutability": "view",
      "type": "function"
    },
    {
      "inputs": [],
      "name": "previousLocker",
      "outputs": [
        {
          "internalType": "address",
          "name": "",
          "type": "address"
        }
      ],
      "stateMutability": "view",
      "type": "function"
    },
    {
      "inputs": [],
      "name": "renounceOwnership",
      "outputs": [],
      "stateMutability": "nonpayable",
      "type": "function"
    },
    {
      "inputs": [],
      "name": "rewarder",
      "outputs": [
        {
          "internalType": "contract IBaseRewardPoolLocker",
          "name": "",
          "type": "address"
        }
      ],
      "stateMutability": "view",
      "type": "function"
    },
    {
      "inputs": [
        {
          "internalType": "address",
          "name": "_address",
          "type": "address"
        }
      ],
      "name": "setBribeManager",
      "outputs": [],
      "stateMutability": "nonpayable",
      "type": "function"
    },
    {
      "inputs": [
        {
          "internalType": "uint256",
          "name": "_maxDeposits",
          "type": "uint256"
        }
      ],
      "name": "setMaxSlots",
      "outputs": [],
      "stateMutability": "nonpayable",
      "type": "function"
    },
    {
      "inputs": [
        {
          "internalType": "uint256",
          "name": "strategyIndex",
          "type": "uint256"
        },
        {
          "internalType": "bool",
          "name": "status",
          "type": "bool"
        }
      ],
      "name": "setStrategyStatus",
      "outputs": [],
      "stateMutability": "nonpayable",
      "type": "function"
    },
    {
      "inputs": [
        {
          "internalType": "address",
          "name": "_for",
          "type": "address"
        },
        {
          "internalType": "bool",
          "name": "status",
          "type": "bool"
        }
      ],
      "name": "setWhitelistForTransfer",
      "outputs": [],
      "stateMutability": "nonpayable",
      "type": "function"
    },
    {
      "inputs": [],
      "name": "stakeInMasterChief",
      "outputs": [],
      "stateMutability": "nonpayable",
      "type": "function"
    },
    {
      "inputs": [],
      "name": "stakingToken",
      "outputs": [
        {
          "internalType": "address",
          "name": "",
          "type": "address"
        }
      ],
      "stateMutability": "view",
      "type": "function"
    },
    {
      "inputs": [
        {
          "internalType": "uint256",
          "name": "strategyIndex",
          "type": "uint256"
        },
        {
          "internalType": "uint256",
          "name": "amount",
          "type": "uint256"
        },
        {
          "internalType": "uint256",
          "name": "slotIndex",
          "type": "uint256"
        }
      ],
      "name": "startUnlock",
      "outputs": [],
      "stateMutability": "nonpayable",
      "type": "function"
    },
    {
      "inputs": [],
      "name": "symbol",
      "outputs": [
        {
          "internalType": "string",
          "name": "",
          "type": "string"
        }
      ],
      "stateMutability": "view",
      "type": "function"
    },
    {
      "inputs": [],
      "name": "totalLocked",
      "outputs": [
        {
          "internalType": "uint256",
          "name": "",
          "type": "uint256"
        }
      ],
      "stateMutability": "view",
      "type": "function"
    },
    {
      "inputs": [],
      "name": "totalSupply",
      "outputs": [
        {
          "internalType": "uint256",
          "name": "",
          "type": "uint256"
        }
      ],
      "stateMutability": "view",
      "type": "function"
    },
    {
      "inputs": [],
      "name": "totalUnlocking",
      "outputs": [
        {
          "internalType": "uint256",
          "name": "",
          "type": "uint256"
        }
      ],
      "stateMutability": "view",
      "type": "function"
    },
    {
      "inputs": [
        {
          "internalType": "address",
          "name": "recipient",
          "type": "address"
        },
        {
          "internalType": "uint256",
          "name": "amount",
          "type": "uint256"
        }
      ],
      "name": "transfer",
      "outputs": [
        {
          "internalType": "bool",
          "name": "",
          "type": "bool"
        }
      ],
      "stateMutability": "nonpayable",
      "type": "function"
    },
    {
      "inputs": [
        {
          "internalType": "address",
          "name": "sender",
          "type": "address"
        },
        {
          "internalType": "address",
          "name": "recipient",
          "type": "address"
        },
        {
          "internalType": "uint256",
          "name": "amount",
          "type": "uint256"
        }
      ],
      "name": "transferFrom",
      "outputs": [
        {
          "internalType": "bool",
          "name": "",
          "type": "bool"
        }
      ],
      "stateMutability": "nonpayable",
      "type": "function"
    },
    {
      "inputs": [
        {
          "internalType": "address",
          "name": "newOwner",
          "type": "address"
        }
      ],
      "name": "transferOwnership",
      "outputs": [],
      "stateMutability": "nonpayable",
      "type": "function"
    },
    {
      "inputs": [
        {
          "internalType": "address",
          "name": "",
          "type": "address"
        }
      ],
      "name": "transferWhitelist",
      "outputs": [
        {
          "internalType": "bool",
          "name": "",
          "type": "bool"
        }
      ],
      "stateMutability": "view",
      "type": "function"
    },
    {
      "inputs": [
        {
          "internalType": "uint256",
          "name": "slotIndex",
          "type": "uint256"
        }
      ],
      "name": "unlock",
      "outputs": [],
      "stateMutability": "nonpayable",
      "type": "function"
    },
    {
      "inputs": [
        {
          "internalType": "uint256",
          "name": "",
          "type": "uint256"
        }
      ],
      "name": "unlockingStrategies",
      "outputs": [
        {
          "internalType": "uint256",
          "name": "unlockTime",
          "type": "uint256"
        },
        {
          "internalType": "uint256",
          "name": "forfeitPercent",
          "type": "uint256"
        },
        {
          "internalType": "uint256",
          "name": "rewardPercent",
          "type": "uint256"
        },
        {
          "internalType": "uint256",
          "name": "instantUnstakePercent",
          "type": "uint256"
        },
        {
          "internalType": "bool",
          "name": "isLinear",
          "type": "bool"
        },
        {
          "internalType": "bool",
          "name": "isActive",
          "type": "bool"
        }
      ],
      "stateMutability": "view",
      "type": "function"
    },
    {
      "inputs": [],
      "name": "unpause",
      "outputs": [],
      "stateMutability": "nonpayable",
      "type": "function"
    },
    {
      "inputs": [
        {
          "internalType": "address",
          "name": "",
          "type": "address"
        }
      ],
      "name": "userUnlocking",
      "outputs": [
        {
          "internalType": "uint256",
          "name": "",
          "type": "uint256"
        }
      ],
      "stateMutability": "view",
      "type": "function"
    },
    {
      "inputs": [
        {
          "internalType": "address",
          "name": "",
          "type": "address"
        },
        {
          "internalType": "uint256",
          "name": "",
          "type": "uint256"
        }
      ],
      "name": "userUnlockings",
      "outputs": [
        {
          "internalType": "uint256",
          "name": "startTime",
          "type": "uint256"
        },
        {
          "internalType": "uint256",
          "name": "endTime",
          "type": "uint256"
        },
        {
          "internalType": "uint256",
          "name": "amount",
          "type": "uint256"
        },
        {
          "internalType": "uint256",
          "name": "unlockingStrategy",
          "type": "uint256"
        },
        {
          "internalType": "uint256",
          "name": "alreadyUnstaked",
          "type": "uint256"
        },
        {
          "internalType": "uint256",
          "name": "alreadyWithdrawn",
          "type": "uint256"
        }
      ],
      "stateMutability": "view",
      "type": "function"
    }
  ],
  "bytecode": "608060405234801561001057600080fd5b506154b0806100206000396000f3fe608060405234801561001057600080fd5b506004361061036d5760003560e01c8063819bfd9e116101d3578063c8691afe11610104578063dcc3e06e116100a2578063e2a578cd1161007c578063e2a578cd146107d5578063e55c8273146107e8578063f2fde38b146107fb578063f6b420ca1461080e57600080fd5b8063dcc3e06e14610776578063dd62ed3e14610789578063ddeae033146107c257600080fd5b8063d0ea93d8116100de578063d0ea93d814610714578063d256c38c1461073d578063d6b1c1f714610750578063dc4794b21461076357600080fd5b8063c8691afe146106e5578063cc442e0f146106ee578063cf26b0c71461070157600080fd5b80639e92843511610171578063a9059cbb1161014b578063a9059cbb14610699578063a94c98ca146106ac578063af52247c146106bf578063b6b55f25146106d257600080fd5b80639e92843514610660578063a457c2d714610673578063a4c828dc1461068657600080fd5b806387312309116101ad57806387312309146105fe5780638da5cb5b1461063e578063918f86741461064f57806395d89b411461065857600080fd5b8063819bfd9e146105c357806383a24b4d146105d65780638456cb59146105f657600080fd5b80634ba0a5ee116102ad578063628601101161024b57806371f8da531161022557806371f8da531461054f57806372f702f31461056257806379c940621461058d5780637ffbe241146105a057600080fd5b8063628601101461051657806370a082311461051e578063715018a61461054757600080fd5b80635a1ae6e6116102875780635a1ae6e6146104ab5780635c1cb9b9146104ef5780635c975abb146104f85780636198e3391461050357600080fd5b80634ba0a5ee146104785780634e71d92d1461049b57806356891412146104a357600080fd5b8063225d95a71161031a578063313ce567116102f4578063313ce5671461044657806339509351146104555780633f4ba83a146104685780634641257d1461047057600080fd5b8063225d95a71461040d57806323b872dd146104205780632f4f21e21461043357600080fd5b806318160ddd1161034b57806318160ddd146103c8578063215b389a146103da5780632216dbf7146103ed57600080fd5b806306fdde0314610372578063095ea7b31461039057806309b0499d146103b3575b600080fd5b61037a610821565b60405161038791906152f0565b60405180910390f35b6103a361039e366004614faa565b6108b3565b6040519015158152602001610387565b6103c66103c1366004614e81565b6108c9565b005b6035545b604051908152602001610387565b6103c66103e8366004614fd6565b610980565b6103cc6103fb366004614e0e565b60d26020526000908152604090205481565b6103c661041b366004614f7c565b610c2f565b6103a361042e366004614ee6565b610cb4565b6103c6610441366004614faa565b610d75565b60405160128152602001610387565b6103a3610463366004614faa565b610e94565b6103c6610ed0565b6103c6610f34565b6103a3610486366004614e0e565b60d56020526000908152604090205460ff1681565b6103c6610f3c565b6103cc611055565b6104be6104b9366004615078565b611072565b60408051968752602087019590955293850192909252606084015215156080830152151560a082015260c001610387565b6103cc60cd5481565b60975460ff166103a3565b6103c6610511366004615078565b6110bf565b6103c66115bf565b6103cc61052c366004614e0e565b6001600160a01b031660009081526033602052604090205490565b6103c6611802565b6103c661055d36600461521d565b611866565b60ca54610575906001600160a01b031681565b6040516001600160a01b039091168152602001610387565b6103c661059b366004615078565b611a95565b6103a36105ae366004614e0e565b60d66020526000908152604090205460ff1681565b6103c66105d1366004615078565b611b45565b6105e96105e4366004614e0e565b611b52565b6040516103879190615278565b6103c6611cbe565b61061161060c366004614faa565b611d20565b604080519687526020870195909552938501929092526060840152608083015260a082015260c001610387565b6065546001600160a01b0316610575565b6103cc61271081565b61037a611d74565b60c954610575906001600160a01b031681565b6103a3610681366004614faa565b611d83565b6103cc610694366004614e0e565b611e34565b6103a36106a7366004614faa565b611e68565b6106116106ba366004614faa565b611e75565b6103cc6106cd366004614e0e565b611ef8565b6103c66106e0366004615078565b61212b565b6103cc60cc5481565b60cf54610575906001600160a01b031681565b6103c661070f366004614e0e565b61218c565b6103cc610722366004614e0e565b6001600160a01b0316600090815260d3602052604090205490565b60cb54610575906001600160a01b031681565b6103c661075e366004614f27565b612215565b6103c66107713660046151c3565b6122c6565b60d054610575906001600160a01b031681565b6103cc610797366004614e48565b6001600160a01b03918216600090815260346020908152604080832093909416825291909152205490565b6103c66107d0366004614e0e565b612ac5565b60ce54610575906001600160a01b031681565b6103c66107f63660046151a1565b612b1c565b6103c6610809366004614e0e565b612c1c565b6103c661081c36600461517c565b612cfb565b606060368054610830906153bf565b80601f016020809104026020016040519081016040528092919081815260200182805461085c906153bf565b80156108a95780601f1061087e576101008083540402835291602001916108a9565b820191906000526020600020905b81548152906001019060200180831161088c57829003601f168201915b5050505050905090565b60006108c0338484612d95565b50600192915050565b60975460ff16156109145760405162461bcd60e51b815260206004820152601060248201526f14185d5cd8589b194e881c185d5cd95960821b60448201526064015b60405180910390fd5b60c9546001600160a01b0316331461096e5760405162461bcd60e51b815260206004820152601060248201527f4f6e6c79204d6173746572636869656600000000000000000000000000000000604482015260640161090b565b61097a84848484612eee565b50505050565b600054610100900460ff1661099b5760005460ff161561099f565b303b155b610a115760405162461bcd60e51b815260206004820152602e60248201527f496e697469616c697a61626c653a20636f6e747261637420697320616c72656160448201527f647920696e697469616c697a6564000000000000000000000000000000000000606482015260840161090b565b600054610100900460ff16158015610a33576000805461ffff19166101011790555b610aa76040518060400160405280600a81526020017f4c6f636b656420565458000000000000000000000000000000000000000000008152506040518060400160405280600681526020017f4c565458763200000000000000000000000000000000000000000000000000008152506133c9565b610aaf613446565b610ab76134c1565b60008511610b075760405162461bcd60e51b815260206004820152601c60248201527f4d617820736c6f74732073686f756c64206e6f74206265206e756c6c00000000604482015260640161090b565b60cc85905560c980546001600160a01b0380891673ffffffffffffffffffffffffffffffffffffffff19928316811790935560cb805488831690841617905560ca805486831690841617905560d0805491871691909216179055604080517fb76ae05e000000000000000000000000000000000000000000000000000000008152905163b76ae05e91600480820192602092909190829003018186803b158015610bb057600080fd5b505afa158015610bc4573d6000803e3d6000fd5b505050506040513d601f19601f82011682018060405250810190610be89190614e2b565b60cf805473ffffffffffffffffffffffffffffffffffffffff19166001600160a01b03929092169190911790558015610c27576000805461ff00191690555b505050505050565b6065546001600160a01b03163314610c895760405162461bcd60e51b815260206004820181905260248201527f4f776e61626c653a2063616c6c6572206973206e6f7420746865206f776e6572604482015260640161090b565b6001600160a01b0391909116600090815260d660205260409020805460ff1916911515919091179055565b6000610cc184848461353c565b6001600160a01b038416600090815260346020908152604080832033845290915290205482811015610d5b5760405162461bcd60e51b815260206004820152602860248201527f45524332303a207472616e7366657220616d6f756e742065786365656473206160448201527f6c6c6f77616e6365000000000000000000000000000000000000000000000000606482015260840161090b565b610d688533858403612d95565b60019150505b9392505050565b60975460ff1615610dbb5760405162461bcd60e51b815260206004820152601060248201526f14185d5cd8589b194e881c185d5cd95960821b604482015260640161090b565b610dc3613764565b610dce3383836138f5565b610dd6611055565b60cf546040516370a0823160e01b81523060048201526001600160a01b03909116906370a082319060240160206040518083038186803b158015610e1957600080fd5b505afa158015610e2d573d6000803e3d6000fd5b505050506040513d601f19601f82011682018060405250810190610e519190615091565b1015610e905760405162461bcd60e51b815260206004820152600e60248201526d10d492551250d05308119055531560921b604482015260640161090b565b5050565b3360008181526034602090815260408083206001600160a01b038716845290915281205490916108c0918590610ecb908690615323565b612d95565b6065546001600160a01b03163314610f2a5760405162461bcd60e51b815260206004820181905260248201527f4f776e61626c653a2063616c6c6572206973206e6f7420746865206f776e6572604482015260640161090b565b610f326139da565b565b610f32613764565b60975460ff1615610f825760405162461bcd60e51b815260206004820152601060248201526f14185d5cd8589b194e881c185d5cd95960821b604482015260640161090b565b610f8a613764565b610f9333613a76565b610f9b611055565b60cf546040516370a0823160e01b81523060048201526001600160a01b03909116906370a082319060240160206040518083038186803b158015610fde57600080fd5b505afa158015610ff2573d6000803e3d6000fd5b505050506040513d601f19601f820116820180604052508101906110169190615091565b1015610f325760405162461bcd60e51b815260206004820152600e60248201526d10d492551250d05308119055531560921b604482015260640161090b565b600060cd5461106360355490565b61106d9190615323565b905090565b60d1818154811061108257600080fd5b6000918252602090912060059091020180546001820154600283015460038401546004909401549294509092909160ff8082169161010090041686565b60975460ff16156111055760405162461bcd60e51b815260206004820152601060248201526f14185d5cd8589b194e881c185d5cd95960821b604482015260640161090b565b61110d613764565b33600090815260d36020526040812080548390811061112e5761112e61542b565b9060005260206000209060060201905060008160020154116111925760405162461bcd60e51b815260206004820152600d60248201527f496e61637469766520736c6f7400000000000000000000000000000000000000604482015260640161090b565b6000816005015482600201546111a8919061537c565b9050600081116111fa5760405162461bcd60e51b815260206004820152601760248201527f416c72656164792066756c6c792077697468647261776e000000000000000000604482015260640161090b565b600060d18360030154815481106112135761121361542b565b90600052602060002090600502019050600080428560010154116112625784600401548560020154611245919061537c565b91508460050154856002015461125b919061537c565b905061138e565b600483015460ff166112b65760405162461bcd60e51b815260206004820152601160248201527f4e6f7468696e6720746f20756e6c6f636b000000000000000000000000000000604482015260640161090b565b845460018601546000916112c99161537c565b86549091506000906112db904261537c565b90506000826112ec6127108461535d565b6112f6919061533b565b905061271081111561130757506127105b6000612710828a6002015461131c919061535d565b611326919061533b565b90508860050154811115611346576005890154611343908261537c565b94505b61271060d18a60030154815481106113605761136061542b565b9060005260206000209060050201600201548661137d919061535d565b611387919061533b565b9550505050505b33600090815260d26020526040812080548392906113ad90849061537c565b925050819055508060cd60008282546113c6919061537c565b909155505060cf546113e2906001600160a01b03163383613d24565b60d0546001600160a01b0316634a95116233846113fe82611ef8565b6040516001600160e01b031960e086901b1681526001600160a01b0390931660048401526024830191909152604482015260016064820152608401600060405180830381600087803b15801561145357600080fd5b505af1158015611467573d6000803e3d6000fd5b505050508085600501600082825461147f9190615323565b925050819055508185600401600082825461149a9190615323565b90915550506002850154604051908152429033907ff7870c5b224cbc19873599e46ccfc7103934650509b1af0c3ce90138377c20049060200160405180910390a38460020154856005015414156114f5576114f53387613db5565b5050505050611502611055565b60cf546040516370a0823160e01b81523060048201526001600160a01b03909116906370a082319060240160206040518083038186803b15801561154557600080fd5b505afa158015611559573d6000803e3d6000fd5b505050506040513d601f19601f8201168201806040525081019061157d9190615091565b10156115bc5760405162461bcd60e51b815260206004820152600e60248201526d10d492551250d05308119055531560921b604482015260640161090b565b50565b6065546001600160a01b031633146116195760405162461bcd60e51b815260206004820181905260248201527f4f776e61626c653a2063616c6c6572206973206e6f7420746865206f776e6572604482015260640161090b565b60ca5460c9546040516370a0823160e01b81523060048201526001600160a01b039283169263095ea7b392169083906370a082319060240160206040518083038186803b15801561166957600080fd5b505afa15801561167d573d6000803e3d6000fd5b505050506040513d601f19601f820116820180604052508101906116a19190615091565b6040516001600160e01b031960e085901b1681526001600160a01b0390921660048301526024820152604401602060405180830381600087803b1580156116e757600080fd5b505af11580156116fb573d6000803e3d6000fd5b505050506040513d601f19601f8201168201806040525081019061171f919061505b565b5060c95460ca546040516370a0823160e01b81523060048201526001600160a01b03928316926347e7ef2492169081906370a082319060240160206040518083038186803b15801561177057600080fd5b505afa158015611784573d6000803e3d6000fd5b505050506040513d601f19601f820116820180604052508101906117a89190615091565b6040516001600160e01b031960e085901b1681526001600160a01b0390921660048301526024820152604401600060405180830381600087803b1580156117ee57600080fd5b505af115801561097a573d6000803e3d6000fd5b6065546001600160a01b0316331461185c5760405162461bcd60e51b815260206004820181905260248201527f4f776e61626c653a2063616c6c6572206973206e6f7420746865206f776e6572604482015260640161090b565b610f326000614083565b6065546001600160a01b031633146118c05760405162461bcd60e51b815260206004820181905260248201527f4f776e61626c653a2063616c6c6572206973206e6f7420746865206f776e6572604482015260640161090b565b6127108411156119125760405162461bcd60e51b815260206004820152601660248201527f496e76616c6964207265776172642070657263656e7400000000000000000000604482015260640161090b565b61271061191f8385615323565b111561196d5760405162461bcd60e51b815260206004820152600e60248201527f496e76616c696420696e70757473000000000000000000000000000000000000604482015260640161090b565b6040805160c08101825295865260208601938452850193845260608501918252151560808501908152600160a0860181815260d180549283018155600052955160059091027f695fb3134ad82c3b8022bc5464edd0bcc9424ef672b52245dcb6ab2374327ce381019190915592517f695fb3134ad82c3b8022bc5464edd0bcc9424ef672b52245dcb6ab2374327ce484015592517f695fb3134ad82c3b8022bc5464edd0bcc9424ef672b52245dcb6ab2374327ce5830155517f695fb3134ad82c3b8022bc5464edd0bcc9424ef672b52245dcb6ab2374327ce682015590517f695fb3134ad82c3b8022bc5464edd0bcc9424ef672b52245dcb6ab2374327ce79091018054925115156101000261ff00199215159290921661ffff1990931692909217179055565b6065546001600160a01b03163314611aef5760405162461bcd60e51b815260206004820181905260248201527f4f776e61626c653a2063616c6c6572206973206e6f7420746865206f776e6572604482015260640161090b565b60cc548111611b405760405162461bcd60e51b815260206004820152601b60248201527f43616e6e6f7420646563726561736520736c6f74206e756d6265720000000000604482015260640161090b565b60cc55565b6115bc60016000836122c6565b60606000611b75836001600160a01b0316600090815260d3602052604090205490565b90508067ffffffffffffffff811115611b9057611b90615441565b604051908082528060200260200182016040528015611bfa57816020015b611be76040518060c001604052806000815260200160008152602001600081526020016000815260200160008152602001600081525090565b815260200190600190039081611bae5790505b50915060005b81811015611cb7576001600160a01b038416600090815260d360205260409020805482908110611c3257611c3261542b565b90600052602060002090600602016040518060c00160405290816000820154815260200160018201548152602001600282015481526020016003820154815260200160048201548152602001600582015481525050838281518110611c9957611c9961542b565b60200260200101819052508080611caf906153fa565b915050611c00565b5050919050565b6065546001600160a01b03163314611d185760405162461bcd60e51b815260206004820181905260248201527f4f776e61626c653a2063616c6c6572206973206e6f7420746865206f776e6572604482015260640161090b565b610f326140e2565b60d36020528160005260406000208181548110611d3c57600080fd5b600091825260209091206006909102018054600182015460028301546003840154600485015460059095015493965091945092909186565b606060378054610830906153bf565b3360009081526034602090815260408083206001600160a01b038616845290915281205482811015611e1d5760405162461bcd60e51b815260206004820152602560248201527f45524332303a2064656372656173656420616c6c6f77616e63652062656c6f7760448201527f207a65726f000000000000000000000000000000000000000000000000000000606482015260840161090b565b611e2a3385858403612d95565b5060019392505050565b6001600160a01b038116600090815260d260209081526040808320546033909252822054611e629190615323565b92915050565b60006108c033848461353c565b600080600080600080600060d360008a6001600160a01b03166001600160a01b031681526020019081526020016000208881548110611eb657611eb661542b565b6000918252602090912060069091020180546001820154600283015460038401546004850154600590950154939e929d50909b50995091975095509350505050565b60d0546040516370a0823160e01b81526001600160a01b03838116600483015260009283929116906370a082319060240160206040518083038186803b158015611f4157600080fd5b505afa158015611f55573d6000803e3d6000fd5b505050506040513d601f19601f82011682018060405250810190611f799190615091565b905080611f895750600092915050565b806000611fab856001600160a01b0316600090815260d3602052604090205490565b905060005b81811015612100576001600160a01b038616600090815260d360205260408120805483908110611fe257611fe261542b565b906000526020600020906006020190504281600101541080156120085750600281015415155b156120ed57600081600401548260020154612023919061537c565b905080156120eb57815433600090815260d4602052604081205490911061204b57825461205c565b33600090815260d460205260409020545b90506000818460010154612070919061537c565b9050600061207e834261537c565b905060008161208f6127108561535d565b612099919061533b565b90506120a5858a61537c565b985060008a6120b66127108861535d565b6120c0919061533b565b90506127106120cf838361535d565b6120d9919061533b565b6120e3908d615323565b9b5050505050505b505b50806120f8816153fa565b915050611fb0565b508261210e6127108461535d565b612118919061533b565b6121229085615323565b95945050505050565b60975460ff16156121715760405162461bcd60e51b815260206004820152601060248201526f14185d5cd8589b194e881c185d5cd95960821b604482015260640161090b565b612179613764565b6121843333836138f5565b611502611055565b6065546001600160a01b031633146121e65760405162461bcd60e51b815260206004820181905260248201527f4f776e61626c653a2063616c6c6572206973206e6f7420746865206f776e6572604482015260640161090b565b60ce805473ffffffffffffffffffffffffffffffffffffffff19166001600160a01b0392909216919091179055565b60975460ff161561225b5760405162461bcd60e51b815260206004820152601060248201526f14185d5cd8589b194e881c185d5cd95960821b604482015260640161090b565b60c9546001600160a01b031633146122b55760405162461bcd60e51b815260206004820152601060248201527f4f6e6c79204d6173746572636869656600000000000000000000000000000000604482015260640161090b565b6122c183848484612eee565b505050565b60975460ff161561230c5760405162461bcd60e51b815260206004820152601060248201526f14185d5cd8589b194e881c185d5cd95960821b604482015260640161090b565b612314613764565b33600090815260d36020526040902054808211801590612335575060cc5482105b61238b5760405162461bcd60e51b815260206004820152602160248201527f4e6f7420696e207468652072616e6765206f6620616c6c6f77656420736c6f746044820152607360f81b606482015260840161090b565b81811180156123cd575033600090815260d3602052604090208054839081106123b6576123b661542b565b906000526020600020906006020160020154600014155b156123dc576123dc3383613db5565b336000908152603360205260409020548311156124615760405162461bcd60e51b815260206004820152602560248201527f4e6f7420656e6f756768206c6f636b65642056545820746f207374617274207560448201527f6e6c6f636b000000000000000000000000000000000000000000000000000000606482015260840161090b565b836124ae5760405162461bcd60e51b815260206004820152601f60248201527f537472617465677920726573657276656420666f72206d6967726174696f6e00604482015260640161090b565b600060d185815481106124c3576124c361542b565b906000526020600020906005020190508060040160019054906101000a900460ff166125315760405162461bcd60e51b815260206004820152601360248201527f5374726174656779206e6f742061637469766500000000000000000000000000604482015260640161090b565b61253b338561415d565b6000612710858360030154612550919061535d565b61255a919061533b565b60cf54909150612574906001600160a01b03163383613d24565b6000612710868460010154612589919061535d565b612593919061533b565b60cf5460d0549192506125b3916001600160a01b039182169116836142d9565b60d05460cf546040517f5bc59ce7000000000000000000000000000000000000000000000000000000008152600481018490526001600160a01b039182166024820152911690635bc59ce790604401602060405180830381600087803b15801561261c57600080fd5b505af1158015612630573d6000803e3d6000fd5b505050506040513d601f19601f82011682018060405250810190612654919061505b565b5060006126618284615323565b90506000612710612672838a61537c565b60028701546126839061271061537c565b61268d919061535d565b612697919061533b565b60d0549091506001600160a01b0316634a951162336126b68585615323565b6126bf33611ef8565b6040516001600160e01b031960e086901b1681526001600160a01b0390931660048401526024830191909152604482015260016064820152608401600060405180830381600087803b15801561271457600080fd5b505af1158015612728573d6000803e3d6000fd5b505050508188612738919061537c565b33600090815260d2602052604081208054909190612757908490615323565b909155506127679050828961537c565b60cd60008282546127789190615323565b90915550503360009081526033602052604090205460ce54604051637f0ea58960e11b81523360048201526001600160a01b039091169063fe1d4b129060240160206040518083038186803b1580156127d057600080fd5b505afa1580156127e4573d6000803e3d6000fd5b505050506040513d601f19601f820116820180604052508101906128089190615091565b11156128565760405162461bcd60e51b815260206004820152601260248201527f546f6f206d75636820766f746520636173740000000000000000000000000000604482015260640161090b565b85871015612918576040518060c0016040528042815260200186600001544261287f9190615323565b815260200161288e848b61537c565b815260208082018c905260408083018590526000606090930183905233835260d390915290208054899081106128c6576128c661542b565b9060005260206000209060060201600082015181600001556020820151816001015560408201518160020155606082015181600301556080820151816004015560a082015181600501559050506129c0565b33600090815260d36020908152604091829020825160c0810190935242808452885491939283019161294991615323565b8152602001612958858c61537c565b815260208082018d9052604080830186905260006060938401819052855460018181018855968252908390208551600690920201908155918401519482019490945592820151600284015581015160038301556080810151600483015560a001516005909101555b60408051898152602081018b9052429133917f9a398b809c9ca5dbc72899e94e5399292458136b18391a32adf6d254017211d7910160405180910390a3505050505050612a0b611055565b60cf546040516370a0823160e01b81523060048201526001600160a01b03909116906370a082319060240160206040518083038186803b158015612a4e57600080fd5b505afa158015612a62573d6000803e3d6000fd5b505050506040513d601f19601f82011682018060405250810190612a869190615091565b10156122c15760405162461bcd60e51b815260206004820152600e60248201526d10d492551250d05308119055531560921b604482015260640161090b565b60975460ff1615612b0b5760405162461bcd60e51b815260206004820152601060248201526f14185d5cd8589b194e881c185d5cd95960821b604482015260640161090b565b612b13613764565b61218481613a76565b33600090815260d3602052604090205480821115612b865760405162461bcd60e51b815260206004820152602160248201527f4e6f7420696e207468652072616e6765206f6620616c6c6f77656420736c6f746044820152607360f81b606482015260840161090b565b33600090815260d360205260408120805484908110612ba757612ba761542b565b90600052602060002090600602016040518060c00160405290816000820154815260200160018201548152602001600282015481526020016003820154815260200160048201548152602001600582015481525050905061097a8160600151858360400151612c169190615323565b856122c6565b6065546001600160a01b03163314612c765760405162461bcd60e51b815260206004820181905260248201527f4f776e61626c653a2063616c6c6572206973206e6f7420746865206f776e6572604482015260640161090b565b6001600160a01b038116612cf25760405162461bcd60e51b815260206004820152602660248201527f4f776e61626c653a206e6577206f776e657220697320746865207a65726f206160448201527f6464726573730000000000000000000000000000000000000000000000000000606482015260840161090b565b6115bc81614083565b6065546001600160a01b03163314612d555760405162461bcd60e51b815260206004820181905260248201527f4f776e61626c653a2063616c6c6572206973206e6f7420746865206f776e6572604482015260640161090b565b8060d18381548110612d6957612d6961542b565b906000526020600020906005020160040160016101000a81548160ff0219169083151502179055505050565b6001600160a01b038316612e105760405162461bcd60e51b8152602060048201526024808201527f45524332303a20617070726f76652066726f6d20746865207a65726f2061646460448201527f7265737300000000000000000000000000000000000000000000000000000000606482015260840161090b565b6001600160a01b038216612e8c5760405162461bcd60e51b815260206004820152602260248201527f45524332303a20617070726f766520746f20746865207a65726f20616464726560448201527f7373000000000000000000000000000000000000000000000000000000000000606482015260840161090b565b6001600160a01b0383811660008181526034602090815260408083209487168084529482529182902085905590518481527f8c5be1e5ebec7d5bd14f71427d1e84f3dd0314c0f7b2291e5b200ac8c7c3b92591015b60405180910390a3505050565b6001600160a01b038416600090815260d5602052604090205460ff1615612f575760405162461bcd60e51b815260206004820152601060248201527f416c7265616479206d6967726174656400000000000000000000000000000000604482015260640161090b565b6001600160a01b03848116600081815260d56020526040808220805460ff1916600117905560cb5490517f87fa85f60000000000000000000000000000000000000000000000000000000081526004810193909352909216906387fa85f69060240160206040518083038186803b158015612fd157600080fd5b505afa158015612fe5573d6000803e3d6000fd5b505050506040513d601f19601f820116820180604052508101906130099190615091565b905081811461305a5760405162461bcd60e51b815260206004820152600f60248201527f496e636f727265637420696e7075740000000000000000000000000000000000604482015260640161090b565b600080600060d16000815481106130735761307361542b565b9060005260206000209060050201905060005b848110156132b45760cb546040517f64e3826a0000000000000000000000000000000000000000000000000000000081526001600160a01b038b811660048301526024820184905260009283929116906364e3826a9060440160606040518083038186803b1580156130f757600080fd5b505afa15801561310b573d6000803e3d6000fd5b505050506040513d601f19601f8201168201806040525081019061312f91906151ef565b925092505060004283101561314f576131488287615323565b9550613292565b612710856002015483613162919061535d565b61316c919061533b565b90508989858181106131805761318061542b565b9050602002016020810190613195919061503e565b156131a9576131a48b836143fe565b613292565b6001600160a01b038b16600090815260d26020526040812080548492906131d1908490615323565b925050819055508160cd60008282546131ea9190615323565b90915550506001600160a01b038b16600090815260d360209081526040808320815160c081018352428152928301879052908201859052606082019290925260808101613237848661537c565b815260006020918201819052835460018181018655948252908290208351600690920201908155908201519281019290925560408101516002830155606081015160038301556080810151600483015560a001516005909101555b61329c8188615323565b965050505080806132ac906153fa565b915050613086565b506001600160a01b038716600090815260d3602052604090205460cc548111156133205760405162461bcd60e51b815260206004820152601060248201527f4d617820736c6f74207265616368656400000000000000000000000000000000604482015260640161090b565b60d0546040516305dc812160e31b81526001600160a01b038a811660048301526024820187905290911690632ee4090890604401602060405180830381600087803b15801561336e57600080fd5b505af1158015613382573d6000803e3d6000fd5b505050506040513d601f19601f820116820180604052508101906133a6919061505b565b5060cf546133be906001600160a01b03168985613d24565b505050505050505050565b600054610100900460ff166134345760405162461bcd60e51b815260206004820152602b60248201527f496e697469616c697a61626c653a20636f6e7472616374206973206e6f74206960448201526a6e697469616c697a696e6760a81b606482015260840161090b565b61343c6144f1565b610e90828261455c565b600054610100900460ff166134b15760405162461bcd60e51b815260206004820152602b60248201527f496e697469616c697a61626c653a20636f6e7472616374206973206e6f74206960448201526a6e697469616c697a696e6760a81b606482015260840161090b565b6134b96144f1565b610f326145ee565b600054610100900460ff1661352c5760405162461bcd60e51b815260206004820152602b60248201527f496e697469616c697a61626c653a20636f6e7472616374206973206e6f74206960448201526a6e697469616c697a696e6760a81b606482015260840161090b565b6135346144f1565b610f32614662565b6001600160a01b0383166135b85760405162461bcd60e51b815260206004820152602560248201527f45524332303a207472616e736665722066726f6d20746865207a65726f20616460448201527f6472657373000000000000000000000000000000000000000000000000000000606482015260840161090b565b6001600160a01b0382166136345760405162461bcd60e51b815260206004820152602360248201527f45524332303a207472616e7366657220746f20746865207a65726f206164647260448201527f6573730000000000000000000000000000000000000000000000000000000000606482015260840161090b565b61363f8383836146d9565b6001600160a01b038316600090815260336020526040902054818110156136ce5760405162461bcd60e51b815260206004820152602660248201527f45524332303a207472616e7366657220616d6f756e742065786365656473206260448201527f616c616e63650000000000000000000000000000000000000000000000000000606482015260840161090b565b6001600160a01b03808516600090815260336020526040808220858503905591851681529081208054849290613705908490615323565b92505081905550826001600160a01b0316846001600160a01b03167fddf252ad1be2c89b69c2b068fc378daa952ba7f163c4a11628f55a4df523b3ef8460405161375191815260200190565b60405180910390a361097a84848461484b565b60975460ff16156137aa5760405162461bcd60e51b815260206004820152601060248201526f14185d5cd8589b194e881c185d5cd95960821b604482015260640161090b565b60c95460ca546040517fad05e6270000000000000000000000000000000000000000000000000000000081526001600160a01b03918216600482015230602482015260006044820181905292919091169063ad05e6279060640160006040518083038186803b15801561381c57600080fd5b505afa158015613830573d6000803e3d6000fd5b505050506040513d6000823e601f3d908101601f1916820160405261385891908101906150aa565b505060c95460ca546040517f47e7ef240000000000000000000000000000000000000000000000000000000081526001600160a01b0391821660048201526000602482015293945016916347e7ef249150604401600060405180830381600087803b1580156138c657600080fd5b505af11580156138da573d6000803e3d6000fd5b505060cf546115bc92506001600160a01b031690508261493e565b60cf5461390d906001600160a01b0316843084614a64565b60d0546040516305dc812160e31b81526001600160a01b0384811660048301526024820184905290911690632ee4090890604401602060405180830381600087803b15801561395b57600080fd5b505af115801561396f573d6000803e3d6000fd5b505050506040513d601f19601f82011682018060405250810190613993919061505b565b5061399e82826143fe565b42826001600160a01b03167fa91e0c3165215fe453f5bf3de083d5fd6c4e62c491849155a042a647588c53a083604051612ee191815260200190565b60975460ff16613a2c5760405162461bcd60e51b815260206004820152601460248201527f5061757361626c653a206e6f7420706175736564000000000000000000000000604482015260640161090b565b6097805460ff191690557f5db9ee0a495bf2e6ff9c91a7834c1ba4fdd244a5e8aa4e537bd38aeae4b073aa335b6040516001600160a01b03909116815260200160405180910390a1565b60975460ff1615613abc5760405162461bcd60e51b815260206004820152601060248201526f14185d5cd8589b194e881c185d5cd95960821b604482015260640161090b565b6001600160a01b038116600090815260d36020526040812054905b81811015613c59576001600160a01b038316600090815260d360205260408120805483908110613b0957613b0961542b565b90600052602060002090600602016040518060c00160405290816000820154815260200160018201548152602001600282015481526020016003820154815260200160048201548152602001600582015481525050905042816020015111158015613b775750604081015115155b8015613bac575060d1816060015181548110613b9557613b9561542b565b906000526020600020906005020160020154600014155b15613c465760405162461bcd60e51b8152602060048201526044602482018190527f596f75206e65656420746f20776974686472617720616c6c2066696e69736865908201527f6420736c6f747320776974682072657761726473206265666f726520636c616960648201527f6d696e6700000000000000000000000000000000000000000000000000000000608482015260a40161090b565b5080613c51816153fa565b915050613ad7565b5060d0546040517ff474c8ce0000000000000000000000000000000000000000000000000000000081526001600160a01b03848116600483015261271060248301529091169063f474c8ce90604401600060405180830381600087803b158015613cc257600080fd5b505af1158015613cd6573d6000803e3d6000fd5b5050506001600160a01b038316600081815260d46020526040808220429081905590519093507f47cee97cb7acd717b3c0aa1435d004cd5b3c8c57d70dbceb4e4458bbd60e39d49190a35050565b6040516001600160a01b0383166024820152604481018290526122c19084907fa9059cbb00000000000000000000000000000000000000000000000000000000906064015b60408051601f198184030181529190526020810180517bffffffffffffffffffffffffffffffffffffffffffffffffffffffff166001600160e01b031990931692909217909152614ab5565b6001600160a01b038216600090815260d360205260409020548110613e1c5760405162461bcd60e51b815260206004820152601260248201527f536c6f7420646f65736e27742065786973740000000000000000000000000000604482015260640161090b565b6001600160a01b038216600090815260d360205260408120805483908110613e4657613e4661542b565b90600052602060002090600602019050600060d1826003015481548110613e6f57613e6f61542b565b90600052602060002090600502019050806003015460001480613e99575081600201548260050154145b613f0b5760405162461bcd60e51b815260206004820152603360248201527f43616e6e6f7420726573657420616e20756e66696e697368656420736c6f742060448201527f7769746820696e7374616e7420756e6c6f636b00000000000000000000000000606482015260840161090b565b600082600501548360020154613f21919061537c565b90508015613f7a576001600160a01b038516600090815260d2602052604081208054839290613f5190849061537c565b925050819055508060cd6000828254613f6a919061537c565b90915550613f7a905085826143fe565b60d054600584015460048501546001600160a01b0390921691632ee40908913391613fa5919061537c565b6040516001600160e01b031960e085901b1681526001600160a01b0390921660048301526024820152604401602060405180830381600087803b158015613feb57600080fd5b505af1158015613fff573d6000803e3d6000fd5b505050506040513d601f19601f82011682018060405250810190614023919061505b565b5042856001600160a01b03167f18bb409513c8a4200071013ba207717a498fea554fe05c6f40a145866a4e820f85600201548760405161406d929190918252602082015260400190565b60405180910390a3505060006002909101555050565b606580546001600160a01b0383811673ffffffffffffffffffffffffffffffffffffffff19831681179093556040519116919082907f8be0079c531659141344cd1fd0a4f28419497f9722a3daafe3b4186f6b6457e090600090a35050565b60975460ff16156141285760405162461bcd60e51b815260206004820152601060248201526f14185d5cd8589b194e881c185d5cd95960821b604482015260640161090b565b6097805460ff191660011790557f62e78cea01bee320cd4e420270b5ea74000d11b0c9f74754ebdbfc544b05a258613a593390565b6001600160a01b0382166141bd5760405162461bcd60e51b815260206004820152602160248201527f45524332303a206275726e2066726f6d20746865207a65726f206164647265736044820152607360f81b606482015260840161090b565b6141c9826000836146d9565b6001600160a01b038216600090815260336020526040902054818110156142585760405162461bcd60e51b815260206004820152602260248201527f45524332303a206275726e20616d6f756e7420657863656564732062616c616e60448201527f6365000000000000000000000000000000000000000000000000000000000000606482015260840161090b565b6001600160a01b038316600090815260336020526040812083830390556035805484929061428790849061537c565b90915550506040518281526000906001600160a01b038516907fddf252ad1be2c89b69c2b068fc378daa952ba7f163c4a11628f55a4df523b3ef9060200160405180910390a36122c18360008461484b565b6040517fdd62ed3e0000000000000000000000000000000000000000000000000000000081523060048201526001600160a01b03838116602483015282919085169063dd62ed3e9060440160206040518083038186803b15801561433c57600080fd5b505afa158015614350573d6000803e3d6000fd5b505050506040513d601f19601f820116820180604052508101906143749190615091565b10156122c15760405163095ea7b360e01b81526001600160a01b038381166004830152600019602483015284169063095ea7b3906044015b602060405180830381600087803b1580156143c657600080fd5b505af11580156143da573d6000803e3d6000fd5b505050506040513d601f19601f8201168201806040525081019061097a919061505b565b6001600160a01b0382166144545760405162461bcd60e51b815260206004820152601f60248201527f45524332303a206d696e7420746f20746865207a65726f206164647265737300604482015260640161090b565b614460600083836146d9565b80603560008282546144729190615323565b90915550506001600160a01b0382166000908152603360205260408120805483929061449f908490615323565b90915550506040518181526001600160a01b038316906000907fddf252ad1be2c89b69c2b068fc378daa952ba7f163c4a11628f55a4df523b3ef9060200160405180910390a3610e906000838361484b565b600054610100900460ff16610f325760405162461bcd60e51b815260206004820152602b60248201527f496e697469616c697a61626c653a20636f6e7472616374206973206e6f74206960448201526a6e697469616c697a696e6760a81b606482015260840161090b565b600054610100900460ff166145c75760405162461bcd60e51b815260206004820152602b60248201527f496e697469616c697a61626c653a20636f6e7472616374206973206e6f74206960448201526a6e697469616c697a696e6760a81b606482015260840161090b565b81516145da906036906020850190614d29565b5080516122c1906037906020840190614d29565b600054610100900460ff166146595760405162461bcd60e51b815260206004820152602b60248201527f496e697469616c697a61626c653a20636f6e7472616374206973206e6f74206960448201526a6e697469616c697a696e6760a81b606482015260840161090b565b610f3233614083565b600054610100900460ff166146cd5760405162461bcd60e51b815260206004820152602b60248201527f496e697469616c697a61626c653a20636f6e7472616374206973206e6f74206960448201526a6e697469616c697a696e6760a81b606482015260840161090b565b6097805460ff19169055565b6001600160a01b03831615806146f657506001600160a01b038216155b6122c1576001600160a01b038316600090815260d6602052604090205460ff168061473957506001600160a01b038216600090815260d6602052604090205460ff165b6147855760405162461bcd60e51b815260206004820152600f60248201527f4e6f742077686974656c69737465640000000000000000000000000000000000604482015260640161090b565b60d0546040517f4a9511620000000000000000000000000000000000000000000000000000000081526001600160a01b03858116600483015260248201849052600060448301819052606483015290911690634a95116290608401600060405180830381600087803b1580156147fa57600080fd5b505af115801561480e573d6000803e3d6000fd5b505060d0546040516305dc812160e31b81526001600160a01b038681166004830152602482018690529091169250632ee4090891506044016143ac565b6001600160a01b038316156122c1576001600160a01b03831660009081526033602052604090205460ce54604051637f0ea58960e11b81526001600160a01b0386811660048301529091169063fe1d4b129060240160206040518083038186803b1580156148b857600080fd5b505afa1580156148cc573d6000803e3d6000fd5b505050506040513d601f19601f820116820180604052508101906148f09190615091565b11156122c15760405162461bcd60e51b815260206004820152601260248201527f546f6f206d75636820766f746520636173740000000000000000000000000000604482015260640161090b565b60d05460405163095ea7b360e01b81526001600160a01b039182166004820152602481018390529083169063095ea7b390604401602060405180830381600087803b15801561498c57600080fd5b505af11580156149a0573d6000803e3d6000fd5b505050506040513d601f19601f820116820180604052508101906149c4919061505b565b5060d0546040517f8fcf4822000000000000000000000000000000000000000000000000000000008152600481018390526001600160a01b03848116602483015290911690638fcf482290604401602060405180830381600087803b158015614a2c57600080fd5b505af1158015614a40573d6000803e3d6000fd5b505050506040513d601f19601f820116820180604052508101906122c1919061505b565b6040516001600160a01b038085166024830152831660448201526064810182905261097a9085907f23b872dd0000000000000000000000000000000000000000000000000000000090608401613d69565b6000614b0a826040518060400160405280602081526020017f5361666545524332303a206c6f772d6c6576656c2063616c6c206661696c6564815250856001600160a01b0316614b9a9092919063ffffffff16565b8051909150156122c15780806020019051810190614b28919061505b565b6122c15760405162461bcd60e51b815260206004820152602a60248201527f5361666545524332303a204552433230206f7065726174696f6e20646964206e60448201527f6f74207375636365656400000000000000000000000000000000000000000000606482015260840161090b565b6060614ba98484600085614bb1565b949350505050565b606082471015614c295760405162461bcd60e51b815260206004820152602660248201527f416464726573733a20696e73756666696369656e742062616c616e636520666f60448201527f722063616c6c0000000000000000000000000000000000000000000000000000606482015260840161090b565b843b614c775760405162461bcd60e51b815260206004820152601d60248201527f416464726573733a2063616c6c20746f206e6f6e2d636f6e7472616374000000604482015260640161090b565b600080866001600160a01b03168587604051614c93919061525c565b60006040518083038185875af1925050503d8060008114614cd0576040519150601f19603f3d011682016040523d82523d6000602084013e614cd5565b606091505b5091509150614ce5828286614cf0565b979650505050505050565b60608315614cff575081610d6e565b825115614d0f5782518084602001fd5b8160405162461bcd60e51b815260040161090b91906152f0565b828054614d35906153bf565b90600052602060002090601f016020900481019282614d575760008555614d9d565b82601f10614d7057805160ff1916838001178555614d9d565b82800160010185558215614d9d579182015b82811115614d9d578251825591602001919060010190614d82565b50614da9929150614dad565b5090565b5b80821115614da95760008155600101614dae565b60008083601f840112614dd457600080fd5b50813567ffffffffffffffff811115614dec57600080fd5b6020830191508360208260051b8501011115614e0757600080fd5b9250929050565b600060208284031215614e2057600080fd5b8135610d6e81615457565b600060208284031215614e3d57600080fd5b8151610d6e81615457565b60008060408385031215614e5b57600080fd5b8235614e6681615457565b91506020830135614e7681615457565b809150509250929050565b60008060008060608587031215614e9757600080fd5b8435614ea281615457565b93506020850135614eb281615457565b9250604085013567ffffffffffffffff811115614ece57600080fd5b614eda87828801614dc2565b95989497509550505050565b600080600060608486031215614efb57600080fd5b8335614f0681615457565b92506020840135614f1681615457565b929592945050506040919091013590565b600080600060408486031215614f3c57600080fd5b8335614f4781615457565b9250602084013567ffffffffffffffff811115614f6357600080fd5b614f6f86828701614dc2565b9497909650939450505050565b60008060408385031215614f8f57600080fd5b8235614f9a81615457565b91506020830135614e768161546c565b60008060408385031215614fbd57600080fd5b8235614fc881615457565b946020939093013593505050565b600080600080600060a08688031215614fee57600080fd5b8535614ff981615457565b945060208601359350604086013561501081615457565b9250606086013561502081615457565b9150608086013561503081615457565b809150509295509295909350565b60006020828403121561505057600080fd5b8135610d6e8161546c565b60006020828403121561506d57600080fd5b8151610d6e8161546c565b60006020828403121561508a57600080fd5b5035919050565b6000602082840312156150a357600080fd5b5051919050565b600080600080608085870312156150c057600080fd5b8451935060208501516150d281615457565b604086015190935067ffffffffffffffff808211156150f057600080fd5b818701915087601f83011261510457600080fd5b81518181111561511657615116615441565b604051601f8201601f19908116603f0116810190838211818310171561513e5761513e615441565b816040528281528a602084870101111561515757600080fd5b615168836020830160208801615393565b60609990990151979a969950505050505050565b6000806040838503121561518f57600080fd5b823591506020830135614e768161546c565b600080604083850312156151b457600080fd5b50508035926020909101359150565b6000806000606084860312156151d857600080fd5b505081359360208301359350604090920135919050565b60008060006060848603121561520457600080fd5b8351925060208401519150604084015190509250925092565b600080600080600060a0868803121561523557600080fd5b8535945060208601359350604086013592506060860135915060808601356150308161546c565b6000825161526e818460208701615393565b9190910192915050565b602080825282518282018190526000919060409081850190868401855b828110156152e35781518051855286810151878601528581015186860152606080820151908601526080808201519086015260a0908101519085015260c09093019290850190600101615295565b5091979650505050505050565b602081526000825180602084015261530f816040850160208701615393565b601f01601f19169190910160400192915050565b6000821982111561533657615336615415565b500190565b60008261535857634e487b7160e01b600052601260045260246000fd5b500490565b600081600019048311821515161561537757615377615415565b500290565b60008282101561538e5761538e615415565b500390565b60005b838110156153ae578181015183820152602001615396565b8381111561097a5750506000910152565b600181811c908216806153d357607f821691505b602082108114156153f457634e487b7160e01b600052602260045260246000fd5b50919050565b600060001982141561540e5761540e615415565b5060010190565b634e487b7160e01b600052601160045260246000fd5b634e487b7160e01b600052603260045260246000fd5b634e487b7160e01b600052604160045260246000fd5b6001600160a01b03811681146115bc57600080fd5b80151581146115bc57600080fdfea26469706673582212209e31a000e0d69f7e4840cfe2f4cfa80e959b0e3a3559fac38541626ad23a7b3764736f6c63430008070033",
  "bytecodeSha1": "a045fff7980ab2cd0d66bc9809fcda70de400024",
  "compiler": {
    "evm_version": "istanbul",
    "optimizer": {
      "enabled": true,
      "runs": 999
    },
    "version": "0.8.7+commit.e28d00a7"
  },
  "contractName": "LockerV2",
  "language": "Solidity",
  "natspec": {
    "author": "Vector Team",
    "kind": "dev",
    "methods": {
      "allowance(address,address)": {
        "details": "See {IERC20-allowance}."
      },
      "approve(address,uint256)": {
        "details": "See {IERC20-approve}. Requirements: - `spender` cannot be the zero address."
      },
      "balanceOf(address)": {
        "details": "See {IERC20-balanceOf}."
      },
      "decimals()": {
        "details": "Returns the number of decimals used to get its user representation. For example, if `decimals` equals `2`, a balance of `505` tokens should be displayed to a user as `5.05` (`505 / 10 ** 2`). Tokens usually opt for a value of 18, imitating the relationship between Ether and Wei. This is the value {ERC20} uses, unless this function is overridden; NOTE: This information is only used for _display_ purposes: it in no way affects any of the arithmetic of the contract, including {IERC20-balanceOf} and {IERC20-transfer}."
      },
      "decreaseAllowance(address,uint256)": {
        "details": "Atomically decreases the allowance granted to `spender` by the caller. This is an alternative to {approve} that can be used as a mitigation for problems described in {IERC20-approve}. Emits an {Approval} event indicating the updated allowance. Requirements: - `spender` cannot be the zero address. - `spender` must have allowance for the caller of at least `subtractedValue`."
      },
      "getUserNthSlot(address,uint256)": {
        "notice": "Get the n'th user slot info",
        "params": {
          "_user": "the user",
          "n": "the index of the deposit slot"
        }
      },
      "getUserSlotLength(address)": {
        "notice": "Get the number of user deposits",
        "params": {
          "_user": "the user"
        },
        "returns": {
          "_0": "nbDeposits the user number of deposit"
        }
      },
      "getUserTotalDeposit(address)": {
        "notice": "Get the total VTX held by contract for user",
        "params": {
          "_user": "the user"
        },
        "returns": {
          "_0": "the total number of VTX deposited"
        }
      },
      "increaseAllowance(address,uint256)": {
        "details": "Atomically increases the allowance granted to `spender` by the caller. This is an alternative to {approve} that can be used as a mitigation for problems described in {IERC20-approve}. Emits an {Approval} event indicating the updated allowance. Requirements: - `spender` cannot be the zero address."
      },
      "name()": {
        "details": "Returns the name of the token."
      },
      "owner()": {
        "details": "Returns the address of the current owner."
      },
      "paused()": {
        "details": "Returns true if the contract is paused, and false otherwise."
      },
      "renounceOwnership()": {
        "details": "Leaves the contract without owner. It will not be possible to call `onlyOwner` functions anymore. Can only be called by the current owner. NOTE: Renouncing ownership will leave the contract without an owner, thereby removing any functionality that is only available to the owner."
      },
      "setMaxSlots(uint256)": {
        "notice": "Change the max number of unlocking slots",
        "params": {
          "_maxDeposits": "the new max number"
        }
      },
      "symbol()": {
        "details": "Returns the symbol of the token, usually a shorter version of the name."
      },
      "totalSupply()": {
        "details": "See {IERC20-totalSupply}."
      },
      "transfer(address,uint256)": {
        "details": "See {IERC20-transfer}. Requirements: - `recipient` cannot be the zero address. - the caller must have a balance of at least `amount`."
      },
      "transferFrom(address,address,uint256)": {
        "details": "See {IERC20-transferFrom}. Emits an {Approval} event indicating the updated allowance. This is not required by the EIP. See the note at the beginning of {ERC20}. Requirements: - `sender` and `recipient` cannot be the zero address. - `sender` must have a balance of at least `amount`. - the caller must have allowance for ``sender``'s tokens of at least `amount`."
      },
      "transferOwnership(address)": {
        "details": "Transfers ownership of the contract to a new account (`newOwner`). Can only be called by the current owner."
      }
    },
    "title": "Locker",
    "version": 1
  },
  "opcodes": "PUSH1 0x80 PUSH1 0x40 MSTORE CALLVALUE DUP1 ISZERO PUSH2 0x10 JUMPI PUSH1 0x0 DUP1 REVERT JUMPDEST POP PUSH1 0x4 CALLDATASIZE LT PUSH2 0x36D JUMPI PUSH1 0x0 CALLDATALOAD PUSH1 0xE0 SHR DUP1 PUSH4 0x819BFD9E GT PUSH2 0x1D3 JUMPI DUP1 PUSH4 0xC8691AFE GT PUSH2 0x104 JUMPI DUP1 PUSH4 0xDCC3E06E GT PUSH2 0xA2 JUMPI DUP1 PUSH4 0xE2A578CD GT PUSH2 0x7C JUMPI DUP1 PUSH4 0xE2A578CD EQ PUSH2 0x7D5 JUMPI DUP1 PUSH4 0xE55C8273 EQ PUSH2 0x7E8 JUMPI DUP1 PUSH4 0xF2FDE38B EQ PUSH2 0x7FB JUMPI DUP1 PUSH4 0xF6B420CA EQ PUSH2 0x80E JUMPI PUSH1 0x0 DUP1 REVERT JUMPDEST DUP1 PUSH4 0xDCC3E06E EQ PUSH2 0x776 JUMPI DUP1 PUSH4 0xDD62ED3E EQ PUSH2 0x789 JUMPI DUP1 PUSH4 0xDDEAE033 EQ PUSH2 0x7C2 JUMPI PUSH1 0x0 DUP1 REVERT JUMPDEST DUP1 PUSH4 0xD0EA93D8 GT PUSH2 0xDE JUMPI DUP1 PUSH4 0xD0EA93D8 EQ PUSH2 0x714 JUMPI DUP1 PUSH4 0xD256C38C EQ PUSH2 0x73D JUMPI DUP1 PUSH4 0xD6B1C1F7 EQ PUSH2 0x750 JUMPI DUP1 PUSH4 0xDC4794B2 EQ PUSH2 0x763 JUMPI PUSH1 0x0 DUP1 REVERT JUMPDEST DUP1 PUSH4 0xC8691AFE EQ PUSH2 0x6E5 JUMPI DUP1 PUSH4 0xCC442E0F EQ PUSH2 0x6EE JUMPI DUP1 PUSH4 0xCF26B0C7 EQ PUSH2 0x701 JUMPI PUSH1 0x0 DUP1 REVERT JUMPDEST DUP1 PUSH4 0x9E928435 GT PUSH2 0x171 JUMPI DUP1 PUSH4 0xA9059CBB GT PUSH2 0x14B JUMPI DUP1 PUSH4 0xA9059CBB EQ PUSH2 0x699 JUMPI DUP1 PUSH4 0xA94C98CA EQ PUSH2 0x6AC JUMPI DUP1 PUSH4 0xAF52247C EQ PUSH2 0x6BF JUMPI DUP1 PUSH4 0xB6B55F25 EQ PUSH2 0x6D2 JUMPI PUSH1 0x0 DUP1 REVERT JUMPDEST DUP1 PUSH4 0x9E928435 EQ PUSH2 0x660 JUMPI DUP1 PUSH4 0xA457C2D7 EQ PUSH2 0x673 JUMPI DUP1 PUSH4 0xA4C828DC EQ PUSH2 0x686 JUMPI PUSH1 0x0 DUP1 REVERT JUMPDEST DUP1 PUSH4 0x87312309 GT PUSH2 0x1AD JUMPI DUP1 PUSH4 0x87312309 EQ PUSH2 0x5FE JUMPI DUP1 PUSH4 0x8DA5CB5B EQ PUSH2 0x63E JUMPI DUP1 PUSH4 0x918F8674 EQ PUSH2 0x64F JUMPI DUP1 PUSH4 0x95D89B41 EQ PUSH2 0x658 JUMPI PUSH1 0x0 DUP1 REVERT JUMPDEST DUP1 PUSH4 0x819BFD9E EQ PUSH2 0x5C3 JUMPI DUP1 PUSH4 0x83A24B4D EQ PUSH2 0x5D6 JUMPI DUP1 PUSH4 0x8456CB59 EQ PUSH2 0x5F6 JUMPI PUSH1 0x0 DUP1 REVERT JUMPDEST DUP1 PUSH4 0x4BA0A5EE GT PUSH2 0x2AD JUMPI DUP1 PUSH4 0x62860110 GT PUSH2 0x24B JUMPI DUP1 PUSH4 0x71F8DA53 GT PUSH2 0x225 JUMPI DUP1 PUSH4 0x71F8DA53 EQ PUSH2 0x54F JUMPI DUP1 PUSH4 0x72F702F3 EQ PUSH2 0x562 JUMPI DUP1 PUSH4 0x79C94062 EQ PUSH2 0x58D JUMPI DUP1 PUSH4 0x7FFBE241 EQ PUSH2 0x5A0 JUMPI PUSH1 0x0 DUP1 REVERT JUMPDEST DUP1 PUSH4 0x62860110 EQ PUSH2 0x516 JUMPI DUP1 PUSH4 0x70A08231 EQ PUSH2 0x51E JUMPI DUP1 PUSH4 0x715018A6 EQ PUSH2 0x547 JUMPI PUSH1 0x0 DUP1 REVERT JUMPDEST DUP1 PUSH4 0x5A1AE6E6 GT PUSH2 0x287 JUMPI DUP1 PUSH4 0x5A1AE6E6 EQ PUSH2 0x4AB JUMPI DUP1 PUSH4 0x5C1CB9B9 EQ PUSH2 0x4EF JUMPI DUP1 PUSH4 0x5C975ABB EQ PUSH2 0x4F8 JUMPI DUP1 PUSH4 0x6198E339 EQ PUSH2 0x503 JUMPI PUSH1 0x0 DUP1 REVERT JUMPDEST DUP1 PUSH4 0x4BA0A5EE EQ PUSH2 0x478 JUMPI DUP1 PUSH4 0x4E71D92D EQ PUSH2 0x49B JUMPI DUP1 PUSH4 0x56891412 EQ PUSH2 0x4A3 JUMPI PUSH1 0x0 DUP1 REVERT JUMPDEST DUP1 PUSH4 0x225D95A7 GT PUSH2 0x31A JUMPI DUP1 PUSH4 0x313CE567 GT PUSH2 0x2F4 JUMPI DUP1 PUSH4 0x313CE567 EQ PUSH2 0x446 JUMPI DUP1 PUSH4 0x39509351 EQ PUSH2 0x455 JUMPI DUP1 PUSH4 0x3F4BA83A EQ PUSH2 0x468 JUMPI DUP1 PUSH4 0x4641257D EQ PUSH2 0x470 JUMPI PUSH1 0x0 DUP1 REVERT JUMPDEST DUP1 PUSH4 0x225D95A7 EQ PUSH2 0x40D JUMPI DUP1 PUSH4 0x23B872DD EQ PUSH2 0x420 JUMPI DUP1 PUSH4 0x2F4F21E2 EQ PUSH2 0x433 JUMPI PUSH1 0x0 DUP1 REVERT JUMPDEST DUP1 PUSH4 0x18160DDD GT PUSH2 0x34B JUMPI DUP1 PUSH4 0x18160DDD EQ PUSH2 0x3C8 JUMPI DUP1 PUSH4 0x215B389A EQ PUSH2 0x3DA JUMPI DUP1 PUSH4 0x2216DBF7 EQ PUSH2 0x3ED JUMPI PUSH1 0x0 DUP1 REVERT JUMPDEST DUP1 PUSH4 0x6FDDE03 EQ PUSH2 0x372 JUMPI DUP1 PUSH4 0x95EA7B3 EQ PUSH2 0x390 JUMPI DUP1 PUSH4 0x9B0499D EQ PUSH2 0x3B3 JUMPI JUMPDEST PUSH1 0x0 DUP1 REVERT JUMPDEST PUSH2 0x37A PUSH2 0x821 JUMP JUMPDEST PUSH1 0x40 MLOAD PUSH2 0x387 SWAP2 SWAP1 PUSH2 0x52F0 JUMP JUMPDEST PUSH1 0x40 MLOAD DUP1 SWAP2 SUB SWAP1 RETURN JUMPDEST PUSH2 0x3A3 PUSH2 0x39E CALLDATASIZE PUSH1 0x4 PUSH2 0x4FAA JUMP JUMPDEST PUSH2 0x8B3 JUMP JUMPDEST PUSH1 0x40 MLOAD SWAP1 ISZERO ISZERO DUP2 MSTORE PUSH1 0x20 ADD PUSH2 0x387 JUMP JUMPDEST PUSH2 0x3C6 PUSH2 0x3C1 CALLDATASIZE PUSH1 0x4 PUSH2 0x4E81 JUMP JUMPDEST PUSH2 0x8C9 JUMP JUMPDEST STOP JUMPDEST PUSH1 0x35 SLOAD JUMPDEST PUSH1 0x40 MLOAD SWAP1 DUP2 MSTORE PUSH1 0x20 ADD PUSH2 0x387 JUMP JUMPDEST PUSH2 0x3C6 PUSH2 0x3E8 CALLDATASIZE PUSH1 0x4 PUSH2 0x4FD6 JUMP JUMPDEST PUSH2 0x980 JUMP JUMPDEST PUSH2 0x3CC PUSH2 0x3FB CALLDATASIZE PUSH1 0x4 PUSH2 0x4E0E JUMP JUMPDEST PUSH1 0xD2 PUSH1 0x20 MSTORE PUSH1 0x0 SWAP1 DUP2 MSTORE PUSH1 0x40 SWAP1 KECCAK256 SLOAD DUP2 JUMP JUMPDEST PUSH2 0x3C6 PUSH2 0x41B CALLDATASIZE PUSH1 0x4 PUSH2 0x4F7C JUMP JUMPDEST PUSH2 0xC2F JUMP JUMPDEST PUSH2 0x3A3 PUSH2 0x42E CALLDATASIZE PUSH1 0x4 PUSH2 0x4EE6 JUMP JUMPDEST PUSH2 0xCB4 JUMP JUMPDEST PUSH2 0x3C6 PUSH2 0x441 CALLDATASIZE PUSH1 0x4 PUSH2 0x4FAA JUMP JUMPDEST PUSH2 0xD75 JUMP JUMPDEST PUSH1 0x40 MLOAD PUSH1 0x12 DUP2 MSTORE PUSH1 0x20 ADD PUSH2 0x387 JUMP JUMPDEST PUSH2 0x3A3 PUSH2 0x463 CALLDATASIZE PUSH1 0x4 PUSH2 0x4FAA JUMP JUMPDEST PUSH2 0xE94 JUMP JUMPDEST PUSH2 0x3C6 PUSH2 0xED0 JUMP JUMPDEST PUSH2 0x3C6 PUSH2 0xF34 JUMP JUMPDEST PUSH2 0x3A3 PUSH2 0x486 CALLDATASIZE PUSH1 0x4 PUSH2 0x4E0E JUMP JUMPDEST PUSH1 0xD5 PUSH1 0x20 MSTORE PUSH1 0x0 SWAP1 DUP2 MSTORE PUSH1 0x40 SWAP1 KECCAK256 SLOAD PUSH1 0xFF AND DUP2 JUMP JUMPDEST PUSH2 0x3C6 PUSH2 0xF3C JUMP JUMPDEST PUSH2 0x3CC PUSH2 0x1055 JUMP JUMPDEST PUSH2 0x4BE PUSH2 0x4B9 CALLDATASIZE PUSH1 0x4 PUSH2 0x5078 JUMP JUMPDEST PUSH2 0x1072 JUMP JUMPDEST PUSH1 0x40 DUP1 MLOAD SWAP7 DUP8 MSTORE PUSH1 0x20 DUP8 ADD SWAP6 SWAP1 SWAP6 MSTORE SWAP4 DUP6 ADD SWAP3 SWAP1 SWAP3 MSTORE PUSH1 0x60 DUP5 ADD MSTORE ISZERO ISZERO PUSH1 0x80 DUP4 ADD MSTORE ISZERO ISZERO PUSH1 0xA0 DUP3 ADD MSTORE PUSH1 0xC0 ADD PUSH2 0x387 JUMP JUMPDEST PUSH2 0x3CC PUSH1 0xCD SLOAD DUP2 JUMP JUMPDEST PUSH1 0x97 SLOAD PUSH1 0xFF AND PUSH2 0x3A3 JUMP JUMPDEST PUSH2 0x3C6 PUSH2 0x511 CALLDATASIZE PUSH1 0x4 PUSH2 0x5078 JUMP JUMPDEST PUSH2 0x10BF JUMP JUMPDEST PUSH2 0x3C6 PUSH2 0x15BF JUMP JUMPDEST PUSH2 0x3CC PUSH2 0x52C CALLDATASIZE PUSH1 0x4 PUSH2 0x4E0E JUMP JUMPDEST PUSH1 0x1 PUSH1 0x1 PUSH1 0xA0 SHL SUB AND PUSH1 0x0 SWAP1 DUP2 MSTORE PUSH1 0x33 PUSH1 0x20 MSTORE PUSH1 0x40 SWAP1 KECCAK256 SLOAD SWAP1 JUMP JUMPDEST PUSH2 0x3C6 PUSH2 0x1802 JUMP JUMPDEST PUSH2 0x3C6 PUSH2 0x55D CALLDATASIZE PUSH1 0x4 PUSH2 0x521D JUMP JUMPDEST PUSH2 0x1866 JUMP JUMPDEST PUSH1 0xCA SLOAD PUSH2 0x575 SWAP1 PUSH1 0x1 PUSH1 0x1 PUSH1 0xA0 SHL SUB AND DUP2 JUMP JUMPDEST PUSH1 0x40 MLOAD PUSH1 0x1 PUSH1 0x1 PUSH1 0xA0 SHL SUB SWAP1 SWAP2 AND DUP2 MSTORE PUSH1 0x20 ADD PUSH2 0x387 JUMP JUMPDEST PUSH2 0x3C6 PUSH2 0x59B CALLDATASIZE PUSH1 0x4 PUSH2 0x5078 JUMP JUMPDEST PUSH2 0x1A95 JUMP JUMPDEST PUSH2 0x3A3 PUSH2 0x5AE CALLDATASIZE PUSH1 0x4 PUSH2 0x4E0E JUMP JUMPDEST PUSH1 0xD6 PUSH1 0x20 MSTORE PUSH1 0x0 SWAP1 DUP2 MSTORE PUSH1 0x40 SWAP1 KECCAK256 SLOAD PUSH1 0xFF AND DUP2 JUMP JUMPDEST PUSH2 0x3C6 PUSH2 0x5D1 CALLDATASIZE PUSH1 0x4 PUSH2 0x5078 JUMP JUMPDEST PUSH2 0x1B45 JUMP JUMPDEST PUSH2 0x5E9 PUSH2 0x5E4 CALLDATASIZE PUSH1 0x4 PUSH2 0x4E0E JUMP JUMPDEST PUSH2 0x1B52 JUMP JUMPDEST PUSH1 0x40 MLOAD PUSH2 0x387 SWAP2 SWAP1 PUSH2 0x5278 JUMP JUMPDEST PUSH2 0x3C6 PUSH2 0x1CBE JUMP JUMPDEST PUSH2 0x611 PUSH2 0x60C CALLDATASIZE PUSH1 0x4 PUSH2 0x4FAA JUMP JUMPDEST PUSH2 0x1D20 JUMP JUMPDEST PUSH1 0x40 DUP1 MLOAD SWAP7 DUP8 MSTORE PUSH1 0x20 DUP8 ADD SWAP6 SWAP1 SWAP6 MSTORE SWAP4 DUP6 ADD SWAP3 SWAP1 SWAP3 MSTORE PUSH1 0x60 DUP5 ADD MSTORE PUSH1 0x80 DUP4 ADD MSTORE PUSH1 0xA0 DUP3 ADD MSTORE PUSH1 0xC0 ADD PUSH2 0x387 JUMP JUMPDEST PUSH1 0x65 SLOAD PUSH1 0x1 PUSH1 0x1 PUSH1 0xA0 SHL SUB AND PUSH2 0x575 JUMP JUMPDEST PUSH2 0x3CC PUSH2 0x2710 DUP2 JUMP JUMPDEST PUSH2 0x37A PUSH2 0x1D74 JUMP JUMPDEST PUSH1 0xC9 SLOAD PUSH2 0x575 SWAP1 PUSH1 0x1 PUSH1 0x1 PUSH1 0xA0 SHL SUB AND DUP2 JUMP JUMPDEST PUSH2 0x3A3 PUSH2 0x681 CALLDATASIZE PUSH1 0x4 PUSH2 0x4FAA JUMP JUMPDEST PUSH2 0x1D83 JUMP JUMPDEST PUSH2 0x3CC PUSH2 0x694 CALLDATASIZE PUSH1 0x4 PUSH2 0x4E0E JUMP JUMPDEST PUSH2 0x1E34 JUMP JUMPDEST PUSH2 0x3A3 PUSH2 0x6A7 CALLDATASIZE PUSH1 0x4 PUSH2 0x4FAA JUMP JUMPDEST PUSH2 0x1E68 JUMP JUMPDEST PUSH2 0x611 PUSH2 0x6BA CALLDATASIZE PUSH1 0x4 PUSH2 0x4FAA JUMP JUMPDEST PUSH2 0x1E75 JUMP JUMPDEST PUSH2 0x3CC PUSH2 0x6CD CALLDATASIZE PUSH1 0x4 PUSH2 0x4E0E JUMP JUMPDEST PUSH2 0x1EF8 JUMP JUMPDEST PUSH2 0x3C6 PUSH2 0x6E0 CALLDATASIZE PUSH1 0x4 PUSH2 0x5078 JUMP JUMPDEST PUSH2 0x212B JUMP JUMPDEST PUSH2 0x3CC PUSH1 0xCC SLOAD DUP2 JUMP JUMPDEST PUSH1 0xCF SLOAD PUSH2 0x575 SWAP1 PUSH1 0x1 PUSH1 0x1 PUSH1 0xA0 SHL SUB AND DUP2 JUMP JUMPDEST PUSH2 0x3C6 PUSH2 0x70F CALLDATASIZE PUSH1 0x4 PUSH2 0x4E0E JUMP JUMPDEST PUSH2 0x218C JUMP JUMPDEST PUSH2 0x3CC PUSH2 0x722 CALLDATASIZE PUSH1 0x4 PUSH2 0x4E0E JUMP JUMPDEST PUSH1 0x1 PUSH1 0x1 PUSH1 0xA0 SHL SUB AND PUSH1 0x0 SWAP1 DUP2 MSTORE PUSH1 0xD3 PUSH1 0x20 MSTORE PUSH1 0x40 SWAP1 KECCAK256 SLOAD SWAP1 JUMP JUMPDEST PUSH1 0xCB SLOAD PUSH2 0x575 SWAP1 PUSH1 0x1 PUSH1 0x1 PUSH1 0xA0 SHL SUB AND DUP2 JUMP JUMPDEST PUSH2 0x3C6 PUSH2 0x75E CALLDATASIZE PUSH1 0x4 PUSH2 0x4F27 JUMP JUMPDEST PUSH2 0x2215 JUMP JUMPDEST PUSH2 0x3C6 PUSH2 0x771 CALLDATASIZE PUSH1 0x4 PUSH2 0x51C3 JUMP JUMPDEST PUSH2 0x22C6 JUMP JUMPDEST PUSH1 0xD0 SLOAD PUSH2 0x575 SWAP1 PUSH1 0x1 PUSH1 0x1 PUSH1 0xA0 SHL SUB AND DUP2 JUMP JUMPDEST PUSH2 0x3CC PUSH2 0x797 CALLDATASIZE PUSH1 0x4 PUSH2 0x4E48 JUMP JUMPDEST PUSH1 0x1 PUSH1 0x1 PUSH1 0xA0 SHL SUB SWAP2 DUP3 AND PUSH1 0x0 SWAP1 DUP2 MSTORE PUSH1 0x34 PUSH1 0x20 SWAP1 DUP2 MSTORE PUSH1 0x40 DUP1 DUP4 KECCAK256 SWAP4 SWAP1 SWAP5 AND DUP3 MSTORE SWAP2 SWAP1 SWAP2 MSTORE KECCAK256 SLOAD SWAP1 JUMP JUMPDEST PUSH2 0x3C6 PUSH2 0x7D0 CALLDATASIZE PUSH1 0x4 PUSH2 0x4E0E JUMP JUMPDEST PUSH2 0x2AC5 JUMP JUMPDEST PUSH1 0xCE SLOAD PUSH2 0x575 SWAP1 PUSH1 0x1 PUSH1 0x1 PUSH1 0xA0 SHL SUB AND DUP2 JUMP JUMPDEST PUSH2 0x3C6 PUSH2 0x7F6 CALLDATASIZE PUSH1 0x4 PUSH2 0x51A1 JUMP JUMPDEST PUSH2 0x2B1C JUMP JUMPDEST PUSH2 0x3C6 PUSH2 0x809 CALLDATASIZE PUSH1 0x4 PUSH2 0x4E0E JUMP JUMPDEST PUSH2 0x2C1C JUMP JUMPDEST PUSH2 0x3C6 PUSH2 0x81C CALLDATASIZE PUSH1 0x4 PUSH2 0x517C JUMP JUMPDEST PUSH2 0x2CFB JUMP JUMPDEST PUSH1 0x60 PUSH1 0x36 DUP1 SLOAD PUSH2 0x830 SWAP1 PUSH2 0x53BF JUMP JUMPDEST DUP1 PUSH1 0x1F ADD PUSH1 0x20 DUP1 SWAP2 DIV MUL PUSH1 0x20 ADD PUSH1 0x40 MLOAD SWAP1 DUP2 ADD PUSH1 0x40 MSTORE DUP1 SWAP3 SWAP2 SWAP1 DUP2 DUP2 MSTORE PUSH1 0x20 ADD DUP3 DUP1 SLOAD PUSH2 0x85C SWAP1 PUSH2 0x53BF JUMP JUMPDEST DUP1 ISZERO PUSH2 0x8A9 JUMPI DUP1 PUSH1 0x1F LT PUSH2 0x87E JUMPI PUSH2 0x100 DUP1 DUP4 SLOAD DIV MUL DUP4 MSTORE SWAP2 PUSH1 0x20 ADD SWAP2 PUSH2 0x8A9 JUMP JUMPDEST DUP3 ADD SWAP2 SWAP1 PUSH1 0x0 MSTORE PUSH1 0x20 PUSH1 0x0 KECCAK256 SWAP1 JUMPDEST DUP2 SLOAD DUP2 MSTORE SWAP1 PUSH1 0x1 ADD SWAP1 PUSH1 0x20 ADD DUP1 DUP4 GT PUSH2 0x88C JUMPI DUP3 SWAP1 SUB PUSH1 0x1F AND DUP3 ADD SWAP2 JUMPDEST POP POP POP POP POP SWAP1 POP SWAP1 JUMP JUMPDEST PUSH1 0x0 PUSH2 0x8C0 CALLER DUP5 DUP5 PUSH2 0x2D95 JUMP JUMPDEST POP PUSH1 0x1 SWAP3 SWAP2 POP POP JUMP JUMPDEST PUSH1 0x97 SLOAD PUSH1 0xFF AND ISZERO PUSH2 0x914 JUMPI PUSH1 0x40 MLOAD PUSH3 0x461BCD PUSH1 0xE5 SHL DUP2 MSTORE PUSH1 0x20 PUSH1 0x4 DUP3 ADD MSTORE PUSH1 0x10 PUSH1 0x24 DUP3 ADD MSTORE PUSH16 0x14185D5CD8589B194E881C185D5CD959 PUSH1 0x82 SHL PUSH1 0x44 DUP3 ADD MSTORE PUSH1 0x64 ADD JUMPDEST PUSH1 0x40 MLOAD DUP1 SWAP2 SUB SWAP1 REVERT JUMPDEST PUSH1 0xC9 SLOAD PUSH1 0x1 PUSH1 0x1 PUSH1 0xA0 SHL SUB AND CALLER EQ PUSH2 0x96E JUMPI PUSH1 0x40 MLOAD PUSH3 0x461BCD PUSH1 0xE5 SHL DUP2 MSTORE PUSH1 0x20 PUSH1 0x4 DUP3 ADD MSTORE PUSH1 0x10 PUSH1 0x24 DUP3 ADD MSTORE PUSH32 0x4F6E6C79204D6173746572636869656600000000000000000000000000000000 PUSH1 0x44 DUP3 ADD MSTORE PUSH1 0x64 ADD PUSH2 0x90B JUMP JUMPDEST PUSH2 0x97A DUP5 DUP5 DUP5 DUP5 PUSH2 0x2EEE JUMP JUMPDEST POP POP POP POP JUMP JUMPDEST PUSH1 0x0 SLOAD PUSH2 0x100 SWAP1 DIV PUSH1 0xFF AND PUSH2 0x99B JUMPI PUSH1 0x0 SLOAD PUSH1 0xFF AND ISZERO PUSH2 0x99F JUMP JUMPDEST ADDRESS EXTCODESIZE ISZERO JUMPDEST PUSH2 0xA11 JUMPI PUSH1 0x40 MLOAD PUSH3 0x461BCD PUSH1 0xE5 SHL DUP2 MSTORE PUSH1 0x20 PUSH1 0x4 DUP3 ADD MSTORE PUSH1 0x2E PUSH1 0x24 DUP3 ADD MSTORE PUSH32 0x496E697469616C697A61626C653A20636F6E747261637420697320616C726561 PUSH1 0x44 DUP3 ADD MSTORE PUSH32 0x647920696E697469616C697A6564000000000000000000000000000000000000 PUSH1 0x64 DUP3 ADD MSTORE PUSH1 0x84 ADD PUSH2 0x90B JUMP JUMPDEST PUSH1 0x0 SLOAD PUSH2 0x100 SWAP1 DIV PUSH1 0xFF AND ISZERO DUP1 ISZERO PUSH2 0xA33 JUMPI PUSH1 0x0 DUP1 SLOAD PUSH2 0xFFFF NOT AND PUSH2 0x101 OR SWAP1 SSTORE JUMPDEST PUSH2 0xAA7 PUSH1 0x40 MLOAD DUP1 PUSH1 0x40 ADD PUSH1 0x40 MSTORE DUP1 PUSH1 0xA DUP2 MSTORE PUSH1 0x20 ADD PUSH32 0x4C6F636B65642056545800000000000000000000000000000000000000000000 DUP2 MSTORE POP PUSH1 0x40 MLOAD DUP1 PUSH1 0x40 ADD PUSH1 0x40 MSTORE DUP1 PUSH1 0x6 DUP2 MSTORE PUSH1 0x20 ADD PUSH32 0x4C56545876320000000000000000000000000000000000000000000000000000 DUP2 MSTORE POP PUSH2 0x33C9 JUMP JUMPDEST PUSH2 0xAAF PUSH2 0x3446 JUMP JUMPDEST PUSH2 0xAB7 PUSH2 0x34C1 JUMP JUMPDEST PUSH1 0x0 DUP6 GT PUSH2 0xB07 JUMPI PUSH1 0x40 MLOAD PUSH3 0x461BCD PUSH1 0xE5 SHL DUP2 MSTORE PUSH1 0x20 PUSH1 0x4 DUP3 ADD MSTORE PUSH1 0x1C PUSH1 0x24 DUP3 ADD MSTORE PUSH32 0x4D617820736C6F74732073686F756C64206E6F74206265206E756C6C00000000 PUSH1 0x44 DUP3 ADD MSTORE PUSH1 0x64 ADD PUSH2 0x90B JUMP JUMPDEST PUSH1 0xCC DUP6 SWAP1 SSTORE PUSH1 0xC9 DUP1 SLOAD PUSH1 0x1 PUSH1 0x1 PUSH1 0xA0 SHL SUB DUP1 DUP10 AND PUSH20 0xFFFFFFFFFFFFFFFFFFFFFFFFFFFFFFFFFFFFFFFF NOT SWAP3 DUP4 AND DUP2 OR SWAP1 SWAP4 SSTORE PUSH1 0xCB DUP1 SLOAD DUP9 DUP4 AND SWAP1 DUP5 AND OR SWAP1 SSTORE PUSH1 0xCA DUP1 SLOAD DUP7 DUP4 AND SWAP1 DUP5 AND OR SWAP1 SSTORE PUSH1 0xD0 DUP1 SLOAD SWAP2 DUP8 AND SWAP2 SWAP1 SWAP3 AND OR SWAP1 SSTORE PUSH1 0x40 DUP1 MLOAD PUSH32 0xB76AE05E00000000000000000000000000000000000000000000000000000000 DUP2 MSTORE SWAP1 MLOAD PUSH4 0xB76AE05E SWAP2 PUSH1 0x4 DUP1 DUP3 ADD SWAP3 PUSH1 0x20 SWAP3 SWAP1 SWAP2 SWAP1 DUP3 SWAP1 SUB ADD DUP2 DUP7 DUP1 EXTCODESIZE ISZERO DUP1 ISZERO PUSH2 0xBB0 JUMPI PUSH1 0x0 DUP1 REVERT JUMPDEST POP GAS STATICCALL ISZERO DUP1 ISZERO PUSH2 0xBC4 JUMPI RETURNDATASIZE PUSH1 0x0 DUP1 RETURNDATACOPY RETURNDATASIZE PUSH1 0x0 REVERT JUMPDEST POP POP POP POP PUSH1 0x40 MLOAD RETURNDATASIZE PUSH1 0x1F NOT PUSH1 0x1F DUP3 ADD AND DUP3 ADD DUP1 PUSH1 0x40 MSTORE POP DUP2 ADD SWAP1 PUSH2 0xBE8 SWAP2 SWAP1 PUSH2 0x4E2B JUMP JUMPDEST PUSH1 0xCF DUP1 SLOAD PUSH20 0xFFFFFFFFFFFFFFFFFFFFFFFFFFFFFFFFFFFFFFFF NOT AND PUSH1 0x1 PUSH1 0x1 PUSH1 0xA0 SHL SUB SWAP3 SWAP1 SWAP3 AND SWAP2 SWAP1 SWAP2 OR SWAP1 SSTORE DUP1 ISZERO PUSH2 0xC27 JUMPI PUSH1 0x0 DUP1 SLOAD PUSH2 0xFF00 NOT AND SWAP1 SSTORE JUMPDEST POP POP POP POP POP POP JUMP JUMPDEST PUSH1 0x65 SLOAD PUSH1 0x1 PUSH1 0x1 PUSH1 0xA0 SHL SUB AND CALLER EQ PUSH2 0xC89 JUMPI PUSH1 0x40 MLOAD PUSH3 0x461BCD PUSH1 0xE5 SHL DUP2 MSTORE PUSH1 0x20 PUSH1 0x4 DUP3 ADD DUP2 SWAP1 MSTORE PUSH1 0x24 DUP3 ADD MSTORE PUSH32 0x4F776E61626C653A2063616C6C6572206973206E6F7420746865206F776E6572 PUSH1 0x44 DUP3 ADD MSTORE PUSH1 0x64 ADD PUSH2 0x90B JUMP JUMPDEST PUSH1 0x1 PUSH1 0x1 PUSH1 0xA0 SHL SUB SWAP2 SWAP1 SWAP2 AND PUSH1 0x0 SWAP1 DUP2 MSTORE PUSH1 0xD6 PUSH1 0x20 MSTORE PUSH1 0x40 SWAP1 KECCAK256 DUP1 SLOAD PUSH1 0xFF NOT AND SWAP2 ISZERO ISZERO SWAP2 SWAP1 SWAP2 OR SWAP1 SSTORE JUMP JUMPDEST PUSH1 0x0 PUSH2 0xCC1 DUP5 DUP5 DUP5 PUSH2 0x353C JUMP JUMPDEST PUSH1 0x1 PUSH1 0x1 PUSH1 0xA0 SHL SUB DUP5 AND PUSH1 0x0 SWAP1 DUP2 MSTORE PUSH1 0x34 PUSH1 0x20 SWAP1 DUP2 MSTORE PUSH1 0x40 DUP1 DUP4 KECCAK256 CALLER DUP5 MSTORE SWAP1 SWAP2 MSTORE SWAP1 KECCAK256 SLOAD DUP3 DUP2 LT ISZERO PUSH2 0xD5B JUMPI PUSH1 0x40 MLOAD PUSH3 0x461BCD PUSH1 0xE5 SHL DUP2 MSTORE PUSH1 0x20 PUSH1 0x4 DUP3 ADD MSTORE PUSH1 0x28 PUSH1 0x24 DUP3 ADD MSTORE PUSH32 0x45524332303A207472616E7366657220616D6F756E7420657863656564732061 PUSH1 0x44 DUP3 ADD MSTORE PUSH32 0x6C6C6F77616E6365000000000000000000000000000000000000000000000000 PUSH1 0x64 DUP3 ADD MSTORE PUSH1 0x84 ADD PUSH2 0x90B JUMP JUMPDEST PUSH2 0xD68 DUP6 CALLER DUP6 DUP5 SUB PUSH2 0x2D95 JUMP JUMPDEST PUSH1 0x1 SWAP2 POP POP JUMPDEST SWAP4 SWAP3 POP POP POP JUMP JUMPDEST PUSH1 0x97 SLOAD PUSH1 0xFF AND ISZERO PUSH2 0xDBB JUMPI PUSH1 0x40 MLOAD PUSH3 0x461BCD PUSH1 0xE5 SHL DUP2 MSTORE PUSH1 0x20 PUSH1 0x4 DUP3 ADD MSTORE PUSH1 0x10 PUSH1 0x24 DUP3 ADD MSTORE PUSH16 0x14185D5CD8589B194E881C185D5CD959 PUSH1 0x82 SHL PUSH1 0x44 DUP3 ADD MSTORE PUSH1 0x64 ADD PUSH2 0x90B JUMP JUMPDEST PUSH2 0xDC3 PUSH2 0x3764 JUMP JUMPDEST PUSH2 0xDCE CALLER DUP4 DUP4 PUSH2 0x38F5 JUMP JUMPDEST PUSH2 0xDD6 PUSH2 0x1055 JUMP JUMPDEST PUSH1 0xCF SLOAD PUSH1 0x40 MLOAD PUSH4 0x70A08231 PUSH1 0xE0 SHL DUP2 MSTORE ADDRESS PUSH1 0x4 DUP3 ADD MSTORE PUSH1 0x1 PUSH1 0x1 PUSH1 0xA0 SHL SUB SWAP1 SWAP2 AND SWAP1 PUSH4 0x70A08231 SWAP1 PUSH1 0x24 ADD PUSH1 0x20 PUSH1 0x40 MLOAD DUP1 DUP4 SUB DUP2 DUP7 DUP1 EXTCODESIZE ISZERO DUP1 ISZERO PUSH2 0xE19 JUMPI PUSH1 0x0 DUP1 REVERT JUMPDEST POP GAS STATICCALL ISZERO DUP1 ISZERO PUSH2 0xE2D JUMPI RETURNDATASIZE PUSH1 0x0 DUP1 RETURNDATACOPY RETURNDATASIZE PUSH1 0x0 REVERT JUMPDEST POP POP POP POP PUSH1 0x40 MLOAD RETURNDATASIZE PUSH1 0x1F NOT PUSH1 0x1F DUP3 ADD AND DUP3 ADD DUP1 PUSH1 0x40 MSTORE POP DUP2 ADD SWAP1 PUSH2 0xE51 SWAP2 SWAP1 PUSH2 0x5091 JUMP JUMPDEST LT ISZERO PUSH2 0xE90 JUMPI PUSH1 0x40 MLOAD PUSH3 0x461BCD PUSH1 0xE5 SHL DUP2 MSTORE PUSH1 0x20 PUSH1 0x4 DUP3 ADD MSTORE PUSH1 0xE PUSH1 0x24 DUP3 ADD MSTORE PUSH14 0x10D492551250D053081190555315 PUSH1 0x92 SHL PUSH1 0x44 DUP3 ADD MSTORE PUSH1 0x64 ADD PUSH2 0x90B JUMP JUMPDEST POP POP JUMP JUMPDEST CALLER PUSH1 0x0 DUP2 DUP2 MSTORE PUSH1 0x34 PUSH1 0x20 SWAP1 DUP2 MSTORE PUSH1 0x40 DUP1 DUP4 KECCAK256 PUSH1 0x1 PUSH1 0x1 PUSH1 0xA0 SHL SUB DUP8 AND DUP5 MSTORE SWAP1 SWAP2 MSTORE DUP2 KECCAK256 SLOAD SWAP1 SWAP2 PUSH2 0x8C0 SWAP2 DUP6 SWAP1 PUSH2 0xECB SWAP1 DUP7 SWAP1 PUSH2 0x5323 JUMP JUMPDEST PUSH2 0x2D95 JUMP JUMPDEST PUSH1 0x65 SLOAD PUSH1 0x1 PUSH1 0x1 PUSH1 0xA0 SHL SUB AND CALLER EQ PUSH2 0xF2A JUMPI PUSH1 0x40 MLOAD PUSH3 0x461BCD PUSH1 0xE5 SHL DUP2 MSTORE PUSH1 0x20 PUSH1 0x4 DUP3 ADD DUP2 SWAP1 MSTORE PUSH1 0x24 DUP3 ADD MSTORE PUSH32 0x4F776E61626C653A2063616C6C6572206973206E6F7420746865206F776E6572 PUSH1 0x44 DUP3 ADD MSTORE PUSH1 0x64 ADD PUSH2 0x90B JUMP JUMPDEST PUSH2 0xF32 PUSH2 0x39DA JUMP JUMPDEST JUMP JUMPDEST PUSH2 0xF32 PUSH2 0x3764 JUMP JUMPDEST PUSH1 0x97 SLOAD PUSH1 0xFF AND ISZERO PUSH2 0xF82 JUMPI PUSH1 0x40 MLOAD PUSH3 0x461BCD PUSH1 0xE5 SHL DUP2 MSTORE PUSH1 0x20 PUSH1 0x4 DUP3 ADD MSTORE PUSH1 0x10 PUSH1 0x24 DUP3 ADD MSTORE PUSH16 0x14185D5CD8589B194E881C185D5CD959 PUSH1 0x82 SHL PUSH1 0x44 DUP3 ADD MSTORE PUSH1 0x64 ADD PUSH2 0x90B JUMP JUMPDEST PUSH2 0xF8A PUSH2 0x3764 JUMP JUMPDEST PUSH2 0xF93 CALLER PUSH2 0x3A76 JUMP JUMPDEST PUSH2 0xF9B PUSH2 0x1055 JUMP JUMPDEST PUSH1 0xCF SLOAD PUSH1 0x40 MLOAD PUSH4 0x70A08231 PUSH1 0xE0 SHL DUP2 MSTORE ADDRESS PUSH1 0x4 DUP3 ADD MSTORE PUSH1 0x1 PUSH1 0x1 PUSH1 0xA0 SHL SUB SWAP1 SWAP2 AND SWAP1 PUSH4 0x70A08231 SWAP1 PUSH1 0x24 ADD PUSH1 0x20 PUSH1 0x40 MLOAD DUP1 DUP4 SUB DUP2 DUP7 DUP1 EXTCODESIZE ISZERO DUP1 ISZERO PUSH2 0xFDE JUMPI PUSH1 0x0 DUP1 REVERT JUMPDEST POP GAS STATICCALL ISZERO DUP1 ISZERO PUSH2 0xFF2 JUMPI RETURNDATASIZE PUSH1 0x0 DUP1 RETURNDATACOPY RETURNDATASIZE PUSH1 0x0 REVERT JUMPDEST POP POP POP POP PUSH1 0x40 MLOAD RETURNDATASIZE PUSH1 0x1F NOT PUSH1 0x1F DUP3 ADD AND DUP3 ADD DUP1 PUSH1 0x40 MSTORE POP DUP2 ADD SWAP1 PUSH2 0x1016 SWAP2 SWAP1 PUSH2 0x5091 JUMP JUMPDEST LT ISZERO PUSH2 0xF32 JUMPI PUSH1 0x40 MLOAD PUSH3 0x461BCD PUSH1 0xE5 SHL DUP2 MSTORE PUSH1 0x20 PUSH1 0x4 DUP3 ADD MSTORE PUSH1 0xE PUSH1 0x24 DUP3 ADD MSTORE PUSH14 0x10D492551250D053081190555315 PUSH1 0x92 SHL PUSH1 0x44 DUP3 ADD MSTORE PUSH1 0x64 ADD PUSH2 0x90B JUMP JUMPDEST PUSH1 0x0 PUSH1 0xCD SLOAD PUSH2 0x1063 PUSH1 0x35 SLOAD SWAP1 JUMP JUMPDEST PUSH2 0x106D SWAP2 SWAP1 PUSH2 0x5323 JUMP JUMPDEST SWAP1 POP SWAP1 JUMP JUMPDEST PUSH1 0xD1 DUP2 DUP2 SLOAD DUP2 LT PUSH2 0x1082 JUMPI PUSH1 0x0 DUP1 REVERT JUMPDEST PUSH1 0x0 SWAP2 DUP3 MSTORE PUSH1 0x20 SWAP1 SWAP2 KECCAK256 PUSH1 0x5 SWAP1 SWAP2 MUL ADD DUP1 SLOAD PUSH1 0x1 DUP3 ADD SLOAD PUSH1 0x2 DUP4 ADD SLOAD PUSH1 0x3 DUP5 ADD SLOAD PUSH1 0x4 SWAP1 SWAP5 ADD SLOAD SWAP3 SWAP5 POP SWAP1 SWAP3 SWAP1 SWAP2 PUSH1 0xFF DUP1 DUP3 AND SWAP2 PUSH2 0x100 SWAP1 DIV AND DUP7 JUMP JUMPDEST PUSH1 0x97 SLOAD PUSH1 0xFF AND ISZERO PUSH2 0x1105 JUMPI PUSH1 0x40 MLOAD PUSH3 0x461BCD PUSH1 0xE5 SHL DUP2 MSTORE PUSH1 0x20 PUSH1 0x4 DUP3 ADD MSTORE PUSH1 0x10 PUSH1 0x24 DUP3 ADD MSTORE PUSH16 0x14185D5CD8589B194E881C185D5CD959 PUSH1 0x82 SHL PUSH1 0x44 DUP3 ADD MSTORE PUSH1 0x64 ADD PUSH2 0x90B JUMP JUMPDEST PUSH2 0x110D PUSH2 0x3764 JUMP JUMPDEST CALLER PUSH1 0x0 SWAP1 DUP2 MSTORE PUSH1 0xD3 PUSH1 0x20 MSTORE PUSH1 0x40 DUP2 KECCAK256 DUP1 SLOAD DUP4 SWAP1 DUP2 LT PUSH2 0x112E JUMPI PUSH2 0x112E PUSH2 0x542B JUMP JUMPDEST SWAP1 PUSH1 0x0 MSTORE PUSH1 0x20 PUSH1 0x0 KECCAK256 SWAP1 PUSH1 0x6 MUL ADD SWAP1 POP PUSH1 0x0 DUP2 PUSH1 0x2 ADD SLOAD GT PUSH2 0x1192 JUMPI PUSH1 0x40 MLOAD PUSH3 0x461BCD PUSH1 0xE5 SHL DUP2 MSTORE PUSH1 0x20 PUSH1 0x4 DUP3 ADD MSTORE PUSH1 0xD PUSH1 0x24 DUP3 ADD MSTORE PUSH32 0x496E61637469766520736C6F7400000000000000000000000000000000000000 PUSH1 0x44 DUP3 ADD MSTORE PUSH1 0x64 ADD PUSH2 0x90B JUMP JUMPDEST PUSH1 0x0 DUP2 PUSH1 0x5 ADD SLOAD DUP3 PUSH1 0x2 ADD SLOAD PUSH2 0x11A8 SWAP2 SWAP1 PUSH2 0x537C JUMP JUMPDEST SWAP1 POP PUSH1 0x0 DUP2 GT PUSH2 0x11FA JUMPI PUSH1 0x40 MLOAD PUSH3 0x461BCD PUSH1 0xE5 SHL DUP2 MSTORE PUSH1 0x20 PUSH1 0x4 DUP3 ADD MSTORE PUSH1 0x17 PUSH1 0x24 DUP3 ADD MSTORE PUSH32 0x416C72656164792066756C6C792077697468647261776E000000000000000000 PUSH1 0x44 DUP3 ADD MSTORE PUSH1 0x64 ADD PUSH2 0x90B JUMP JUMPDEST PUSH1 0x0 PUSH1 0xD1 DUP4 PUSH1 0x3 ADD SLOAD DUP2 SLOAD DUP2 LT PUSH2 0x1213 JUMPI PUSH2 0x1213 PUSH2 0x542B JUMP JUMPDEST SWAP1 PUSH1 0x0 MSTORE PUSH1 0x20 PUSH1 0x0 KECCAK256 SWAP1 PUSH1 0x5 MUL ADD SWAP1 POP PUSH1 0x0 DUP1 TIMESTAMP DUP6 PUSH1 0x1 ADD SLOAD GT PUSH2 0x1262 JUMPI DUP5 PUSH1 0x4 ADD SLOAD DUP6 PUSH1 0x2 ADD SLOAD PUSH2 0x1245 SWAP2 SWAP1 PUSH2 0x537C JUMP JUMPDEST SWAP2 POP DUP5 PUSH1 0x5 ADD SLOAD DUP6 PUSH1 0x2 ADD SLOAD PUSH2 0x125B SWAP2 SWAP1 PUSH2 0x537C JUMP JUMPDEST SWAP1 POP PUSH2 0x138E JUMP JUMPDEST PUSH1 0x4 DUP4 ADD SLOAD PUSH1 0xFF AND PUSH2 0x12B6 JUMPI PUSH1 0x40 MLOAD PUSH3 0x461BCD PUSH1 0xE5 SHL DUP2 MSTORE PUSH1 0x20 PUSH1 0x4 DUP3 ADD MSTORE PUSH1 0x11 PUSH1 0x24 DUP3 ADD MSTORE PUSH32 0x4E6F7468696E6720746F20756E6C6F636B000000000000000000000000000000 PUSH1 0x44 DUP3 ADD MSTORE PUSH1 0x64 ADD PUSH2 0x90B JUMP JUMPDEST DUP5 SLOAD PUSH1 0x1 DUP7 ADD SLOAD PUSH1 0x0 SWAP2 PUSH2 0x12C9 SWAP2 PUSH2 0x537C JUMP JUMPDEST DUP7 SLOAD SWAP1 SWAP2 POP PUSH1 0x0 SWAP1 PUSH2 0x12DB SWAP1 TIMESTAMP PUSH2 0x537C JUMP JUMPDEST SWAP1 POP PUSH1 0x0 DUP3 PUSH2 0x12EC PUSH2 0x2710 DUP5 PUSH2 0x535D JUMP JUMPDEST PUSH2 0x12F6 SWAP2 SWAP1 PUSH2 0x533B JUMP JUMPDEST SWAP1 POP PUSH2 0x2710 DUP2 GT ISZERO PUSH2 0x1307 JUMPI POP PUSH2 0x2710 JUMPDEST PUSH1 0x0 PUSH2 0x2710 DUP3 DUP11 PUSH1 0x2 ADD SLOAD PUSH2 0x131C SWAP2 SWAP1 PUSH2 0x535D JUMP JUMPDEST PUSH2 0x1326 SWAP2 SWAP1 PUSH2 0x533B JUMP JUMPDEST SWAP1 POP DUP9 PUSH1 0x5 ADD SLOAD DUP2 GT ISZERO PUSH2 0x1346 JUMPI PUSH1 0x5 DUP10 ADD SLOAD PUSH2 0x1343 SWAP1 DUP3 PUSH2 0x537C JUMP JUMPDEST SWAP5 POP JUMPDEST PUSH2 0x2710 PUSH1 0xD1 DUP11 PUSH1 0x3 ADD SLOAD DUP2 SLOAD DUP2 LT PUSH2 0x1360 JUMPI PUSH2 0x1360 PUSH2 0x542B JUMP JUMPDEST SWAP1 PUSH1 0x0 MSTORE PUSH1 0x20 PUSH1 0x0 KECCAK256 SWAP1 PUSH1 0x5 MUL ADD PUSH1 0x2 ADD SLOAD DUP7 PUSH2 0x137D SWAP2 SWAP1 PUSH2 0x535D JUMP JUMPDEST PUSH2 0x1387 SWAP2 SWAP1 PUSH2 0x533B JUMP JUMPDEST SWAP6 POP POP POP POP POP JUMPDEST CALLER PUSH1 0x0 SWAP1 DUP2 MSTORE PUSH1 0xD2 PUSH1 0x20 MSTORE PUSH1 0x40 DUP2 KECCAK256 DUP1 SLOAD DUP4 SWAP3 SWAP1 PUSH2 0x13AD SWAP1 DUP5 SWAP1 PUSH2 0x537C JUMP JUMPDEST SWAP3 POP POP DUP2 SWAP1 SSTORE POP DUP1 PUSH1 0xCD PUSH1 0x0 DUP3 DUP3 SLOAD PUSH2 0x13C6 SWAP2 SWAP1 PUSH2 0x537C JUMP JUMPDEST SWAP1 SWAP2 SSTORE POP POP PUSH1 0xCF SLOAD PUSH2 0x13E2 SWAP1 PUSH1 0x1 PUSH1 0x1 PUSH1 0xA0 SHL SUB AND CALLER DUP4 PUSH2 0x3D24 JUMP JUMPDEST PUSH1 0xD0 SLOAD PUSH1 0x1 PUSH1 0x1 PUSH1 0xA0 SHL SUB AND PUSH4 0x4A951162 CALLER DUP5 PUSH2 0x13FE DUP3 PUSH2 0x1EF8 JUMP JUMPDEST PUSH1 0x40 MLOAD PUSH1 0x1 PUSH1 0x1 PUSH1 0xE0 SHL SUB NOT PUSH1 0xE0 DUP7 SWAP1 SHL AND DUP2 MSTORE PUSH1 0x1 PUSH1 0x1 PUSH1 0xA0 SHL SUB SWAP1 SWAP4 AND PUSH1 0x4 DUP5 ADD MSTORE PUSH1 0x24 DUP4 ADD SWAP2 SWAP1 SWAP2 MSTORE PUSH1 0x44 DUP3 ADD MSTORE PUSH1 0x1 PUSH1 0x64 DUP3 ADD MSTORE PUSH1 0x84 ADD PUSH1 0x0 PUSH1 0x40 MLOAD DUP1 DUP4 SUB DUP2 PUSH1 0x0 DUP8 DUP1 EXTCODESIZE ISZERO DUP1 ISZERO PUSH2 0x1453 JUMPI PUSH1 0x0 DUP1 REVERT JUMPDEST POP GAS CALL ISZERO DUP1 ISZERO PUSH2 0x1467 JUMPI RETURNDATASIZE PUSH1 0x0 DUP1 RETURNDATACOPY RETURNDATASIZE PUSH1 0x0 REVERT JUMPDEST POP POP POP POP DUP1 DUP6 PUSH1 0x5 ADD PUSH1 0x0 DUP3 DUP3 SLOAD PUSH2 0x147F SWAP2 SWAP1 PUSH2 0x5323 JUMP JUMPDEST SWAP3 POP POP DUP2 SWAP1 SSTORE POP DUP2 DUP6 PUSH1 0x4 ADD PUSH1 0x0 DUP3 DUP3 SLOAD PUSH2 0x149A SWAP2 SWAP1 PUSH2 0x5323 JUMP JUMPDEST SWAP1 SWAP2 SSTORE POP POP PUSH1 0x2 DUP6 ADD SLOAD PUSH1 0x40 MLOAD SWAP1 DUP2 MSTORE TIMESTAMP SWAP1 CALLER SWAP1 PUSH32 0xF7870C5B224CBC19873599E46CCFC7103934650509B1AF0C3CE90138377C2004 SWAP1 PUSH1 0x20 ADD PUSH1 0x40 MLOAD DUP1 SWAP2 SUB SWAP1 LOG3 DUP5 PUSH1 0x2 ADD SLOAD DUP6 PUSH1 0x5 ADD SLOAD EQ ISZERO PUSH2 0x14F5 JUMPI PUSH2 0x14F5 CALLER DUP8 PUSH2 0x3DB5 JUMP JUMPDEST POP POP POP POP POP PUSH2 0x1502 PUSH2 0x1055 JUMP JUMPDEST PUSH1 0xCF SLOAD PUSH1 0x40 MLOAD PUSH4 0x70A08231 PUSH1 0xE0 SHL DUP2 MSTORE ADDRESS PUSH1 0x4 DUP3 ADD MSTORE PUSH1 0x1 PUSH1 0x1 PUSH1 0xA0 SHL SUB SWAP1 SWAP2 AND SWAP1 PUSH4 0x70A08231 SWAP1 PUSH1 0x24 ADD PUSH1 0x20 PUSH1 0x40 MLOAD DUP1 DUP4 SUB DUP2 DUP7 DUP1 EXTCODESIZE ISZERO DUP1 ISZERO PUSH2 0x1545 JUMPI PUSH1 0x0 DUP1 REVERT JUMPDEST POP GAS STATICCALL ISZERO DUP1 ISZERO PUSH2 0x1559 JUMPI RETURNDATASIZE PUSH1 0x0 DUP1 RETURNDATACOPY RETURNDATASIZE PUSH1 0x0 REVERT JUMPDEST POP POP POP POP PUSH1 0x40 MLOAD RETURNDATASIZE PUSH1 0x1F NOT PUSH1 0x1F DUP3 ADD AND DUP3 ADD DUP1 PUSH1 0x40 MSTORE POP DUP2 ADD SWAP1 PUSH2 0x157D SWAP2 SWAP1 PUSH2 0x5091 JUMP JUMPDEST LT ISZERO PUSH2 0x15BC JUMPI PUSH1 0x40 MLOAD PUSH3 0x461BCD PUSH1 0xE5 SHL DUP2 MSTORE PUSH1 0x20 PUSH1 0x4 DUP3 ADD MSTORE PUSH1 0xE PUSH1 0x24 DUP3 ADD MSTORE PUSH14 0x10D492551250D053081190555315 PUSH1 0x92 SHL PUSH1 0x44 DUP3 ADD MSTORE PUSH1 0x64 ADD PUSH2 0x90B JUMP JUMPDEST POP JUMP JUMPDEST PUSH1 0x65 SLOAD PUSH1 0x1 PUSH1 0x1 PUSH1 0xA0 SHL SUB AND CALLER EQ PUSH2 0x1619 JUMPI PUSH1 0x40 MLOAD PUSH3 0x461BCD PUSH1 0xE5 SHL DUP2 MSTORE PUSH1 0x20 PUSH1 0x4 DUP3 ADD DUP2 SWAP1 MSTORE PUSH1 0x24 DUP3 ADD MSTORE PUSH32 0x4F776E61626C653A2063616C6C6572206973206E6F7420746865206F776E6572 PUSH1 0x44 DUP3 ADD MSTORE PUSH1 0x64 ADD PUSH2 0x90B JUMP JUMPDEST PUSH1 0xCA SLOAD PUSH1 0xC9 SLOAD PUSH1 0x40 MLOAD PUSH4 0x70A08231 PUSH1 0xE0 SHL DUP2 MSTORE ADDRESS PUSH1 0x4 DUP3 ADD MSTORE PUSH1 0x1 PUSH1 0x1 PUSH1 0xA0 SHL SUB SWAP3 DUP4 AND SWAP3 PUSH4 0x95EA7B3 SWAP3 AND SWAP1 DUP4 SWAP1 PUSH4 0x70A08231 SWAP1 PUSH1 0x24 ADD PUSH1 0x20 PUSH1 0x40 MLOAD DUP1 DUP4 SUB DUP2 DUP7 DUP1 EXTCODESIZE ISZERO DUP1 ISZERO PUSH2 0x1669 JUMPI PUSH1 0x0 DUP1 REVERT JUMPDEST POP GAS STATICCALL ISZERO DUP1 ISZERO PUSH2 0x167D JUMPI RETURNDATASIZE PUSH1 0x0 DUP1 RETURNDATACOPY RETURNDATASIZE PUSH1 0x0 REVERT JUMPDEST POP POP POP POP PUSH1 0x40 MLOAD RETURNDATASIZE PUSH1 0x1F NOT PUSH1 0x1F DUP3 ADD AND DUP3 ADD DUP1 PUSH1 0x40 MSTORE POP DUP2 ADD SWAP1 PUSH2 0x16A1 SWAP2 SWAP1 PUSH2 0x5091 JUMP JUMPDEST PUSH1 0x40 MLOAD PUSH1 0x1 PUSH1 0x1 PUSH1 0xE0 SHL SUB NOT PUSH1 0xE0 DUP6 SWAP1 SHL AND DUP2 MSTORE PUSH1 0x1 PUSH1 0x1 PUSH1 0xA0 SHL SUB SWAP1 SWAP3 AND PUSH1 0x4 DUP4 ADD MSTORE PUSH1 0x24 DUP3 ADD MSTORE PUSH1 0x44 ADD PUSH1 0x20 PUSH1 0x40 MLOAD DUP1 DUP4 SUB DUP2 PUSH1 0x0 DUP8 DUP1 EXTCODESIZE ISZERO DUP1 ISZERO PUSH2 0x16E7 JUMPI PUSH1 0x0 DUP1 REVERT JUMPDEST POP GAS CALL ISZERO DUP1 ISZERO PUSH2 0x16FB JUMPI RETURNDATASIZE PUSH1 0x0 DUP1 RETURNDATACOPY RETURNDATASIZE PUSH1 0x0 REVERT JUMPDEST POP POP POP POP PUSH1 0x40 MLOAD RETURNDATASIZE PUSH1 0x1F NOT PUSH1 0x1F DUP3 ADD AND DUP3 ADD DUP1 PUSH1 0x40 MSTORE POP DUP2 ADD SWAP1 PUSH2 0x171F SWAP2 SWAP1 PUSH2 0x505B JUMP JUMPDEST POP PUSH1 0xC9 SLOAD PUSH1 0xCA SLOAD PUSH1 0x40 MLOAD PUSH4 0x70A08231 PUSH1 0xE0 SHL DUP2 MSTORE ADDRESS PUSH1 0x4 DUP3 ADD MSTORE PUSH1 0x1 PUSH1 0x1 PUSH1 0xA0 SHL SUB SWAP3 DUP4 AND SWAP3 PUSH4 0x47E7EF24 SWAP3 AND SWAP1 DUP2 SWAP1 PUSH4 0x70A08231 SWAP1 PUSH1 0x24 ADD PUSH1 0x20 PUSH1 0x40 MLOAD DUP1 DUP4 SUB DUP2 DUP7 DUP1 EXTCODESIZE ISZERO DUP1 ISZERO PUSH2 0x1770 JUMPI PUSH1 0x0 DUP1 REVERT JUMPDEST POP GAS STATICCALL ISZERO DUP1 ISZERO PUSH2 0x1784 JUMPI RETURNDATASIZE PUSH1 0x0 DUP1 RETURNDATACOPY RETURNDATASIZE PUSH1 0x0 REVERT JUMPDEST POP POP POP POP PUSH1 0x40 MLOAD RETURNDATASIZE PUSH1 0x1F NOT PUSH1 0x1F DUP3 ADD AND DUP3 ADD DUP1 PUSH1 0x40 MSTORE POP DUP2 ADD SWAP1 PUSH2 0x17A8 SWAP2 SWAP1 PUSH2 0x5091 JUMP JUMPDEST PUSH1 0x40 MLOAD PUSH1 0x1 PUSH1 0x1 PUSH1 0xE0 SHL SUB NOT PUSH1 0xE0 DUP6 SWAP1 SHL AND DUP2 MSTORE PUSH1 0x1 PUSH1 0x1 PUSH1 0xA0 SHL SUB SWAP1 SWAP3 AND PUSH1 0x4 DUP4 ADD MSTORE PUSH1 0x24 DUP3 ADD MSTORE PUSH1 0x44 ADD PUSH1 0x0 PUSH1 0x40 MLOAD DUP1 DUP4 SUB DUP2 PUSH1 0x0 DUP8 DUP1 EXTCODESIZE ISZERO DUP1 ISZERO PUSH2 0x17EE JUMPI PUSH1 0x0 DUP1 REVERT JUMPDEST POP GAS CALL ISZERO DUP1 ISZERO PUSH2 0x97A JUMPI RETURNDATASIZE PUSH1 0x0 DUP1 RETURNDATACOPY RETURNDATASIZE PUSH1 0x0 REVERT JUMPDEST PUSH1 0x65 SLOAD PUSH1 0x1 PUSH1 0x1 PUSH1 0xA0 SHL SUB AND CALLER EQ PUSH2 0x185C JUMPI PUSH1 0x40 MLOAD PUSH3 0x461BCD PUSH1 0xE5 SHL DUP2 MSTORE PUSH1 0x20 PUSH1 0x4 DUP3 ADD DUP2 SWAP1 MSTORE PUSH1 0x24 DUP3 ADD MSTORE PUSH32 0x4F776E61626C653A2063616C6C6572206973206E6F7420746865206F776E6572 PUSH1 0x44 DUP3 ADD MSTORE PUSH1 0x64 ADD PUSH2 0x90B JUMP JUMPDEST PUSH2 0xF32 PUSH1 0x0 PUSH2 0x4083 JUMP JUMPDEST PUSH1 0x65 SLOAD PUSH1 0x1 PUSH1 0x1 PUSH1 0xA0 SHL SUB AND CALLER EQ PUSH2 0x18C0 JUMPI PUSH1 0x40 MLOAD PUSH3 0x461BCD PUSH1 0xE5 SHL DUP2 MSTORE PUSH1 0x20 PUSH1 0x4 DUP3 ADD DUP2 SWAP1 MSTORE PUSH1 0x24 DUP3 ADD MSTORE PUSH32 0x4F776E61626C653A2063616C6C6572206973206E6F7420746865206F776E6572 PUSH1 0x44 DUP3 ADD MSTORE PUSH1 0x64 ADD PUSH2 0x90B JUMP JUMPDEST PUSH2 0x2710 DUP5 GT ISZERO PUSH2 0x1912 JUMPI PUSH1 0x40 MLOAD PUSH3 0x461BCD PUSH1 0xE5 SHL DUP2 MSTORE PUSH1 0x20 PUSH1 0x4 DUP3 ADD MSTORE PUSH1 0x16 PUSH1 0x24 DUP3 ADD MSTORE PUSH32 0x496E76616C6964207265776172642070657263656E7400000000000000000000 PUSH1 0x44 DUP3 ADD MSTORE PUSH1 0x64 ADD PUSH2 0x90B JUMP JUMPDEST PUSH2 0x2710 PUSH2 0x191F DUP4 DUP6 PUSH2 0x5323 JUMP JUMPDEST GT ISZERO PUSH2 0x196D JUMPI PUSH1 0x40 MLOAD PUSH3 0x461BCD PUSH1 0xE5 SHL DUP2 MSTORE PUSH1 0x20 PUSH1 0x4 DUP3 ADD MSTORE PUSH1 0xE PUSH1 0x24 DUP3 ADD MSTORE PUSH32 0x496E76616C696420696E70757473000000000000000000000000000000000000 PUSH1 0x44 DUP3 ADD MSTORE PUSH1 0x64 ADD PUSH2 0x90B JUMP JUMPDEST PUSH1 0x40 DUP1 MLOAD PUSH1 0xC0 DUP2 ADD DUP3 MSTORE SWAP6 DUP7 MSTORE PUSH1 0x20 DUP7 ADD SWAP4 DUP5 MSTORE DUP6 ADD SWAP4 DUP5 MSTORE PUSH1 0x60 DUP6 ADD SWAP2 DUP3 MSTORE ISZERO ISZERO PUSH1 0x80 DUP6 ADD SWAP1 DUP2 MSTORE PUSH1 0x1 PUSH1 0xA0 DUP7 ADD DUP2 DUP2 MSTORE PUSH1 0xD1 DUP1 SLOAD SWAP3 DUP4 ADD DUP2 SSTORE PUSH1 0x0 MSTORE SWAP6 MLOAD PUSH1 0x5 SWAP1 SWAP2 MUL PUSH32 0x695FB3134AD82C3B8022BC5464EDD0BCC9424EF672B52245DCB6AB2374327CE3 DUP2 ADD SWAP2 SWAP1 SWAP2 SSTORE SWAP3 MLOAD PUSH32 0x695FB3134AD82C3B8022BC5464EDD0BCC9424EF672B52245DCB6AB2374327CE4 DUP5 ADD SSTORE SWAP3 MLOAD PUSH32 0x695FB3134AD82C3B8022BC5464EDD0BCC9424EF672B52245DCB6AB2374327CE5 DUP4 ADD SSTORE MLOAD PUSH32 0x695FB3134AD82C3B8022BC5464EDD0BCC9424EF672B52245DCB6AB2374327CE6 DUP3 ADD SSTORE SWAP1 MLOAD PUSH32 0x695FB3134AD82C3B8022BC5464EDD0BCC9424EF672B52245DCB6AB2374327CE7 SWAP1 SWAP2 ADD DUP1 SLOAD SWAP3 MLOAD ISZERO ISZERO PUSH2 0x100 MUL PUSH2 0xFF00 NOT SWAP3 ISZERO ISZERO SWAP3 SWAP1 SWAP3 AND PUSH2 0xFFFF NOT SWAP1 SWAP4 AND SWAP3 SWAP1 SWAP3 OR OR SWAP1 SSTORE JUMP JUMPDEST PUSH1 0x65 SLOAD PUSH1 0x1 PUSH1 0x1 PUSH1 0xA0 SHL SUB AND CALLER EQ PUSH2 0x1AEF JUMPI PUSH1 0x40 MLOAD PUSH3 0x461BCD PUSH1 0xE5 SHL DUP2 MSTORE PUSH1 0x20 PUSH1 0x4 DUP3 ADD DUP2 SWAP1 MSTORE PUSH1 0x24 DUP3 ADD MSTORE PUSH32 0x4F776E61626C653A2063616C6C6572206973206E6F7420746865206F776E6572 PUSH1 0x44 DUP3 ADD MSTORE PUSH1 0x64 ADD PUSH2 0x90B JUMP JUMPDEST PUSH1 0xCC SLOAD DUP2 GT PUSH2 0x1B40 JUMPI PUSH1 0x40 MLOAD PUSH3 0x461BCD PUSH1 0xE5 SHL DUP2 MSTORE PUSH1 0x20 PUSH1 0x4 DUP3 ADD MSTORE PUSH1 0x1B PUSH1 0x24 DUP3 ADD MSTORE PUSH32 0x43616E6E6F7420646563726561736520736C6F74206E756D6265720000000000 PUSH1 0x44 DUP3 ADD MSTORE PUSH1 0x64 ADD PUSH2 0x90B JUMP JUMPDEST PUSH1 0xCC SSTORE JUMP JUMPDEST PUSH2 0x15BC PUSH1 0x1 PUSH1 0x0 DUP4 PUSH2 0x22C6 JUMP JUMPDEST PUSH1 0x60 PUSH1 0x0 PUSH2 0x1B75 DUP4 PUSH1 0x1 PUSH1 0x1 PUSH1 0xA0 SHL SUB AND PUSH1 0x0 SWAP1 DUP2 MSTORE PUSH1 0xD3 PUSH1 0x20 MSTORE PUSH1 0x40 SWAP1 KECCAK256 SLOAD SWAP1 JUMP JUMPDEST SWAP1 POP DUP1 PUSH8 0xFFFFFFFFFFFFFFFF DUP2 GT ISZERO PUSH2 0x1B90 JUMPI PUSH2 0x1B90 PUSH2 0x5441 JUMP JUMPDEST PUSH1 0x40 MLOAD SWAP1 DUP1 DUP3 MSTORE DUP1 PUSH1 0x20 MUL PUSH1 0x20 ADD DUP3 ADD PUSH1 0x40 MSTORE DUP1 ISZERO PUSH2 0x1BFA JUMPI DUP2 PUSH1 0x20 ADD JUMPDEST PUSH2 0x1BE7 PUSH1 0x40 MLOAD DUP1 PUSH1 0xC0 ADD PUSH1 0x40 MSTORE DUP1 PUSH1 0x0 DUP2 MSTORE PUSH1 0x20 ADD PUSH1 0x0 DUP2 MSTORE PUSH1 0x20 ADD PUSH1 0x0 DUP2 MSTORE PUSH1 0x20 ADD PUSH1 0x0 DUP2 MSTORE PUSH1 0x20 ADD PUSH1 0x0 DUP2 MSTORE PUSH1 0x20 ADD PUSH1 0x0 DUP2 MSTORE POP SWAP1 JUMP JUMPDEST DUP2 MSTORE PUSH1 0x20 ADD SWAP1 PUSH1 0x1 SWAP1 SUB SWAP1 DUP2 PUSH2 0x1BAE JUMPI SWAP1 POP JUMPDEST POP SWAP2 POP PUSH1 0x0 JUMPDEST DUP2 DUP2 LT ISZERO PUSH2 0x1CB7 JUMPI PUSH1 0x1 PUSH1 0x1 PUSH1 0xA0 SHL SUB DUP5 AND PUSH1 0x0 SWAP1 DUP2 MSTORE PUSH1 0xD3 PUSH1 0x20 MSTORE PUSH1 0x40 SWAP1 KECCAK256 DUP1 SLOAD DUP3 SWAP1 DUP2 LT PUSH2 0x1C32 JUMPI PUSH2 0x1C32 PUSH2 0x542B JUMP JUMPDEST SWAP1 PUSH1 0x0 MSTORE PUSH1 0x20 PUSH1 0x0 KECCAK256 SWAP1 PUSH1 0x6 MUL ADD PUSH1 0x40 MLOAD DUP1 PUSH1 0xC0 ADD PUSH1 0x40 MSTORE SWAP1 DUP2 PUSH1 0x0 DUP3 ADD SLOAD DUP2 MSTORE PUSH1 0x20 ADD PUSH1 0x1 DUP3 ADD SLOAD DUP2 MSTORE PUSH1 0x20 ADD PUSH1 0x2 DUP3 ADD SLOAD DUP2 MSTORE PUSH1 0x20 ADD PUSH1 0x3 DUP3 ADD SLOAD DUP2 MSTORE PUSH1 0x20 ADD PUSH1 0x4 DUP3 ADD SLOAD DUP2 MSTORE PUSH1 0x20 ADD PUSH1 0x5 DUP3 ADD SLOAD DUP2 MSTORE POP POP DUP4 DUP3 DUP2 MLOAD DUP2 LT PUSH2 0x1C99 JUMPI PUSH2 0x1C99 PUSH2 0x542B JUMP JUMPDEST PUSH1 0x20 MUL PUSH1 0x20 ADD ADD DUP2 SWAP1 MSTORE POP DUP1 DUP1 PUSH2 0x1CAF SWAP1 PUSH2 0x53FA JUMP JUMPDEST SWAP2 POP POP PUSH2 0x1C00 JUMP JUMPDEST POP POP SWAP2 SWAP1 POP JUMP JUMPDEST PUSH1 0x65 SLOAD PUSH1 0x1 PUSH1 0x1 PUSH1 0xA0 SHL SUB AND CALLER EQ PUSH2 0x1D18 JUMPI PUSH1 0x40 MLOAD PUSH3 0x461BCD PUSH1 0xE5 SHL DUP2 MSTORE PUSH1 0x20 PUSH1 0x4 DUP3 ADD DUP2 SWAP1 MSTORE PUSH1 0x24 DUP3 ADD MSTORE PUSH32 0x4F776E61626C653A2063616C6C6572206973206E6F7420746865206F776E6572 PUSH1 0x44 DUP3 ADD MSTORE PUSH1 0x64 ADD PUSH2 0x90B JUMP JUMPDEST PUSH2 0xF32 PUSH2 0x40E2 JUMP JUMPDEST PUSH1 0xD3 PUSH1 0x20 MSTORE DUP2 PUSH1 0x0 MSTORE PUSH1 0x40 PUSH1 0x0 KECCAK256 DUP2 DUP2 SLOAD DUP2 LT PUSH2 0x1D3C JUMPI PUSH1 0x0 DUP1 REVERT JUMPDEST PUSH1 0x0 SWAP2 DUP3 MSTORE PUSH1 0x20 SWAP1 SWAP2 KECCAK256 PUSH1 0x6 SWAP1 SWAP2 MUL ADD DUP1 SLOAD PUSH1 0x1 DUP3 ADD SLOAD PUSH1 0x2 DUP4 ADD SLOAD PUSH1 0x3 DUP5 ADD SLOAD PUSH1 0x4 DUP6 ADD SLOAD PUSH1 0x5 SWAP1 SWAP6 ADD SLOAD SWAP4 SWAP7 POP SWAP2 SWAP5 POP SWAP3 SWAP1 SWAP2 DUP7 JUMP JUMPDEST PUSH1 0x60 PUSH1 0x37 DUP1 SLOAD PUSH2 0x830 SWAP1 PUSH2 0x53BF JUMP JUMPDEST CALLER PUSH1 0x0 SWAP1 DUP2 MSTORE PUSH1 0x34 PUSH1 0x20 SWAP1 DUP2 MSTORE PUSH1 0x40 DUP1 DUP4 KECCAK256 PUSH1 0x1 PUSH1 0x1 PUSH1 0xA0 SHL SUB DUP7 AND DUP5 MSTORE SWAP1 SWAP2 MSTORE DUP2 KECCAK256 SLOAD DUP3 DUP2 LT ISZERO PUSH2 0x1E1D JUMPI PUSH1 0x40 MLOAD PUSH3 0x461BCD PUSH1 0xE5 SHL DUP2 MSTORE PUSH1 0x20 PUSH1 0x4 DUP3 ADD MSTORE PUSH1 0x25 PUSH1 0x24 DUP3 ADD MSTORE PUSH32 0x45524332303A2064656372656173656420616C6C6F77616E63652062656C6F77 PUSH1 0x44 DUP3 ADD MSTORE PUSH32 0x207A65726F000000000000000000000000000000000000000000000000000000 PUSH1 0x64 DUP3 ADD MSTORE PUSH1 0x84 ADD PUSH2 0x90B JUMP JUMPDEST PUSH2 0x1E2A CALLER DUP6 DUP6 DUP5 SUB PUSH2 0x2D95 JUMP JUMPDEST POP PUSH1 0x1 SWAP4 SWAP3 POP POP POP JUMP JUMPDEST PUSH1 0x1 PUSH1 0x1 PUSH1 0xA0 SHL SUB DUP2 AND PUSH1 0x0 SWAP1 DUP2 MSTORE PUSH1 0xD2 PUSH1 0x20 SWAP1 DUP2 MSTORE PUSH1 0x40 DUP1 DUP4 KECCAK256 SLOAD PUSH1 0x33 SWAP1 SWAP3 MSTORE DUP3 KECCAK256 SLOAD PUSH2 0x1E62 SWAP2 SWAP1 PUSH2 0x5323 JUMP JUMPDEST SWAP3 SWAP2 POP POP JUMP JUMPDEST PUSH1 0x0 PUSH2 0x8C0 CALLER DUP5 DUP5 PUSH2 0x353C JUMP JUMPDEST PUSH1 0x0 DUP1 PUSH1 0x0 DUP1 PUSH1 0x0 DUP1 PUSH1 0x0 PUSH1 0xD3 PUSH1 0x0 DUP11 PUSH1 0x1 PUSH1 0x1 PUSH1 0xA0 SHL SUB AND PUSH1 0x1 PUSH1 0x1 PUSH1 0xA0 SHL SUB AND DUP2 MSTORE PUSH1 0x20 ADD SWAP1 DUP2 MSTORE PUSH1 0x20 ADD PUSH1 0x0 KECCAK256 DUP9 DUP2 SLOAD DUP2 LT PUSH2 0x1EB6 JUMPI PUSH2 0x1EB6 PUSH2 0x542B JUMP JUMPDEST PUSH1 0x0 SWAP2 DUP3 MSTORE PUSH1 0x20 SWAP1 SWAP2 KECCAK256 PUSH1 0x6 SWAP1 SWAP2 MUL ADD DUP1 SLOAD PUSH1 0x1 DUP3 ADD SLOAD PUSH1 0x2 DUP4 ADD SLOAD PUSH1 0x3 DUP5 ADD SLOAD PUSH1 0x4 DUP6 ADD SLOAD PUSH1 0x5 SWAP1 SWAP6 ADD SLOAD SWAP4 SWAP15 SWAP3 SWAP14 POP SWAP1 SWAP12 POP SWAP10 POP SWAP2 SWAP8 POP SWAP6 POP SWAP4 POP POP POP POP JUMP JUMPDEST PUSH1 0xD0 SLOAD PUSH1 0x40 MLOAD PUSH4 0x70A08231 PUSH1 0xE0 SHL DUP2 MSTORE PUSH1 0x1 PUSH1 0x1 PUSH1 0xA0 SHL SUB DUP4 DUP2 AND PUSH1 0x4 DUP4 ADD MSTORE PUSH1 0x0 SWAP3 DUP4 SWAP3 SWAP2 AND SWAP1 PUSH4 0x70A08231 SWAP1 PUSH1 0x24 ADD PUSH1 0x20 PUSH1 0x40 MLOAD DUP1 DUP4 SUB DUP2 DUP7 DUP1 EXTCODESIZE ISZERO DUP1 ISZERO PUSH2 0x1F41 JUMPI PUSH1 0x0 DUP1 REVERT JUMPDEST POP GAS STATICCALL ISZERO DUP1 ISZERO PUSH2 0x1F55 JUMPI RETURNDATASIZE PUSH1 0x0 DUP1 RETURNDATACOPY RETURNDATASIZE PUSH1 0x0 REVERT JUMPDEST POP POP POP POP PUSH1 0x40 MLOAD RETURNDATASIZE PUSH1 0x1F NOT PUSH1 0x1F DUP3 ADD AND DUP3 ADD DUP1 PUSH1 0x40 MSTORE POP DUP2 ADD SWAP1 PUSH2 0x1F79 SWAP2 SWAP1 PUSH2 0x5091 JUMP JUMPDEST SWAP1 POP DUP1 PUSH2 0x1F89 JUMPI POP PUSH1 0x0 SWAP3 SWAP2 POP POP JUMP JUMPDEST DUP1 PUSH1 0x0 PUSH2 0x1FAB DUP6 PUSH1 0x1 PUSH1 0x1 PUSH1 0xA0 SHL SUB AND PUSH1 0x0 SWAP1 DUP2 MSTORE PUSH1 0xD3 PUSH1 0x20 MSTORE PUSH1 0x40 SWAP1 KECCAK256 SLOAD SWAP1 JUMP JUMPDEST SWAP1 POP PUSH1 0x0 JUMPDEST DUP2 DUP2 LT ISZERO PUSH2 0x2100 JUMPI PUSH1 0x1 PUSH1 0x1 PUSH1 0xA0 SHL SUB DUP7 AND PUSH1 0x0 SWAP1 DUP2 MSTORE PUSH1 0xD3 PUSH1 0x20 MSTORE PUSH1 0x40 DUP2 KECCAK256 DUP1 SLOAD DUP4 SWAP1 DUP2 LT PUSH2 0x1FE2 JUMPI PUSH2 0x1FE2 PUSH2 0x542B JUMP JUMPDEST SWAP1 PUSH1 0x0 MSTORE PUSH1 0x20 PUSH1 0x0 KECCAK256 SWAP1 PUSH1 0x6 MUL ADD SWAP1 POP TIMESTAMP DUP2 PUSH1 0x1 ADD SLOAD LT DUP1 ISZERO PUSH2 0x2008 JUMPI POP PUSH1 0x2 DUP2 ADD SLOAD ISZERO ISZERO JUMPDEST ISZERO PUSH2 0x20ED JUMPI PUSH1 0x0 DUP2 PUSH1 0x4 ADD SLOAD DUP3 PUSH1 0x2 ADD SLOAD PUSH2 0x2023 SWAP2 SWAP1 PUSH2 0x537C JUMP JUMPDEST SWAP1 POP DUP1 ISZERO PUSH2 0x20EB JUMPI DUP2 SLOAD CALLER PUSH1 0x0 SWAP1 DUP2 MSTORE PUSH1 0xD4 PUSH1 0x20 MSTORE PUSH1 0x40 DUP2 KECCAK256 SLOAD SWAP1 SWAP2 LT PUSH2 0x204B JUMPI DUP3 SLOAD PUSH2 0x205C JUMP JUMPDEST CALLER PUSH1 0x0 SWAP1 DUP2 MSTORE PUSH1 0xD4 PUSH1 0x20 MSTORE PUSH1 0x40 SWAP1 KECCAK256 SLOAD JUMPDEST SWAP1 POP PUSH1 0x0 DUP2 DUP5 PUSH1 0x1 ADD SLOAD PUSH2 0x2070 SWAP2 SWAP1 PUSH2 0x537C JUMP JUMPDEST SWAP1 POP PUSH1 0x0 PUSH2 0x207E DUP4 TIMESTAMP PUSH2 0x537C JUMP JUMPDEST SWAP1 POP PUSH1 0x0 DUP2 PUSH2 0x208F PUSH2 0x2710 DUP6 PUSH2 0x535D JUMP JUMPDEST PUSH2 0x2099 SWAP2 SWAP1 PUSH2 0x533B JUMP JUMPDEST SWAP1 POP PUSH2 0x20A5 DUP6 DUP11 PUSH2 0x537C JUMP JUMPDEST SWAP9 POP PUSH1 0x0 DUP11 PUSH2 0x20B6 PUSH2 0x2710 DUP9 PUSH2 0x535D JUMP JUMPDEST PUSH2 0x20C0 SWAP2 SWAP1 PUSH2 0x533B JUMP JUMPDEST SWAP1 POP PUSH2 0x2710 PUSH2 0x20CF DUP4 DUP4 PUSH2 0x535D JUMP JUMPDEST PUSH2 0x20D9 SWAP2 SWAP1 PUSH2 0x533B JUMP JUMPDEST PUSH2 0x20E3 SWAP1 DUP14 PUSH2 0x5323 JUMP JUMPDEST SWAP12 POP POP POP POP POP POP JUMPDEST POP JUMPDEST POP DUP1 PUSH2 0x20F8 DUP2 PUSH2 0x53FA JUMP JUMPDEST SWAP2 POP POP PUSH2 0x1FB0 JUMP JUMPDEST POP DUP3 PUSH2 0x210E PUSH2 0x2710 DUP5 PUSH2 0x535D JUMP JUMPDEST PUSH2 0x2118 SWAP2 SWAP1 PUSH2 0x533B JUMP JUMPDEST PUSH2 0x2122 SWAP1 DUP6 PUSH2 0x5323 JUMP JUMPDEST SWAP6 SWAP5 POP POP POP POP POP JUMP JUMPDEST PUSH1 0x97 SLOAD PUSH1 0xFF AND ISZERO PUSH2 0x2171 JUMPI PUSH1 0x40 MLOAD PUSH3 0x461BCD PUSH1 0xE5 SHL DUP2 MSTORE PUSH1 0x20 PUSH1 0x4 DUP3 ADD MSTORE PUSH1 0x10 PUSH1 0x24 DUP3 ADD MSTORE PUSH16 0x14185D5CD8589B194E881C185D5CD959 PUSH1 0x82 SHL PUSH1 0x44 DUP3 ADD MSTORE PUSH1 0x64 ADD PUSH2 0x90B JUMP JUMPDEST PUSH2 0x2179 PUSH2 0x3764 JUMP JUMPDEST PUSH2 0x2184 CALLER CALLER DUP4 PUSH2 0x38F5 JUMP JUMPDEST PUSH2 0x1502 PUSH2 0x1055 JUMP JUMPDEST PUSH1 0x65 SLOAD PUSH1 0x1 PUSH1 0x1 PUSH1 0xA0 SHL SUB AND CALLER EQ PUSH2 0x21E6 JUMPI PUSH1 0x40 MLOAD PUSH3 0x461BCD PUSH1 0xE5 SHL DUP2 MSTORE PUSH1 0x20 PUSH1 0x4 DUP3 ADD DUP2 SWAP1 MSTORE PUSH1 0x24 DUP3 ADD MSTORE PUSH32 0x4F776E61626C653A2063616C6C6572206973206E6F7420746865206F776E6572 PUSH1 0x44 DUP3 ADD MSTORE PUSH1 0x64 ADD PUSH2 0x90B JUMP JUMPDEST PUSH1 0xCE DUP1 SLOAD PUSH20 0xFFFFFFFFFFFFFFFFFFFFFFFFFFFFFFFFFFFFFFFF NOT AND PUSH1 0x1 PUSH1 0x1 PUSH1 0xA0 SHL SUB SWAP3 SWAP1 SWAP3 AND SWAP2 SWAP1 SWAP2 OR SWAP1 SSTORE JUMP JUMPDEST PUSH1 0x97 SLOAD PUSH1 0xFF AND ISZERO PUSH2 0x225B JUMPI PUSH1 0x40 MLOAD PUSH3 0x461BCD PUSH1 0xE5 SHL DUP2 MSTORE PUSH1 0x20 PUSH1 0x4 DUP3 ADD MSTORE PUSH1 0x10 PUSH1 0x24 DUP3 ADD MSTORE PUSH16 0x14185D5CD8589B194E881C185D5CD959 PUSH1 0x82 SHL PUSH1 0x44 DUP3 ADD MSTORE PUSH1 0x64 ADD PUSH2 0x90B JUMP JUMPDEST PUSH1 0xC9 SLOAD PUSH1 0x1 PUSH1 0x1 PUSH1 0xA0 SHL SUB AND CALLER EQ PUSH2 0x22B5 JUMPI PUSH1 0x40 MLOAD PUSH3 0x461BCD PUSH1 0xE5 SHL DUP2 MSTORE PUSH1 0x20 PUSH1 0x4 DUP3 ADD MSTORE PUSH1 0x10 PUSH1 0x24 DUP3 ADD MSTORE PUSH32 0x4F6E6C79204D6173746572636869656600000000000000000000000000000000 PUSH1 0x44 DUP3 ADD MSTORE PUSH1 0x64 ADD PUSH2 0x90B JUMP JUMPDEST PUSH2 0x22C1 DUP4 DUP5 DUP5 DUP5 PUSH2 0x2EEE JUMP JUMPDEST POP POP POP JUMP JUMPDEST PUSH1 0x97 SLOAD PUSH1 0xFF AND ISZERO PUSH2 0x230C JUMPI PUSH1 0x40 MLOAD PUSH3 0x461BCD PUSH1 0xE5 SHL DUP2 MSTORE PUSH1 0x20 PUSH1 0x4 DUP3 ADD MSTORE PUSH1 0x10 PUSH1 0x24 DUP3 ADD MSTORE PUSH16 0x14185D5CD8589B194E881C185D5CD959 PUSH1 0x82 SHL PUSH1 0x44 DUP3 ADD MSTORE PUSH1 0x64 ADD PUSH2 0x90B JUMP JUMPDEST PUSH2 0x2314 PUSH2 0x3764 JUMP JUMPDEST CALLER PUSH1 0x0 SWAP1 DUP2 MSTORE PUSH1 0xD3 PUSH1 0x20 MSTORE PUSH1 0x40 SWAP1 KECCAK256 SLOAD DUP1 DUP3 GT DUP1 ISZERO SWAP1 PUSH2 0x2335 JUMPI POP PUSH1 0xCC SLOAD DUP3 LT JUMPDEST PUSH2 0x238B JUMPI PUSH1 0x40 MLOAD PUSH3 0x461BCD PUSH1 0xE5 SHL DUP2 MSTORE PUSH1 0x20 PUSH1 0x4 DUP3 ADD MSTORE PUSH1 0x21 PUSH1 0x24 DUP3 ADD MSTORE PUSH32 0x4E6F7420696E207468652072616E6765206F6620616C6C6F77656420736C6F74 PUSH1 0x44 DUP3 ADD MSTORE PUSH1 0x73 PUSH1 0xF8 SHL PUSH1 0x64 DUP3 ADD MSTORE PUSH1 0x84 ADD PUSH2 0x90B JUMP JUMPDEST DUP2 DUP2 GT DUP1 ISZERO PUSH2 0x23CD JUMPI POP CALLER PUSH1 0x0 SWAP1 DUP2 MSTORE PUSH1 0xD3 PUSH1 0x20 MSTORE PUSH1 0x40 SWAP1 KECCAK256 DUP1 SLOAD DUP4 SWAP1 DUP2 LT PUSH2 0x23B6 JUMPI PUSH2 0x23B6 PUSH2 0x542B JUMP JUMPDEST SWAP1 PUSH1 0x0 MSTORE PUSH1 0x20 PUSH1 0x0 KECCAK256 SWAP1 PUSH1 0x6 MUL ADD PUSH1 0x2 ADD SLOAD PUSH1 0x0 EQ ISZERO JUMPDEST ISZERO PUSH2 0x23DC JUMPI PUSH2 0x23DC CALLER DUP4 PUSH2 0x3DB5 JUMP JUMPDEST CALLER PUSH1 0x0 SWAP1 DUP2 MSTORE PUSH1 0x33 PUSH1 0x20 MSTORE PUSH1 0x40 SWAP1 KECCAK256 SLOAD DUP4 GT ISZERO PUSH2 0x2461 JUMPI PUSH1 0x40 MLOAD PUSH3 0x461BCD PUSH1 0xE5 SHL DUP2 MSTORE PUSH1 0x20 PUSH1 0x4 DUP3 ADD MSTORE PUSH1 0x25 PUSH1 0x24 DUP3 ADD MSTORE PUSH32 0x4E6F7420656E6F756768206C6F636B65642056545820746F2073746172742075 PUSH1 0x44 DUP3 ADD MSTORE PUSH32 0x6E6C6F636B000000000000000000000000000000000000000000000000000000 PUSH1 0x64 DUP3 ADD MSTORE PUSH1 0x84 ADD PUSH2 0x90B JUMP JUMPDEST DUP4 PUSH2 0x24AE JUMPI PUSH1 0x40 MLOAD PUSH3 0x461BCD PUSH1 0xE5 SHL DUP2 MSTORE PUSH1 0x20 PUSH1 0x4 DUP3 ADD MSTORE PUSH1 0x1F PUSH1 0x24 DUP3 ADD MSTORE PUSH32 0x537472617465677920726573657276656420666F72206D6967726174696F6E00 PUSH1 0x44 DUP3 ADD MSTORE PUSH1 0x64 ADD PUSH2 0x90B JUMP JUMPDEST PUSH1 0x0 PUSH1 0xD1 DUP6 DUP2 SLOAD DUP2 LT PUSH2 0x24C3 JUMPI PUSH2 0x24C3 PUSH2 0x542B JUMP JUMPDEST SWAP1 PUSH1 0x0 MSTORE PUSH1 0x20 PUSH1 0x0 KECCAK256 SWAP1 PUSH1 0x5 MUL ADD SWAP1 POP DUP1 PUSH1 0x4 ADD PUSH1 0x1 SWAP1 SLOAD SWAP1 PUSH2 0x100 EXP SWAP1 DIV PUSH1 0xFF AND PUSH2 0x2531 JUMPI PUSH1 0x40 MLOAD PUSH3 0x461BCD PUSH1 0xE5 SHL DUP2 MSTORE PUSH1 0x20 PUSH1 0x4 DUP3 ADD MSTORE PUSH1 0x13 PUSH1 0x24 DUP3 ADD MSTORE PUSH32 0x5374726174656779206E6F742061637469766500000000000000000000000000 PUSH1 0x44 DUP3 ADD MSTORE PUSH1 0x64 ADD PUSH2 0x90B JUMP JUMPDEST PUSH2 0x253B CALLER DUP6 PUSH2 0x415D JUMP JUMPDEST PUSH1 0x0 PUSH2 0x2710 DUP6 DUP4 PUSH1 0x3 ADD SLOAD PUSH2 0x2550 SWAP2 SWAP1 PUSH2 0x535D JUMP JUMPDEST PUSH2 0x255A SWAP2 SWAP1 PUSH2 0x533B JUMP JUMPDEST PUSH1 0xCF SLOAD SWAP1 SWAP2 POP PUSH2 0x2574 SWAP1 PUSH1 0x1 PUSH1 0x1 PUSH1 0xA0 SHL SUB AND CALLER DUP4 PUSH2 0x3D24 JUMP JUMPDEST PUSH1 0x0 PUSH2 0x2710 DUP7 DUP5 PUSH1 0x1 ADD SLOAD PUSH2 0x2589 SWAP2 SWAP1 PUSH2 0x535D JUMP JUMPDEST PUSH2 0x2593 SWAP2 SWAP1 PUSH2 0x533B JUMP JUMPDEST PUSH1 0xCF SLOAD PUSH1 0xD0 SLOAD SWAP2 SWAP3 POP PUSH2 0x25B3 SWAP2 PUSH1 0x1 PUSH1 0x1 PUSH1 0xA0 SHL SUB SWAP2 DUP3 AND SWAP2 AND DUP4 PUSH2 0x42D9 JUMP JUMPDEST PUSH1 0xD0 SLOAD PUSH1 0xCF SLOAD PUSH1 0x40 MLOAD PUSH32 0x5BC59CE700000000000000000000000000000000000000000000000000000000 DUP2 MSTORE PUSH1 0x4 DUP2 ADD DUP5 SWAP1 MSTORE PUSH1 0x1 PUSH1 0x1 PUSH1 0xA0 SHL SUB SWAP2 DUP3 AND PUSH1 0x24 DUP3 ADD MSTORE SWAP2 AND SWAP1 PUSH4 0x5BC59CE7 SWAP1 PUSH1 0x44 ADD PUSH1 0x20 PUSH1 0x40 MLOAD DUP1 DUP4 SUB DUP2 PUSH1 0x0 DUP8 DUP1 EXTCODESIZE ISZERO DUP1 ISZERO PUSH2 0x261C JUMPI PUSH1 0x0 DUP1 REVERT JUMPDEST POP GAS CALL ISZERO DUP1 ISZERO PUSH2 0x2630 JUMPI RETURNDATASIZE PUSH1 0x0 DUP1 RETURNDATACOPY RETURNDATASIZE PUSH1 0x0 REVERT JUMPDEST POP POP POP POP PUSH1 0x40 MLOAD RETURNDATASIZE PUSH1 0x1F NOT PUSH1 0x1F DUP3 ADD AND DUP3 ADD DUP1 PUSH1 0x40 MSTORE POP DUP2 ADD SWAP1 PUSH2 0x2654 SWAP2 SWAP1 PUSH2 0x505B JUMP JUMPDEST POP PUSH1 0x0 PUSH2 0x2661 DUP3 DUP5 PUSH2 0x5323 JUMP JUMPDEST SWAP1 POP PUSH1 0x0 PUSH2 0x2710 PUSH2 0x2672 DUP4 DUP11 PUSH2 0x537C JUMP JUMPDEST PUSH1 0x2 DUP8 ADD SLOAD PUSH2 0x2683 SWAP1 PUSH2 0x2710 PUSH2 0x537C JUMP JUMPDEST PUSH2 0x268D SWAP2 SWAP1 PUSH2 0x535D JUMP JUMPDEST PUSH2 0x2697 SWAP2 SWAP1 PUSH2 0x533B JUMP JUMPDEST PUSH1 0xD0 SLOAD SWAP1 SWAP2 POP PUSH1 0x1 PUSH1 0x1 PUSH1 0xA0 SHL SUB AND PUSH4 0x4A951162 CALLER PUSH2 0x26B6 DUP6 DUP6 PUSH2 0x5323 JUMP JUMPDEST PUSH2 0x26BF CALLER PUSH2 0x1EF8 JUMP JUMPDEST PUSH1 0x40 MLOAD PUSH1 0x1 PUSH1 0x1 PUSH1 0xE0 SHL SUB NOT PUSH1 0xE0 DUP7 SWAP1 SHL AND DUP2 MSTORE PUSH1 0x1 PUSH1 0x1 PUSH1 0xA0 SHL SUB SWAP1 SWAP4 AND PUSH1 0x4 DUP5 ADD MSTORE PUSH1 0x24 DUP4 ADD SWAP2 SWAP1 SWAP2 MSTORE PUSH1 0x44 DUP3 ADD MSTORE PUSH1 0x1 PUSH1 0x64 DUP3 ADD MSTORE PUSH1 0x84 ADD PUSH1 0x0 PUSH1 0x40 MLOAD DUP1 DUP4 SUB DUP2 PUSH1 0x0 DUP8 DUP1 EXTCODESIZE ISZERO DUP1 ISZERO PUSH2 0x2714 JUMPI PUSH1 0x0 DUP1 REVERT JUMPDEST POP GAS CALL ISZERO DUP1 ISZERO PUSH2 0x2728 JUMPI RETURNDATASIZE PUSH1 0x0 DUP1 RETURNDATACOPY RETURNDATASIZE PUSH1 0x0 REVERT JUMPDEST POP POP POP POP DUP2 DUP9 PUSH2 0x2738 SWAP2 SWAP1 PUSH2 0x537C JUMP JUMPDEST CALLER PUSH1 0x0 SWAP1 DUP2 MSTORE PUSH1 0xD2 PUSH1 0x20 MSTORE PUSH1 0x40 DUP2 KECCAK256 DUP1 SLOAD SWAP1 SWAP2 SWAP1 PUSH2 0x2757 SWAP1 DUP5 SWAP1 PUSH2 0x5323 JUMP JUMPDEST SWAP1 SWAP2 SSTORE POP PUSH2 0x2767 SWAP1 POP DUP3 DUP10 PUSH2 0x537C JUMP JUMPDEST PUSH1 0xCD PUSH1 0x0 DUP3 DUP3 SLOAD PUSH2 0x2778 SWAP2 SWAP1 PUSH2 0x5323 JUMP JUMPDEST SWAP1 SWAP2 SSTORE POP POP CALLER PUSH1 0x0 SWAP1 DUP2 MSTORE PUSH1 0x33 PUSH1 0x20 MSTORE PUSH1 0x40 SWAP1 KECCAK256 SLOAD PUSH1 0xCE SLOAD PUSH1 0x40 MLOAD PUSH4 0x7F0EA589 PUSH1 0xE1 SHL DUP2 MSTORE CALLER PUSH1 0x4 DUP3 ADD MSTORE PUSH1 0x1 PUSH1 0x1 PUSH1 0xA0 SHL SUB SWAP1 SWAP2 AND SWAP1 PUSH4 0xFE1D4B12 SWAP1 PUSH1 0x24 ADD PUSH1 0x20 PUSH1 0x40 MLOAD DUP1 DUP4 SUB DUP2 DUP7 DUP1 EXTCODESIZE ISZERO DUP1 ISZERO PUSH2 0x27D0 JUMPI PUSH1 0x0 DUP1 REVERT JUMPDEST POP GAS STATICCALL ISZERO DUP1 ISZERO PUSH2 0x27E4 JUMPI RETURNDATASIZE PUSH1 0x0 DUP1 RETURNDATACOPY RETURNDATASIZE PUSH1 0x0 REVERT JUMPDEST POP POP POP POP PUSH1 0x40 MLOAD RETURNDATASIZE PUSH1 0x1F NOT PUSH1 0x1F DUP3 ADD AND DUP3 ADD DUP1 PUSH1 0x40 MSTORE POP DUP2 ADD SWAP1 PUSH2 0x2808 SWAP2 SWAP1 PUSH2 0x5091 JUMP JUMPDEST GT ISZERO PUSH2 0x2856 JUMPI PUSH1 0x40 MLOAD PUSH3 0x461BCD PUSH1 0xE5 SHL DUP2 MSTORE PUSH1 0x20 PUSH1 0x4 DUP3 ADD MSTORE PUSH1 0x12 PUSH1 0x24 DUP3 ADD MSTORE PUSH32 0x546F6F206D75636820766F746520636173740000000000000000000000000000 PUSH1 0x44 DUP3 ADD MSTORE PUSH1 0x64 ADD PUSH2 0x90B JUMP JUMPDEST DUP6 DUP8 LT ISZERO PUSH2 0x2918 JUMPI PUSH1 0x40 MLOAD DUP1 PUSH1 0xC0 ADD PUSH1 0x40 MSTORE DUP1 TIMESTAMP DUP2 MSTORE PUSH1 0x20 ADD DUP7 PUSH1 0x0 ADD SLOAD TIMESTAMP PUSH2 0x287F SWAP2 SWAP1 PUSH2 0x5323 JUMP JUMPDEST DUP2 MSTORE PUSH1 0x20 ADD PUSH2 0x288E DUP5 DUP12 PUSH2 0x537C JUMP JUMPDEST DUP2 MSTORE PUSH1 0x20 DUP1 DUP3 ADD DUP13 SWAP1 MSTORE PUSH1 0x40 DUP1 DUP4 ADD DUP6 SWAP1 MSTORE PUSH1 0x0 PUSH1 0x60 SWAP1 SWAP4 ADD DUP4 SWAP1 MSTORE CALLER DUP4 MSTORE PUSH1 0xD3 SWAP1 SWAP2 MSTORE SWAP1 KECCAK256 DUP1 SLOAD DUP10 SWAP1 DUP2 LT PUSH2 0x28C6 JUMPI PUSH2 0x28C6 PUSH2 0x542B JUMP JUMPDEST SWAP1 PUSH1 0x0 MSTORE PUSH1 0x20 PUSH1 0x0 KECCAK256 SWAP1 PUSH1 0x6 MUL ADD PUSH1 0x0 DUP3 ADD MLOAD DUP2 PUSH1 0x0 ADD SSTORE PUSH1 0x20 DUP3 ADD MLOAD DUP2 PUSH1 0x1 ADD SSTORE PUSH1 0x40 DUP3 ADD MLOAD DUP2 PUSH1 0x2 ADD SSTORE PUSH1 0x60 DUP3 ADD MLOAD DUP2 PUSH1 0x3 ADD SSTORE PUSH1 0x80 DUP3 ADD MLOAD DUP2 PUSH1 0x4 ADD SSTORE PUSH1 0xA0 DUP3 ADD MLOAD DUP2 PUSH1 0x5 ADD SSTORE SWAP1 POP POP PUSH2 0x29C0 JUMP JUMPDEST CALLER PUSH1 0x0 SWAP1 DUP2 MSTORE PUSH1 0xD3 PUSH1 0x20 SWAP1 DUP2 MSTORE PUSH1 0x40 SWAP2 DUP3 SWAP1 KECCAK256 DUP3 MLOAD PUSH1 0xC0 DUP2 ADD SWAP1 SWAP4 MSTORE TIMESTAMP DUP1 DUP5 MSTORE DUP9 SLOAD SWAP2 SWAP4 SWAP3 DUP4 ADD SWAP2 PUSH2 0x2949 SWAP2 PUSH2 0x5323 JUMP JUMPDEST DUP2 MSTORE PUSH1 0x20 ADD PUSH2 0x2958 DUP6 DUP13 PUSH2 0x537C JUMP JUMPDEST DUP2 MSTORE PUSH1 0x20 DUP1 DUP3 ADD DUP14 SWAP1 MSTORE PUSH1 0x40 DUP1 DUP4 ADD DUP7 SWAP1 MSTORE PUSH1 0x0 PUSH1 0x60 SWAP4 DUP5 ADD DUP2 SWAP1 MSTORE DUP6 SLOAD PUSH1 0x1 DUP2 DUP2 ADD DUP9 SSTORE SWAP7 DUP3 MSTORE SWAP1 DUP4 SWAP1 KECCAK256 DUP6 MLOAD PUSH1 0x6 SWAP1 SWAP3 MUL ADD SWAP1 DUP2 SSTORE SWAP2 DUP5 ADD MLOAD SWAP5 DUP3 ADD SWAP5 SWAP1 SWAP5 SSTORE SWAP3 DUP3 ADD MLOAD PUSH1 0x2 DUP5 ADD SSTORE DUP2 ADD MLOAD PUSH1 0x3 DUP4 ADD SSTORE PUSH1 0x80 DUP2 ADD MLOAD PUSH1 0x4 DUP4 ADD SSTORE PUSH1 0xA0 ADD MLOAD PUSH1 0x5 SWAP1 SWAP2 ADD SSTORE JUMPDEST PUSH1 0x40 DUP1 MLOAD DUP10 DUP2 MSTORE PUSH1 0x20 DUP2 ADD DUP12 SWAP1 MSTORE TIMESTAMP SWAP2 CALLER SWAP2 PUSH32 0x9A398B809C9CA5DBC72899E94E5399292458136B18391A32ADF6D254017211D7 SWAP2 ADD PUSH1 0x40 MLOAD DUP1 SWAP2 SUB SWAP1 LOG3 POP POP POP POP POP POP PUSH2 0x2A0B PUSH2 0x1055 JUMP JUMPDEST PUSH1 0xCF SLOAD PUSH1 0x40 MLOAD PUSH4 0x70A08231 PUSH1 0xE0 SHL DUP2 MSTORE ADDRESS PUSH1 0x4 DUP3 ADD MSTORE PUSH1 0x1 PUSH1 0x1 PUSH1 0xA0 SHL SUB SWAP1 SWAP2 AND SWAP1 PUSH4 0x70A08231 SWAP1 PUSH1 0x24 ADD PUSH1 0x20 PUSH1 0x40 MLOAD DUP1 DUP4 SUB DUP2 DUP7 DUP1 EXTCODESIZE ISZERO DUP1 ISZERO PUSH2 0x2A4E JUMPI PUSH1 0x0 DUP1 REVERT JUMPDEST POP GAS STATICCALL ISZERO DUP1 ISZERO PUSH2 0x2A62 JUMPI RETURNDATASIZE PUSH1 0x0 DUP1 RETURNDATACOPY RETURNDATASIZE PUSH1 0x0 REVERT JUMPDEST POP POP POP POP PUSH1 0x40 MLOAD RETURNDATASIZE PUSH1 0x1F NOT PUSH1 0x1F DUP3 ADD AND DUP3 ADD DUP1 PUSH1 0x40 MSTORE POP DUP2 ADD SWAP1 PUSH2 0x2A86 SWAP2 SWAP1 PUSH2 0x5091 JUMP JUMPDEST LT ISZERO PUSH2 0x22C1 JUMPI PUSH1 0x40 MLOAD PUSH3 0x461BCD PUSH1 0xE5 SHL DUP2 MSTORE PUSH1 0x20 PUSH1 0x4 DUP3 ADD MSTORE PUSH1 0xE PUSH1 0x24 DUP3 ADD MSTORE PUSH14 0x10D492551250D053081190555315 PUSH1 0x92 SHL PUSH1 0x44 DUP3 ADD MSTORE PUSH1 0x64 ADD PUSH2 0x90B JUMP JUMPDEST PUSH1 0x97 SLOAD PUSH1 0xFF AND ISZERO PUSH2 0x2B0B JUMPI PUSH1 0x40 MLOAD PUSH3 0x461BCD PUSH1 0xE5 SHL DUP2 MSTORE PUSH1 0x20 PUSH1 0x4 DUP3 ADD MSTORE PUSH1 0x10 PUSH1 0x24 DUP3 ADD MSTORE PUSH16 0x14185D5CD8589B194E881C185D5CD959 PUSH1 0x82 SHL PUSH1 0x44 DUP3 ADD MSTORE PUSH1 0x64 ADD PUSH2 0x90B JUMP JUMPDEST PUSH2 0x2B13 PUSH2 0x3764 JUMP JUMPDEST PUSH2 0x2184 DUP2 PUSH2 0x3A76 JUMP JUMPDEST CALLER PUSH1 0x0 SWAP1 DUP2 MSTORE PUSH1 0xD3 PUSH1 0x20 MSTORE PUSH1 0x40 SWAP1 KECCAK256 SLOAD DUP1 DUP3 GT ISZERO PUSH2 0x2B86 JUMPI PUSH1 0x40 MLOAD PUSH3 0x461BCD PUSH1 0xE5 SHL DUP2 MSTORE PUSH1 0x20 PUSH1 0x4 DUP3 ADD MSTORE PUSH1 0x21 PUSH1 0x24 DUP3 ADD MSTORE PUSH32 0x4E6F7420696E207468652072616E6765206F6620616C6C6F77656420736C6F74 PUSH1 0x44 DUP3 ADD MSTORE PUSH1 0x73 PUSH1 0xF8 SHL PUSH1 0x64 DUP3 ADD MSTORE PUSH1 0x84 ADD PUSH2 0x90B JUMP JUMPDEST CALLER PUSH1 0x0 SWAP1 DUP2 MSTORE PUSH1 0xD3 PUSH1 0x20 MSTORE PUSH1 0x40 DUP2 KECCAK256 DUP1 SLOAD DUP5 SWAP1 DUP2 LT PUSH2 0x2BA7 JUMPI PUSH2 0x2BA7 PUSH2 0x542B JUMP JUMPDEST SWAP1 PUSH1 0x0 MSTORE PUSH1 0x20 PUSH1 0x0 KECCAK256 SWAP1 PUSH1 0x6 MUL ADD PUSH1 0x40 MLOAD DUP1 PUSH1 0xC0 ADD PUSH1 0x40 MSTORE SWAP1 DUP2 PUSH1 0x0 DUP3 ADD SLOAD DUP2 MSTORE PUSH1 0x20 ADD PUSH1 0x1 DUP3 ADD SLOAD DUP2 MSTORE PUSH1 0x20 ADD PUSH1 0x2 DUP3 ADD SLOAD DUP2 MSTORE PUSH1 0x20 ADD PUSH1 0x3 DUP3 ADD SLOAD DUP2 MSTORE PUSH1 0x20 ADD PUSH1 0x4 DUP3 ADD SLOAD DUP2 MSTORE PUSH1 0x20 ADD PUSH1 0x5 DUP3 ADD SLOAD DUP2 MSTORE POP POP SWAP1 POP PUSH2 0x97A DUP2 PUSH1 0x60 ADD MLOAD DUP6 DUP4 PUSH1 0x40 ADD MLOAD PUSH2 0x2C16 SWAP2 SWAP1 PUSH2 0x5323 JUMP JUMPDEST DUP6 PUSH2 0x22C6 JUMP JUMPDEST PUSH1 0x65 SLOAD PUSH1 0x1 PUSH1 0x1 PUSH1 0xA0 SHL SUB AND CALLER EQ PUSH2 0x2C76 JUMPI PUSH1 0x40 MLOAD PUSH3 0x461BCD PUSH1 0xE5 SHL DUP2 MSTORE PUSH1 0x20 PUSH1 0x4 DUP3 ADD DUP2 SWAP1 MSTORE PUSH1 0x24 DUP3 ADD MSTORE PUSH32 0x4F776E61626C653A2063616C6C6572206973206E6F7420746865206F776E6572 PUSH1 0x44 DUP3 ADD MSTORE PUSH1 0x64 ADD PUSH2 0x90B JUMP JUMPDEST PUSH1 0x1 PUSH1 0x1 PUSH1 0xA0 SHL SUB DUP2 AND PUSH2 0x2CF2 JUMPI PUSH1 0x40 MLOAD PUSH3 0x461BCD PUSH1 0xE5 SHL DUP2 MSTORE PUSH1 0x20 PUSH1 0x4 DUP3 ADD MSTORE PUSH1 0x26 PUSH1 0x24 DUP3 ADD MSTORE PUSH32 0x4F776E61626C653A206E6577206F776E657220697320746865207A65726F2061 PUSH1 0x44 DUP3 ADD MSTORE PUSH32 0x6464726573730000000000000000000000000000000000000000000000000000 PUSH1 0x64 DUP3 ADD MSTORE PUSH1 0x84 ADD PUSH2 0x90B JUMP JUMPDEST PUSH2 0x15BC DUP2 PUSH2 0x4083 JUMP JUMPDEST PUSH1 0x65 SLOAD PUSH1 0x1 PUSH1 0x1 PUSH1 0xA0 SHL SUB AND CALLER EQ PUSH2 0x2D55 JUMPI PUSH1 0x40 MLOAD PUSH3 0x461BCD PUSH1 0xE5 SHL DUP2 MSTORE PUSH1 0x20 PUSH1 0x4 DUP3 ADD DUP2 SWAP1 MSTORE PUSH1 0x24 DUP3 ADD MSTORE PUSH32 0x4F776E61626C653A2063616C6C6572206973206E6F7420746865206F776E6572 PUSH1 0x44 DUP3 ADD MSTORE PUSH1 0x64 ADD PUSH2 0x90B JUMP JUMPDEST DUP1 PUSH1 0xD1 DUP4 DUP2 SLOAD DUP2 LT PUSH2 0x2D69 JUMPI PUSH2 0x2D69 PUSH2 0x542B JUMP JUMPDEST SWAP1 PUSH1 0x0 MSTORE PUSH1 0x20 PUSH1 0x0 KECCAK256 SWAP1 PUSH1 0x5 MUL ADD PUSH1 0x4 ADD PUSH1 0x1 PUSH2 0x100 EXP DUP2 SLOAD DUP2 PUSH1 0xFF MUL NOT AND SWAP1 DUP4 ISZERO ISZERO MUL OR SWAP1 SSTORE POP POP POP JUMP JUMPDEST PUSH1 0x1 PUSH1 0x1 PUSH1 0xA0 SHL SUB DUP4 AND PUSH2 0x2E10 JUMPI PUSH1 0x40 MLOAD PUSH3 0x461BCD PUSH1 0xE5 SHL DUP2 MSTORE PUSH1 0x20 PUSH1 0x4 DUP3 ADD MSTORE PUSH1 0x24 DUP1 DUP3 ADD MSTORE PUSH32 0x45524332303A20617070726F76652066726F6D20746865207A65726F20616464 PUSH1 0x44 DUP3 ADD MSTORE PUSH32 0x7265737300000000000000000000000000000000000000000000000000000000 PUSH1 0x64 DUP3 ADD MSTORE PUSH1 0x84 ADD PUSH2 0x90B JUMP JUMPDEST PUSH1 0x1 PUSH1 0x1 PUSH1 0xA0 SHL SUB DUP3 AND PUSH2 0x2E8C JUMPI PUSH1 0x40 MLOAD PUSH3 0x461BCD PUSH1 0xE5 SHL DUP2 MSTORE PUSH1 0x20 PUSH1 0x4 DUP3 ADD MSTORE PUSH1 0x22 PUSH1 0x24 DUP3 ADD MSTORE PUSH32 0x45524332303A20617070726F766520746F20746865207A65726F206164647265 PUSH1 0x44 DUP3 ADD MSTORE PUSH32 0x7373000000000000000000000000000000000000000000000000000000000000 PUSH1 0x64 DUP3 ADD MSTORE PUSH1 0x84 ADD PUSH2 0x90B JUMP JUMPDEST PUSH1 0x1 PUSH1 0x1 PUSH1 0xA0 SHL SUB DUP4 DUP2 AND PUSH1 0x0 DUP2 DUP2 MSTORE PUSH1 0x34 PUSH1 0x20 SWAP1 DUP2 MSTORE PUSH1 0x40 DUP1 DUP4 KECCAK256 SWAP5 DUP8 AND DUP1 DUP5 MSTORE SWAP5 DUP3 MSTORE SWAP2 DUP3 SWAP1 KECCAK256 DUP6 SWAP1 SSTORE SWAP1 MLOAD DUP5 DUP2 MSTORE PUSH32 0x8C5BE1E5EBEC7D5BD14F71427D1E84F3DD0314C0F7B2291E5B200AC8C7C3B925 SWAP2 ADD JUMPDEST PUSH1 0x40 MLOAD DUP1 SWAP2 SUB SWAP1 LOG3 POP POP POP JUMP JUMPDEST PUSH1 0x1 PUSH1 0x1 PUSH1 0xA0 SHL SUB DUP5 AND PUSH1 0x0 SWAP1 DUP2 MSTORE PUSH1 0xD5 PUSH1 0x20 MSTORE PUSH1 0x40 SWAP1 KECCAK256 SLOAD PUSH1 0xFF AND ISZERO PUSH2 0x2F57 JUMPI PUSH1 0x40 MLOAD PUSH3 0x461BCD PUSH1 0xE5 SHL DUP2 MSTORE PUSH1 0x20 PUSH1 0x4 DUP3 ADD MSTORE PUSH1 0x10 PUSH1 0x24 DUP3 ADD MSTORE PUSH32 0x416C7265616479206D6967726174656400000000000000000000000000000000 PUSH1 0x44 DUP3 ADD MSTORE PUSH1 0x64 ADD PUSH2 0x90B JUMP JUMPDEST PUSH1 0x1 PUSH1 0x1 PUSH1 0xA0 SHL SUB DUP5 DUP2 AND PUSH1 0x0 DUP2 DUP2 MSTORE PUSH1 0xD5 PUSH1 0x20 MSTORE PUSH1 0x40 DUP1 DUP3 KECCAK256 DUP1 SLOAD PUSH1 0xFF NOT AND PUSH1 0x1 OR SWAP1 SSTORE PUSH1 0xCB SLOAD SWAP1 MLOAD PUSH32 0x87FA85F600000000000000000000000000000000000000000000000000000000 DUP2 MSTORE PUSH1 0x4 DUP2 ADD SWAP4 SWAP1 SWAP4 MSTORE SWAP1 SWAP3 AND SWAP1 PUSH4 0x87FA85F6 SWAP1 PUSH1 0x24 ADD PUSH1 0x20 PUSH1 0x40 MLOAD DUP1 DUP4 SUB DUP2 DUP7 DUP1 EXTCODESIZE ISZERO DUP1 ISZERO PUSH2 0x2FD1 JUMPI PUSH1 0x0 DUP1 REVERT JUMPDEST POP GAS STATICCALL ISZERO DUP1 ISZERO PUSH2 0x2FE5 JUMPI RETURNDATASIZE PUSH1 0x0 DUP1 RETURNDATACOPY RETURNDATASIZE PUSH1 0x0 REVERT JUMPDEST POP POP POP POP PUSH1 0x40 MLOAD RETURNDATASIZE PUSH1 0x1F NOT PUSH1 0x1F DUP3 ADD AND DUP3 ADD DUP1 PUSH1 0x40 MSTORE POP DUP2 ADD SWAP1 PUSH2 0x3009 SWAP2 SWAP1 PUSH2 0x5091 JUMP JUMPDEST SWAP1 POP DUP2 DUP2 EQ PUSH2 0x305A JUMPI PUSH1 0x40 MLOAD PUSH3 0x461BCD PUSH1 0xE5 SHL DUP2 MSTORE PUSH1 0x20 PUSH1 0x4 DUP3 ADD MSTORE PUSH1 0xF PUSH1 0x24 DUP3 ADD MSTORE PUSH32 0x496E636F727265637420696E7075740000000000000000000000000000000000 PUSH1 0x44 DUP3 ADD MSTORE PUSH1 0x64 ADD PUSH2 0x90B JUMP JUMPDEST PUSH1 0x0 DUP1 PUSH1 0x0 PUSH1 0xD1 PUSH1 0x0 DUP2 SLOAD DUP2 LT PUSH2 0x3073 JUMPI PUSH2 0x3073 PUSH2 0x542B JUMP JUMPDEST SWAP1 PUSH1 0x0 MSTORE PUSH1 0x20 PUSH1 0x0 KECCAK256 SWAP1 PUSH1 0x5 MUL ADD SWAP1 POP PUSH1 0x0 JUMPDEST DUP5 DUP2 LT ISZERO PUSH2 0x32B4 JUMPI PUSH1 0xCB SLOAD PUSH1 0x40 MLOAD PUSH32 0x64E3826A00000000000000000000000000000000000000000000000000000000 DUP2 MSTORE PUSH1 0x1 PUSH1 0x1 PUSH1 0xA0 SHL SUB DUP12 DUP2 AND PUSH1 0x4 DUP4 ADD MSTORE PUSH1 0x24 DUP3 ADD DUP5 SWAP1 MSTORE PUSH1 0x0 SWAP3 DUP4 SWAP3 SWAP2 AND SWAP1 PUSH4 0x64E3826A SWAP1 PUSH1 0x44 ADD PUSH1 0x60 PUSH1 0x40 MLOAD DUP1 DUP4 SUB DUP2 DUP7 DUP1 EXTCODESIZE ISZERO DUP1 ISZERO PUSH2 0x30F7 JUMPI PUSH1 0x0 DUP1 REVERT JUMPDEST POP GAS STATICCALL ISZERO DUP1 ISZERO PUSH2 0x310B JUMPI RETURNDATASIZE PUSH1 0x0 DUP1 RETURNDATACOPY RETURNDATASIZE PUSH1 0x0 REVERT JUMPDEST POP POP POP POP PUSH1 0x40 MLOAD RETURNDATASIZE PUSH1 0x1F NOT PUSH1 0x1F DUP3 ADD AND DUP3 ADD DUP1 PUSH1 0x40 MSTORE POP DUP2 ADD SWAP1 PUSH2 0x312F SWAP2 SWAP1 PUSH2 0x51EF JUMP JUMPDEST SWAP3 POP SWAP3 POP POP PUSH1 0x0 TIMESTAMP DUP4 LT ISZERO PUSH2 0x314F JUMPI PUSH2 0x3148 DUP3 DUP8 PUSH2 0x5323 JUMP JUMPDEST SWAP6 POP PUSH2 0x3292 JUMP JUMPDEST PUSH2 0x2710 DUP6 PUSH1 0x2 ADD SLOAD DUP4 PUSH2 0x3162 SWAP2 SWAP1 PUSH2 0x535D JUMP JUMPDEST PUSH2 0x316C SWAP2 SWAP1 PUSH2 0x533B JUMP JUMPDEST SWAP1 POP DUP10 DUP10 DUP6 DUP2 DUP2 LT PUSH2 0x3180 JUMPI PUSH2 0x3180 PUSH2 0x542B JUMP JUMPDEST SWAP1 POP PUSH1 0x20 MUL ADD PUSH1 0x20 DUP2 ADD SWAP1 PUSH2 0x3195 SWAP2 SWAP1 PUSH2 0x503E JUMP JUMPDEST ISZERO PUSH2 0x31A9 JUMPI PUSH2 0x31A4 DUP12 DUP4 PUSH2 0x43FE JUMP JUMPDEST PUSH2 0x3292 JUMP JUMPDEST PUSH1 0x1 PUSH1 0x1 PUSH1 0xA0 SHL SUB DUP12 AND PUSH1 0x0 SWAP1 DUP2 MSTORE PUSH1 0xD2 PUSH1 0x20 MSTORE PUSH1 0x40 DUP2 KECCAK256 DUP1 SLOAD DUP5 SWAP3 SWAP1 PUSH2 0x31D1 SWAP1 DUP5 SWAP1 PUSH2 0x5323 JUMP JUMPDEST SWAP3 POP POP DUP2 SWAP1 SSTORE POP DUP2 PUSH1 0xCD PUSH1 0x0 DUP3 DUP3 SLOAD PUSH2 0x31EA SWAP2 SWAP1 PUSH2 0x5323 JUMP JUMPDEST SWAP1 SWAP2 SSTORE POP POP PUSH1 0x1 PUSH1 0x1 PUSH1 0xA0 SHL SUB DUP12 AND PUSH1 0x0 SWAP1 DUP2 MSTORE PUSH1 0xD3 PUSH1 0x20 SWAP1 DUP2 MSTORE PUSH1 0x40 DUP1 DUP4 KECCAK256 DUP2 MLOAD PUSH1 0xC0 DUP2 ADD DUP4 MSTORE TIMESTAMP DUP2 MSTORE SWAP3 DUP4 ADD DUP8 SWAP1 MSTORE SWAP1 DUP3 ADD DUP6 SWAP1 MSTORE PUSH1 0x60 DUP3 ADD SWAP3 SWAP1 SWAP3 MSTORE PUSH1 0x80 DUP2 ADD PUSH2 0x3237 DUP5 DUP7 PUSH2 0x537C JUMP JUMPDEST DUP2 MSTORE PUSH1 0x0 PUSH1 0x20 SWAP2 DUP3 ADD DUP2 SWAP1 MSTORE DUP4 SLOAD PUSH1 0x1 DUP2 DUP2 ADD DUP7 SSTORE SWAP5 DUP3 MSTORE SWAP1 DUP3 SWAP1 KECCAK256 DUP4 MLOAD PUSH1 0x6 SWAP1 SWAP3 MUL ADD SWAP1 DUP2 SSTORE SWAP1 DUP3 ADD MLOAD SWAP3 DUP2 ADD SWAP3 SWAP1 SWAP3 SSTORE PUSH1 0x40 DUP2 ADD MLOAD PUSH1 0x2 DUP4 ADD SSTORE PUSH1 0x60 DUP2 ADD MLOAD PUSH1 0x3 DUP4 ADD SSTORE PUSH1 0x80 DUP2 ADD MLOAD PUSH1 0x4 DUP4 ADD SSTORE PUSH1 0xA0 ADD MLOAD PUSH1 0x5 SWAP1 SWAP2 ADD SSTORE JUMPDEST PUSH2 0x329C DUP2 DUP9 PUSH2 0x5323 JUMP JUMPDEST SWAP7 POP POP POP POP DUP1 DUP1 PUSH2 0x32AC SWAP1 PUSH2 0x53FA JUMP JUMPDEST SWAP2 POP POP PUSH2 0x3086 JUMP JUMPDEST POP PUSH1 0x1 PUSH1 0x1 PUSH1 0xA0 SHL SUB DUP8 AND PUSH1 0x0 SWAP1 DUP2 MSTORE PUSH1 0xD3 PUSH1 0x20 MSTORE PUSH1 0x40 SWAP1 KECCAK256 SLOAD PUSH1 0xCC SLOAD DUP2 GT ISZERO PUSH2 0x3320 JUMPI PUSH1 0x40 MLOAD PUSH3 0x461BCD PUSH1 0xE5 SHL DUP2 MSTORE PUSH1 0x20 PUSH1 0x4 DUP3 ADD MSTORE PUSH1 0x10 PUSH1 0x24 DUP3 ADD MSTORE PUSH32 0x4D617820736C6F74207265616368656400000000000000000000000000000000 PUSH1 0x44 DUP3 ADD MSTORE PUSH1 0x64 ADD PUSH2 0x90B JUMP JUMPDEST PUSH1 0xD0 SLOAD PUSH1 0x40 MLOAD PUSH4 0x5DC8121 PUSH1 0xE3 SHL DUP2 MSTORE PUSH1 0x1 PUSH1 0x1 PUSH1 0xA0 SHL SUB DUP11 DUP2 AND PUSH1 0x4 DUP4 ADD MSTORE PUSH1 0x24 DUP3 ADD DUP8 SWAP1 MSTORE SWAP1 SWAP2 AND SWAP1 PUSH4 0x2EE40908 SWAP1 PUSH1 0x44 ADD PUSH1 0x20 PUSH1 0x40 MLOAD DUP1 DUP4 SUB DUP2 PUSH1 0x0 DUP8 DUP1 EXTCODESIZE ISZERO DUP1 ISZERO PUSH2 0x336E JUMPI PUSH1 0x0 DUP1 REVERT JUMPDEST POP GAS CALL ISZERO DUP1 ISZERO PUSH2 0x3382 JUMPI RETURNDATASIZE PUSH1 0x0 DUP1 RETURNDATACOPY RETURNDATASIZE PUSH1 0x0 REVERT JUMPDEST POP POP POP POP PUSH1 0x40 MLOAD RETURNDATASIZE PUSH1 0x1F NOT PUSH1 0x1F DUP3 ADD AND DUP3 ADD DUP1 PUSH1 0x40 MSTORE POP DUP2 ADD SWAP1 PUSH2 0x33A6 SWAP2 SWAP1 PUSH2 0x505B JUMP JUMPDEST POP PUSH1 0xCF SLOAD PUSH2 0x33BE SWAP1 PUSH1 0x1 PUSH1 0x1 PUSH1 0xA0 SHL SUB AND DUP10 DUP6 PUSH2 0x3D24 JUMP JUMPDEST POP POP POP POP POP POP POP POP POP JUMP JUMPDEST PUSH1 0x0 SLOAD PUSH2 0x100 SWAP1 DIV PUSH1 0xFF AND PUSH2 0x3434 JUMPI PUSH1 0x40 MLOAD PUSH3 0x461BCD PUSH1 0xE5 SHL DUP2 MSTORE PUSH1 0x20 PUSH1 0x4 DUP3 ADD MSTORE PUSH1 0x2B PUSH1 0x24 DUP3 ADD MSTORE PUSH32 0x496E697469616C697A61626C653A20636F6E7472616374206973206E6F742069 PUSH1 0x44 DUP3 ADD MSTORE PUSH11 0x6E697469616C697A696E67 PUSH1 0xA8 SHL PUSH1 0x64 DUP3 ADD MSTORE PUSH1 0x84 ADD PUSH2 0x90B JUMP JUMPDEST PUSH2 0x343C PUSH2 0x44F1 JUMP JUMPDEST PUSH2 0xE90 DUP3 DUP3 PUSH2 0x455C JUMP JUMPDEST PUSH1 0x0 SLOAD PUSH2 0x100 SWAP1 DIV PUSH1 0xFF AND PUSH2 0x34B1 JUMPI PUSH1 0x40 MLOAD PUSH3 0x461BCD PUSH1 0xE5 SHL DUP2 MSTORE PUSH1 0x20 PUSH1 0x4 DUP3 ADD MSTORE PUSH1 0x2B PUSH1 0x24 DUP3 ADD MSTORE PUSH32 0x496E697469616C697A61626C653A20636F6E7472616374206973206E6F742069 PUSH1 0x44 DUP3 ADD MSTORE PUSH11 0x6E697469616C697A696E67 PUSH1 0xA8 SHL PUSH1 0x64 DUP3 ADD MSTORE PUSH1 0x84 ADD PUSH2 0x90B JUMP JUMPDEST PUSH2 0x34B9 PUSH2 0x44F1 JUMP JUMPDEST PUSH2 0xF32 PUSH2 0x45EE JUMP JUMPDEST PUSH1 0x0 SLOAD PUSH2 0x100 SWAP1 DIV PUSH1 0xFF AND PUSH2 0x352C JUMPI PUSH1 0x40 MLOAD PUSH3 0x461BCD PUSH1 0xE5 SHL DUP2 MSTORE PUSH1 0x20 PUSH1 0x4 DUP3 ADD MSTORE PUSH1 0x2B PUSH1 0x24 DUP3 ADD MSTORE PUSH32 0x496E697469616C697A61626C653A20636F6E7472616374206973206E6F742069 PUSH1 0x44 DUP3 ADD MSTORE PUSH11 0x6E697469616C697A696E67 PUSH1 0xA8 SHL PUSH1 0x64 DUP3 ADD MSTORE PUSH1 0x84 ADD PUSH2 0x90B JUMP JUMPDEST PUSH2 0x3534 PUSH2 0x44F1 JUMP JUMPDEST PUSH2 0xF32 PUSH2 0x4662 JUMP JUMPDEST PUSH1 0x1 PUSH1 0x1 PUSH1 0xA0 SHL SUB DUP4 AND PUSH2 0x35B8 JUMPI PUSH1 0x40 MLOAD PUSH3 0x461BCD PUSH1 0xE5 SHL DUP2 MSTORE PUSH1 0x20 PUSH1 0x4 DUP3 ADD MSTORE PUSH1 0x25 PUSH1 0x24 DUP3 ADD MSTORE PUSH32 0x45524332303A207472616E736665722066726F6D20746865207A65726F206164 PUSH1 0x44 DUP3 ADD MSTORE PUSH32 0x6472657373000000000000000000000000000000000000000000000000000000 PUSH1 0x64 DUP3 ADD MSTORE PUSH1 0x84 ADD PUSH2 0x90B JUMP JUMPDEST PUSH1 0x1 PUSH1 0x1 PUSH1 0xA0 SHL SUB DUP3 AND PUSH2 0x3634 JUMPI PUSH1 0x40 MLOAD PUSH3 0x461BCD PUSH1 0xE5 SHL DUP2 MSTORE PUSH1 0x20 PUSH1 0x4 DUP3 ADD MSTORE PUSH1 0x23 PUSH1 0x24 DUP3 ADD MSTORE PUSH32 0x45524332303A207472616E7366657220746F20746865207A65726F2061646472 PUSH1 0x44 DUP3 ADD MSTORE PUSH32 0x6573730000000000000000000000000000000000000000000000000000000000 PUSH1 0x64 DUP3 ADD MSTORE PUSH1 0x84 ADD PUSH2 0x90B JUMP JUMPDEST PUSH2 0x363F DUP4 DUP4 DUP4 PUSH2 0x46D9 JUMP JUMPDEST PUSH1 0x1 PUSH1 0x1 PUSH1 0xA0 SHL SUB DUP4 AND PUSH1 0x0 SWAP1 DUP2 MSTORE PUSH1 0x33 PUSH1 0x20 MSTORE PUSH1 0x40 SWAP1 KECCAK256 SLOAD DUP2 DUP2 LT ISZERO PUSH2 0x36CE JUMPI PUSH1 0x40 MLOAD PUSH3 0x461BCD PUSH1 0xE5 SHL DUP2 MSTORE PUSH1 0x20 PUSH1 0x4 DUP3 ADD MSTORE PUSH1 0x26 PUSH1 0x24 DUP3 ADD MSTORE PUSH32 0x45524332303A207472616E7366657220616D6F756E7420657863656564732062 PUSH1 0x44 DUP3 ADD MSTORE PUSH32 0x616C616E63650000000000000000000000000000000000000000000000000000 PUSH1 0x64 DUP3 ADD MSTORE PUSH1 0x84 ADD PUSH2 0x90B JUMP JUMPDEST PUSH1 0x1 PUSH1 0x1 PUSH1 0xA0 SHL SUB DUP1 DUP6 AND PUSH1 0x0 SWAP1 DUP2 MSTORE PUSH1 0x33 PUSH1 0x20 MSTORE PUSH1 0x40 DUP1 DUP3 KECCAK256 DUP6 DUP6 SUB SWAP1 SSTORE SWAP2 DUP6 AND DUP2 MSTORE SWAP1 DUP2 KECCAK256 DUP1 SLOAD DUP5 SWAP3 SWAP1 PUSH2 0x3705 SWAP1 DUP5 SWAP1 PUSH2 0x5323 JUMP JUMPDEST SWAP3 POP POP DUP2 SWAP1 SSTORE POP DUP3 PUSH1 0x1 PUSH1 0x1 PUSH1 0xA0 SHL SUB AND DUP5 PUSH1 0x1 PUSH1 0x1 PUSH1 0xA0 SHL SUB AND PUSH32 0xDDF252AD1BE2C89B69C2B068FC378DAA952BA7F163C4A11628F55A4DF523B3EF DUP5 PUSH1 0x40 MLOAD PUSH2 0x3751 SWAP2 DUP2 MSTORE PUSH1 0x20 ADD SWAP1 JUMP JUMPDEST PUSH1 0x40 MLOAD DUP1 SWAP2 SUB SWAP1 LOG3 PUSH2 0x97A DUP5 DUP5 DUP5 PUSH2 0x484B JUMP JUMPDEST PUSH1 0x97 SLOAD PUSH1 0xFF AND ISZERO PUSH2 0x37AA JUMPI PUSH1 0x40 MLOAD PUSH3 0x461BCD PUSH1 0xE5 SHL DUP2 MSTORE PUSH1 0x20 PUSH1 0x4 DUP3 ADD MSTORE PUSH1 0x10 PUSH1 0x24 DUP3 ADD MSTORE PUSH16 0x14185D5CD8589B194E881C185D5CD959 PUSH1 0x82 SHL PUSH1 0x44 DUP3 ADD MSTORE PUSH1 0x64 ADD PUSH2 0x90B JUMP JUMPDEST PUSH1 0xC9 SLOAD PUSH1 0xCA SLOAD PUSH1 0x40 MLOAD PUSH32 0xAD05E62700000000000000000000000000000000000000000000000000000000 DUP2 MSTORE PUSH1 0x1 PUSH1 0x1 PUSH1 0xA0 SHL SUB SWAP2 DUP3 AND PUSH1 0x4 DUP3 ADD MSTORE ADDRESS PUSH1 0x24 DUP3 ADD MSTORE PUSH1 0x0 PUSH1 0x44 DUP3 ADD DUP2 SWAP1 MSTORE SWAP3 SWAP2 SWAP1 SWAP2 AND SWAP1 PUSH4 0xAD05E627 SWAP1 PUSH1 0x64 ADD PUSH1 0x0 PUSH1 0x40 MLOAD DUP1 DUP4 SUB DUP2 DUP7 DUP1 EXTCODESIZE ISZERO DUP1 ISZERO PUSH2 0x381C JUMPI PUSH1 0x0 DUP1 REVERT JUMPDEST POP GAS STATICCALL ISZERO DUP1 ISZERO PUSH2 0x3830 JUMPI RETURNDATASIZE PUSH1 0x0 DUP1 RETURNDATACOPY RETURNDATASIZE PUSH1 0x0 REVERT JUMPDEST POP POP POP POP PUSH1 0x40 MLOAD RETURNDATASIZE PUSH1 0x0 DUP3 RETURNDATACOPY PUSH1 0x1F RETURNDATASIZE SWAP1 DUP2 ADD PUSH1 0x1F NOT AND DUP3 ADD PUSH1 0x40 MSTORE PUSH2 0x3858 SWAP2 SWAP1 DUP2 ADD SWAP1 PUSH2 0x50AA JUMP JUMPDEST POP POP PUSH1 0xC9 SLOAD PUSH1 0xCA SLOAD PUSH1 0x40 MLOAD PUSH32 0x47E7EF2400000000000000000000000000000000000000000000000000000000 DUP2 MSTORE PUSH1 0x1 PUSH1 0x1 PUSH1 0xA0 SHL SUB SWAP2 DUP3 AND PUSH1 0x4 DUP3 ADD MSTORE PUSH1 0x0 PUSH1 0x24 DUP3 ADD MSTORE SWAP4 SWAP5 POP AND SWAP2 PUSH4 0x47E7EF24 SWAP2 POP PUSH1 0x44 ADD PUSH1 0x0 PUSH1 0x40 MLOAD DUP1 DUP4 SUB DUP2 PUSH1 0x0 DUP8 DUP1 EXTCODESIZE ISZERO DUP1 ISZERO PUSH2 0x38C6 JUMPI PUSH1 0x0 DUP1 REVERT JUMPDEST POP GAS CALL ISZERO DUP1 ISZERO PUSH2 0x38DA JUMPI RETURNDATASIZE PUSH1 0x0 DUP1 RETURNDATACOPY RETURNDATASIZE PUSH1 0x0 REVERT JUMPDEST POP POP PUSH1 0xCF SLOAD PUSH2 0x15BC SWAP3 POP PUSH1 0x1 PUSH1 0x1 PUSH1 0xA0 SHL SUB AND SWAP1 POP DUP3 PUSH2 0x493E JUMP JUMPDEST PUSH1 0xCF SLOAD PUSH2 0x390D SWAP1 PUSH1 0x1 PUSH1 0x1 PUSH1 0xA0 SHL SUB AND DUP5 ADDRESS DUP5 PUSH2 0x4A64 JUMP JUMPDEST PUSH1 0xD0 SLOAD PUSH1 0x40 MLOAD PUSH4 0x5DC8121 PUSH1 0xE3 SHL DUP2 MSTORE PUSH1 0x1 PUSH1 0x1 PUSH1 0xA0 SHL SUB DUP5 DUP2 AND PUSH1 0x4 DUP4 ADD MSTORE PUSH1 0x24 DUP3 ADD DUP5 SWAP1 MSTORE SWAP1 SWAP2 AND SWAP1 PUSH4 0x2EE40908 SWAP1 PUSH1 0x44 ADD PUSH1 0x20 PUSH1 0x40 MLOAD DUP1 DUP4 SUB DUP2 PUSH1 0x0 DUP8 DUP1 EXTCODESIZE ISZERO DUP1 ISZERO PUSH2 0x395B JUMPI PUSH1 0x0 DUP1 REVERT JUMPDEST POP GAS CALL ISZERO DUP1 ISZERO PUSH2 0x396F JUMPI RETURNDATASIZE PUSH1 0x0 DUP1 RETURNDATACOPY RETURNDATASIZE PUSH1 0x0 REVERT JUMPDEST POP POP POP POP PUSH1 0x40 MLOAD RETURNDATASIZE PUSH1 0x1F NOT PUSH1 0x1F DUP3 ADD AND DUP3 ADD DUP1 PUSH1 0x40 MSTORE POP DUP2 ADD SWAP1 PUSH2 0x3993 SWAP2 SWAP1 PUSH2 0x505B JUMP JUMPDEST POP PUSH2 0x399E DUP3 DUP3 PUSH2 0x43FE JUMP JUMPDEST TIMESTAMP DUP3 PUSH1 0x1 PUSH1 0x1 PUSH1 0xA0 SHL SUB AND PUSH32 0xA91E0C3165215FE453F5BF3DE083D5FD6C4E62C491849155A042A647588C53A0 DUP4 PUSH1 0x40 MLOAD PUSH2 0x2EE1 SWAP2 DUP2 MSTORE PUSH1 0x20 ADD SWAP1 JUMP JUMPDEST PUSH1 0x97 SLOAD PUSH1 0xFF AND PUSH2 0x3A2C JUMPI PUSH1 0x40 MLOAD PUSH3 0x461BCD PUSH1 0xE5 SHL DUP2 MSTORE PUSH1 0x20 PUSH1 0x4 DUP3 ADD MSTORE PUSH1 0x14 PUSH1 0x24 DUP3 ADD MSTORE PUSH32 0x5061757361626C653A206E6F7420706175736564000000000000000000000000 PUSH1 0x44 DUP3 ADD MSTORE PUSH1 0x64 ADD PUSH2 0x90B JUMP JUMPDEST PUSH1 0x97 DUP1 SLOAD PUSH1 0xFF NOT AND SWAP1 SSTORE PUSH32 0x5DB9EE0A495BF2E6FF9C91A7834C1BA4FDD244A5E8AA4E537BD38AEAE4B073AA CALLER JUMPDEST PUSH1 0x40 MLOAD PUSH1 0x1 PUSH1 0x1 PUSH1 0xA0 SHL SUB SWAP1 SWAP2 AND DUP2 MSTORE PUSH1 0x20 ADD PUSH1 0x40 MLOAD DUP1 SWAP2 SUB SWAP1 LOG1 JUMP JUMPDEST PUSH1 0x97 SLOAD PUSH1 0xFF AND ISZERO PUSH2 0x3ABC JUMPI PUSH1 0x40 MLOAD PUSH3 0x461BCD PUSH1 0xE5 SHL DUP2 MSTORE PUSH1 0x20 PUSH1 0x4 DUP3 ADD MSTORE PUSH1 0x10 PUSH1 0x24 DUP3 ADD MSTORE PUSH16 0x14185D5CD8589B194E881C185D5CD959 PUSH1 0x82 SHL PUSH1 0x44 DUP3 ADD MSTORE PUSH1 0x64 ADD PUSH2 0x90B JUMP JUMPDEST PUSH1 0x1 PUSH1 0x1 PUSH1 0xA0 SHL SUB DUP2 AND PUSH1 0x0 SWAP1 DUP2 MSTORE PUSH1 0xD3 PUSH1 0x20 MSTORE PUSH1 0x40 DUP2 KECCAK256 SLOAD SWAP1 JUMPDEST DUP2 DUP2 LT ISZERO PUSH2 0x3C59 JUMPI PUSH1 0x1 PUSH1 0x1 PUSH1 0xA0 SHL SUB DUP4 AND PUSH1 0x0 SWAP1 DUP2 MSTORE PUSH1 0xD3 PUSH1 0x20 MSTORE PUSH1 0x40 DUP2 KECCAK256 DUP1 SLOAD DUP4 SWAP1 DUP2 LT PUSH2 0x3B09 JUMPI PUSH2 0x3B09 PUSH2 0x542B JUMP JUMPDEST SWAP1 PUSH1 0x0 MSTORE PUSH1 0x20 PUSH1 0x0 KECCAK256 SWAP1 PUSH1 0x6 MUL ADD PUSH1 0x40 MLOAD DUP1 PUSH1 0xC0 ADD PUSH1 0x40 MSTORE SWAP1 DUP2 PUSH1 0x0 DUP3 ADD SLOAD DUP2 MSTORE PUSH1 0x20 ADD PUSH1 0x1 DUP3 ADD SLOAD DUP2 MSTORE PUSH1 0x20 ADD PUSH1 0x2 DUP3 ADD SLOAD DUP2 MSTORE PUSH1 0x20 ADD PUSH1 0x3 DUP3 ADD SLOAD DUP2 MSTORE PUSH1 0x20 ADD PUSH1 0x4 DUP3 ADD SLOAD DUP2 MSTORE PUSH1 0x20 ADD PUSH1 0x5 DUP3 ADD SLOAD DUP2 MSTORE POP POP SWAP1 POP TIMESTAMP DUP2 PUSH1 0x20 ADD MLOAD GT ISZERO DUP1 ISZERO PUSH2 0x3B77 JUMPI POP PUSH1 0x40 DUP2 ADD MLOAD ISZERO ISZERO JUMPDEST DUP1 ISZERO PUSH2 0x3BAC JUMPI POP PUSH1 0xD1 DUP2 PUSH1 0x60 ADD MLOAD DUP2 SLOAD DUP2 LT PUSH2 0x3B95 JUMPI PUSH2 0x3B95 PUSH2 0x542B JUMP JUMPDEST SWAP1 PUSH1 0x0 MSTORE PUSH1 0x20 PUSH1 0x0 KECCAK256 SWAP1 PUSH1 0x5 MUL ADD PUSH1 0x2 ADD SLOAD PUSH1 0x0 EQ ISZERO JUMPDEST ISZERO PUSH2 0x3C46 JUMPI PUSH1 0x40 MLOAD PUSH3 0x461BCD PUSH1 0xE5 SHL DUP2 MSTORE PUSH1 0x20 PUSH1 0x4 DUP3 ADD MSTORE PUSH1 0x44 PUSH1 0x24 DUP3 ADD DUP2 SWAP1 MSTORE PUSH32 0x596F75206E65656420746F20776974686472617720616C6C2066696E69736865 SWAP1 DUP3 ADD MSTORE PUSH32 0x6420736C6F747320776974682072657761726473206265666F726520636C6169 PUSH1 0x64 DUP3 ADD MSTORE PUSH32 0x6D696E6700000000000000000000000000000000000000000000000000000000 PUSH1 0x84 DUP3 ADD MSTORE PUSH1 0xA4 ADD PUSH2 0x90B JUMP JUMPDEST POP DUP1 PUSH2 0x3C51 DUP2 PUSH2 0x53FA JUMP JUMPDEST SWAP2 POP POP PUSH2 0x3AD7 JUMP JUMPDEST POP PUSH1 0xD0 SLOAD PUSH1 0x40 MLOAD PUSH32 0xF474C8CE00000000000000000000000000000000000000000000000000000000 DUP2 MSTORE PUSH1 0x1 PUSH1 0x1 PUSH1 0xA0 SHL SUB DUP5 DUP2 AND PUSH1 0x4 DUP4 ADD MSTORE PUSH2 0x2710 PUSH1 0x24 DUP4 ADD MSTORE SWAP1 SWAP2 AND SWAP1 PUSH4 0xF474C8CE SWAP1 PUSH1 0x44 ADD PUSH1 0x0 PUSH1 0x40 MLOAD DUP1 DUP4 SUB DUP2 PUSH1 0x0 DUP8 DUP1 EXTCODESIZE ISZERO DUP1 ISZERO PUSH2 0x3CC2 JUMPI PUSH1 0x0 DUP1 REVERT JUMPDEST POP GAS CALL ISZERO DUP1 ISZERO PUSH2 0x3CD6 JUMPI RETURNDATASIZE PUSH1 0x0 DUP1 RETURNDATACOPY RETURNDATASIZE PUSH1 0x0 REVERT JUMPDEST POP POP POP PUSH1 0x1 PUSH1 0x1 PUSH1 0xA0 SHL SUB DUP4 AND PUSH1 0x0 DUP2 DUP2 MSTORE PUSH1 0xD4 PUSH1 0x20 MSTORE PUSH1 0x40 DUP1 DUP3 KECCAK256 TIMESTAMP SWAP1 DUP2 SWAP1 SSTORE SWAP1 MLOAD SWAP1 SWAP4 POP PUSH32 0x47CEE97CB7ACD717B3C0AA1435D004CD5B3C8C57D70DBCEB4E4458BBD60E39D4 SWAP2 SWAP1 LOG3 POP POP JUMP JUMPDEST PUSH1 0x40 MLOAD PUSH1 0x1 PUSH1 0x1 PUSH1 0xA0 SHL SUB DUP4 AND PUSH1 0x24 DUP3 ADD MSTORE PUSH1 0x44 DUP2 ADD DUP3 SWAP1 MSTORE PUSH2 0x22C1 SWAP1 DUP5 SWAP1 PUSH32 0xA9059CBB00000000000000000000000000000000000000000000000000000000 SWAP1 PUSH1 0x64 ADD JUMPDEST PUSH1 0x40 DUP1 MLOAD PUSH1 0x1F NOT DUP2 DUP5 SUB ADD DUP2 MSTORE SWAP2 SWAP1 MSTORE PUSH1 0x20 DUP2 ADD DUP1 MLOAD PUSH28 0xFFFFFFFFFFFFFFFFFFFFFFFFFFFFFFFFFFFFFFFFFFFFFFFFFFFFFFFF AND PUSH1 0x1 PUSH1 0x1 PUSH1 0xE0 SHL SUB NOT SWAP1 SWAP4 AND SWAP3 SWAP1 SWAP3 OR SWAP1 SWAP2 MSTORE PUSH2 0x4AB5 JUMP JUMPDEST PUSH1 0x1 PUSH1 0x1 PUSH1 0xA0 SHL SUB DUP3 AND PUSH1 0x0 SWAP1 DUP2 MSTORE PUSH1 0xD3 PUSH1 0x20 MSTORE PUSH1 0x40 SWAP1 KECCAK256 SLOAD DUP2 LT PUSH2 0x3E1C JUMPI PUSH1 0x40 MLOAD PUSH3 0x461BCD PUSH1 0xE5 SHL DUP2 MSTORE PUSH1 0x20 PUSH1 0x4 DUP3 ADD MSTORE PUSH1 0x12 PUSH1 0x24 DUP3 ADD MSTORE PUSH32 0x536C6F7420646F65736E27742065786973740000000000000000000000000000 PUSH1 0x44 DUP3 ADD MSTORE PUSH1 0x64 ADD PUSH2 0x90B JUMP JUMPDEST PUSH1 0x1 PUSH1 0x1 PUSH1 0xA0 SHL SUB DUP3 AND PUSH1 0x0 SWAP1 DUP2 MSTORE PUSH1 0xD3 PUSH1 0x20 MSTORE PUSH1 0x40 DUP2 KECCAK256 DUP1 SLOAD DUP4 SWAP1 DUP2 LT PUSH2 0x3E46 JUMPI PUSH2 0x3E46 PUSH2 0x542B JUMP JUMPDEST SWAP1 PUSH1 0x0 MSTORE PUSH1 0x20 PUSH1 0x0 KECCAK256 SWAP1 PUSH1 0x6 MUL ADD SWAP1 POP PUSH1 0x0 PUSH1 0xD1 DUP3 PUSH1 0x3 ADD SLOAD DUP2 SLOAD DUP2 LT PUSH2 0x3E6F JUMPI PUSH2 0x3E6F PUSH2 0x542B JUMP JUMPDEST SWAP1 PUSH1 0x0 MSTORE PUSH1 0x20 PUSH1 0x0 KECCAK256 SWAP1 PUSH1 0x5 MUL ADD SWAP1 POP DUP1 PUSH1 0x3 ADD SLOAD PUSH1 0x0 EQ DUP1 PUSH2 0x3E99 JUMPI POP DUP2 PUSH1 0x2 ADD SLOAD DUP3 PUSH1 0x5 ADD SLOAD EQ JUMPDEST PUSH2 0x3F0B JUMPI PUSH1 0x40 MLOAD PUSH3 0x461BCD PUSH1 0xE5 SHL DUP2 MSTORE PUSH1 0x20 PUSH1 0x4 DUP3 ADD MSTORE PUSH1 0x33 PUSH1 0x24 DUP3 ADD MSTORE PUSH32 0x43616E6E6F7420726573657420616E20756E66696E697368656420736C6F7420 PUSH1 0x44 DUP3 ADD MSTORE PUSH32 0x7769746820696E7374616E7420756E6C6F636B00000000000000000000000000 PUSH1 0x64 DUP3 ADD MSTORE PUSH1 0x84 ADD PUSH2 0x90B JUMP JUMPDEST PUSH1 0x0 DUP3 PUSH1 0x5 ADD SLOAD DUP4 PUSH1 0x2 ADD SLOAD PUSH2 0x3F21 SWAP2 SWAP1 PUSH2 0x537C JUMP JUMPDEST SWAP1 POP DUP1 ISZERO PUSH2 0x3F7A JUMPI PUSH1 0x1 PUSH1 0x1 PUSH1 0xA0 SHL SUB DUP6 AND PUSH1 0x0 SWAP1 DUP2 MSTORE PUSH1 0xD2 PUSH1 0x20 MSTORE PUSH1 0x40 DUP2 KECCAK256 DUP1 SLOAD DUP4 SWAP3 SWAP1 PUSH2 0x3F51 SWAP1 DUP5 SWAP1 PUSH2 0x537C JUMP JUMPDEST SWAP3 POP POP DUP2 SWAP1 SSTORE POP DUP1 PUSH1 0xCD PUSH1 0x0 DUP3 DUP3 SLOAD PUSH2 0x3F6A SWAP2 SWAP1 PUSH2 0x537C JUMP JUMPDEST SWAP1 SWAP2 SSTORE POP PUSH2 0x3F7A SWAP1 POP DUP6 DUP3 PUSH2 0x43FE JUMP JUMPDEST PUSH1 0xD0 SLOAD PUSH1 0x5 DUP5 ADD SLOAD PUSH1 0x4 DUP6 ADD SLOAD PUSH1 0x1 PUSH1 0x1 PUSH1 0xA0 SHL SUB SWAP1 SWAP3 AND SWAP2 PUSH4 0x2EE40908 SWAP2 CALLER SWAP2 PUSH2 0x3FA5 SWAP2 SWAP1 PUSH2 0x537C JUMP JUMPDEST PUSH1 0x40 MLOAD PUSH1 0x1 PUSH1 0x1 PUSH1 0xE0 SHL SUB NOT PUSH1 0xE0 DUP6 SWAP1 SHL AND DUP2 MSTORE PUSH1 0x1 PUSH1 0x1 PUSH1 0xA0 SHL SUB SWAP1 SWAP3 AND PUSH1 0x4 DUP4 ADD MSTORE PUSH1 0x24 DUP3 ADD MSTORE PUSH1 0x44 ADD PUSH1 0x20 PUSH1 0x40 MLOAD DUP1 DUP4 SUB DUP2 PUSH1 0x0 DUP8 DUP1 EXTCODESIZE ISZERO DUP1 ISZERO PUSH2 0x3FEB JUMPI PUSH1 0x0 DUP1 REVERT JUMPDEST POP GAS CALL ISZERO DUP1 ISZERO PUSH2 0x3FFF JUMPI RETURNDATASIZE PUSH1 0x0 DUP1 RETURNDATACOPY RETURNDATASIZE PUSH1 0x0 REVERT JUMPDEST POP POP POP POP PUSH1 0x40 MLOAD RETURNDATASIZE PUSH1 0x1F NOT PUSH1 0x1F DUP3 ADD AND DUP3 ADD DUP1 PUSH1 0x40 MSTORE POP DUP2 ADD SWAP1 PUSH2 0x4023 SWAP2 SWAP1 PUSH2 0x505B JUMP JUMPDEST POP TIMESTAMP DUP6 PUSH1 0x1 PUSH1 0x1 PUSH1 0xA0 SHL SUB AND PUSH32 0x18BB409513C8A4200071013BA207717A498FEA554FE05C6F40A145866A4E820F DUP6 PUSH1 0x2 ADD SLOAD DUP8 PUSH1 0x40 MLOAD PUSH2 0x406D SWAP3 SWAP2 SWAP1 SWAP2 DUP3 MSTORE PUSH1 0x20 DUP3 ADD MSTORE PUSH1 0x40 ADD SWAP1 JUMP JUMPDEST PUSH1 0x40 MLOAD DUP1 SWAP2 SUB SWAP1 LOG3 POP POP PUSH1 0x0 PUSH1 0x2 SWAP1 SWAP2 ADD SSTORE POP POP JUMP JUMPDEST PUSH1 0x65 DUP1 SLOAD PUSH1 0x1 PUSH1 0x1 PUSH1 0xA0 SHL SUB DUP4 DUP2 AND PUSH20 0xFFFFFFFFFFFFFFFFFFFFFFFFFFFFFFFFFFFFFFFF NOT DUP4 AND DUP2 OR SWAP1 SWAP4 SSTORE PUSH1 0x40 MLOAD SWAP2 AND SWAP2 SWAP1 DUP3 SWAP1 PUSH32 0x8BE0079C531659141344CD1FD0A4F28419497F9722A3DAAFE3B4186F6B6457E0 SWAP1 PUSH1 0x0 SWAP1 LOG3 POP POP JUMP JUMPDEST PUSH1 0x97 SLOAD PUSH1 0xFF AND ISZERO PUSH2 0x4128 JUMPI PUSH1 0x40 MLOAD PUSH3 0x461BCD PUSH1 0xE5 SHL DUP2 MSTORE PUSH1 0x20 PUSH1 0x4 DUP3 ADD MSTORE PUSH1 0x10 PUSH1 0x24 DUP3 ADD MSTORE PUSH16 0x14185D5CD8589B194E881C185D5CD959 PUSH1 0x82 SHL PUSH1 0x44 DUP3 ADD MSTORE PUSH1 0x64 ADD PUSH2 0x90B JUMP JUMPDEST PUSH1 0x97 DUP1 SLOAD PUSH1 0xFF NOT AND PUSH1 0x1 OR SWAP1 SSTORE PUSH32 0x62E78CEA01BEE320CD4E420270B5EA74000D11B0C9F74754EBDBFC544B05A258 PUSH2 0x3A59 CALLER SWAP1 JUMP JUMPDEST PUSH1 0x1 PUSH1 0x1 PUSH1 0xA0 SHL SUB DUP3 AND PUSH2 0x41BD JUMPI PUSH1 0x40 MLOAD PUSH3 0x461BCD PUSH1 0xE5 SHL DUP2 MSTORE PUSH1 0x20 PUSH1 0x4 DUP3 ADD MSTORE PUSH1 0x21 PUSH1 0x24 DUP3 ADD MSTORE PUSH32 0x45524332303A206275726E2066726F6D20746865207A65726F20616464726573 PUSH1 0x44 DUP3 ADD MSTORE PUSH1 0x73 PUSH1 0xF8 SHL PUSH1 0x64 DUP3 ADD MSTORE PUSH1 0x84 ADD PUSH2 0x90B JUMP JUMPDEST PUSH2 0x41C9 DUP3 PUSH1 0x0 DUP4 PUSH2 0x46D9 JUMP JUMPDEST PUSH1 0x1 PUSH1 0x1 PUSH1 0xA0 SHL SUB DUP3 AND PUSH1 0x0 SWAP1 DUP2 MSTORE PUSH1 0x33 PUSH1 0x20 MSTORE PUSH1 0x40 SWAP1 KECCAK256 SLOAD DUP2 DUP2 LT ISZERO PUSH2 0x4258 JUMPI PUSH1 0x40 MLOAD PUSH3 0x461BCD PUSH1 0xE5 SHL DUP2 MSTORE PUSH1 0x20 PUSH1 0x4 DUP3 ADD MSTORE PUSH1 0x22 PUSH1 0x24 DUP3 ADD MSTORE PUSH32 0x45524332303A206275726E20616D6F756E7420657863656564732062616C616E PUSH1 0x44 DUP3 ADD MSTORE PUSH32 0x6365000000000000000000000000000000000000000000000000000000000000 PUSH1 0x64 DUP3 ADD MSTORE PUSH1 0x84 ADD PUSH2 0x90B JUMP JUMPDEST PUSH1 0x1 PUSH1 0x1 PUSH1 0xA0 SHL SUB DUP4 AND PUSH1 0x0 SWAP1 DUP2 MSTORE PUSH1 0x33 PUSH1 0x20 MSTORE PUSH1 0x40 DUP2 KECCAK256 DUP4 DUP4 SUB SWAP1 SSTORE PUSH1 0x35 DUP1 SLOAD DUP5 SWAP3 SWAP1 PUSH2 0x4287 SWAP1 DUP5 SWAP1 PUSH2 0x537C JUMP JUMPDEST SWAP1 SWAP2 SSTORE POP POP PUSH1 0x40 MLOAD DUP3 DUP2 MSTORE PUSH1 0x0 SWAP1 PUSH1 0x1 PUSH1 0x1 PUSH1 0xA0 SHL SUB DUP6 AND SWAP1 PUSH32 0xDDF252AD1BE2C89B69C2B068FC378DAA952BA7F163C4A11628F55A4DF523B3EF SWAP1 PUSH1 0x20 ADD PUSH1 0x40 MLOAD DUP1 SWAP2 SUB SWAP1 LOG3 PUSH2 0x22C1 DUP4 PUSH1 0x0 DUP5 PUSH2 0x484B JUMP JUMPDEST PUSH1 0x40 MLOAD PUSH32 0xDD62ED3E00000000000000000000000000000000000000000000000000000000 DUP2 MSTORE ADDRESS PUSH1 0x4 DUP3 ADD MSTORE PUSH1 0x1 PUSH1 0x1 PUSH1 0xA0 SHL SUB DUP4 DUP2 AND PUSH1 0x24 DUP4 ADD MSTORE DUP3 SWAP2 SWAP1 DUP6 AND SWAP1 PUSH4 0xDD62ED3E SWAP1 PUSH1 0x44 ADD PUSH1 0x20 PUSH1 0x40 MLOAD DUP1 DUP4 SUB DUP2 DUP7 DUP1 EXTCODESIZE ISZERO DUP1 ISZERO PUSH2 0x433C JUMPI PUSH1 0x0 DUP1 REVERT JUMPDEST POP GAS STATICCALL ISZERO DUP1 ISZERO PUSH2 0x4350 JUMPI RETURNDATASIZE PUSH1 0x0 DUP1 RETURNDATACOPY RETURNDATASIZE PUSH1 0x0 REVERT JUMPDEST POP POP POP POP PUSH1 0x40 MLOAD RETURNDATASIZE PUSH1 0x1F NOT PUSH1 0x1F DUP3 ADD AND DUP3 ADD DUP1 PUSH1 0x40 MSTORE POP DUP2 ADD SWAP1 PUSH2 0x4374 SWAP2 SWAP1 PUSH2 0x5091 JUMP JUMPDEST LT ISZERO PUSH2 0x22C1 JUMPI PUSH1 0x40 MLOAD PUSH4 0x95EA7B3 PUSH1 0xE0 SHL DUP2 MSTORE PUSH1 0x1 PUSH1 0x1 PUSH1 0xA0 SHL SUB DUP4 DUP2 AND PUSH1 0x4 DUP4 ADD MSTORE PUSH1 0x0 NOT PUSH1 0x24 DUP4 ADD MSTORE DUP5 AND SWAP1 PUSH4 0x95EA7B3 SWAP1 PUSH1 0x44 ADD JUMPDEST PUSH1 0x20 PUSH1 0x40 MLOAD DUP1 DUP4 SUB DUP2 PUSH1 0x0 DUP8 DUP1 EXTCODESIZE ISZERO DUP1 ISZERO PUSH2 0x43C6 JUMPI PUSH1 0x0 DUP1 REVERT JUMPDEST POP GAS CALL ISZERO DUP1 ISZERO PUSH2 0x43DA JUMPI RETURNDATASIZE PUSH1 0x0 DUP1 RETURNDATACOPY RETURNDATASIZE PUSH1 0x0 REVERT JUMPDEST POP POP POP POP PUSH1 0x40 MLOAD RETURNDATASIZE PUSH1 0x1F NOT PUSH1 0x1F DUP3 ADD AND DUP3 ADD DUP1 PUSH1 0x40 MSTORE POP DUP2 ADD SWAP1 PUSH2 0x97A SWAP2 SWAP1 PUSH2 0x505B JUMP JUMPDEST PUSH1 0x1 PUSH1 0x1 PUSH1 0xA0 SHL SUB DUP3 AND PUSH2 0x4454 JUMPI PUSH1 0x40 MLOAD PUSH3 0x461BCD PUSH1 0xE5 SHL DUP2 MSTORE PUSH1 0x20 PUSH1 0x4 DUP3 ADD MSTORE PUSH1 0x1F PUSH1 0x24 DUP3 ADD MSTORE PUSH32 0x45524332303A206D696E7420746F20746865207A65726F206164647265737300 PUSH1 0x44 DUP3 ADD MSTORE PUSH1 0x64 ADD PUSH2 0x90B JUMP JUMPDEST PUSH2 0x4460 PUSH1 0x0 DUP4 DUP4 PUSH2 0x46D9 JUMP JUMPDEST DUP1 PUSH1 0x35 PUSH1 0x0 DUP3 DUP3 SLOAD PUSH2 0x4472 SWAP2 SWAP1 PUSH2 0x5323 JUMP JUMPDEST SWAP1 SWAP2 SSTORE POP POP PUSH1 0x1 PUSH1 0x1 PUSH1 0xA0 SHL SUB DUP3 AND PUSH1 0x0 SWAP1 DUP2 MSTORE PUSH1 0x33 PUSH1 0x20 MSTORE PUSH1 0x40 DUP2 KECCAK256 DUP1 SLOAD DUP4 SWAP3 SWAP1 PUSH2 0x449F SWAP1 DUP5 SWAP1 PUSH2 0x5323 JUMP JUMPDEST SWAP1 SWAP2 SSTORE POP POP PUSH1 0x40 MLOAD DUP2 DUP2 MSTORE PUSH1 0x1 PUSH1 0x1 PUSH1 0xA0 SHL SUB DUP4 AND SWAP1 PUSH1 0x0 SWAP1 PUSH32 0xDDF252AD1BE2C89B69C2B068FC378DAA952BA7F163C4A11628F55A4DF523B3EF SWAP1 PUSH1 0x20 ADD PUSH1 0x40 MLOAD DUP1 SWAP2 SUB SWAP1 LOG3 PUSH2 0xE90 PUSH1 0x0 DUP4 DUP4 PUSH2 0x484B JUMP JUMPDEST PUSH1 0x0 SLOAD PUSH2 0x100 SWAP1 DIV PUSH1 0xFF AND PUSH2 0xF32 JUMPI PUSH1 0x40 MLOAD PUSH3 0x461BCD PUSH1 0xE5 SHL DUP2 MSTORE PUSH1 0x20 PUSH1 0x4 DUP3 ADD MSTORE PUSH1 0x2B PUSH1 0x24 DUP3 ADD MSTORE PUSH32 0x496E697469616C697A61626C653A20636F6E7472616374206973206E6F742069 PUSH1 0x44 DUP3 ADD MSTORE PUSH11 0x6E697469616C697A696E67 PUSH1 0xA8 SHL PUSH1 0x64 DUP3 ADD MSTORE PUSH1 0x84 ADD PUSH2 0x90B JUMP JUMPDEST PUSH1 0x0 SLOAD PUSH2 0x100 SWAP1 DIV PUSH1 0xFF AND PUSH2 0x45C7 JUMPI PUSH1 0x40 MLOAD PUSH3 0x461BCD PUSH1 0xE5 SHL DUP2 MSTORE PUSH1 0x20 PUSH1 0x4 DUP3 ADD MSTORE PUSH1 0x2B PUSH1 0x24 DUP3 ADD MSTORE PUSH32 0x496E697469616C697A61626C653A20636F6E7472616374206973206E6F742069 PUSH1 0x44 DUP3 ADD MSTORE PUSH11 0x6E697469616C697A696E67 PUSH1 0xA8 SHL PUSH1 0x64 DUP3 ADD MSTORE PUSH1 0x84 ADD PUSH2 0x90B JUMP JUMPDEST DUP2 MLOAD PUSH2 0x45DA SWAP1 PUSH1 0x36 SWAP1 PUSH1 0x20 DUP6 ADD SWAP1 PUSH2 0x4D29 JUMP JUMPDEST POP DUP1 MLOAD PUSH2 0x22C1 SWAP1 PUSH1 0x37 SWAP1 PUSH1 0x20 DUP5 ADD SWAP1 PUSH2 0x4D29 JUMP JUMPDEST PUSH1 0x0 SLOAD PUSH2 0x100 SWAP1 DIV PUSH1 0xFF AND PUSH2 0x4659 JUMPI PUSH1 0x40 MLOAD PUSH3 0x461BCD PUSH1 0xE5 SHL DUP2 MSTORE PUSH1 0x20 PUSH1 0x4 DUP3 ADD MSTORE PUSH1 0x2B PUSH1 0x24 DUP3 ADD MSTORE PUSH32 0x496E697469616C697A61626C653A20636F6E7472616374206973206E6F742069 PUSH1 0x44 DUP3 ADD MSTORE PUSH11 0x6E697469616C697A696E67 PUSH1 0xA8 SHL PUSH1 0x64 DUP3 ADD MSTORE PUSH1 0x84 ADD PUSH2 0x90B JUMP JUMPDEST PUSH2 0xF32 CALLER PUSH2 0x4083 JUMP JUMPDEST PUSH1 0x0 SLOAD PUSH2 0x100 SWAP1 DIV PUSH1 0xFF AND PUSH2 0x46CD JUMPI PUSH1 0x40 MLOAD PUSH3 0x461BCD PUSH1 0xE5 SHL DUP2 MSTORE PUSH1 0x20 PUSH1 0x4 DUP3 ADD MSTORE PUSH1 0x2B PUSH1 0x24 DUP3 ADD MSTORE PUSH32 0x496E697469616C697A61626C653A20636F6E7472616374206973206E6F742069 PUSH1 0x44 DUP3 ADD MSTORE PUSH11 0x6E697469616C697A696E67 PUSH1 0xA8 SHL PUSH1 0x64 DUP3 ADD MSTORE PUSH1 0x84 ADD PUSH2 0x90B JUMP JUMPDEST PUSH1 0x97 DUP1 SLOAD PUSH1 0xFF NOT AND SWAP1 SSTORE JUMP JUMPDEST PUSH1 0x1 PUSH1 0x1 PUSH1 0xA0 SHL SUB DUP4 AND ISZERO DUP1 PUSH2 0x46F6 JUMPI POP PUSH1 0x1 PUSH1 0x1 PUSH1 0xA0 SHL SUB DUP3 AND ISZERO JUMPDEST PUSH2 0x22C1 JUMPI PUSH1 0x1 PUSH1 0x1 PUSH1 0xA0 SHL SUB DUP4 AND PUSH1 0x0 SWAP1 DUP2 MSTORE PUSH1 0xD6 PUSH1 0x20 MSTORE PUSH1 0x40 SWAP1 KECCAK256 SLOAD PUSH1 0xFF AND DUP1 PUSH2 0x4739 JUMPI POP PUSH1 0x1 PUSH1 0x1 PUSH1 0xA0 SHL SUB DUP3 AND PUSH1 0x0 SWAP1 DUP2 MSTORE PUSH1 0xD6 PUSH1 0x20 MSTORE PUSH1 0x40 SWAP1 KECCAK256 SLOAD PUSH1 0xFF AND JUMPDEST PUSH2 0x4785 JUMPI PUSH1 0x40 MLOAD PUSH3 0x461BCD PUSH1 0xE5 SHL DUP2 MSTORE PUSH1 0x20 PUSH1 0x4 DUP3 ADD MSTORE PUSH1 0xF PUSH1 0x24 DUP3 ADD MSTORE PUSH32 0x4E6F742077686974656C69737465640000000000000000000000000000000000 PUSH1 0x44 DUP3 ADD MSTORE PUSH1 0x64 ADD PUSH2 0x90B JUMP JUMPDEST PUSH1 0xD0 SLOAD PUSH1 0x40 MLOAD PUSH32 0x4A95116200000000000000000000000000000000000000000000000000000000 DUP2 MSTORE PUSH1 0x1 PUSH1 0x1 PUSH1 0xA0 SHL SUB DUP6 DUP2 AND PUSH1 0x4 DUP4 ADD MSTORE PUSH1 0x24 DUP3 ADD DUP5 SWAP1 MSTORE PUSH1 0x0 PUSH1 0x44 DUP4 ADD DUP2 SWAP1 MSTORE PUSH1 0x64 DUP4 ADD MSTORE SWAP1 SWAP2 AND SWAP1 PUSH4 0x4A951162 SWAP1 PUSH1 0x84 ADD PUSH1 0x0 PUSH1 0x40 MLOAD DUP1 DUP4 SUB DUP2 PUSH1 0x0 DUP8 DUP1 EXTCODESIZE ISZERO DUP1 ISZERO PUSH2 0x47FA JUMPI PUSH1 0x0 DUP1 REVERT JUMPDEST POP GAS CALL ISZERO DUP1 ISZERO PUSH2 0x480E JUMPI RETURNDATASIZE PUSH1 0x0 DUP1 RETURNDATACOPY RETURNDATASIZE PUSH1 0x0 REVERT JUMPDEST POP POP PUSH1 0xD0 SLOAD PUSH1 0x40 MLOAD PUSH4 0x5DC8121 PUSH1 0xE3 SHL DUP2 MSTORE PUSH1 0x1 PUSH1 0x1 PUSH1 0xA0 SHL SUB DUP7 DUP2 AND PUSH1 0x4 DUP4 ADD MSTORE PUSH1 0x24 DUP3 ADD DUP7 SWAP1 MSTORE SWAP1 SWAP2 AND SWAP3 POP PUSH4 0x2EE40908 SWAP2 POP PUSH1 0x44 ADD PUSH2 0x43AC JUMP JUMPDEST PUSH1 0x1 PUSH1 0x1 PUSH1 0xA0 SHL SUB DUP4 AND ISZERO PUSH2 0x22C1 JUMPI PUSH1 0x1 PUSH1 0x1 PUSH1 0xA0 SHL SUB DUP4 AND PUSH1 0x0 SWAP1 DUP2 MSTORE PUSH1 0x33 PUSH1 0x20 MSTORE PUSH1 0x40 SWAP1 KECCAK256 SLOAD PUSH1 0xCE SLOAD PUSH1 0x40 MLOAD PUSH4 0x7F0EA589 PUSH1 0xE1 SHL DUP2 MSTORE PUSH1 0x1 PUSH1 0x1 PUSH1 0xA0 SHL SUB DUP7 DUP2 AND PUSH1 0x4 DUP4 ADD MSTORE SWAP1 SWAP2 AND SWAP1 PUSH4 0xFE1D4B12 SWAP1 PUSH1 0x24 ADD PUSH1 0x20 PUSH1 0x40 MLOAD DUP1 DUP4 SUB DUP2 DUP7 DUP1 EXTCODESIZE ISZERO DUP1 ISZERO PUSH2 0x48B8 JUMPI PUSH1 0x0 DUP1 REVERT JUMPDEST POP GAS STATICCALL ISZERO DUP1 ISZERO PUSH2 0x48CC JUMPI RETURNDATASIZE PUSH1 0x0 DUP1 RETURNDATACOPY RETURNDATASIZE PUSH1 0x0 REVERT JUMPDEST POP POP POP POP PUSH1 0x40 MLOAD RETURNDATASIZE PUSH1 0x1F NOT PUSH1 0x1F DUP3 ADD AND DUP3 ADD DUP1 PUSH1 0x40 MSTORE POP DUP2 ADD SWAP1 PUSH2 0x48F0 SWAP2 SWAP1 PUSH2 0x5091 JUMP JUMPDEST GT ISZERO PUSH2 0x22C1 JUMPI PUSH1 0x40 MLOAD PUSH3 0x461BCD PUSH1 0xE5 SHL DUP2 MSTORE PUSH1 0x20 PUSH1 0x4 DUP3 ADD MSTORE PUSH1 0x12 PUSH1 0x24 DUP3 ADD MSTORE PUSH32 0x546F6F206D75636820766F746520636173740000000000000000000000000000 PUSH1 0x44 DUP3 ADD MSTORE PUSH1 0x64 ADD PUSH2 0x90B JUMP JUMPDEST PUSH1 0xD0 SLOAD PUSH1 0x40 MLOAD PUSH4 0x95EA7B3 PUSH1 0xE0 SHL DUP2 MSTORE PUSH1 0x1 PUSH1 0x1 PUSH1 0xA0 SHL SUB SWAP2 DUP3 AND PUSH1 0x4 DUP3 ADD MSTORE PUSH1 0x24 DUP2 ADD DUP4 SWAP1 MSTORE SWAP1 DUP4 AND SWAP1 PUSH4 0x95EA7B3 SWAP1 PUSH1 0x44 ADD PUSH1 0x20 PUSH1 0x40 MLOAD DUP1 DUP4 SUB DUP2 PUSH1 0x0 DUP8 DUP1 EXTCODESIZE ISZERO DUP1 ISZERO PUSH2 0x498C JUMPI PUSH1 0x0 DUP1 REVERT JUMPDEST POP GAS CALL ISZERO DUP1 ISZERO PUSH2 0x49A0 JUMPI RETURNDATASIZE PUSH1 0x0 DUP1 RETURNDATACOPY RETURNDATASIZE PUSH1 0x0 REVERT JUMPDEST POP POP POP POP PUSH1 0x40 MLOAD RETURNDATASIZE PUSH1 0x1F NOT PUSH1 0x1F DUP3 ADD AND DUP3 ADD DUP1 PUSH1 0x40 MSTORE POP DUP2 ADD SWAP1 PUSH2 0x49C4 SWAP2 SWAP1 PUSH2 0x505B JUMP JUMPDEST POP PUSH1 0xD0 SLOAD PUSH1 0x40 MLOAD PUSH32 0x8FCF482200000000000000000000000000000000000000000000000000000000 DUP2 MSTORE PUSH1 0x4 DUP2 ADD DUP4 SWAP1 MSTORE PUSH1 0x1 PUSH1 0x1 PUSH1 0xA0 SHL SUB DUP5 DUP2 AND PUSH1 0x24 DUP4 ADD MSTORE SWAP1 SWAP2 AND SWAP1 PUSH4 0x8FCF4822 SWAP1 PUSH1 0x44 ADD PUSH1 0x20 PUSH1 0x40 MLOAD DUP1 DUP4 SUB DUP2 PUSH1 0x0 DUP8 DUP1 EXTCODESIZE ISZERO DUP1 ISZERO PUSH2 0x4A2C JUMPI PUSH1 0x0 DUP1 REVERT JUMPDEST POP GAS CALL ISZERO DUP1 ISZERO PUSH2 0x4A40 JUMPI RETURNDATASIZE PUSH1 0x0 DUP1 RETURNDATACOPY RETURNDATASIZE PUSH1 0x0 REVERT JUMPDEST POP POP POP POP PUSH1 0x40 MLOAD RETURNDATASIZE PUSH1 0x1F NOT PUSH1 0x1F DUP3 ADD AND DUP3 ADD DUP1 PUSH1 0x40 MSTORE POP DUP2 ADD SWAP1 PUSH2 0x22C1 SWAP2 SWAP1 PUSH2 0x505B JUMP JUMPDEST PUSH1 0x40 MLOAD PUSH1 0x1 PUSH1 0x1 PUSH1 0xA0 SHL SUB DUP1 DUP6 AND PUSH1 0x24 DUP4 ADD MSTORE DUP4 AND PUSH1 0x44 DUP3 ADD MSTORE PUSH1 0x64 DUP2 ADD DUP3 SWAP1 MSTORE PUSH2 0x97A SWAP1 DUP6 SWAP1 PUSH32 0x23B872DD00000000000000000000000000000000000000000000000000000000 SWAP1 PUSH1 0x84 ADD PUSH2 0x3D69 JUMP JUMPDEST PUSH1 0x0 PUSH2 0x4B0A DUP3 PUSH1 0x40 MLOAD DUP1 PUSH1 0x40 ADD PUSH1 0x40 MSTORE DUP1 PUSH1 0x20 DUP2 MSTORE PUSH1 0x20 ADD PUSH32 0x5361666545524332303A206C6F772D6C6576656C2063616C6C206661696C6564 DUP2 MSTORE POP DUP6 PUSH1 0x1 PUSH1 0x1 PUSH1 0xA0 SHL SUB AND PUSH2 0x4B9A SWAP1 SWAP3 SWAP2 SWAP1 PUSH4 0xFFFFFFFF AND JUMP JUMPDEST DUP1 MLOAD SWAP1 SWAP2 POP ISZERO PUSH2 0x22C1 JUMPI DUP1 DUP1 PUSH1 0x20 ADD SWAP1 MLOAD DUP2 ADD SWAP1 PUSH2 0x4B28 SWAP2 SWAP1 PUSH2 0x505B JUMP JUMPDEST PUSH2 0x22C1 JUMPI PUSH1 0x40 MLOAD PUSH3 0x461BCD PUSH1 0xE5 SHL DUP2 MSTORE PUSH1 0x20 PUSH1 0x4 DUP3 ADD MSTORE PUSH1 0x2A PUSH1 0x24 DUP3 ADD MSTORE PUSH32 0x5361666545524332303A204552433230206F7065726174696F6E20646964206E PUSH1 0x44 DUP3 ADD MSTORE PUSH32 0x6F74207375636365656400000000000000000000000000000000000000000000 PUSH1 0x64 DUP3 ADD MSTORE PUSH1 0x84 ADD PUSH2 0x90B JUMP JUMPDEST PUSH1 0x60 PUSH2 0x4BA9 DUP5 DUP5 PUSH1 0x0 DUP6 PUSH2 0x4BB1 JUMP JUMPDEST SWAP5 SWAP4 POP POP POP POP JUMP JUMPDEST PUSH1 0x60 DUP3 SELFBALANCE LT ISZERO PUSH2 0x4C29 JUMPI PUSH1 0x40 MLOAD PUSH3 0x461BCD PUSH1 0xE5 SHL DUP2 MSTORE PUSH1 0x20 PUSH1 0x4 DUP3 ADD MSTORE PUSH1 0x26 PUSH1 0x24 DUP3 ADD MSTORE PUSH32 0x416464726573733A20696E73756666696369656E742062616C616E636520666F PUSH1 0x44 DUP3 ADD MSTORE PUSH32 0x722063616C6C0000000000000000000000000000000000000000000000000000 PUSH1 0x64 DUP3 ADD MSTORE PUSH1 0x84 ADD PUSH2 0x90B JUMP JUMPDEST DUP5 EXTCODESIZE PUSH2 0x4C77 JUMPI PUSH1 0x40 MLOAD PUSH3 0x461BCD PUSH1 0xE5 SHL DUP2 MSTORE PUSH1 0x20 PUSH1 0x4 DUP3 ADD MSTORE PUSH1 0x1D PUSH1 0x24 DUP3 ADD MSTORE PUSH32 0x416464726573733A2063616C6C20746F206E6F6E2D636F6E7472616374000000 PUSH1 0x44 DUP3 ADD MSTORE PUSH1 0x64 ADD PUSH2 0x90B JUMP JUMPDEST PUSH1 0x0 DUP1 DUP7 PUSH1 0x1 PUSH1 0x1 PUSH1 0xA0 SHL SUB AND DUP6 DUP8 PUSH1 0x40 MLOAD PUSH2 0x4C93 SWAP2 SWAP1 PUSH2 0x525C JUMP JUMPDEST PUSH1 0x0 PUSH1 0x40 MLOAD DUP1 DUP4 SUB DUP2 DUP6 DUP8 GAS CALL SWAP3 POP POP POP RETURNDATASIZE DUP1 PUSH1 0x0 DUP2 EQ PUSH2 0x4CD0 JUMPI PUSH1 0x40 MLOAD SWAP2 POP PUSH1 0x1F NOT PUSH1 0x3F RETURNDATASIZE ADD AND DUP3 ADD PUSH1 0x40 MSTORE RETURNDATASIZE DUP3 MSTORE RETURNDATASIZE PUSH1 0x0 PUSH1 0x20 DUP5 ADD RETURNDATACOPY PUSH2 0x4CD5 JUMP JUMPDEST PUSH1 0x60 SWAP2 POP JUMPDEST POP SWAP2 POP SWAP2 POP PUSH2 0x4CE5 DUP3 DUP3 DUP7 PUSH2 0x4CF0 JUMP JUMPDEST SWAP8 SWAP7 POP POP POP POP POP POP POP JUMP JUMPDEST PUSH1 0x60 DUP4 ISZERO PUSH2 0x4CFF JUMPI POP DUP2 PUSH2 0xD6E JUMP JUMPDEST DUP3 MLOAD ISZERO PUSH2 0x4D0F JUMPI DUP3 MLOAD DUP1 DUP5 PUSH1 0x20 ADD REVERT JUMPDEST DUP2 PUSH1 0x40 MLOAD PUSH3 0x461BCD PUSH1 0xE5 SHL DUP2 MSTORE PUSH1 0x4 ADD PUSH2 0x90B SWAP2 SWAP1 PUSH2 0x52F0 JUMP JUMPDEST DUP3 DUP1 SLOAD PUSH2 0x4D35 SWAP1 PUSH2 0x53BF JUMP JUMPDEST SWAP1 PUSH1 0x0 MSTORE PUSH1 0x20 PUSH1 0x0 KECCAK256 SWAP1 PUSH1 0x1F ADD PUSH1 0x20 SWAP1 DIV DUP2 ADD SWAP3 DUP3 PUSH2 0x4D57 JUMPI PUSH1 0x0 DUP6 SSTORE PUSH2 0x4D9D JUMP JUMPDEST DUP3 PUSH1 0x1F LT PUSH2 0x4D70 JUMPI DUP1 MLOAD PUSH1 0xFF NOT AND DUP4 DUP1 ADD OR DUP6 SSTORE PUSH2 0x4D9D JUMP JUMPDEST DUP3 DUP1 ADD PUSH1 0x1 ADD DUP6 SSTORE DUP3 ISZERO PUSH2 0x4D9D JUMPI SWAP2 DUP3 ADD JUMPDEST DUP3 DUP2 GT ISZERO PUSH2 0x4D9D JUMPI DUP3 MLOAD DUP3 SSTORE SWAP2 PUSH1 0x20 ADD SWAP2 SWAP1 PUSH1 0x1 ADD SWAP1 PUSH2 0x4D82 JUMP JUMPDEST POP PUSH2 0x4DA9 SWAP3 SWAP2 POP PUSH2 0x4DAD JUMP JUMPDEST POP SWAP1 JUMP JUMPDEST JUMPDEST DUP1 DUP3 GT ISZERO PUSH2 0x4DA9 JUMPI PUSH1 0x0 DUP2 SSTORE PUSH1 0x1 ADD PUSH2 0x4DAE JUMP JUMPDEST PUSH1 0x0 DUP1 DUP4 PUSH1 0x1F DUP5 ADD SLT PUSH2 0x4DD4 JUMPI PUSH1 0x0 DUP1 REVERT JUMPDEST POP DUP2 CALLDATALOAD PUSH8 0xFFFFFFFFFFFFFFFF DUP2 GT ISZERO PUSH2 0x4DEC JUMPI PUSH1 0x0 DUP1 REVERT JUMPDEST PUSH1 0x20 DUP4 ADD SWAP2 POP DUP4 PUSH1 0x20 DUP3 PUSH1 0x5 SHL DUP6 ADD ADD GT ISZERO PUSH2 0x4E07 JUMPI PUSH1 0x0 DUP1 REVERT JUMPDEST SWAP3 POP SWAP3 SWAP1 POP JUMP JUMPDEST PUSH1 0x0 PUSH1 0x20 DUP3 DUP5 SUB SLT ISZERO PUSH2 0x4E20 JUMPI PUSH1 0x0 DUP1 REVERT JUMPDEST DUP2 CALLDATALOAD PUSH2 0xD6E DUP2 PUSH2 0x5457 JUMP JUMPDEST PUSH1 0x0 PUSH1 0x20 DUP3 DUP5 SUB SLT ISZERO PUSH2 0x4E3D JUMPI PUSH1 0x0 DUP1 REVERT JUMPDEST DUP2 MLOAD PUSH2 0xD6E DUP2 PUSH2 0x5457 JUMP JUMPDEST PUSH1 0x0 DUP1 PUSH1 0x40 DUP4 DUP6 SUB SLT ISZERO PUSH2 0x4E5B JUMPI PUSH1 0x0 DUP1 REVERT JUMPDEST DUP3 CALLDATALOAD PUSH2 0x4E66 DUP2 PUSH2 0x5457 JUMP JUMPDEST SWAP2 POP PUSH1 0x20 DUP4 ADD CALLDATALOAD PUSH2 0x4E76 DUP2 PUSH2 0x5457 JUMP JUMPDEST DUP1 SWAP2 POP POP SWAP3 POP SWAP3 SWAP1 POP JUMP JUMPDEST PUSH1 0x0 DUP1 PUSH1 0x0 DUP1 PUSH1 0x60 DUP6 DUP8 SUB SLT ISZERO PUSH2 0x4E97 JUMPI PUSH1 0x0 DUP1 REVERT JUMPDEST DUP5 CALLDATALOAD PUSH2 0x4EA2 DUP2 PUSH2 0x5457 JUMP JUMPDEST SWAP4 POP PUSH1 0x20 DUP6 ADD CALLDATALOAD PUSH2 0x4EB2 DUP2 PUSH2 0x5457 JUMP JUMPDEST SWAP3 POP PUSH1 0x40 DUP6 ADD CALLDATALOAD PUSH8 0xFFFFFFFFFFFFFFFF DUP2 GT ISZERO PUSH2 0x4ECE JUMPI PUSH1 0x0 DUP1 REVERT JUMPDEST PUSH2 0x4EDA DUP8 DUP3 DUP9 ADD PUSH2 0x4DC2 JUMP JUMPDEST SWAP6 SWAP9 SWAP5 SWAP8 POP SWAP6 POP POP POP POP JUMP JUMPDEST PUSH1 0x0 DUP1 PUSH1 0x0 PUSH1 0x60 DUP5 DUP7 SUB SLT ISZERO PUSH2 0x4EFB JUMPI PUSH1 0x0 DUP1 REVERT JUMPDEST DUP4 CALLDATALOAD PUSH2 0x4F06 DUP2 PUSH2 0x5457 JUMP JUMPDEST SWAP3 POP PUSH1 0x20 DUP5 ADD CALLDATALOAD PUSH2 0x4F16 DUP2 PUSH2 0x5457 JUMP JUMPDEST SWAP3 SWAP6 SWAP3 SWAP5 POP POP POP PUSH1 0x40 SWAP2 SWAP1 SWAP2 ADD CALLDATALOAD SWAP1 JUMP JUMPDEST PUSH1 0x0 DUP1 PUSH1 0x0 PUSH1 0x40 DUP5 DUP7 SUB SLT ISZERO PUSH2 0x4F3C JUMPI PUSH1 0x0 DUP1 REVERT JUMPDEST DUP4 CALLDATALOAD PUSH2 0x4F47 DUP2 PUSH2 0x5457 JUMP JUMPDEST SWAP3 POP PUSH1 0x20 DUP5 ADD CALLDATALOAD PUSH8 0xFFFFFFFFFFFFFFFF DUP2 GT ISZERO PUSH2 0x4F63 JUMPI PUSH1 0x0 DUP1 REVERT JUMPDEST PUSH2 0x4F6F DUP7 DUP3 DUP8 ADD PUSH2 0x4DC2 JUMP JUMPDEST SWAP5 SWAP8 SWAP1 SWAP7 POP SWAP4 SWAP5 POP POP POP POP JUMP JUMPDEST PUSH1 0x0 DUP1 PUSH1 0x40 DUP4 DUP6 SUB SLT ISZERO PUSH2 0x4F8F JUMPI PUSH1 0x0 DUP1 REVERT JUMPDEST DUP3 CALLDATALOAD PUSH2 0x4F9A DUP2 PUSH2 0x5457 JUMP JUMPDEST SWAP2 POP PUSH1 0x20 DUP4 ADD CALLDATALOAD PUSH2 0x4E76 DUP2 PUSH2 0x546C JUMP JUMPDEST PUSH1 0x0 DUP1 PUSH1 0x40 DUP4 DUP6 SUB SLT ISZERO PUSH2 0x4FBD JUMPI PUSH1 0x0 DUP1 REVERT JUMPDEST DUP3 CALLDATALOAD PUSH2 0x4FC8 DUP2 PUSH2 0x5457 JUMP JUMPDEST SWAP5 PUSH1 0x20 SWAP4 SWAP1 SWAP4 ADD CALLDATALOAD SWAP4 POP POP POP JUMP JUMPDEST PUSH1 0x0 DUP1 PUSH1 0x0 DUP1 PUSH1 0x0 PUSH1 0xA0 DUP7 DUP9 SUB SLT ISZERO PUSH2 0x4FEE JUMPI PUSH1 0x0 DUP1 REVERT JUMPDEST DUP6 CALLDATALOAD PUSH2 0x4FF9 DUP2 PUSH2 0x5457 JUMP JUMPDEST SWAP5 POP PUSH1 0x20 DUP7 ADD CALLDATALOAD SWAP4 POP PUSH1 0x40 DUP7 ADD CALLDATALOAD PUSH2 0x5010 DUP2 PUSH2 0x5457 JUMP JUMPDEST SWAP3 POP PUSH1 0x60 DUP7 ADD CALLDATALOAD PUSH2 0x5020 DUP2 PUSH2 0x5457 JUMP JUMPDEST SWAP2 POP PUSH1 0x80 DUP7 ADD CALLDATALOAD PUSH2 0x5030 DUP2 PUSH2 0x5457 JUMP JUMPDEST DUP1 SWAP2 POP POP SWAP3 SWAP6 POP SWAP3 SWAP6 SWAP1 SWAP4 POP JUMP JUMPDEST PUSH1 0x0 PUSH1 0x20 DUP3 DUP5 SUB SLT ISZERO PUSH2 0x5050 JUMPI PUSH1 0x0 DUP1 REVERT JUMPDEST DUP2 CALLDATALOAD PUSH2 0xD6E DUP2 PUSH2 0x546C JUMP JUMPDEST PUSH1 0x0 PUSH1 0x20 DUP3 DUP5 SUB SLT ISZERO PUSH2 0x506D JUMPI PUSH1 0x0 DUP1 REVERT JUMPDEST DUP2 MLOAD PUSH2 0xD6E DUP2 PUSH2 0x546C JUMP JUMPDEST PUSH1 0x0 PUSH1 0x20 DUP3 DUP5 SUB SLT ISZERO PUSH2 0x508A JUMPI PUSH1 0x0 DUP1 REVERT JUMPDEST POP CALLDATALOAD SWAP2 SWAP1 POP JUMP JUMPDEST PUSH1 0x0 PUSH1 0x20 DUP3 DUP5 SUB SLT ISZERO PUSH2 0x50A3 JUMPI PUSH1 0x0 DUP1 REVERT JUMPDEST POP MLOAD SWAP2 SWAP1 POP JUMP JUMPDEST PUSH1 0x0 DUP1 PUSH1 0x0 DUP1 PUSH1 0x80 DUP6 DUP8 SUB SLT ISZERO PUSH2 0x50C0 JUMPI PUSH1 0x0 DUP1 REVERT JUMPDEST DUP5 MLOAD SWAP4 POP PUSH1 0x20 DUP6 ADD MLOAD PUSH2 0x50D2 DUP2 PUSH2 0x5457 JUMP JUMPDEST PUSH1 0x40 DUP7 ADD MLOAD SWAP1 SWAP4 POP PUSH8 0xFFFFFFFFFFFFFFFF DUP1 DUP3 GT ISZERO PUSH2 0x50F0 JUMPI PUSH1 0x0 DUP1 REVERT JUMPDEST DUP2 DUP8 ADD SWAP2 POP DUP8 PUSH1 0x1F DUP4 ADD SLT PUSH2 0x5104 JUMPI PUSH1 0x0 DUP1 REVERT JUMPDEST DUP2 MLOAD DUP2 DUP2 GT ISZERO PUSH2 0x5116 JUMPI PUSH2 0x5116 PUSH2 0x5441 JUMP JUMPDEST PUSH1 0x40 MLOAD PUSH1 0x1F DUP3 ADD PUSH1 0x1F NOT SWAP1 DUP2 AND PUSH1 0x3F ADD AND DUP2 ADD SWAP1 DUP4 DUP3 GT DUP2 DUP4 LT OR ISZERO PUSH2 0x513E JUMPI PUSH2 0x513E PUSH2 0x5441 JUMP JUMPDEST DUP2 PUSH1 0x40 MSTORE DUP3 DUP2 MSTORE DUP11 PUSH1 0x20 DUP5 DUP8 ADD ADD GT ISZERO PUSH2 0x5157 JUMPI PUSH1 0x0 DUP1 REVERT JUMPDEST PUSH2 0x5168 DUP4 PUSH1 0x20 DUP4 ADD PUSH1 0x20 DUP9 ADD PUSH2 0x5393 JUMP JUMPDEST PUSH1 0x60 SWAP10 SWAP1 SWAP10 ADD MLOAD SWAP8 SWAP11 SWAP7 SWAP10 POP POP POP POP POP POP POP JUMP JUMPDEST PUSH1 0x0 DUP1 PUSH1 0x40 DUP4 DUP6 SUB SLT ISZERO PUSH2 0x518F JUMPI PUSH1 0x0 DUP1 REVERT JUMPDEST DUP3 CALLDATALOAD SWAP2 POP PUSH1 0x20 DUP4 ADD CALLDATALOAD PUSH2 0x4E76 DUP2 PUSH2 0x546C JUMP JUMPDEST PUSH1 0x0 DUP1 PUSH1 0x40 DUP4 DUP6 SUB SLT ISZERO PUSH2 0x51B4 JUMPI PUSH1 0x0 DUP1 REVERT JUMPDEST POP POP DUP1 CALLDATALOAD SWAP3 PUSH1 0x20 SWAP1 SWAP2 ADD CALLDATALOAD SWAP2 POP JUMP JUMPDEST PUSH1 0x0 DUP1 PUSH1 0x0 PUSH1 0x60 DUP5 DUP7 SUB SLT ISZERO PUSH2 0x51D8 JUMPI PUSH1 0x0 DUP1 REVERT JUMPDEST POP POP DUP2 CALLDATALOAD SWAP4 PUSH1 0x20 DUP4 ADD CALLDATALOAD SWAP4 POP PUSH1 0x40 SWAP1 SWAP3 ADD CALLDATALOAD SWAP2 SWAP1 POP JUMP JUMPDEST PUSH1 0x0 DUP1 PUSH1 0x0 PUSH1 0x60 DUP5 DUP7 SUB SLT ISZERO PUSH2 0x5204 JUMPI PUSH1 0x0 DUP1 REVERT JUMPDEST DUP4 MLOAD SWAP3 POP PUSH1 0x20 DUP5 ADD MLOAD SWAP2 POP PUSH1 0x40 DUP5 ADD MLOAD SWAP1 POP SWAP3 POP SWAP3 POP SWAP3 JUMP JUMPDEST PUSH1 0x0 DUP1 PUSH1 0x0 DUP1 PUSH1 0x0 PUSH1 0xA0 DUP7 DUP9 SUB SLT ISZERO PUSH2 0x5235 JUMPI PUSH1 0x0 DUP1 REVERT JUMPDEST DUP6 CALLDATALOAD SWAP5 POP PUSH1 0x20 DUP7 ADD CALLDATALOAD SWAP4 POP PUSH1 0x40 DUP7 ADD CALLDATALOAD SWAP3 POP PUSH1 0x60 DUP7 ADD CALLDATALOAD SWAP2 POP PUSH1 0x80 DUP7 ADD CALLDATALOAD PUSH2 0x5030 DUP2 PUSH2 0x546C JUMP JUMPDEST PUSH1 0x0 DUP3 MLOAD PUSH2 0x526E DUP2 DUP5 PUSH1 0x20 DUP8 ADD PUSH2 0x5393 JUMP JUMPDEST SWAP2 SWAP1 SWAP2 ADD SWAP3 SWAP2 POP POP JUMP JUMPDEST PUSH1 0x20 DUP1 DUP3 MSTORE DUP3 MLOAD DUP3 DUP3 ADD DUP2 SWAP1 MSTORE PUSH1 0x0 SWAP2 SWAP1 PUSH1 0x40 SWAP1 DUP2 DUP6 ADD SWAP1 DUP7 DUP5 ADD DUP6 JUMPDEST DUP3 DUP2 LT ISZERO PUSH2 0x52E3 JUMPI DUP2 MLOAD DUP1 MLOAD DUP6 MSTORE DUP7 DUP2 ADD MLOAD DUP8 DUP7 ADD MSTORE DUP6 DUP2 ADD MLOAD DUP7 DUP7 ADD MSTORE PUSH1 0x60 DUP1 DUP3 ADD MLOAD SWAP1 DUP7 ADD MSTORE PUSH1 0x80 DUP1 DUP3 ADD MLOAD SWAP1 DUP7 ADD MSTORE PUSH1 0xA0 SWAP1 DUP2 ADD MLOAD SWAP1 DUP6 ADD MSTORE PUSH1 0xC0 SWAP1 SWAP4 ADD SWAP3 SWAP1 DUP6 ADD SWAP1 PUSH1 0x1 ADD PUSH2 0x5295 JUMP JUMPDEST POP SWAP2 SWAP8 SWAP7 POP POP POP POP POP POP POP JUMP JUMPDEST PUSH1 0x20 DUP2 MSTORE PUSH1 0x0 DUP3 MLOAD DUP1 PUSH1 0x20 DUP5 ADD MSTORE PUSH2 0x530F DUP2 PUSH1 0x40 DUP6 ADD PUSH1 0x20 DUP8 ADD PUSH2 0x5393 JUMP JUMPDEST PUSH1 0x1F ADD PUSH1 0x1F NOT AND SWAP2 SWAP1 SWAP2 ADD PUSH1 0x40 ADD SWAP3 SWAP2 POP POP JUMP JUMPDEST PUSH1 0x0 DUP3 NOT DUP3 GT ISZERO PUSH2 0x5336 JUMPI PUSH2 0x5336 PUSH2 0x5415 JUMP JUMPDEST POP ADD SWAP1 JUMP JUMPDEST PUSH1 0x0 DUP3 PUSH2 0x5358 JUMPI PUSH4 0x4E487B71 PUSH1 0xE0 SHL PUSH1 0x0 MSTORE PUSH1 0x12 PUSH1 0x4 MSTORE PUSH1 0x24 PUSH1 0x0 REVERT JUMPDEST POP DIV SWAP1 JUMP JUMPDEST PUSH1 0x0 DUP2 PUSH1 0x0 NOT DIV DUP4 GT DUP3 ISZERO ISZERO AND ISZERO PUSH2 0x5377 JUMPI PUSH2 0x5377 PUSH2 0x5415 JUMP JUMPDEST POP MUL SWAP1 JUMP JUMPDEST PUSH1 0x0 DUP3 DUP3 LT ISZERO PUSH2 0x538E JUMPI PUSH2 0x538E PUSH2 0x5415 JUMP JUMPDEST POP SUB SWAP1 JUMP JUMPDEST PUSH1 0x0 JUMPDEST DUP4 DUP2 LT ISZERO PUSH2 0x53AE JUMPI DUP2 DUP2 ADD MLOAD DUP4 DUP3 ADD MSTORE PUSH1 0x20 ADD PUSH2 0x5396 JUMP JUMPDEST DUP4 DUP2 GT ISZERO PUSH2 0x97A JUMPI POP POP PUSH1 0x0 SWAP2 ADD MSTORE JUMP JUMPDEST PUSH1 0x1 DUP2 DUP2 SHR SWAP1 DUP3 AND DUP1 PUSH2 0x53D3 JUMPI PUSH1 0x7F DUP3 AND SWAP2 POP JUMPDEST PUSH1 0x20 DUP3 LT DUP2 EQ ISZERO PUSH2 0x53F4 JUMPI PUSH4 0x4E487B71 PUSH1 0xE0 SHL PUSH1 0x0 MSTORE PUSH1 0x22 PUSH1 0x4 MSTORE PUSH1 0x24 PUSH1 0x0 REVERT JUMPDEST POP SWAP2 SWAP1 POP JUMP JUMPDEST PUSH1 0x0 PUSH1 0x0 NOT DUP3 EQ ISZERO PUSH2 0x540E JUMPI PUSH2 0x540E PUSH2 0x5415 JUMP JUMPDEST POP PUSH1 0x1 ADD SWAP1 JUMP JUMPDEST PUSH4 0x4E487B71 PUSH1 0xE0 SHL PUSH1 0x0 MSTORE PUSH1 0x11 PUSH1 0x4 MSTORE PUSH1 0x24 PUSH1 0x0 REVERT JUMPDEST PUSH4 0x4E487B71 PUSH1 0xE0 SHL PUSH1 0x0 MSTORE PUSH1 0x32 PUSH1 0x4 MSTORE PUSH1 0x24 PUSH1 0x0 REVERT JUMPDEST PUSH4 0x4E487B71 PUSH1 0xE0 SHL PUSH1 0x0 MSTORE PUSH1 0x41 PUSH1 0x4 MSTORE PUSH1 0x24 PUSH1 0x0 REVERT JUMPDEST PUSH1 0x1 PUSH1 0x1 PUSH1 0xA0 SHL SUB DUP2 AND DUP2 EQ PUSH2 0x15BC JUMPI PUSH1 0x0 DUP1 REVERT JUMPDEST DUP1 ISZERO ISZERO DUP2 EQ PUSH2 0x15BC JUMPI PUSH1 0x0 DUP1 REVERT INVALID LOG2 PUSH5 0x6970667358 0x22 SLT KECCAK256 SWAP15 BALANCE LOG0 STOP 0xE0 0xD6 SWAP16 PUSH31 0x4840CFE2F4CFA80E959B0E3A3559FAC38541626AD23A7B3764736F6C634300 ADDMOD SMOD STOP CALLER ",
  "sha1": "f73411d1e7c33958d3b7ddc9abe9fe09d46c1b80",
  "source": "// SPDX-License-Identifier: MIT\npragma solidity ^0.8.0;\n\nimport \"@openzeppelin/contracts/token/ERC20/utils/SafeERC20.sol\";\nimport \"@openzeppelin/contracts/token/ERC20/ERC20.sol\";\nimport \"@openzeppelinUpgradeable/contracts/proxy/utils/Initializable.sol\";\nimport \"@openzeppelinUpgradeable/contracts/access/OwnableUpgradeable.sol\";\nimport \"@openzeppelinUpgradeable/contracts/security/PausableUpgradeable.sol\";\nimport \"@openzeppelinUpgradeable/contracts/token/ERC20/ERC20Upgradeable.sol\";\n\nimport \"../interfaces/IBaseRewardPoolLocker.sol\";\nimport \"../interfaces/ILocker.sol\";\nimport \"../interfaces/IBribeManager.sol\";\nimport \"../interfaces/IMasterChefVTX.sol\";\n\n/// @title Locker\n/// @author Vector Team\ncontract LockerV2 is Initializable, ERC20Upgradeable, OwnableUpgradeable, PausableUpgradeable {\n    using SafeERC20 for IERC20;\n    address public masterchief;\n    address public stakingToken; // staking token in masterchief\n    address public previousLocker;\n    uint256 public maxSlot;\n\n    uint256 public totalUnlocking; // number of vtx in an unlocking slot\n    uint256 public constant DENOMINATOR = 10000;\n\n    address public bribeManager;\n\n    IERC20 public VTX;\n\n    IBaseRewardPoolLocker public rewarder;\n\n    UnlockingStrategy[] public unlockingStrategies;\n\n    struct UnlockingStrategy {\n        uint256 unlockTime; // Time for full unlock\n        uint256 forfeitPercent; // % of stake forfeited\n        uint256 rewardPercent; // % of rewards\n        uint256 instantUnstakePercent; // % to unstake immediately\n        bool isLinear; // is linear unlock\n        bool isActive;\n    }\n\n    struct UserUnlocking {\n        uint256 startTime;\n        uint256 endTime;\n        uint256 amount; // total amount comitted to the unlock slot, never changes except when reseting slot\n        uint256 unlockingStrategy;\n        uint256 alreadyUnstaked;\n        uint256 alreadyWithdrawn; // total amount already withdrawn from contract ( mainly for linear unlocks)\n    }\n\n    mapping(address => uint256) public userUnlocking; // vtx in an unlock slot\n    mapping(address => UserUnlocking[]) public userUnlockings;\n\n    mapping(address => uint256) private lastTimeRewardClaimed;\n\n    mapping(address => bool) public migrated;\n\n    mapping(address => bool) public transferWhitelist;\n\n    event UnlockStarts(\n        address indexed user,\n        uint256 indexed timestamp,\n        uint256 amount,\n        uint256 strategyIndex\n    );\n    event ResetSlot(\n        address indexed user,\n        uint256 indexed timestamp,\n        uint256 amount,\n        uint256 slotIndex\n    );\n    event Unlock(address indexed user, uint256 indexed timestamp, uint256 amount);\n    event NewDeposit(address indexed user, uint256 indexed timestamp, uint256 amount);\n    event Claim(address indexed user, uint256 indexed timestamp);\n\n    function __LockerV2_init_(\n        address _masterchief,\n        uint256 _maxSlots,\n        address _previousLocker,\n        address _rewarder,\n        address _stakingToken\n    ) public initializer {\n        __ERC20_init(\"Locked VTX\", \"LVTXv2\");\n        __Ownable_init();\n        __Pausable_init();\n        require(_maxSlots > 0, \"Max slots should not be null\");\n        maxSlot = _maxSlots;\n        masterchief = _masterchief;\n        previousLocker = _previousLocker;\n        stakingToken = _stakingToken;\n        rewarder = IBaseRewardPoolLocker(_rewarder);\n        VTX = IERC20(IMasterChefVTX(masterchief).vtx());\n    }\n\n    modifier onlyMaster() {\n        require(msg.sender == masterchief, \"Only Masterchief\");\n        _;\n    }\n\n    function setStrategyStatus(uint256 strategyIndex, bool status) external onlyOwner {\n        unlockingStrategies[strategyIndex].isActive = status;\n    }\n\n    function setWhitelistForTransfer(address _for, bool status) external onlyOwner {\n        transferWhitelist[_for] = status;\n    }\n\n    modifier assertEnoughVtxInContract() {\n        _;\n        require(VTX.balanceOf(address(this)) >= totalLocked(), \"CRITICAL FAULT\");\n    }\n\n    function pause() external onlyOwner {\n        _pause();\n    }\n\n    function unpause() external onlyOwner {\n        _unpause();\n    }\n\n    function setBribeManager(address _address) external onlyOwner {\n        bribeManager = _address;\n    }\n\n    function getAllUserUnlocking(address _user)\n        external\n        view\n        returns (UserUnlocking[] memory slots)\n    {\n        uint256 length = getUserSlotLength(_user);\n        slots = new UserUnlocking[](length);\n        for (uint256 i; i < length; i++) {\n            slots[i] = userUnlockings[_user][i];\n        }\n    }\n\n    // total Vtx held in contract\n    function totalLocked() public view returns (uint256) {\n        return totalSupply() + totalUnlocking;\n    }\n\n    function stakeInMasterChief() external onlyOwner {\n        IERC20(stakingToken).approve(masterchief, IERC20(stakingToken).balanceOf(address(this)));\n        IMasterChefVTX(masterchief).deposit(\n            stakingToken,\n            IERC20(stakingToken).balanceOf(address(this))\n        );\n    }\n\n    function _queueRewards(address token, uint256 amount) internal {\n        IERC20(token).approve(address(rewarder), amount);\n        rewarder.queueNewRewards(amount, token);\n    }\n\n    function _harvestVtx() internal whenNotPaused {\n        (uint256 pendingVtx, , , ) = IMasterChefVTX(masterchief).pendingTokens(\n            stakingToken,\n            address(this),\n            address(0)\n        );\n        IMasterChefVTX(masterchief).deposit(stakingToken, 0);\n        _queueRewards(address(VTX), pendingVtx);\n    }\n\n    modifier harvestVtx() {\n        _harvestVtx();\n        _;\n    }\n\n    // @notice Harvest pending VTX for this contract from the masterchief\n    // Queue Vtx in the locker rewarder\n    function harvest() external {\n        _harvestVtx();\n    }\n\n    /// @notice Change the max number of unlocking slots\n    /// @param _maxDeposits the new max number\n    function setMaxSlots(uint256 _maxDeposits) external onlyOwner {\n        require(_maxDeposits > maxSlot, \"Cannot decrease slot number\");\n        maxSlot = _maxDeposits;\n    }\n\n    function addNewStrategy(\n        uint256 _lockTime,\n        uint256 _rewardPercent,\n        uint256 _forfeitPercent,\n        uint256 _instantUnstakePercent,\n        bool _isLinear\n    ) external onlyOwner {\n        require(_rewardPercent <= DENOMINATOR, \"Invalid reward percent\");\n        require(_forfeitPercent + _instantUnstakePercent <= DENOMINATOR, \"Invalid inputs\");\n        unlockingStrategies.push(\n            UnlockingStrategy({\n                unlockTime: _lockTime,\n                forfeitPercent: _forfeitPercent,\n                rewardPercent: _rewardPercent,\n                instantUnstakePercent: _instantUnstakePercent,\n                isLinear: _isLinear,\n                isActive: true\n            })\n        );\n    }\n\n    /// @notice Get the n'th user slot info\n    /// @param _user the user\n    /// @param n the index of the deposit slot\n    function getUserNthSlot(address _user, uint256 n)\n        external\n        view\n        returns (\n            uint256 startTime,\n            uint256 endTime,\n            uint256 amount,\n            uint256 unlockingStrategy,\n            uint256 alreadyUnstaked,\n            uint256 alreadyWithdrawn\n        )\n    {\n        UserUnlocking storage slot = userUnlockings[_user][n];\n        startTime = slot.startTime;\n        endTime = slot.endTime;\n        amount = slot.amount;\n        unlockingStrategy = slot.unlockingStrategy;\n        alreadyUnstaked = slot.alreadyUnstaked;\n        alreadyWithdrawn = slot.alreadyWithdrawn;\n    }\n\n    /// @notice Get the number of user deposits\n    /// @param _user the user\n    /// @return nbDeposits the user number of deposit\n    function getUserSlotLength(address _user) public view returns (uint256) {\n        return userUnlockings[_user].length;\n    }\n\n    /// @notice Get the total VTX held by contract for user\n    /// @param _user the user\n    /// @return the total number of VTX deposited\n    function getUserTotalDeposit(address _user) public view returns (uint256) {\n        return balanceOf(_user) + userUnlocking[_user];\n    }\n\n    // @notice deposit VTX in the contract\n    // @param _amount the amount of VTX to deposit\n    function deposit(uint256 _amount) external whenNotPaused harvestVtx assertEnoughVtxInContract {\n        _deposit(msg.sender, msg.sender, _amount);\n    }\n\n    // @notice deposit VTX in the contract\n    // @param _amount the amount of VTX to deposit\n    // @param _for the address to deposit for\n    // @dev the tokens will be taken from msg.sender\n    function depositFor(address _for, uint256 _amount)\n        external\n        whenNotPaused\n        harvestVtx\n        assertEnoughVtxInContract\n    {\n        _deposit(msg.sender, _for, _amount);\n    }\n\n    function _deposit(\n        address spender,\n        address _for,\n        uint256 _amount\n    ) internal {\n        VTX.safeTransferFrom(spender, address(this), _amount);\n        rewarder.stakeFor(_for, _amount);\n        _mint(_for, _amount);\n        emit NewDeposit(_for, block.timestamp, _amount);\n    }\n\n    function resetSlot(address _for, uint256 slotIndex) internal {\n        require(slotIndex < getUserSlotLength(_for), \"Slot doesn't exist\");\n        UserUnlocking storage slot = userUnlockings[_for][slotIndex];\n        UnlockingStrategy storage strategy = unlockingStrategies[slot.unlockingStrategy];\n        require(\n            strategy.instantUnstakePercent == 0 || slot.alreadyWithdrawn == slot.amount,\n            \"Cannot reset an unfinished slot with instant unlock\"\n        );\n        uint256 remaining = slot.amount - slot.alreadyWithdrawn;\n        if (remaining > 0) {\n            userUnlocking[_for] -= remaining;\n            totalUnlocking -= remaining;\n            _mint(_for, remaining);\n        }\n        rewarder.stakeFor(msg.sender, slot.alreadyUnstaked - slot.alreadyWithdrawn);\n        emit ResetSlot(_for, block.timestamp, slot.amount, slotIndex);\n        slot.amount = 0;\n    }\n\n    // @notice for frontend\n    function cancelUnlock(uint256 slotIndex) external {\n        startUnlock(1, 0, slotIndex);\n    }\n\n    // @notice for frontend\n    function addToUnlock(uint256 amount, uint256 slotIndex) external {\n        uint256 userDepositLength = getUserSlotLength(msg.sender);\n        require((slotIndex <= userDepositLength), \"Not in the range of allowed slots\");\n        UserUnlocking memory info = userUnlockings[msg.sender][slotIndex];\n        startUnlock(info.unlockingStrategy, info.amount + amount, slotIndex);\n    }\n\n    // @notice starts an unlock slot\n    // @notice this function can also be used to reset or change a slot\n    // @param strategyIndex The choosen unlock strategy\n    // @param amount the VTX amount for the slot\n    // @param slotIndex the index of the slot to use\n    function startUnlock(\n        uint256 strategyIndex,\n        uint256 amount,\n        uint256 slotIndex\n    ) public whenNotPaused harvestVtx assertEnoughVtxInContract {\n        uint256 userDepositLength = getUserSlotLength(msg.sender);\n        require(\n            (slotIndex <= userDepositLength) && (slotIndex < maxSlot),\n            \"Not in the range of allowed slots\"\n        );\n        if (userDepositLength > slotIndex && userUnlockings[msg.sender][slotIndex].amount != 0) {\n            resetSlot(msg.sender, slotIndex);\n        }\n        require(amount <= balanceOf(msg.sender), \"Not enough locked VTX to start unlock\");\n        require(strategyIndex != 0, \"Strategy reserved for migration\");\n        UnlockingStrategy storage strategy = unlockingStrategies[strategyIndex];\n        require(strategy.isActive, \"Strategy not active\");\n\n        _burn(msg.sender, amount);\n\n        uint256 amountToUnlock = (strategy.instantUnstakePercent * amount) / DENOMINATOR;\n        VTX.safeTransfer(msg.sender, amountToUnlock);\n\n        uint256 amountToForfeit = (strategy.forfeitPercent * amount) / DENOMINATOR;\n        _approveTokenIfNeeded(address(VTX), address(rewarder), amountToForfeit);\n        IBaseRewardPoolLocker(rewarder).donateRewards(amountToForfeit, address(VTX));\n\n        uint256 forfeitedOrUnlocked = amountToUnlock + amountToForfeit;\n        uint256 amountToUnstakeForRewards = ((DENOMINATOR - strategy.rewardPercent) *\n            (amount - forfeitedOrUnlocked)) / DENOMINATOR;\n        rewarder.withdrawFor(\n            msg.sender,\n            amountToUnstakeForRewards + forfeitedOrUnlocked,\n            getUserRewardPercentage(msg.sender),\n            true\n        );\n\n        userUnlocking[msg.sender] += amount - forfeitedOrUnlocked;\n        totalUnlocking += amount - forfeitedOrUnlocked;\n\n        require(\n            IBribeManager(bribeManager).userTotalVote(msg.sender) <= balanceOf(msg.sender),\n            \"Too much vote cast\"\n        );\n        if (slotIndex < userDepositLength) {\n            userUnlockings[msg.sender][slotIndex] = UserUnlocking({\n                startTime: block.timestamp,\n                endTime: block.timestamp + strategy.unlockTime,\n                unlockingStrategy: strategyIndex,\n                amount: amount - forfeitedOrUnlocked,\n                alreadyUnstaked: amountToUnstakeForRewards,\n                alreadyWithdrawn: 0\n            });\n        } else {\n            userUnlockings[msg.sender].push(\n                UserUnlocking({\n                    startTime: block.timestamp,\n                    endTime: block.timestamp + strategy.unlockTime,\n                    unlockingStrategy: strategyIndex,\n                    amount: amount - forfeitedOrUnlocked,\n                    alreadyUnstaked: amountToUnstakeForRewards,\n                    alreadyWithdrawn: 0\n                })\n            );\n        }\n        emit UnlockStarts(msg.sender, block.timestamp, amount, strategyIndex);\n    }\n\n    // @notice unlock a finished slot\n    // @param slotIndex the index of the slot to unlock\n    function unlock(uint256 slotIndex) external whenNotPaused harvestVtx assertEnoughVtxInContract {\n        UserUnlocking storage slot = userUnlockings[msg.sender][slotIndex];\n        require(slot.amount > 0, \"Inactive slot\");\n        uint256 remaining = slot.amount - slot.alreadyWithdrawn;\n        require(remaining > 0, \"Already fully withdrawn\"); // should never happen\n\n        UnlockingStrategy storage strategy = unlockingStrategies[slot.unlockingStrategy];\n        uint256 amountToUnstake;\n        uint256 amountToWithdraw;\n        if (slot.endTime <= block.timestamp) {\n            amountToUnstake = slot.amount - slot.alreadyUnstaked;\n            amountToWithdraw = slot.amount - slot.alreadyWithdrawn;\n        } else {\n            require(strategy.isLinear, \"Nothing to unlock\");\n            uint256 totalTime = slot.endTime - slot.startTime;\n            uint256 passedTime = block.timestamp - slot.startTime;\n            uint256 ratio = (passedTime * DENOMINATOR) / totalTime;\n            if (ratio > DENOMINATOR) {\n                ratio = DENOMINATOR;\n            }\n            uint256 linearAmount = (slot.amount * ratio) / DENOMINATOR;\n            if (linearAmount > slot.alreadyWithdrawn) {\n                amountToWithdraw = linearAmount - slot.alreadyWithdrawn;\n            }\n            amountToUnstake =\n                (amountToWithdraw * unlockingStrategies[slot.unlockingStrategy].rewardPercent) /\n                DENOMINATOR;\n        }\n        userUnlocking[msg.sender] -= amountToWithdraw;\n        totalUnlocking -= amountToWithdraw;\n        VTX.safeTransfer(msg.sender, amountToWithdraw);\n        rewarder.withdrawFor(\n            msg.sender,\n            amountToUnstake,\n            getUserRewardPercentage(msg.sender),\n            true\n        );\n        slot.alreadyWithdrawn += amountToWithdraw;\n        slot.alreadyUnstaked += amountToUnstake;\n        emit Unlock(msg.sender, block.timestamp, slot.amount);\n        if (slot.alreadyWithdrawn == slot.amount) {\n            resetSlot(msg.sender, slotIndex);\n        }\n    }\n\n    // @notice compute the percentage of rewards owed to the user\n    // this function should always return 10000 if no slots is expired for the user\n    function getUserRewardPercentage(address _user) public view returns (uint256 rewardPercentage) {\n        // should return the percentage of rewards to send to the user ( in case of no interaction after a slot expire)\n        // step 1 : get the  total user staked\n        uint256 totalUserStaked = rewarder.balanceOf(_user);\n        if (totalUserStaked == 0) return 0;\n        uint256 totalUserStakedWithFullReward = totalUserStaked;\n        // setp 2 : search for finished user slot\n        uint256 length = getUserSlotLength(_user);\n        for (uint256 i; i < length; i++) {\n            UserUnlocking storage slot = userUnlockings[_user][i];\n            if (slot.endTime < block.timestamp && slot.amount != 0) {\n                uint256 slotStakedAmount = slot.amount - slot.alreadyUnstaked;\n\n                if (slotStakedAmount > 0) {\n                    // compute the percentage for this particular slot\n                    uint256 lastInteractionTimestamp = lastTimeRewardClaimed[msg.sender] >\n                        slot.startTime\n                        ? lastTimeRewardClaimed[msg.sender]\n                        : slot.startTime;\n                    uint256 totalSlotTime = slot.endTime - lastInteractionTimestamp;\n                    uint256 passedTime = block.timestamp - lastInteractionTimestamp;\n                    uint256 slotRewardPercentage = (totalSlotTime * DENOMINATOR) / passedTime;\n                    // get the staked amount for this slot\n                    totalUserStakedWithFullReward -= slotStakedAmount;\n                    // get the percentage of all stake for this slot\n                    uint256 slotStakedPercentage = (slotStakedAmount * DENOMINATOR) /\n                        totalUserStaked;\n                    rewardPercentage += (slotStakedPercentage * slotRewardPercentage) / DENOMINATOR;\n                }\n            }\n        }\n        rewardPercentage += (totalUserStakedWithFullReward * DENOMINATOR) / totalUserStaked;\n    }\n\n    // @notice claim locker rewards\n    // revert if a slot is expired & not withdrawn\n    function claim() external whenNotPaused harvestVtx assertEnoughVtxInContract {\n        _claim(msg.sender);\n    }\n\n    // @notice claim locker rewards for another user\n    // revert if a slot is expired & not withdrawn\n    function claimFor(address _for) external whenNotPaused harvestVtx assertEnoughVtxInContract {\n        _claim(_for);\n    }\n\n    function _claim(address _for) internal whenNotPaused {\n        uint256 length = getUserSlotLength(_for);\n        for (uint256 i; i < length; i++) {\n            UserUnlocking memory slot = userUnlockings[_for][i];\n            if (\n                slot.endTime <= block.timestamp &&\n                slot.amount != 0 &&\n                unlockingStrategies[slot.unlockingStrategy].rewardPercent != 0\n            ) {\n                revert(\"You need to withdraw all finished slots with rewards before claiming\");\n            } // may be more gas efficient than a require in a loop\n        } // maybe also only write an error code that will be translated in FE to reduce revert msg length\n\n        rewarder.getReward(_for, DENOMINATOR);\n        lastTimeRewardClaimed[_for] = block.timestamp;\n        emit Claim(_for, block.timestamp);\n    }\n\n    function _migrate(\n        address _from,\n        address _to,\n        bool[] calldata onlyDeposit\n    ) internal {\n        require(!migrated[_from], \"Already migrated\");\n        migrated[_from] = true;\n        uint256 length = ILocker(previousLocker).getUserDepositLength(_from);\n        require(onlyDeposit.length == length, \"Incorrect input\");\n        uint256 totalAmountToStake;\n        uint256 totalAmountToRefund;\n        UnlockingStrategy storage strategy = unlockingStrategies[0];\n        for (uint256 i; i < length; i++) {\n            (, uint256 endTime, uint256 amount) = ILocker(previousLocker).getUserNthDeposit(\n                _from,\n                i\n            );\n            uint256 amountToStake;\n            if (endTime < block.timestamp) {\n                totalAmountToRefund += amount;\n            } else {\n                amountToStake = (amount * strategy.rewardPercent) / DENOMINATOR;\n                if (onlyDeposit[i]) {\n                    _mint(_to, amount);\n                } else {\n                    userUnlocking[_to] += amount;\n                    totalUnlocking += amount;\n                    userUnlockings[_to].push(\n                        UserUnlocking({\n                            startTime: block.timestamp,\n                            endTime: endTime,\n                            unlockingStrategy: 0,\n                            amount: amount,\n                            alreadyUnstaked: amount - amountToStake,\n                            alreadyWithdrawn: 0\n                        })\n                    );\n                }\n            }\n            totalAmountToStake += amountToStake;\n        }\n        uint256 actualLength = getUserSlotLength(_to);\n        require(actualLength <= maxSlot, \"Max slot reached\");\n        rewarder.stakeFor(_to, totalAmountToStake);\n        VTX.safeTransfer(_to, totalAmountToRefund);\n    }\n\n    // @notice migrate from the previous locker\n    function migrate(address user, bool[] calldata onlyDeposit) external whenNotPaused onlyMaster {\n        _migrate(user, user, onlyDeposit);\n    }\n\n    // @notice migrate from the previous locker\n    function migrateFor(\n        address _from,\n        address _to,\n        bool[] calldata onlyDeposit\n    ) external whenNotPaused onlyMaster {\n        _migrate(_from, _to, onlyDeposit);\n    }\n\n    /// @notice increase allowance to a contract to the maximum amount for a specific token if it is needed\n    /// @param token the token to increase the allowance of\n    /// @param _to the contract to increase the allowance\n    /// @param _amount the amount of allowance that the contract needs\n    function _approveTokenIfNeeded(\n        address token,\n        address _to,\n        uint256 _amount\n    ) private {\n        if (IERC20(token).allowance(address(this), _to) < _amount) {\n            IERC20(token).approve(_to, type(uint256).max);\n        }\n    }\n\n    function _beforeTokenTransfer(\n        address from,\n        address to,\n        uint256 amount\n    ) internal virtual override {\n        if (!(from == address(0) || to == address(0))) {\n            require(transferWhitelist[from] || transferWhitelist[to], \"Not whitelisted\");\n            rewarder.withdrawFor(from, amount, 0, false);\n            rewarder.stakeFor(to, amount);\n        }\n    }\n\n    function _afterTokenTransfer(\n        address from,\n        address to,\n        uint256 amount\n    ) internal virtual override {\n        if (from != address(0)) {\n            require(\n                IBribeManager(bribeManager).userTotalVote(from) <= balanceOf(from),\n                \"Too much vote cast\"\n            );\n        }\n    }\n}\n",
  "sourcePath": "contracts/LockerV2.sol",
  "type": "contract"
}