{
  "abi": [
    {
      "anonymous": false,
      "inputs": [
        {
          "indexed": false,
          "internalType": "address",
          "name": "to",
          "type": "address"
        },
        {
          "indexed": false,
          "internalType": "uint256",
          "name": "value",
          "type": "uint256"
        },
        {
          "indexed": false,
          "internalType": "bool",
          "name": "isPTP",
          "type": "bool"
        },
        {
          "indexed": false,
          "internalType": "bool",
          "name": "isAddress",
          "type": "bool"
        }
      ],
      "name": "AddFee",
      "type": "event"
    },
    {
      "anonymous": false,
      "inputs": [
        {
          "indexed": true,
          "internalType": "address",
          "name": "user",
          "type": "address"
        },
        {
          "indexed": true,
          "internalType": "address",
          "name": "token",
          "type": "address"
        },
        {
          "indexed": false,
          "internalType": "uint256",
          "name": "amount",
          "type": "uint256"
        }
      ],
      "name": "NewDeposit",
      "type": "event"
    },
    {
      "anonymous": false,
      "inputs": [
        {
          "indexed": false,
          "internalType": "uint256",
          "name": "amount",
          "type": "uint256"
        }
      ],
      "name": "NewPtpStaked",
      "type": "event"
    },
    {
      "anonymous": false,
      "inputs": [
        {
          "indexed": true,
          "internalType": "address",
          "name": "user",
          "type": "address"
        },
        {
          "indexed": true,
          "internalType": "address",
          "name": "token",
          "type": "address"
        },
        {
          "indexed": false,
          "internalType": "uint256",
          "name": "amount",
          "type": "uint256"
        }
      ],
      "name": "NewWithdraw",
      "type": "event"
    },
    {
      "anonymous": false,
      "inputs": [
        {
          "indexed": true,
          "internalType": "address",
          "name": "previousOwner",
          "type": "address"
        },
        {
          "indexed": true,
          "internalType": "address",
          "name": "newOwner",
          "type": "address"
        }
      ],
      "name": "OwnershipTransferred",
      "type": "event"
    },
    {
      "anonymous": false,
      "inputs": [
        {
          "indexed": false,
          "internalType": "address",
          "name": "tokenAddress",
          "type": "address"
        }
      ],
      "name": "PoolAdded",
      "type": "event"
    },
    {
      "anonymous": false,
      "inputs": [
        {
          "indexed": false,
          "internalType": "uint256",
          "name": "amount",
          "type": "uint256"
        }
      ],
      "name": "PtpClaimed",
      "type": "event"
    },
    {
      "anonymous": false,
      "inputs": [
        {
          "indexed": false,
          "internalType": "uint256",
          "name": "amount",
          "type": "uint256"
        },
        {
          "indexed": false,
          "internalType": "uint256",
          "name": "callerFee",
          "type": "uint256"
        }
      ],
      "name": "PtpHarvested",
      "type": "event"
    },
    {
      "anonymous": false,
      "inputs": [
        {
          "indexed": false,
          "internalType": "address",
          "name": "to",
          "type": "address"
        }
      ],
      "name": "RemoveFee",
      "type": "event"
    },
    {
      "anonymous": false,
      "inputs": [
        {
          "indexed": false,
          "internalType": "address",
          "name": "to",
          "type": "address"
        },
        {
          "indexed": false,
          "internalType": "address",
          "name": "rewardToken",
          "type": "address"
        },
        {
          "indexed": false,
          "internalType": "uint256",
          "name": "feeAmount",
          "type": "uint256"
        }
      ],
      "name": "RewardPaidTo",
      "type": "event"
    },
    {
      "anonymous": false,
      "inputs": [
        {
          "indexed": false,
          "internalType": "address",
          "name": "to",
          "type": "address"
        },
        {
          "indexed": false,
          "internalType": "uint256",
          "name": "value",
          "type": "uint256"
        }
      ],
      "name": "SetFee",
      "type": "event"
    },
    {
      "inputs": [],
      "name": "CALLER_FEE",
      "outputs": [
        {
          "internalType": "uint256",
          "name": "",
          "type": "uint256"
        }
      ],
      "stateMutability": "view",
      "type": "function"
    },
    {
      "inputs": [],
      "name": "MAX_CALLER_FEE",
      "outputs": [
        {
          "internalType": "uint256",
          "name": "",
          "type": "uint256"
        }
      ],
      "stateMutability": "view",
      "type": "function"
    },
    {
      "inputs": [],
      "name": "MAX_FEE",
      "outputs": [
        {
          "internalType": "uint256",
          "name": "",
          "type": "uint256"
        }
      ],
      "stateMutability": "view",
      "type": "function"
    },
    {
      "inputs": [
        {
          "internalType": "address",
          "name": "_ptp",
          "type": "address"
        },
        {
          "internalType": "address",
          "name": "_staking_ptp",
          "type": "address"
        },
        {
          "internalType": "address",
          "name": "_stakingStable",
          "type": "address"
        },
        {
          "internalType": "address",
          "name": "_masterPlatypus",
          "type": "address"
        },
        {
          "internalType": "address",
          "name": "_masterVtx",
          "type": "address"
        },
        {
          "internalType": "uint256",
          "name": "_callerFee",
          "type": "uint256"
        }
      ],
      "name": "__MainStaking_init",
      "outputs": [],
      "stateMutability": "nonpayable",
      "type": "function"
    },
    {
      "inputs": [
        {
          "internalType": "uint256",
          "name": "max",
          "type": "uint256"
        },
        {
          "internalType": "uint256",
          "name": "min",
          "type": "uint256"
        },
        {
          "internalType": "uint256",
          "name": "value",
          "type": "uint256"
        },
        {
          "internalType": "address",
          "name": "to",
          "type": "address"
        },
        {
          "internalType": "bool",
          "name": "isPTP",
          "type": "bool"
        },
        {
          "internalType": "bool",
          "name": "isAddress",
          "type": "bool"
        }
      ],
      "name": "addFee",
      "outputs": [],
      "stateMutability": "nonpayable",
      "type": "function"
    },
    {
      "inputs": [],
      "name": "claimPTP",
      "outputs": [],
      "stateMutability": "nonpayable",
      "type": "function"
    },
    {
      "inputs": [],
      "name": "claimdAndStakePTP",
      "outputs": [],
      "stateMutability": "nonpayable",
      "type": "function"
    },
    {
      "inputs": [],
      "name": "computeAPR",
      "outputs": [
        {
          "internalType": "address",
          "name": "",
          "type": "address"
        }
      ],
      "stateMutability": "view",
      "type": "function"
    },
    {
      "inputs": [
        {
          "internalType": "address",
          "name": "token",
          "type": "address"
        },
        {
          "internalType": "uint256",
          "name": "amount",
          "type": "uint256"
        },
        {
          "internalType": "address",
          "name": "sender",
          "type": "address"
        }
      ],
      "name": "deposit",
      "outputs": [],
      "stateMutability": "nonpayable",
      "type": "function"
    },
    {
      "inputs": [
        {
          "internalType": "uint256",
          "name": "",
          "type": "uint256"
        }
      ],
      "name": "feeInfos",
      "outputs": [
        {
          "internalType": "uint256",
          "name": "max_value",
          "type": "uint256"
        },
        {
          "internalType": "uint256",
          "name": "min_value",
          "type": "uint256"
        },
        {
          "internalType": "uint256",
          "name": "value",
          "type": "uint256"
        },
        {
          "internalType": "address",
          "name": "to",
          "type": "address"
        },
        {
          "internalType": "bool",
          "name": "isPTP",
          "type": "bool"
        },
        {
          "internalType": "bool",
          "name": "isAddress",
          "type": "bool"
        },
        {
          "internalType": "bool",
          "name": "isActive",
          "type": "bool"
        }
      ],
      "stateMutability": "view",
      "type": "function"
    },
    {
      "inputs": [
        {
          "internalType": "uint256",
          "name": "amount",
          "type": "uint256"
        },
        {
          "internalType": "address",
          "name": "token",
          "type": "address"
        }
      ],
      "name": "getDepositTokensForShares",
      "outputs": [
        {
          "internalType": "uint256",
          "name": "",
          "type": "uint256"
        }
      ],
      "stateMutability": "view",
      "type": "function"
    },
    {
      "inputs": [
        {
          "internalType": "uint256",
          "name": "amount",
          "type": "uint256"
        },
        {
          "internalType": "address",
          "name": "token",
          "type": "address"
        }
      ],
      "name": "getLPTokensForShares",
      "outputs": [
        {
          "internalType": "uint256",
          "name": "",
          "type": "uint256"
        }
      ],
      "stateMutability": "view",
      "type": "function"
    },
    {
      "inputs": [
        {
          "internalType": "address",
          "name": "_address",
          "type": "address"
        }
      ],
      "name": "getPoolInfo",
      "outputs": [
        {
          "internalType": "uint256",
          "name": "pid",
          "type": "uint256"
        },
        {
          "internalType": "bool",
          "name": "isActive",
          "type": "bool"
        },
        {
          "internalType": "address",
          "name": "token",
          "type": "address"
        },
        {
          "internalType": "address",
          "name": "lp",
          "type": "address"
        },
        {
          "internalType": "uint256",
          "name": "sizeLp",
          "type": "uint256"
        },
        {
          "internalType": "address",
          "name": "receipt",
          "type": "address"
        },
        {
          "internalType": "uint256",
          "name": "size",
          "type": "uint256"
        },
        {
          "internalType": "address",
          "name": "rewards_addr",
          "type": "address"
        },
        {
          "internalType": "address",
          "name": "helper",
          "type": "address"
        }
      ],
      "stateMutability": "view",
      "type": "function"
    },
    {
      "inputs": [
        {
          "internalType": "uint256",
          "name": "amount",
          "type": "uint256"
        },
        {
          "internalType": "address",
          "name": "token",
          "type": "address"
        }
      ],
      "name": "getSharesForDepositTokens",
      "outputs": [
        {
          "internalType": "uint256",
          "name": "",
          "type": "uint256"
        }
      ],
      "stateMutability": "view",
      "type": "function"
    },
    {
      "inputs": [],
      "name": "getStakedPtp",
      "outputs": [
        {
          "internalType": "uint256",
          "name": "",
          "type": "uint256"
        }
      ],
      "stateMutability": "view",
      "type": "function"
    },
    {
      "inputs": [],
      "name": "getVePtp",
      "outputs": [
        {
          "internalType": "uint256",
          "name": "",
          "type": "uint256"
        }
      ],
      "stateMutability": "view",
      "type": "function"
    },
    {
      "inputs": [
        {
          "internalType": "address",
          "name": "token",
          "type": "address"
        },
        {
          "internalType": "bool",
          "name": "isUser",
          "type": "bool"
        },
        {
          "internalType": "bool",
          "name": "verbose",
          "type": "bool"
        }
      ],
      "name": "harvest",
      "outputs": [],
      "stateMutability": "nonpayable",
      "type": "function"
    },
    {
      "inputs": [],
      "name": "masterPlatypus",
      "outputs": [
        {
          "internalType": "address",
          "name": "",
          "type": "address"
        }
      ],
      "stateMutability": "view",
      "type": "function"
    },
    {
      "inputs": [],
      "name": "masterVtx",
      "outputs": [
        {
          "internalType": "address",
          "name": "",
          "type": "address"
        }
      ],
      "stateMutability": "view",
      "type": "function"
    },
    {
      "inputs": [],
      "name": "owner",
      "outputs": [
        {
          "internalType": "address",
          "name": "",
          "type": "address"
        }
      ],
      "stateMutability": "view",
      "type": "function"
    },
    {
      "inputs": [
        {
          "internalType": "address",
          "name": "",
          "type": "address"
        }
      ],
      "name": "pools",
      "outputs": [
        {
          "internalType": "uint256",
          "name": "pid",
          "type": "uint256"
        },
        {
          "internalType": "bool",
          "name": "isActive",
          "type": "bool"
        },
        {
          "internalType": "address",
          "name": "token",
          "type": "address"
        },
        {
          "internalType": "address",
          "name": "lpAddress",
          "type": "address"
        },
        {
          "internalType": "uint256",
          "name": "sizeLp",
          "type": "uint256"
        },
        {
          "internalType": "uint256",
          "name": "size",
          "type": "uint256"
        },
        {
          "internalType": "address",
          "name": "receiptToken",
          "type": "address"
        },
        {
          "internalType": "address",
          "name": "rewarder",
          "type": "address"
        },
        {
          "internalType": "address",
          "name": "helper",
          "type": "address"
        }
      ],
      "stateMutability": "view",
      "type": "function"
    },
    {
      "inputs": [],
      "name": "ptp",
      "outputs": [
        {
          "internalType": "address",
          "name": "",
          "type": "address"
        }
      ],
      "stateMutability": "view",
      "type": "function"
    },
    {
      "inputs": [
        {
          "internalType": "uint256",
          "name": "_pid",
          "type": "uint256"
        },
        {
          "internalType": "address",
          "name": "_token",
          "type": "address"
        },
        {
          "internalType": "address",
          "name": "_lpAddress",
          "type": "address"
        },
        {
          "internalType": "string",
          "name": "receiptName",
          "type": "string"
        },
        {
          "internalType": "string",
          "name": "receiptSymbol",
          "type": "string"
        },
        {
          "internalType": "uint256",
          "name": "allocPoints",
          "type": "uint256"
        }
      ],
      "name": "registerPool",
      "outputs": [],
      "stateMutability": "nonpayable",
      "type": "function"
    },
    {
      "inputs": [
        {
          "internalType": "uint256",
          "name": "index",
          "type": "uint256"
        }
      ],
      "name": "removeFee",
      "outputs": [],
      "stateMutability": "nonpayable",
      "type": "function"
    },
    {
      "inputs": [
        {
          "internalType": "address",
          "name": "token",
          "type": "address"
        }
      ],
      "name": "removePool",
      "outputs": [],
      "stateMutability": "nonpayable",
      "type": "function"
    },
    {
      "inputs": [],
      "name": "renounceOwnership",
      "outputs": [],
      "stateMutability": "nonpayable",
      "type": "function"
    },
    {
      "inputs": [
        {
          "internalType": "address",
          "name": "_token",
          "type": "address"
        },
        {
          "internalType": "address",
          "name": "_rewarder",
          "type": "address"
        }
      ],
      "name": "sendTokenRewards",
      "outputs": [],
      "stateMutability": "nonpayable",
      "type": "function"
    },
    {
      "inputs": [
        {
          "internalType": "uint256",
          "name": "value",
          "type": "uint256"
        }
      ],
      "name": "setCallerFee",
      "outputs": [],
      "stateMutability": "nonpayable",
      "type": "function"
    },
    {
      "inputs": [
        {
          "internalType": "address",
          "name": "_computeAPR",
          "type": "address"
        }
      ],
      "name": "setComputeAPR",
      "outputs": [],
      "stateMutability": "nonpayable",
      "type": "function"
    },
    {
      "inputs": [
        {
          "internalType": "uint256",
          "name": "index",
          "type": "uint256"
        },
        {
          "internalType": "uint256",
          "name": "value",
          "type": "uint256"
        }
      ],
      "name": "setFee",
      "outputs": [],
      "stateMutability": "nonpayable",
      "type": "function"
    },
    {
      "inputs": [
        {
          "internalType": "address",
          "name": "_xPTP",
          "type": "address"
        }
      ],
      "name": "setXPTP",
      "outputs": [],
      "stateMutability": "nonpayable",
      "type": "function"
    },
    {
      "inputs": [],
      "name": "stakeAllPtp",
      "outputs": [],
      "stateMutability": "nonpayable",
      "type": "function"
    },
    {
      "inputs": [
        {
          "internalType": "uint256",
          "name": "amount",
          "type": "uint256"
        }
      ],
      "name": "stakePTP",
      "outputs": [],
      "stateMutability": "nonpayable",
      "type": "function"
    },
    {
      "inputs": [],
      "name": "stakingStable",
      "outputs": [
        {
          "internalType": "address",
          "name": "",
          "type": "address"
        }
      ],
      "stateMutability": "view",
      "type": "function"
    },
    {
      "inputs": [],
      "name": "staking_ptp",
      "outputs": [
        {
          "internalType": "address",
          "name": "",
          "type": "address"
        }
      ],
      "stateMutability": "view",
      "type": "function"
    },
    {
      "inputs": [
        {
          "internalType": "address",
          "name": "",
          "type": "address"
        }
      ],
      "name": "tokenToAvaxPool",
      "outputs": [
        {
          "internalType": "address",
          "name": "",
          "type": "address"
        }
      ],
      "stateMutability": "view",
      "type": "function"
    },
    {
      "inputs": [],
      "name": "totalFee",
      "outputs": [
        {
          "internalType": "uint256",
          "name": "",
          "type": "uint256"
        }
      ],
      "stateMutability": "view",
      "type": "function"
    },
    {
      "inputs": [
        {
          "internalType": "address",
          "name": "newOwner",
          "type": "address"
        }
      ],
      "name": "transferOwnership",
      "outputs": [],
      "stateMutability": "nonpayable",
      "type": "function"
    },
    {
      "inputs": [
        {
          "internalType": "address",
          "name": "token",
          "type": "address"
        },
        {
          "internalType": "uint256",
          "name": "_amount",
          "type": "uint256"
        },
        {
          "internalType": "uint256",
          "name": "_slippage",
          "type": "uint256"
        },
        {
          "internalType": "address",
          "name": "sender",
          "type": "address"
        }
      ],
      "name": "withdraw",
      "outputs": [],
      "stateMutability": "nonpayable",
      "type": "function"
    },
    {
      "inputs": [],
      "name": "xPTP",
      "outputs": [
        {
          "internalType": "address",
          "name": "",
          "type": "address"
        }
      ],
      "stateMutability": "view",
      "type": "function"
    }
  ],
  "bytecode": "608060405234801561001057600080fd5b50613a82806100206000396000f3fe608060405234801561001057600080fd5b50600436106102485760003560e01c80636af667721161013b578063a296454f116100b8578063f08060881161007c578063f08060881461066a578063f2fde38b1461067d578063f45346dc14610690578063f6a23320146106a3578063ff4de86f146106ac57600080fd5b8063a296454f1461056a578063a4063dbc1461057d578063bc063e1a1461063b578063dee91fcb14610644578063ed9a55401461065757600080fd5b80638525a65a116100ff5780638525a65a146105185780638da5cb5b1461052b57806392b3f3011461053c57806397ead2761461054457806399cec5481461055757600080fd5b80636af66772146104cf5780636c1a3085146104e2578063715018a6146104f5578063746c5a9f146104fd5780637ca209281461050557600080fd5b80631df4ccfc116101c9578063499a28181161018d578063499a28181461047a57806352f7c9881461048d57806353aa7dcd146104a057806364a4f078146104b357806366b5f795146104bc57600080fd5b80631df4ccfc146103e25780632c7b09cb146103eb57806339d4d8b1146104415780633ac856e8146104545780633b7d09461461046757600080fd5b806311c34f911161021057806311c34f9114610352578063131edc46146103655780631439069a146103905780631631b194146103a657806316762eed146103cf57600080fd5b806303934f811461024d57806306bfa93814610262578063074cb17a1461032f5780630793613c1461033757806310809f2a1461034a575b600080fd5b61026061025b366004613586565b6106bf565b005b6102d661027036600461349a565b6001600160a01b039081166000908152606f602052604090208054600182015460028301546003840154600585015460048601546006870154600790970154959860ff861698610100909604861697948616969395928316949193918316929190911690565b60408051998a5297151560208a01526001600160a01b039687169789019790975293851660608801526080870192909252831660a086015260c0850152811660e084015216610100820152610120015b60405180910390f35b610260610a3b565b61026061034536600461366f565b610b5f565b610260610c85565b61026061036036600461350d565b610c97565b606754610378906001600160a01b031681565b6040516001600160a01b039091168152602001610326565b610398610dbe565b604051908152602001610326565b6103786103b436600461349a565b6070602052600090815260409020546001600160a01b031681565b6102606103dd366004613608565b610e40565b610398606d5481565b6103fe6103f936600461366f565b6112ad565b604080519788526020880196909652948601939093526001600160a01b03909116606085015215156080840152151560a0830152151560c082015260e001610326565b61039861044f3660046136a1565b611311565b6102606104623660046136c6565b6113e7565b61026061047536600461349a565b6118eb565b61026061048836600461366f565b611939565b61026061049b366004613761565b6119f5565b6102606104ae36600461366f565b611b6f565b610398606c5481565b6102606104ca36600461349a565b611c44565b606654610378906001600160a01b031681565b6102606104f036600461349a565b611c90565b610260611d28565b610398611d5c565b610260610513366004613783565b611d8d565b606b54610378906001600160a01b031681565b6033546001600160a01b0316610378565b610260612017565b6102606105523660046134d4565b612094565b6103986105653660046136a1565b6122f0565b606a54610378906001600160a01b031681565b6105e761058b36600461349a565b606f6020526000908152604090208054600182015460028301546003840154600485015460058601546006870154600790970154959660ff8616966001600160a01b036101009097048716969586169592831692918216911689565b60408051998a5297151560208a01526001600160a01b03968716978901979097529385166060880152608087019290925260a0860152821660c0850152811660e08401521661010082015261012001610326565b6103986107d081565b606854610378906001600160a01b031681565b606954610378906001600160a01b031681565b6103986106783660046136a1565b6123b0565b61026061068b36600461349a565b612412565b61026061069e3660046135d1565b6124ad565b6103986101f481565b606554610378906001600160a01b031681565b6001600160a01b0383166000908152606f60205260409020600181015460ff166107225760405162461bcd60e51b815260206004820152600f60248201526e506f6f6c206e6f742061637469766560881b60448201526064015b60405180910390fd5b6066546040516370a0823160e01b81523060048201526000916001600160a01b0316906370a082319060240160206040518083038186803b15801561076657600080fd5b505afa15801561077a573d6000803e3d6000fd5b505050506040513d601f19601f8201168201806040525081019061079e9190613688565b6069548354604051631c57762b60e31b81526004810191909152600060248201529192506001600160a01b03169063e2bbb15890604401600060405180830381600087803b1580156107ef57600080fd5b505af1158015610803573d6000803e3d6000fd5b50506066546040516370a0823160e01b8152306004820152600093508492506001600160a01b03909116906370a082319060240160206040518083038186803b15801561084f57600080fd5b505afa158015610863573d6000803e3d6000fd5b505050506040513d601f19601f820116820180604052508101906108879190613688565b6108919190613989565b90508085156109c6576000612710606c54846108ad919061396a565b6108b79190613948565b60665460675460405163095ea7b360e01b81529293506001600160a01b039182169263095ea7b3926108ef9216908590600401613856565b602060405180830381600087803b15801561090957600080fd5b505af115801561091d573d6000803e3d6000fd5b505050506040513d601f19601f820116820180604052508101906109419190613652565b5060675460405163b6b55f2560e01b8152600481018390526001600160a01b039091169063b6b55f2590602401600060405180830381600087803b15801561098857600080fd5b505af115801561099c573d6000803e3d6000fd5b50506067546109b892506001600160a01b0316905033836128eb565b6109c28183613989565b9150505b600184015460068501546109ee916001600160a01b0361010090910481169116848489612946565b7f7edf56d31ce00a3e83f4e441e2d7fd675722c1ceb9b699c341ee1d158d4c362382610a1a8382613989565b6040805192835260208301919091520160405180910390a150505050505050565b606554604051639bc8bf7560e01b81523060048201526000916001600160a01b031690639bc8bf759060240160206040518083038186803b158015610a7f57600080fd5b505afa158015610a93573d6000803e3d6000fd5b505050506040513d601f19601f82011682018060405250810190610ab79190613688565b90508015610b2857606560009054906101000a90046001600160a01b03166001600160a01b0316634e71d92d6040518163ffffffff1660e01b8152600401600060405180830381600087803b158015610b0f57600080fd5b505af1158015610b23573d6000803e3d6000fd5b505050505b6040518181527ff56ca5bef7b3b41cec7558fe59c14fd8fd059bc321a4a1473662a801842e108e906020015b60405180910390a150565b8015610c4d5760665460655460405163095ea7b360e01b81526001600160a01b039283169263095ea7b392610b9b929116908590600401613856565b602060405180830381600087803b158015610bb557600080fd5b505af1158015610bc9573d6000803e3d6000fd5b505050506040513d601f19601f82011682018060405250810190610bed9190613652565b5060655460405163b6b55f2560e01b8152600481018390526001600160a01b039091169063b6b55f2590602401600060405180830381600087803b158015610c3457600080fd5b505af1158015610c48573d6000803e3d6000fd5b505050505b610c55610a3b565b6040518181527f6a6f399bd745e41dfcc7ac713c8fd787618d2cb5ba6318526a21250c3854f59590602001610b54565b610c8d610a3b565b610c95612017565b565b600054610100900460ff16610cb25760005460ff1615610cb6565b303b155b610d195760405162461bcd60e51b815260206004820152602e60248201527f496e697469616c697a61626c653a20636f6e747261637420697320616c72656160448201526d191e481a5b9a5d1a585b1a5e995960921b6064820152608401610719565b600054610100900460ff16158015610d3b576000805461ffff19166101011790555b610d436130dc565b606580546001600160a01b03199081166001600160a01b03898116919091179092556066805482168a8416179055606880548216888416179055606980548216878416179055606a8054909116918516919091179055606c829055606d8290558015610db5576000805461ff00191690555b50505050505050565b606554604051639bc8bf7560e01b81523060048201526000916001600160a01b031690639bc8bf75906024015b60206040518083038186803b158015610e0357600080fd5b505afa158015610e17573d6000803e3d6000fd5b505050506040513d601f19601f82011682018060405250810190610e3b9190613688565b905090565b6064821115610e895760405162461bcd60e51b8152602060048201526015602482015274536c697070616765206e6f7420696e2072616e676560581b6044820152606401610719565b6001600160a01b038481166000908152606f6020526040902060078101549091163314610ef85760405162461bcd60e51b815260206004820152601860248201527f4f6e6c792068656c7065722063616e20776974686472617700000000000000006044820152606401610719565b6000610f0485876122f0565b90506000610f128288611311565b6005840154604051632770a7eb60e21b81529192506001600160a01b031690639dc29fac90610f479033908690600401613856565b600060405180830381600087803b158015610f6157600080fd5b505af1158015610f75573d6000803e3d6000fd5b505050600284015460685460405163095ea7b360e01b81526001600160a01b03928316935063095ea7b392610fb09216908590600401613856565b602060405180830381600087803b158015610fca57600080fd5b505af1158015610fde573d6000803e3d6000fd5b505050506040513d601f19601f820116820180604052508101906110029190613652565b506069548354604051630441a3e760e41b81526001600160a01b039092169163441a3e709161103e918590600401918252602082015260400190565b600060405180830381600087803b15801561105857600080fd5b505af115801561106c573d6000803e3d6000fd5b50506040516370a0823160e01b8152306004820152600092506001600160a01b038a1691506370a082319060240160206040518083038186803b1580156110b257600080fd5b505afa1580156110c6573d6000803e3d6000fd5b505050506040513d601f19601f820116820180604052508101906110ea9190613688565b6068549091506001600160a01b03166309a5fca38984606461110c8b8d61396a565b6111169190613948565b6040516001600160e01b031960e086901b1681526001600160a01b0390931660048401526024830191909152604482015230606482015242608482015260a401600060405180830381600087803b15801561117057600080fd5b505af1158015611184573d6000803e3d6000fd5b505050508684600401600082825461119c9190613989565b92505081905550818460030160008282546111b79190613989565b90915550506040516370a0823160e01b815230600482015261125690869083906001600160a01b038c16906370a082319060240160206040518083038186803b15801561120357600080fd5b505afa158015611217573d6000803e3d6000fd5b505050506040513d601f19601f8201168201806040525081019061123b9190613688565b6112459190613989565b6001600160a01b038b1691906128eb565b876001600160a01b0316856001600160a01b03167f7715f7aec5164b178862f96610f97644e00e0abfca2a6d3f425cc7d93284856f8960405161129b91815260200190565b60405180910390a35050505050505050565b606e81815481106112bd57600080fd5b6000918252602090912060049091020180546001820154600283015460039093015491935091906001600160a01b0381169060ff600160a01b8204811691600160a81b8104821691600160b01b9091041687565b6001600160a01b038082166000908152606f602090815260408083206003810154600582015483516318160ddd60e01b81529351959692959194879491909316926318160ddd92600480840193829003018186803b15801561137257600080fd5b505afa158015611386573d6000803e3d6000fd5b505050506040513d601f19601f820116820180604052508101906113aa9190613688565b90506113b6828261396a565b6113c657600093505050506113e1565b806113d1838861396a565b6113db9190613948565b93505050505b92915050565b6033546001600160a01b031633146114115760405162461bcd60e51b8152600401610719906138b0565b6001600160a01b0385166000908152606f602052604090206001015460ff16156114895760405162461bcd60e51b8152602060048201526024808201527f506f6f6c20697320616c72656164792072656769737465726564206f722061636044820152637469766560e01b6064820152608401610719565b60405163478064b160e11b815260009073__ERC20FactoryLib_______________________90638f00c962906114c59087908790600401613882565b60206040518083038186803b1580156114dd57600080fd5b505af41580156114f1573d6000803e3d6000fd5b505050506040513d601f19601f8201168201806040525081019061151591906134b7565b606a54606654604051631d9f877360e11b81526001600160a01b0380851660048301529182166024820152929350600092911690633b3f0ee690604401602060405180830381600087803b15801561156c57600080fd5b505af1158015611580573d6000803e3d6000fd5b505050506040513d601f19601f820116820180604052508101906115a491906134b7565b606a54606754604051633a368cfb60e11b8152600481018c90526001600160a01b038087166024830152808c166044830152306064830152928316608482015282841660a4820152911660c482015290915060009073__PoolHelperFactoryLib__________________9063746d19f69060e40160206040518083038186803b15801561163057600080fd5b505af4158015611644573d6000803e3d6000fd5b505050506040513d601f19601f8201168201806040525081019061166891906134b7565b606a5460405163266f24b760e01b8152600481018790526001600160a01b0386811660248301528581166044830152808416606483015292935091169063266f24b790608401600060405180830381600087803b1580156116c857600080fd5b505af11580156116dc573d6000803e3d6000fd5b505050506040518061012001604052808a8152602001600115158152602001896001600160a01b03168152602001886001600160a01b031681526020016000815260200160008152602001846001600160a01b03168152602001836001600160a01b03168152602001826001600160a01b0316815250606f60008a6001600160a01b03166001600160a01b031681526020019081526020016000206000820151816000015560208201518160010160006101000a81548160ff02191690831515021790555060408201518160010160016101000a8154816001600160a01b0302191690836001600160a01b0316021790555060608201518160020160006101000a8154816001600160a01b0302191690836001600160a01b031602179055506080820151816003015560a0820151816004015560c08201518160050160006101000a8154816001600160a01b0302191690836001600160a01b0316021790555060e08201518160060160006101000a8154816001600160a01b0302191690836001600160a01b031602179055506101008201518160070160006101000a8154816001600160a01b0302191690836001600160a01b031602179055509050507f73cca62ab1b520c9715bf4e6c71e3e518c754e7148f65102f43289a7df0efea6886040516118d891906001600160a01b0391909116815260200190565b60405180910390a1505050505050505050565b6033546001600160a01b031633146119155760405162461bcd60e51b8152600401610719906138b0565b6001600160a01b03166000908152606f60205260409020600101805460ff19169055565b6033546001600160a01b031633146119635760405162461bcd60e51b8152600401610719906138b0565b6000606e8281548110611978576119786139fd565b906000526020600020906004020190508060020154606d600082825461199e9190613989565b909155505060038101805460ff60b01b1981169091556040516001600160a01b0390911681527f5493db1723859b50d9e2f6dbcda6da662098ea59bf451ad2a31ad62289ed54a19060200160405180910390a15050565b6033546001600160a01b03163314611a1f5760405162461bcd60e51b8152600401610719906138b0565b6000606e8381548110611a3457611a346139fd565b9060005260206000209060040201905081816001015411158015611a59575080548211155b611a9a5760405162461bcd60e51b815260206004820152601260248201527156616c7565206e6f7420696e2072616e676560701b6044820152606401610719565b6107d0816002015483606d54611ab09190613930565b611aba9190613989565b1115611afa5760405162461bcd60e51b815260206004820152600f60248201526e13585e08199959481c995858da1959608a1b6044820152606401610719565b818160020154606d54611b0d9190613989565b611b179190613930565b606d556002810182905560038101546040517f01fe2943baee27f47add82886c2200f910c749c461c9b63c5fe83901a53bdb4991611b62916001600160a01b03909116908590613856565b60405180910390a1505050565b6033546001600160a01b03163314611b995760405162461bcd60e51b8152600401610719906138b0565b6101f4811115611bdc5760405162461bcd60e51b815260206004820152600e60248201526d0acc2d8eaca40e8dede40d0d2ced60931b6044820152606401610719565b606c5481606d54611bed9190613930565b611bf79190613989565b606d8190556107d01015611c3f5760405162461bcd60e51b815260206004820152600f60248201526e13505608119959481c995858da1959608a1b6044820152606401610719565b606c55565b6033546001600160a01b03163314611c6e5760405162461bcd60e51b8152600401610719906138b0565b606b80546001600160a01b0319166001600160a01b0392909216919091179055565b6033546001600160a01b03163314611cba5760405162461bcd60e51b8152600401610719906138b0565b6067546001600160a01b031615611d065760405162461bcd60e51b815260206004820152601060248201526f1e14151408185b1c9958591e481cd95d60821b6044820152606401610719565b606780546001600160a01b0319166001600160a01b0392909216919091179055565b6033546001600160a01b03163314611d525760405162461bcd60e51b8152600401610719906138b0565b610c95600061310b565b6065546040516370a0823160e01b81523060048201526000916001600160a01b0316906370a0823190602401610deb565b6033546001600160a01b03163314611db75760405162461bcd60e51b8152600401610719906138b0565b6107d084606d54611dc89190613930565b1115611e085760405162461bcd60e51b815260206004820152600f60248201526e13585e08199959481c995858da1959608a1b6044820152606401610719565b838511158015611e185750858411155b611e595760405162461bcd60e51b815260206004820152601260248201527156616c7565206e6f7420696e2072616e676560701b6044820152606401610719565b6040805160e081018252878152602081018781529181018681526001600160a01b03808716606084019081528615156080850190815286151560a08601908152600160c08701818152606e805492830181556000908152975160049092027f9930d9ff0dee0ef5ca2f7710ea66b8f84dd0f5f5351ecffe72b952cd9db7142a81019290925597517f9930d9ff0dee0ef5ca2f7710ea66b8f84dd0f5f5351ecffe72b952cd9db7142b82015594517f9930d9ff0dee0ef5ca2f7710ea66b8f84dd0f5f5351ecffe72b952cd9db7142c86015591517f9930d9ff0dee0ef5ca2f7710ea66b8f84dd0f5f5351ecffe72b952cd9db7142d90940180549151925196511515600160b01b0260ff60b01b19971515600160a81b029790971661ffff60a81b19931515600160a01b026001600160a81b0319909316959094169490941717161792909217909155606d8054869290611fb3908490613930565b9091555050604080516001600160a01b0385168152602081018690528315159181019190915281151560608201527f6b67376f541493b7df6bcb8449800492e63d937edfb837763a818d3be5baa283906080015b60405180910390a1505050505050565b6066546040516370a0823160e01b8152306004820152610c95916001600160a01b0316906370a082319060240160206040518083038186803b15801561205c57600080fd5b505afa158015612070573d6000803e3d6000fd5b505050506040513d601f19601f820116820180604052508101906103459190613688565b6033546001600160a01b031633146120be5760405162461bcd60e51b8152600401610719906138b0565b6066546001600160a01b038381169116141561210d5760405162461bcd60e51b815260206004820152600e60248201526d1b9bdd08185d5d1a1bdc9a5e995960921b6044820152606401610719565b6001600160a01b0382166000908152606f602052604090206001015460ff161561216a5760405162461bcd60e51b815260206004820152600e60248201526d139bdd08185d5d1a1bdc9a5e995960921b6044820152606401610719565b6040516370a0823160e01b81523060048201526000906001600160a01b038416906370a082319060240160206040518083038186803b1580156121ac57600080fd5b505afa1580156121c0573d6000803e3d6000fd5b505050506040513d601f19601f820116820180604052508101906121e49190613688565b60405163095ea7b360e01b81529091506001600160a01b0384169063095ea7b3906122159085908590600401613856565b602060405180830381600087803b15801561222f57600080fd5b505af1158015612243573d6000803e3d6000fd5b505050506040513d601f19601f820116820180604052508101906122679190613652565b506040516347e7a41160e11b8152600481018290526001600160a01b038481166024830152831690638fcf482290604401602060405180830381600087803b1580156122b257600080fd5b505af11580156122c6573d6000803e3d6000fd5b505050506040513d601f19601f820116820180604052508101906122ea9190613652565b50505050565b6001600160a01b038082166000908152606f60209081526040808320600480820154600583015484516318160ddd60e01b81529451969793969195889591909416936318160ddd93828101939192829003018186803b15801561235257600080fd5b505afa158015612366573d6000803e3d6000fd5b505050506040513d601f19601f8201168201806040525081019061238a9190613688565b9050612396828261396a565b6123a5578593505050506113e1565b816113d1828861396a565b6001600160a01b038082166000908152606f60209081526040808320600480820154600583015484516318160ddd60e01b81529451969793969195889591909416936318160ddd93828101939192829003018186803b15801561137257600080fd5b6033546001600160a01b0316331461243c5760405162461bcd60e51b8152600401610719906138b0565b6001600160a01b0381166124a15760405162461bcd60e51b815260206004820152602660248201527f4f776e61626c653a206e6577206f776e657220697320746865207a65726f206160448201526564647265737360d01b6064820152608401610719565b6124aa8161310b565b50565b6001600160a01b0383166000908152606f60205260409020600181015460ff1661250b5760405162461bcd60e51b815260206004820152600f60248201526e506f6f6c206e6f742061637469766560881b6044820152606401610719565b60078101546001600160a01b031633146125675760405162461bcd60e51b815260206004820152601760248201527f4f6e6c792068656c7065722063616e206465706f7369740000000000000000006044820152606401610719565b61257c6001600160a01b038516833086613167565b60685460405163095ea7b360e01b81526001600160a01b038681169263095ea7b3926125b092909116908790600401613856565b602060405180830381600087803b1580156125ca57600080fd5b505af11580156125de573d6000803e3d6000fd5b505050506040513d601f19601f820116820180604052508101906126029190613652565b50606854604051632434941d60e21b81526001600160a01b03868116600483015260248201869052306044830152426064830152909116906390d2507490608401600060405180830381600087803b15801561265d57600080fd5b505af1158015612671573d6000803e3d6000fd5b5050505060028101546040516370a0823160e01b81523060048201526000916001600160a01b0316906370a082319060240160206040518083038186803b1580156126bb57600080fd5b505afa1580156126cf573d6000803e3d6000fd5b505050506040513d601f19601f820116820180604052508101906126f39190613688565b600283015460695460405163095ea7b360e01b81529293506001600160a01b039182169263095ea7b39261272d9216908590600401613856565b602060405180830381600087803b15801561274757600080fd5b505af115801561275b573d6000803e3d6000fd5b505050506040513d601f19601f8201168201806040525081019061277f9190613652565b506069548254604051631c57762b60e31b81526001600160a01b039092169163e2bbb158916127bb918590600401918252602082015260400190565b600060405180830381600087803b1580156127d557600080fd5b505af11580156127e9573d6000803e3d6000fd5b5050505060006127f985876122f0565b60058401546040516340c10f1960e01b81529192506001600160a01b0316906340c10f199061282e9033908590600401613856565b600060405180830381600087803b15801561284857600080fd5b505af115801561285c573d6000803e3d6000fd5b50505050848360040160008282546128749190613930565b925050819055508183600301600082825461288f9190613930565b92505081905550856001600160a01b0316846001600160a01b03167f83df459d706116d1b3f1c7b7f77cfea4c635275f5d1e1a53827f536ef48db77d876040516128db91815260200190565b60405180910390a3505050505050565b6129418363a9059cbb60e01b848460405160240161290a929190613856565b60408051601f198184030181529190526020810180516001600160e01b03166001600160e01b031990931692909217909152613188565b505050565b60005b606e54811015612edf576000606e8281548110612968576129686139fd565b906000526020600020906004020190508060030160169054906101000a900460ff1615612ecc5760665460028201546001600160a01b0390911690600090612710906129b4908961396a565b6129be9190613948565b6003840154909150600160a01b900460ff16612aca5760665460675460405163095ea7b360e01b81526001600160a01b039283169263095ea7b392612a0a929116908590600401613856565b602060405180830381600087803b158015612a2457600080fd5b505af1158015612a38573d6000803e3d6000fd5b505050506040513d601f19601f82011682018060405250810190612a5c9190613652565b5060675460405163b6b55f2560e01b8152600481018390526001600160a01b039091169063b6b55f2590602401600060405180830381600087803b158015612aa357600080fd5b505af1158015612ab7573d6000803e3d6000fd5b50506067546001600160a01b0316935050505b6003830154600160a81b900460ff16612de857600383015460405163095ea7b360e01b81526001600160a01b038481169263095ea7b392612b1392909116908590600401613856565b602060405180830381600087803b158015612b2d57600080fd5b505af1158015612b41573d6000803e3d6000fd5b505050506040513d601f19601f82011682018060405250810190612b659190613652565b5060038301546040516347e7a41160e11b8152600481018390526001600160a01b03848116602483015290911690638fcf482290604401602060405180830381600087803b158015612bb657600080fd5b505af1158015612bca573d6000803e3d6000fd5b505050506040513d601f19601f82011682018060405250810190612bee9190613652565b50848015612c065750606b546001600160a01b031615155b15612de357606b54600384015460408051639f9106d160e01b815290516001600160a01b039384169363d2472b1b938e93911691639f9106d191600480820192602092909190829003018186803b158015612c6057600080fd5b505afa158015612c74573d6000803e3d6000fd5b505050506040513d601f19601f82011682018060405250810190612c9891906134b7565b85858860030160009054906101000a90046001600160a01b03166001600160a01b03166318160ddd6040518163ffffffff1660e01b815260040160206040518083038186803b158015612cea57600080fd5b505afa158015612cfe573d6000803e3d6000fd5b505050506040513d601f19601f82011682018060405250810190612d229190613688565b6040516001600160e01b031960e088901b1681526001600160a01b03958616600482015293851660248501529390911660448301526064820152608481019190915260a401600060405180830381600087803b158015612d8157600080fd5b505af1158015612d95573d6000803e3d6000fd5b50505060038401546040517f6c33b8f6b4f8ba21a4621cc77c018fbb4c7663cfa25929f02dc8d36abde462c59250612dda916001600160a01b03169085908590613832565b60405180910390a15b612ebd565b600383015460405163a9059cbb60e01b81526001600160a01b038481169263a9059cbb92612e1e92909116908590600401613856565b602060405180830381600087803b158015612e3857600080fd5b505af1158015612e4c573d6000803e3d6000fd5b505050506040513d601f19601f82011682018060405250810190612e709190613652565b5060038301546040517f6c33b8f6b4f8ba21a4621cc77c018fbb4c7663cfa25929f02dc8d36abde462c591612eb4916001600160a01b039091169085908590613832565b60405180910390a15b612ec78187613989565b955050505b5080612ed7816139cc565b915050612949565b5060665460405163095ea7b360e01b81526001600160a01b039091169063095ea7b390612f129087908690600401613856565b602060405180830381600087803b158015612f2c57600080fd5b505af1158015612f40573d6000803e3d6000fd5b505050506040513d601f19601f82011682018060405250810190612f649190613652565b506066546040516347e7a41160e11b8152600481018490526001600160a01b03918216602482015290851690638fcf482290604401602060405180830381600087803b158015612fb357600080fd5b505af1158015612fc7573d6000803e3d6000fd5b505050506040513d601f19601f82011682018060405250810190612feb9190613652565b508080156130035750606b546001600160a01b031615155b156130d5576001600160a01b038581166000818152606f602052604090819020606b54606654600480840154945163ac2ddb3b60e01b8152908101959095528516602485015260448401879052606484019290925292169063ac2ddb3b90608401600060405180830381600087803b15801561307e57600080fd5b505af1158015613092573d6000803e3d6000fd5b50506066546040517f6c33b8f6b4f8ba21a4621cc77c018fbb4c7663cfa25929f02dc8d36abde462c59350612007925088916001600160a01b0316908790613832565b5050505050565b600054610100900460ff166131035760405162461bcd60e51b8152600401610719906138e5565b610c9561325a565b6033546040516001600160a01b038084169216907f8be0079c531659141344cd1fd0a4f28419497f9722a3daafe3b4186f6b6457e090600090a3603380546001600160a01b0319166001600160a01b0392909216919091179055565b6122ea846323b872dd60e01b85858560405160240161290a93929190613832565b60006131dd826040518060400160405280602081526020017f5361666545524332303a206c6f772d6c6576656c2063616c6c206661696c6564815250856001600160a01b031661328a9092919063ffffffff16565b80519091501561294157808060200190518101906131fb9190613652565b6129415760405162461bcd60e51b815260206004820152602a60248201527f5361666545524332303a204552433230206f7065726174696f6e20646964206e6044820152691bdd081cdd58d8d9595960b21b6064820152608401610719565b600054610100900460ff166132815760405162461bcd60e51b8152600401610719906138e5565b610c953361310b565b606061329984846000856132a3565b90505b9392505050565b6060824710156133045760405162461bcd60e51b815260206004820152602660248201527f416464726573733a20696e73756666696369656e742062616c616e636520666f6044820152651c8818d85b1b60d21b6064820152608401610719565b6001600160a01b0385163b61335b5760405162461bcd60e51b815260206004820152601d60248201527f416464726573733a2063616c6c20746f206e6f6e2d636f6e74726163740000006044820152606401610719565b600080866001600160a01b031685876040516133779190613816565b60006040518083038185875af1925050503d80600081146133b4576040519150601f19603f3d011682016040523d82523d6000602084013e6133b9565b606091505b50915091506133c98282866133d4565b979650505050505050565b606083156133e357508161329c565b8251156133f35782518084602001fd5b8160405162461bcd60e51b8152600401610719919061386f565b600082601f83011261341e57600080fd5b813567ffffffffffffffff8082111561343957613439613a13565b604051601f8301601f19908116603f0116810190828211818310171561346157613461613a13565b8160405283815286602085880101111561347a57600080fd5b836020870160208301376000602085830101528094505050505092915050565b6000602082840312156134ac57600080fd5b813561329c81613a29565b6000602082840312156134c957600080fd5b815161329c81613a29565b600080604083850312156134e757600080fd5b82356134f281613a29565b9150602083013561350281613a29565b809150509250929050565b60008060008060008060c0878903121561352657600080fd5b863561353181613a29565b9550602087013561354181613a29565b9450604087013561355181613a29565b9350606087013561356181613a29565b9250608087013561357181613a29565b8092505060a087013590509295509295509295565b60008060006060848603121561359b57600080fd5b83356135a681613a29565b925060208401356135b681613a3e565b915060408401356135c681613a3e565b809150509250925092565b6000806000606084860312156135e657600080fd5b83356135f181613a29565b92506020840135915060408401356135c681613a29565b6000806000806080858703121561361e57600080fd5b843561362981613a29565b93506020850135925060408501359150606085013561364781613a29565b939692955090935050565b60006020828403121561366457600080fd5b815161329c81613a3e565b60006020828403121561368157600080fd5b5035919050565b60006020828403121561369a57600080fd5b5051919050565b600080604083850312156136b457600080fd5b82359150602083013561350281613a29565b60008060008060008060c087890312156136df57600080fd5b8635955060208701356136f181613a29565b9450604087013561370181613a29565b9350606087013567ffffffffffffffff8082111561371e57600080fd5b61372a8a838b0161340d565b9450608089013591508082111561374057600080fd5b5061374d89828a0161340d565b92505060a087013590509295509295509295565b6000806040838503121561377457600080fd5b50508035926020909101359150565b60008060008060008060c0878903121561379c57600080fd5b86359550602087013594506040870135935060608701356137bc81613a29565b925060808701356137cc81613a3e565b915060a08701356137dc81613a3e565b809150509295509295509295565b600081518084526138028160208601602086016139a0565b601f01601f19169290920160200192915050565b600082516138288184602087016139a0565b9190910192915050565b6001600160a01b039384168152919092166020820152604081019190915260600190565b6001600160a01b03929092168252602082015260400190565b60208152600061329c60208301846137ea565b60408152600061389560408301856137ea565b82810360208401526138a781856137ea565b95945050505050565b6020808252818101527f4f776e61626c653a2063616c6c6572206973206e6f7420746865206f776e6572604082015260600190565b6020808252602b908201527f496e697469616c697a61626c653a20636f6e7472616374206973206e6f74206960408201526a6e697469616c697a696e6760a81b606082015260800190565b60008219821115613943576139436139e7565b500190565b60008261396557634e487b7160e01b600052601260045260246000fd5b500490565b6000816000190483118215151615613984576139846139e7565b500290565b60008282101561399b5761399b6139e7565b500390565b60005b838110156139bb5781810151838201526020016139a3565b838111156122ea5750506000910152565b60006000198214156139e0576139e06139e7565b5060010190565b634e487b7160e01b600052601160045260246000fd5b634e487b7160e01b600052603260045260246000fd5b634e487b7160e01b600052604160045260246000fd5b6001600160a01b03811681146124aa57600080fd5b80151581146124aa57600080fdfea2646970667358221220ea7247c2d2f48c5ef097ed83245962cbb93cdb13a6ddccb5df530c947edc5ba464736f6c63430008070033",
  "bytecodeSha1": "abec3e53b7b9871fd46ec960a4167be1e562b386",
  "compiler": {
    "evm_version": "istanbul",
    "optimizer": {
      "enabled": true,
      "runs": 200
    },
    "version": "0.8.7+commit.e28d00a7"
  },
  "contractName": "MainStaking",
  "deployedBytecode": "608060405234801561001057600080fd5b50600436106102485760003560e01c80636af667721161013b578063a296454f116100b8578063f08060881161007c578063f08060881461066a578063f2fde38b1461067d578063f45346dc14610690578063f6a23320146106a3578063ff4de86f146106ac57600080fd5b8063a296454f1461056a578063a4063dbc1461057d578063bc063e1a1461063b578063dee91fcb14610644578063ed9a55401461065757600080fd5b80638525a65a116100ff5780638525a65a146105185780638da5cb5b1461052b57806392b3f3011461053c57806397ead2761461054457806399cec5481461055757600080fd5b80636af66772146104cf5780636c1a3085146104e2578063715018a6146104f5578063746c5a9f146104fd5780637ca209281461050557600080fd5b80631df4ccfc116101c9578063499a28181161018d578063499a28181461047a57806352f7c9881461048d57806353aa7dcd146104a057806364a4f078146104b357806366b5f795146104bc57600080fd5b80631df4ccfc146103e25780632c7b09cb146103eb57806339d4d8b1146104415780633ac856e8146104545780633b7d09461461046757600080fd5b806311c34f911161021057806311c34f9114610352578063131edc46146103655780631439069a146103905780631631b194146103a657806316762eed146103cf57600080fd5b806303934f811461024d57806306bfa93814610262578063074cb17a1461032f5780630793613c1461033757806310809f2a1461034a575b600080fd5b61026061025b366004613586565b6106bf565b005b6102d661027036600461349a565b6001600160a01b039081166000908152606f602052604090208054600182015460028301546003840154600585015460048601546006870154600790970154959860ff861698610100909604861697948616969395928316949193918316929190911690565b60408051998a5297151560208a01526001600160a01b039687169789019790975293851660608801526080870192909252831660a086015260c0850152811660e084015216610100820152610120015b60405180910390f35b610260610a3b565b61026061034536600461366f565b610b5f565b610260610c85565b61026061036036600461350d565b610c97565b606754610378906001600160a01b031681565b6040516001600160a01b039091168152602001610326565b610398610dbe565b604051908152602001610326565b6103786103b436600461349a565b6070602052600090815260409020546001600160a01b031681565b6102606103dd366004613608565b610e40565b610398606d5481565b6103fe6103f936600461366f565b6112ad565b604080519788526020880196909652948601939093526001600160a01b03909116606085015215156080840152151560a0830152151560c082015260e001610326565b61039861044f3660046136a1565b611311565b6102606104623660046136c6565b6113e7565b61026061047536600461349a565b6118eb565b61026061048836600461366f565b611939565b61026061049b366004613761565b6119f5565b6102606104ae36600461366f565b611b6f565b610398606c5481565b6102606104ca36600461349a565b611c44565b606654610378906001600160a01b031681565b6102606104f036600461349a565b611c90565b610260611d28565b610398611d5c565b610260610513366004613783565b611d8d565b606b54610378906001600160a01b031681565b6033546001600160a01b0316610378565b610260612017565b6102606105523660046134d4565b612094565b6103986105653660046136a1565b6122f0565b606a54610378906001600160a01b031681565b6105e761058b36600461349a565b606f6020526000908152604090208054600182015460028301546003840154600485015460058601546006870154600790970154959660ff8616966001600160a01b036101009097048716969586169592831692918216911689565b60408051998a5297151560208a01526001600160a01b03968716978901979097529385166060880152608087019290925260a0860152821660c0850152811660e08401521661010082015261012001610326565b6103986107d081565b606854610378906001600160a01b031681565b606954610378906001600160a01b031681565b6103986106783660046136a1565b6123b0565b61026061068b36600461349a565b612412565b61026061069e3660046135d1565b6124ad565b6103986101f481565b606554610378906001600160a01b031681565b6001600160a01b0383166000908152606f60205260409020600181015460ff166107225760405162461bcd60e51b815260206004820152600f60248201526e506f6f6c206e6f742061637469766560881b60448201526064015b60405180910390fd5b6066546040516370a0823160e01b81523060048201526000916001600160a01b0316906370a082319060240160206040518083038186803b15801561076657600080fd5b505afa15801561077a573d6000803e3d6000fd5b505050506040513d601f19601f8201168201806040525081019061079e9190613688565b6069548354604051631c57762b60e31b81526004810191909152600060248201529192506001600160a01b03169063e2bbb15890604401600060405180830381600087803b1580156107ef57600080fd5b505af1158015610803573d6000803e3d6000fd5b50506066546040516370a0823160e01b8152306004820152600093508492506001600160a01b03909116906370a082319060240160206040518083038186803b15801561084f57600080fd5b505afa158015610863573d6000803e3d6000fd5b505050506040513d601f19601f820116820180604052508101906108879190613688565b6108919190613989565b90508085156109c6576000612710606c54846108ad919061396a565b6108b79190613948565b60665460675460405163095ea7b360e01b81529293506001600160a01b039182169263095ea7b3926108ef9216908590600401613856565b602060405180830381600087803b15801561090957600080fd5b505af115801561091d573d6000803e3d6000fd5b505050506040513d601f19601f820116820180604052508101906109419190613652565b5060675460405163b6b55f2560e01b8152600481018390526001600160a01b039091169063b6b55f2590602401600060405180830381600087803b15801561098857600080fd5b505af115801561099c573d6000803e3d6000fd5b50506067546109b892506001600160a01b0316905033836128eb565b6109c28183613989565b9150505b600184015460068501546109ee916001600160a01b0361010090910481169116848489612946565b7f7edf56d31ce00a3e83f4e441e2d7fd675722c1ceb9b699c341ee1d158d4c362382610a1a8382613989565b6040805192835260208301919091520160405180910390a150505050505050565b606554604051639bc8bf7560e01b81523060048201526000916001600160a01b031690639bc8bf759060240160206040518083038186803b158015610a7f57600080fd5b505afa158015610a93573d6000803e3d6000fd5b505050506040513d601f19601f82011682018060405250810190610ab79190613688565b90508015610b2857606560009054906101000a90046001600160a01b03166001600160a01b0316634e71d92d6040518163ffffffff1660e01b8152600401600060405180830381600087803b158015610b0f57600080fd5b505af1158015610b23573d6000803e3d6000fd5b505050505b6040518181527ff56ca5bef7b3b41cec7558fe59c14fd8fd059bc321a4a1473662a801842e108e906020015b60405180910390a150565b8015610c4d5760665460655460405163095ea7b360e01b81526001600160a01b039283169263095ea7b392610b9b929116908590600401613856565b602060405180830381600087803b158015610bb557600080fd5b505af1158015610bc9573d6000803e3d6000fd5b505050506040513d601f19601f82011682018060405250810190610bed9190613652565b5060655460405163b6b55f2560e01b8152600481018390526001600160a01b039091169063b6b55f2590602401600060405180830381600087803b158015610c3457600080fd5b505af1158015610c48573d6000803e3d6000fd5b505050505b610c55610a3b565b6040518181527f6a6f399bd745e41dfcc7ac713c8fd787618d2cb5ba6318526a21250c3854f59590602001610b54565b610c8d610a3b565b610c95612017565b565b600054610100900460ff16610cb25760005460ff1615610cb6565b303b155b610d195760405162461bcd60e51b815260206004820152602e60248201527f496e697469616c697a61626c653a20636f6e747261637420697320616c72656160448201526d191e481a5b9a5d1a585b1a5e995960921b6064820152608401610719565b600054610100900460ff16158015610d3b576000805461ffff19166101011790555b610d436130dc565b606580546001600160a01b03199081166001600160a01b03898116919091179092556066805482168a8416179055606880548216888416179055606980548216878416179055606a8054909116918516919091179055606c829055606d8290558015610db5576000805461ff00191690555b50505050505050565b606554604051639bc8bf7560e01b81523060048201526000916001600160a01b031690639bc8bf75906024015b60206040518083038186803b158015610e0357600080fd5b505afa158015610e17573d6000803e3d6000fd5b505050506040513d601f19601f82011682018060405250810190610e3b9190613688565b905090565b6064821115610e895760405162461bcd60e51b8152602060048201526015602482015274536c697070616765206e6f7420696e2072616e676560581b6044820152606401610719565b6001600160a01b038481166000908152606f6020526040902060078101549091163314610ef85760405162461bcd60e51b815260206004820152601860248201527f4f6e6c792068656c7065722063616e20776974686472617700000000000000006044820152606401610719565b6000610f0485876122f0565b90506000610f128288611311565b6005840154604051632770a7eb60e21b81529192506001600160a01b031690639dc29fac90610f479033908690600401613856565b600060405180830381600087803b158015610f6157600080fd5b505af1158015610f75573d6000803e3d6000fd5b505050600284015460685460405163095ea7b360e01b81526001600160a01b03928316935063095ea7b392610fb09216908590600401613856565b602060405180830381600087803b158015610fca57600080fd5b505af1158015610fde573d6000803e3d6000fd5b505050506040513d601f19601f820116820180604052508101906110029190613652565b506069548354604051630441a3e760e41b81526001600160a01b039092169163441a3e709161103e918590600401918252602082015260400190565b600060405180830381600087803b15801561105857600080fd5b505af115801561106c573d6000803e3d6000fd5b50506040516370a0823160e01b8152306004820152600092506001600160a01b038a1691506370a082319060240160206040518083038186803b1580156110b257600080fd5b505afa1580156110c6573d6000803e3d6000fd5b505050506040513d601f19601f820116820180604052508101906110ea9190613688565b6068549091506001600160a01b03166309a5fca38984606461110c8b8d61396a565b6111169190613948565b6040516001600160e01b031960e086901b1681526001600160a01b0390931660048401526024830191909152604482015230606482015242608482015260a401600060405180830381600087803b15801561117057600080fd5b505af1158015611184573d6000803e3d6000fd5b505050508684600401600082825461119c9190613989565b92505081905550818460030160008282546111b79190613989565b90915550506040516370a0823160e01b815230600482015261125690869083906001600160a01b038c16906370a082319060240160206040518083038186803b15801561120357600080fd5b505afa158015611217573d6000803e3d6000fd5b505050506040513d601f19601f8201168201806040525081019061123b9190613688565b6112459190613989565b6001600160a01b038b1691906128eb565b876001600160a01b0316856001600160a01b03167f7715f7aec5164b178862f96610f97644e00e0abfca2a6d3f425cc7d93284856f8960405161129b91815260200190565b60405180910390a35050505050505050565b606e81815481106112bd57600080fd5b6000918252602090912060049091020180546001820154600283015460039093015491935091906001600160a01b0381169060ff600160a01b8204811691600160a81b8104821691600160b01b9091041687565b6001600160a01b038082166000908152606f602090815260408083206003810154600582015483516318160ddd60e01b81529351959692959194879491909316926318160ddd92600480840193829003018186803b15801561137257600080fd5b505afa158015611386573d6000803e3d6000fd5b505050506040513d601f19601f820116820180604052508101906113aa9190613688565b90506113b6828261396a565b6113c657600093505050506113e1565b806113d1838861396a565b6113db9190613948565b93505050505b92915050565b6033546001600160a01b031633146114115760405162461bcd60e51b8152600401610719906138b0565b6001600160a01b0385166000908152606f602052604090206001015460ff16156114895760405162461bcd60e51b8152602060048201526024808201527f506f6f6c20697320616c72656164792072656769737465726564206f722061636044820152637469766560e01b6064820152608401610719565b60405163478064b160e11b815260009073__$7b593376e7848b870d08105148d53f5869$__90638f00c962906114c59087908790600401613882565b60206040518083038186803b1580156114dd57600080fd5b505af41580156114f1573d6000803e3d6000fd5b505050506040513d601f19601f8201168201806040525081019061151591906134b7565b606a54606654604051631d9f877360e11b81526001600160a01b0380851660048301529182166024820152929350600092911690633b3f0ee690604401602060405180830381600087803b15801561156c57600080fd5b505af1158015611580573d6000803e3d6000fd5b505050506040513d601f19601f820116820180604052508101906115a491906134b7565b606a54606754604051633a368cfb60e11b8152600481018c90526001600160a01b038087166024830152808c166044830152306064830152928316608482015282841660a4820152911660c482015290915060009073__$7e9ee1ebfdc6e1292a0ad7dbfc0ee3f94b$__9063746d19f69060e40160206040518083038186803b15801561163057600080fd5b505af4158015611644573d6000803e3d6000fd5b505050506040513d601f19601f8201168201806040525081019061166891906134b7565b606a5460405163266f24b760e01b8152600481018790526001600160a01b0386811660248301528581166044830152808416606483015292935091169063266f24b790608401600060405180830381600087803b1580156116c857600080fd5b505af11580156116dc573d6000803e3d6000fd5b505050506040518061012001604052808a8152602001600115158152602001896001600160a01b03168152602001886001600160a01b031681526020016000815260200160008152602001846001600160a01b03168152602001836001600160a01b03168152602001826001600160a01b0316815250606f60008a6001600160a01b03166001600160a01b031681526020019081526020016000206000820151816000015560208201518160010160006101000a81548160ff02191690831515021790555060408201518160010160016101000a8154816001600160a01b0302191690836001600160a01b0316021790555060608201518160020160006101000a8154816001600160a01b0302191690836001600160a01b031602179055506080820151816003015560a0820151816004015560c08201518160050160006101000a8154816001600160a01b0302191690836001600160a01b0316021790555060e08201518160060160006101000a8154816001600160a01b0302191690836001600160a01b031602179055506101008201518160070160006101000a8154816001600160a01b0302191690836001600160a01b031602179055509050507f73cca62ab1b520c9715bf4e6c71e3e518c754e7148f65102f43289a7df0efea6886040516118d891906001600160a01b0391909116815260200190565b60405180910390a1505050505050505050565b6033546001600160a01b031633146119155760405162461bcd60e51b8152600401610719906138b0565b6001600160a01b03166000908152606f60205260409020600101805460ff19169055565b6033546001600160a01b031633146119635760405162461bcd60e51b8152600401610719906138b0565b6000606e8281548110611978576119786139fd565b906000526020600020906004020190508060020154606d600082825461199e9190613989565b909155505060038101805460ff60b01b1981169091556040516001600160a01b0390911681527f5493db1723859b50d9e2f6dbcda6da662098ea59bf451ad2a31ad62289ed54a19060200160405180910390a15050565b6033546001600160a01b03163314611a1f5760405162461bcd60e51b8152600401610719906138b0565b6000606e8381548110611a3457611a346139fd565b9060005260206000209060040201905081816001015411158015611a59575080548211155b611a9a5760405162461bcd60e51b815260206004820152601260248201527156616c7565206e6f7420696e2072616e676560701b6044820152606401610719565b6107d0816002015483606d54611ab09190613930565b611aba9190613989565b1115611afa5760405162461bcd60e51b815260206004820152600f60248201526e13585e08199959481c995858da1959608a1b6044820152606401610719565b818160020154606d54611b0d9190613989565b611b179190613930565b606d556002810182905560038101546040517f01fe2943baee27f47add82886c2200f910c749c461c9b63c5fe83901a53bdb4991611b62916001600160a01b03909116908590613856565b60405180910390a1505050565b6033546001600160a01b03163314611b995760405162461bcd60e51b8152600401610719906138b0565b6101f4811115611bdc5760405162461bcd60e51b815260206004820152600e60248201526d0acc2d8eaca40e8dede40d0d2ced60931b6044820152606401610719565b606c5481606d54611bed9190613930565b611bf79190613989565b606d8190556107d01015611c3f5760405162461bcd60e51b815260206004820152600f60248201526e13505608119959481c995858da1959608a1b6044820152606401610719565b606c55565b6033546001600160a01b03163314611c6e5760405162461bcd60e51b8152600401610719906138b0565b606b80546001600160a01b0319166001600160a01b0392909216919091179055565b6033546001600160a01b03163314611cba5760405162461bcd60e51b8152600401610719906138b0565b6067546001600160a01b031615611d065760405162461bcd60e51b815260206004820152601060248201526f1e14151408185b1c9958591e481cd95d60821b6044820152606401610719565b606780546001600160a01b0319166001600160a01b0392909216919091179055565b6033546001600160a01b03163314611d525760405162461bcd60e51b8152600401610719906138b0565b610c95600061310b565b6065546040516370a0823160e01b81523060048201526000916001600160a01b0316906370a0823190602401610deb565b6033546001600160a01b03163314611db75760405162461bcd60e51b8152600401610719906138b0565b6107d084606d54611dc89190613930565b1115611e085760405162461bcd60e51b815260206004820152600f60248201526e13585e08199959481c995858da1959608a1b6044820152606401610719565b838511158015611e185750858411155b611e595760405162461bcd60e51b815260206004820152601260248201527156616c7565206e6f7420696e2072616e676560701b6044820152606401610719565b6040805160e081018252878152602081018781529181018681526001600160a01b03808716606084019081528615156080850190815286151560a08601908152600160c08701818152606e805492830181556000908152975160049092027f9930d9ff0dee0ef5ca2f7710ea66b8f84dd0f5f5351ecffe72b952cd9db7142a81019290925597517f9930d9ff0dee0ef5ca2f7710ea66b8f84dd0f5f5351ecffe72b952cd9db7142b82015594517f9930d9ff0dee0ef5ca2f7710ea66b8f84dd0f5f5351ecffe72b952cd9db7142c86015591517f9930d9ff0dee0ef5ca2f7710ea66b8f84dd0f5f5351ecffe72b952cd9db7142d90940180549151925196511515600160b01b0260ff60b01b19971515600160a81b029790971661ffff60a81b19931515600160a01b026001600160a81b0319909316959094169490941717161792909217909155606d8054869290611fb3908490613930565b9091555050604080516001600160a01b0385168152602081018690528315159181019190915281151560608201527f6b67376f541493b7df6bcb8449800492e63d937edfb837763a818d3be5baa283906080015b60405180910390a1505050505050565b6066546040516370a0823160e01b8152306004820152610c95916001600160a01b0316906370a082319060240160206040518083038186803b15801561205c57600080fd5b505afa158015612070573d6000803e3d6000fd5b505050506040513d601f19601f820116820180604052508101906103459190613688565b6033546001600160a01b031633146120be5760405162461bcd60e51b8152600401610719906138b0565b6066546001600160a01b038381169116141561210d5760405162461bcd60e51b815260206004820152600e60248201526d1b9bdd08185d5d1a1bdc9a5e995960921b6044820152606401610719565b6001600160a01b0382166000908152606f602052604090206001015460ff161561216a5760405162461bcd60e51b815260206004820152600e60248201526d139bdd08185d5d1a1bdc9a5e995960921b6044820152606401610719565b6040516370a0823160e01b81523060048201526000906001600160a01b038416906370a082319060240160206040518083038186803b1580156121ac57600080fd5b505afa1580156121c0573d6000803e3d6000fd5b505050506040513d601f19601f820116820180604052508101906121e49190613688565b60405163095ea7b360e01b81529091506001600160a01b0384169063095ea7b3906122159085908590600401613856565b602060405180830381600087803b15801561222f57600080fd5b505af1158015612243573d6000803e3d6000fd5b505050506040513d601f19601f820116820180604052508101906122679190613652565b506040516347e7a41160e11b8152600481018290526001600160a01b038481166024830152831690638fcf482290604401602060405180830381600087803b1580156122b257600080fd5b505af11580156122c6573d6000803e3d6000fd5b505050506040513d601f19601f820116820180604052508101906122ea9190613652565b50505050565b6001600160a01b038082166000908152606f60209081526040808320600480820154600583015484516318160ddd60e01b81529451969793969195889591909416936318160ddd93828101939192829003018186803b15801561235257600080fd5b505afa158015612366573d6000803e3d6000fd5b505050506040513d601f19601f8201168201806040525081019061238a9190613688565b9050612396828261396a565b6123a5578593505050506113e1565b816113d1828861396a565b6001600160a01b038082166000908152606f60209081526040808320600480820154600583015484516318160ddd60e01b81529451969793969195889591909416936318160ddd93828101939192829003018186803b15801561137257600080fd5b6033546001600160a01b0316331461243c5760405162461bcd60e51b8152600401610719906138b0565b6001600160a01b0381166124a15760405162461bcd60e51b815260206004820152602660248201527f4f776e61626c653a206e6577206f776e657220697320746865207a65726f206160448201526564647265737360d01b6064820152608401610719565b6124aa8161310b565b50565b6001600160a01b0383166000908152606f60205260409020600181015460ff1661250b5760405162461bcd60e51b815260206004820152600f60248201526e506f6f6c206e6f742061637469766560881b6044820152606401610719565b60078101546001600160a01b031633146125675760405162461bcd60e51b815260206004820152601760248201527f4f6e6c792068656c7065722063616e206465706f7369740000000000000000006044820152606401610719565b61257c6001600160a01b038516833086613167565b60685460405163095ea7b360e01b81526001600160a01b038681169263095ea7b3926125b092909116908790600401613856565b602060405180830381600087803b1580156125ca57600080fd5b505af11580156125de573d6000803e3d6000fd5b505050506040513d601f19601f820116820180604052508101906126029190613652565b50606854604051632434941d60e21b81526001600160a01b03868116600483015260248201869052306044830152426064830152909116906390d2507490608401600060405180830381600087803b15801561265d57600080fd5b505af1158015612671573d6000803e3d6000fd5b5050505060028101546040516370a0823160e01b81523060048201526000916001600160a01b0316906370a082319060240160206040518083038186803b1580156126bb57600080fd5b505afa1580156126cf573d6000803e3d6000fd5b505050506040513d601f19601f820116820180604052508101906126f39190613688565b600283015460695460405163095ea7b360e01b81529293506001600160a01b039182169263095ea7b39261272d9216908590600401613856565b602060405180830381600087803b15801561274757600080fd5b505af115801561275b573d6000803e3d6000fd5b505050506040513d601f19601f8201168201806040525081019061277f9190613652565b506069548254604051631c57762b60e31b81526001600160a01b039092169163e2bbb158916127bb918590600401918252602082015260400190565b600060405180830381600087803b1580156127d557600080fd5b505af11580156127e9573d6000803e3d6000fd5b5050505060006127f985876122f0565b60058401546040516340c10f1960e01b81529192506001600160a01b0316906340c10f199061282e9033908590600401613856565b600060405180830381600087803b15801561284857600080fd5b505af115801561285c573d6000803e3d6000fd5b50505050848360040160008282546128749190613930565b925050819055508183600301600082825461288f9190613930565b92505081905550856001600160a01b0316846001600160a01b03167f83df459d706116d1b3f1c7b7f77cfea4c635275f5d1e1a53827f536ef48db77d876040516128db91815260200190565b60405180910390a3505050505050565b6129418363a9059cbb60e01b848460405160240161290a929190613856565b60408051601f198184030181529190526020810180516001600160e01b03166001600160e01b031990931692909217909152613188565b505050565b60005b606e54811015612edf576000606e8281548110612968576129686139fd565b906000526020600020906004020190508060030160169054906101000a900460ff1615612ecc5760665460028201546001600160a01b0390911690600090612710906129b4908961396a565b6129be9190613948565b6003840154909150600160a01b900460ff16612aca5760665460675460405163095ea7b360e01b81526001600160a01b039283169263095ea7b392612a0a929116908590600401613856565b602060405180830381600087803b158015612a2457600080fd5b505af1158015612a38573d6000803e3d6000fd5b505050506040513d601f19601f82011682018060405250810190612a5c9190613652565b5060675460405163b6b55f2560e01b8152600481018390526001600160a01b039091169063b6b55f2590602401600060405180830381600087803b158015612aa357600080fd5b505af1158015612ab7573d6000803e3d6000fd5b50506067546001600160a01b0316935050505b6003830154600160a81b900460ff16612de857600383015460405163095ea7b360e01b81526001600160a01b038481169263095ea7b392612b1392909116908590600401613856565b602060405180830381600087803b158015612b2d57600080fd5b505af1158015612b41573d6000803e3d6000fd5b505050506040513d601f19601f82011682018060405250810190612b659190613652565b5060038301546040516347e7a41160e11b8152600481018390526001600160a01b03848116602483015290911690638fcf482290604401602060405180830381600087803b158015612bb657600080fd5b505af1158015612bca573d6000803e3d6000fd5b505050506040513d601f19601f82011682018060405250810190612bee9190613652565b50848015612c065750606b546001600160a01b031615155b15612de357606b54600384015460408051639f9106d160e01b815290516001600160a01b039384169363d2472b1b938e93911691639f9106d191600480820192602092909190829003018186803b158015612c6057600080fd5b505afa158015612c74573d6000803e3d6000fd5b505050506040513d601f19601f82011682018060405250810190612c9891906134b7565b85858860030160009054906101000a90046001600160a01b03166001600160a01b03166318160ddd6040518163ffffffff1660e01b815260040160206040518083038186803b158015612cea57600080fd5b505afa158015612cfe573d6000803e3d6000fd5b505050506040513d601f19601f82011682018060405250810190612d229190613688565b6040516001600160e01b031960e088901b1681526001600160a01b03958616600482015293851660248501529390911660448301526064820152608481019190915260a401600060405180830381600087803b158015612d8157600080fd5b505af1158015612d95573d6000803e3d6000fd5b50505060038401546040517f6c33b8f6b4f8ba21a4621cc77c018fbb4c7663cfa25929f02dc8d36abde462c59250612dda916001600160a01b03169085908590613832565b60405180910390a15b612ebd565b600383015460405163a9059cbb60e01b81526001600160a01b038481169263a9059cbb92612e1e92909116908590600401613856565b602060405180830381600087803b158015612e3857600080fd5b505af1158015612e4c573d6000803e3d6000fd5b505050506040513d601f19601f82011682018060405250810190612e709190613652565b5060038301546040517f6c33b8f6b4f8ba21a4621cc77c018fbb4c7663cfa25929f02dc8d36abde462c591612eb4916001600160a01b039091169085908590613832565b60405180910390a15b612ec78187613989565b955050505b5080612ed7816139cc565b915050612949565b5060665460405163095ea7b360e01b81526001600160a01b039091169063095ea7b390612f129087908690600401613856565b602060405180830381600087803b158015612f2c57600080fd5b505af1158015612f40573d6000803e3d6000fd5b505050506040513d601f19601f82011682018060405250810190612f649190613652565b506066546040516347e7a41160e11b8152600481018490526001600160a01b03918216602482015290851690638fcf482290604401602060405180830381600087803b158015612fb357600080fd5b505af1158015612fc7573d6000803e3d6000fd5b505050506040513d601f19601f82011682018060405250810190612feb9190613652565b508080156130035750606b546001600160a01b031615155b156130d5576001600160a01b038581166000818152606f602052604090819020606b54606654600480840154945163ac2ddb3b60e01b8152908101959095528516602485015260448401879052606484019290925292169063ac2ddb3b90608401600060405180830381600087803b15801561307e57600080fd5b505af1158015613092573d6000803e3d6000fd5b50506066546040517f6c33b8f6b4f8ba21a4621cc77c018fbb4c7663cfa25929f02dc8d36abde462c59350612007925088916001600160a01b0316908790613832565b5050505050565b600054610100900460ff166131035760405162461bcd60e51b8152600401610719906138e5565b610c9561325a565b6033546040516001600160a01b038084169216907f8be0079c531659141344cd1fd0a4f28419497f9722a3daafe3b4186f6b6457e090600090a3603380546001600160a01b0319166001600160a01b0392909216919091179055565b6122ea846323b872dd60e01b85858560405160240161290a93929190613832565b60006131dd826040518060400160405280602081526020017f5361666545524332303a206c6f772d6c6576656c2063616c6c206661696c6564815250856001600160a01b031661328a9092919063ffffffff16565b80519091501561294157808060200190518101906131fb9190613652565b6129415760405162461bcd60e51b815260206004820152602a60248201527f5361666545524332303a204552433230206f7065726174696f6e20646964206e6044820152691bdd081cdd58d8d9595960b21b6064820152608401610719565b600054610100900460ff166132815760405162461bcd60e51b8152600401610719906138e5565b610c953361310b565b606061329984846000856132a3565b90505b9392505050565b6060824710156133045760405162461bcd60e51b815260206004820152602660248201527f416464726573733a20696e73756666696369656e742062616c616e636520666f6044820152651c8818d85b1b60d21b6064820152608401610719565b6001600160a01b0385163b61335b5760405162461bcd60e51b815260206004820152601d60248201527f416464726573733a2063616c6c20746f206e6f6e2d636f6e74726163740000006044820152606401610719565b600080866001600160a01b031685876040516133779190613816565b60006040518083038185875af1925050503d80600081146133b4576040519150601f19603f3d011682016040523d82523d6000602084013e6133b9565b606091505b50915091506133c98282866133d4565b979650505050505050565b606083156133e357508161329c565b8251156133f35782518084602001fd5b8160405162461bcd60e51b8152600401610719919061386f565b600082601f83011261341e57600080fd5b813567ffffffffffffffff8082111561343957613439613a13565b604051601f8301601f19908116603f0116810190828211818310171561346157613461613a13565b8160405283815286602085880101111561347a57600080fd5b836020870160208301376000602085830101528094505050505092915050565b6000602082840312156134ac57600080fd5b813561329c81613a29565b6000602082840312156134c957600080fd5b815161329c81613a29565b600080604083850312156134e757600080fd5b82356134f281613a29565b9150602083013561350281613a29565b809150509250929050565b60008060008060008060c0878903121561352657600080fd5b863561353181613a29565b9550602087013561354181613a29565b9450604087013561355181613a29565b9350606087013561356181613a29565b9250608087013561357181613a29565b8092505060a087013590509295509295509295565b60008060006060848603121561359b57600080fd5b83356135a681613a29565b925060208401356135b681613a3e565b915060408401356135c681613a3e565b809150509250925092565b6000806000606084860312156135e657600080fd5b83356135f181613a29565b92506020840135915060408401356135c681613a29565b6000806000806080858703121561361e57600080fd5b843561362981613a29565b93506020850135925060408501359150606085013561364781613a29565b939692955090935050565b60006020828403121561366457600080fd5b815161329c81613a3e565b60006020828403121561368157600080fd5b5035919050565b60006020828403121561369a57600080fd5b5051919050565b600080604083850312156136b457600080fd5b82359150602083013561350281613a29565b60008060008060008060c087890312156136df57600080fd5b8635955060208701356136f181613a29565b9450604087013561370181613a29565b9350606087013567ffffffffffffffff8082111561371e57600080fd5b61372a8a838b0161340d565b9450608089013591508082111561374057600080fd5b5061374d89828a0161340d565b92505060a087013590509295509295509295565b6000806040838503121561377457600080fd5b50508035926020909101359150565b60008060008060008060c0878903121561379c57600080fd5b86359550602087013594506040870135935060608701356137bc81613a29565b925060808701356137cc81613a3e565b915060a08701356137dc81613a3e565b809150509295509295509295565b600081518084526138028160208601602086016139a0565b601f01601f19169290920160200192915050565b600082516138288184602087016139a0565b9190910192915050565b6001600160a01b039384168152919092166020820152604081019190915260600190565b6001600160a01b03929092168252602082015260400190565b60208152600061329c60208301846137ea565b60408152600061389560408301856137ea565b82810360208401526138a781856137ea565b95945050505050565b6020808252818101527f4f776e61626c653a2063616c6c6572206973206e6f7420746865206f776e6572604082015260600190565b6020808252602b908201527f496e697469616c697a61626c653a20636f6e7472616374206973206e6f74206960408201526a6e697469616c697a696e6760a81b606082015260800190565b60008219821115613943576139436139e7565b500190565b60008261396557634e487b7160e01b600052601260045260246000fd5b500490565b6000816000190483118215151615613984576139846139e7565b500290565b60008282101561399b5761399b6139e7565b500390565b60005b838110156139bb5781810151838201526020016139a3565b838111156122ea5750506000910152565b60006000198214156139e0576139e06139e7565b5060010190565b634e487b7160e01b600052601160045260246000fd5b634e487b7160e01b600052603260045260246000fd5b634e487b7160e01b600052604160045260246000fd5b6001600160a01b03811681146124aa57600080fd5b80151581146124aa57600080fdfea2646970667358221220ea7247c2d2f48c5ef097ed83245962cbb93cdb13a6ddccb5df530c947edc5ba464736f6c63430008070033",
  "language": "Solidity",
  "natspec": {
    "kind": "dev",
    "methods": {
      "getDepositTokensForShares(uint256,address)": {
        "notice": "Calculate deposit tokens for a given amount of receipt tokens",
        "params": {
          "amount": "receipt tokens"
        },
        "returns": {
          "_0": "deposit tokens"
        }
      },
      "getLPTokensForShares(uint256,address)": {
        "notice": "Calculate deposit tokens for a given amount of receipt tokens",
        "params": {
          "amount": "receipt tokens"
        },
        "returns": {
          "_0": "deposit tokens"
        }
      },
      "owner()": {
        "details": "Returns the address of the current owner."
      },
      "renounceOwnership()": {
        "details": "Leaves the contract without owner. It will not be possible to call `onlyOwner` functions anymore. Can only be called by the current owner. NOTE: Renouncing ownership will leave the contract without an owner, thereby removing any functionality that is only available to the owner."
      },
      "transferOwnership(address)": {
        "details": "Transfers ownership of the contract to a new account (`newOwner`). Can only be called by the current owner."
      }
    },
    "version": 1
  },
  "opcodes": "PUSH1 0x80 PUSH1 0x40 MSTORE CALLVALUE DUP1 ISZERO PUSH2 0x10 JUMPI PUSH1 0x0 DUP1 REVERT JUMPDEST POP PUSH1 0x4 CALLDATASIZE LT PUSH2 0x248 JUMPI PUSH1 0x0 CALLDATALOAD PUSH1 0xE0 SHR DUP1 PUSH4 0x6AF66772 GT PUSH2 0x13B JUMPI DUP1 PUSH4 0xA296454F GT PUSH2 0xB8 JUMPI DUP1 PUSH4 0xF0806088 GT PUSH2 0x7C JUMPI DUP1 PUSH4 0xF0806088 EQ PUSH2 0x66A JUMPI DUP1 PUSH4 0xF2FDE38B EQ PUSH2 0x67D JUMPI DUP1 PUSH4 0xF45346DC EQ PUSH2 0x690 JUMPI DUP1 PUSH4 0xF6A23320 EQ PUSH2 0x6A3 JUMPI DUP1 PUSH4 0xFF4DE86F EQ PUSH2 0x6AC JUMPI PUSH1 0x0 DUP1 REVERT JUMPDEST DUP1 PUSH4 0xA296454F EQ PUSH2 0x56A JUMPI DUP1 PUSH4 0xA4063DBC EQ PUSH2 0x57D JUMPI DUP1 PUSH4 0xBC063E1A EQ PUSH2 0x63B JUMPI DUP1 PUSH4 0xDEE91FCB EQ PUSH2 0x644 JUMPI DUP1 PUSH4 0xED9A5540 EQ PUSH2 0x657 JUMPI PUSH1 0x0 DUP1 REVERT JUMPDEST DUP1 PUSH4 0x8525A65A GT PUSH2 0xFF JUMPI DUP1 PUSH4 0x8525A65A EQ PUSH2 0x518 JUMPI DUP1 PUSH4 0x8DA5CB5B EQ PUSH2 0x52B JUMPI DUP1 PUSH4 0x92B3F301 EQ PUSH2 0x53C JUMPI DUP1 PUSH4 0x97EAD276 EQ PUSH2 0x544 JUMPI DUP1 PUSH4 0x99CEC548 EQ PUSH2 0x557 JUMPI PUSH1 0x0 DUP1 REVERT JUMPDEST DUP1 PUSH4 0x6AF66772 EQ PUSH2 0x4CF JUMPI DUP1 PUSH4 0x6C1A3085 EQ PUSH2 0x4E2 JUMPI DUP1 PUSH4 0x715018A6 EQ PUSH2 0x4F5 JUMPI DUP1 PUSH4 0x746C5A9F EQ PUSH2 0x4FD JUMPI DUP1 PUSH4 0x7CA20928 EQ PUSH2 0x505 JUMPI PUSH1 0x0 DUP1 REVERT JUMPDEST DUP1 PUSH4 0x1DF4CCFC GT PUSH2 0x1C9 JUMPI DUP1 PUSH4 0x499A2818 GT PUSH2 0x18D JUMPI DUP1 PUSH4 0x499A2818 EQ PUSH2 0x47A JUMPI DUP1 PUSH4 0x52F7C988 EQ PUSH2 0x48D JUMPI DUP1 PUSH4 0x53AA7DCD EQ PUSH2 0x4A0 JUMPI DUP1 PUSH4 0x64A4F078 EQ PUSH2 0x4B3 JUMPI DUP1 PUSH4 0x66B5F795 EQ PUSH2 0x4BC JUMPI PUSH1 0x0 DUP1 REVERT JUMPDEST DUP1 PUSH4 0x1DF4CCFC EQ PUSH2 0x3E2 JUMPI DUP1 PUSH4 0x2C7B09CB EQ PUSH2 0x3EB JUMPI DUP1 PUSH4 0x39D4D8B1 EQ PUSH2 0x441 JUMPI DUP1 PUSH4 0x3AC856E8 EQ PUSH2 0x454 JUMPI DUP1 PUSH4 0x3B7D0946 EQ PUSH2 0x467 JUMPI PUSH1 0x0 DUP1 REVERT JUMPDEST DUP1 PUSH4 0x11C34F91 GT PUSH2 0x210 JUMPI DUP1 PUSH4 0x11C34F91 EQ PUSH2 0x352 JUMPI DUP1 PUSH4 0x131EDC46 EQ PUSH2 0x365 JUMPI DUP1 PUSH4 0x1439069A EQ PUSH2 0x390 JUMPI DUP1 PUSH4 0x1631B194 EQ PUSH2 0x3A6 JUMPI DUP1 PUSH4 0x16762EED EQ PUSH2 0x3CF JUMPI PUSH1 0x0 DUP1 REVERT JUMPDEST DUP1 PUSH4 0x3934F81 EQ PUSH2 0x24D JUMPI DUP1 PUSH4 0x6BFA938 EQ PUSH2 0x262 JUMPI DUP1 PUSH4 0x74CB17A EQ PUSH2 0x32F JUMPI DUP1 PUSH4 0x793613C EQ PUSH2 0x337 JUMPI DUP1 PUSH4 0x10809F2A EQ PUSH2 0x34A JUMPI JUMPDEST PUSH1 0x0 DUP1 REVERT JUMPDEST PUSH2 0x260 PUSH2 0x25B CALLDATASIZE PUSH1 0x4 PUSH2 0x3586 JUMP JUMPDEST PUSH2 0x6BF JUMP JUMPDEST STOP JUMPDEST PUSH2 0x2D6 PUSH2 0x270 CALLDATASIZE PUSH1 0x4 PUSH2 0x349A JUMP JUMPDEST PUSH1 0x1 PUSH1 0x1 PUSH1 0xA0 SHL SUB SWAP1 DUP2 AND PUSH1 0x0 SWAP1 DUP2 MSTORE PUSH1 0x6F PUSH1 0x20 MSTORE PUSH1 0x40 SWAP1 KECCAK256 DUP1 SLOAD PUSH1 0x1 DUP3 ADD SLOAD PUSH1 0x2 DUP4 ADD SLOAD PUSH1 0x3 DUP5 ADD SLOAD PUSH1 0x5 DUP6 ADD SLOAD PUSH1 0x4 DUP7 ADD SLOAD PUSH1 0x6 DUP8 ADD SLOAD PUSH1 0x7 SWAP1 SWAP8 ADD SLOAD SWAP6 SWAP9 PUSH1 0xFF DUP7 AND SWAP9 PUSH2 0x100 SWAP1 SWAP7 DIV DUP7 AND SWAP8 SWAP5 DUP7 AND SWAP7 SWAP4 SWAP6 SWAP3 DUP4 AND SWAP5 SWAP2 SWAP4 SWAP2 DUP4 AND SWAP3 SWAP2 SWAP1 SWAP2 AND SWAP1 JUMP JUMPDEST PUSH1 0x40 DUP1 MLOAD SWAP10 DUP11 MSTORE SWAP8 ISZERO ISZERO PUSH1 0x20 DUP11 ADD MSTORE PUSH1 0x1 PUSH1 0x1 PUSH1 0xA0 SHL SUB SWAP7 DUP8 AND SWAP8 DUP10 ADD SWAP8 SWAP1 SWAP8 MSTORE SWAP4 DUP6 AND PUSH1 0x60 DUP9 ADD MSTORE PUSH1 0x80 DUP8 ADD SWAP3 SWAP1 SWAP3 MSTORE DUP4 AND PUSH1 0xA0 DUP7 ADD MSTORE PUSH1 0xC0 DUP6 ADD MSTORE DUP2 AND PUSH1 0xE0 DUP5 ADD MSTORE AND PUSH2 0x100 DUP3 ADD MSTORE PUSH2 0x120 ADD JUMPDEST PUSH1 0x40 MLOAD DUP1 SWAP2 SUB SWAP1 RETURN JUMPDEST PUSH2 0x260 PUSH2 0xA3B JUMP JUMPDEST PUSH2 0x260 PUSH2 0x345 CALLDATASIZE PUSH1 0x4 PUSH2 0x366F JUMP JUMPDEST PUSH2 0xB5F JUMP JUMPDEST PUSH2 0x260 PUSH2 0xC85 JUMP JUMPDEST PUSH2 0x260 PUSH2 0x360 CALLDATASIZE PUSH1 0x4 PUSH2 0x350D JUMP JUMPDEST PUSH2 0xC97 JUMP JUMPDEST PUSH1 0x67 SLOAD PUSH2 0x378 SWAP1 PUSH1 0x1 PUSH1 0x1 PUSH1 0xA0 SHL SUB AND DUP2 JUMP JUMPDEST PUSH1 0x40 MLOAD PUSH1 0x1 PUSH1 0x1 PUSH1 0xA0 SHL SUB SWAP1 SWAP2 AND DUP2 MSTORE PUSH1 0x20 ADD PUSH2 0x326 JUMP JUMPDEST PUSH2 0x398 PUSH2 0xDBE JUMP JUMPDEST PUSH1 0x40 MLOAD SWAP1 DUP2 MSTORE PUSH1 0x20 ADD PUSH2 0x326 JUMP JUMPDEST PUSH2 0x378 PUSH2 0x3B4 CALLDATASIZE PUSH1 0x4 PUSH2 0x349A JUMP JUMPDEST PUSH1 0x70 PUSH1 0x20 MSTORE PUSH1 0x0 SWAP1 DUP2 MSTORE PUSH1 0x40 SWAP1 KECCAK256 SLOAD PUSH1 0x1 PUSH1 0x1 PUSH1 0xA0 SHL SUB AND DUP2 JUMP JUMPDEST PUSH2 0x260 PUSH2 0x3DD CALLDATASIZE PUSH1 0x4 PUSH2 0x3608 JUMP JUMPDEST PUSH2 0xE40 JUMP JUMPDEST PUSH2 0x398 PUSH1 0x6D SLOAD DUP2 JUMP JUMPDEST PUSH2 0x3FE PUSH2 0x3F9 CALLDATASIZE PUSH1 0x4 PUSH2 0x366F JUMP JUMPDEST PUSH2 0x12AD JUMP JUMPDEST PUSH1 0x40 DUP1 MLOAD SWAP8 DUP9 MSTORE PUSH1 0x20 DUP9 ADD SWAP7 SWAP1 SWAP7 MSTORE SWAP5 DUP7 ADD SWAP4 SWAP1 SWAP4 MSTORE PUSH1 0x1 PUSH1 0x1 PUSH1 0xA0 SHL SUB SWAP1 SWAP2 AND PUSH1 0x60 DUP6 ADD MSTORE ISZERO ISZERO PUSH1 0x80 DUP5 ADD MSTORE ISZERO ISZERO PUSH1 0xA0 DUP4 ADD MSTORE ISZERO ISZERO PUSH1 0xC0 DUP3 ADD MSTORE PUSH1 0xE0 ADD PUSH2 0x326 JUMP JUMPDEST PUSH2 0x398 PUSH2 0x44F CALLDATASIZE PUSH1 0x4 PUSH2 0x36A1 JUMP JUMPDEST PUSH2 0x1311 JUMP JUMPDEST PUSH2 0x260 PUSH2 0x462 CALLDATASIZE PUSH1 0x4 PUSH2 0x36C6 JUMP JUMPDEST PUSH2 0x13E7 JUMP JUMPDEST PUSH2 0x260 PUSH2 0x475 CALLDATASIZE PUSH1 0x4 PUSH2 0x349A JUMP JUMPDEST PUSH2 0x18EB JUMP JUMPDEST PUSH2 0x260 PUSH2 0x488 CALLDATASIZE PUSH1 0x4 PUSH2 0x366F JUMP JUMPDEST PUSH2 0x1939 JUMP JUMPDEST PUSH2 0x260 PUSH2 0x49B CALLDATASIZE PUSH1 0x4 PUSH2 0x3761 JUMP JUMPDEST PUSH2 0x19F5 JUMP JUMPDEST PUSH2 0x260 PUSH2 0x4AE CALLDATASIZE PUSH1 0x4 PUSH2 0x366F JUMP JUMPDEST PUSH2 0x1B6F JUMP JUMPDEST PUSH2 0x398 PUSH1 0x6C SLOAD DUP2 JUMP JUMPDEST PUSH2 0x260 PUSH2 0x4CA CALLDATASIZE PUSH1 0x4 PUSH2 0x349A JUMP JUMPDEST PUSH2 0x1C44 JUMP JUMPDEST PUSH1 0x66 SLOAD PUSH2 0x378 SWAP1 PUSH1 0x1 PUSH1 0x1 PUSH1 0xA0 SHL SUB AND DUP2 JUMP JUMPDEST PUSH2 0x260 PUSH2 0x4F0 CALLDATASIZE PUSH1 0x4 PUSH2 0x349A JUMP JUMPDEST PUSH2 0x1C90 JUMP JUMPDEST PUSH2 0x260 PUSH2 0x1D28 JUMP JUMPDEST PUSH2 0x398 PUSH2 0x1D5C JUMP JUMPDEST PUSH2 0x260 PUSH2 0x513 CALLDATASIZE PUSH1 0x4 PUSH2 0x3783 JUMP JUMPDEST PUSH2 0x1D8D JUMP JUMPDEST PUSH1 0x6B SLOAD PUSH2 0x378 SWAP1 PUSH1 0x1 PUSH1 0x1 PUSH1 0xA0 SHL SUB AND DUP2 JUMP JUMPDEST PUSH1 0x33 SLOAD PUSH1 0x1 PUSH1 0x1 PUSH1 0xA0 SHL SUB AND PUSH2 0x378 JUMP JUMPDEST PUSH2 0x260 PUSH2 0x2017 JUMP JUMPDEST PUSH2 0x260 PUSH2 0x552 CALLDATASIZE PUSH1 0x4 PUSH2 0x34D4 JUMP JUMPDEST PUSH2 0x2094 JUMP JUMPDEST PUSH2 0x398 PUSH2 0x565 CALLDATASIZE PUSH1 0x4 PUSH2 0x36A1 JUMP JUMPDEST PUSH2 0x22F0 JUMP JUMPDEST PUSH1 0x6A SLOAD PUSH2 0x378 SWAP1 PUSH1 0x1 PUSH1 0x1 PUSH1 0xA0 SHL SUB AND DUP2 JUMP JUMPDEST PUSH2 0x5E7 PUSH2 0x58B CALLDATASIZE PUSH1 0x4 PUSH2 0x349A JUMP JUMPDEST PUSH1 0x6F PUSH1 0x20 MSTORE PUSH1 0x0 SWAP1 DUP2 MSTORE PUSH1 0x40 SWAP1 KECCAK256 DUP1 SLOAD PUSH1 0x1 DUP3 ADD SLOAD PUSH1 0x2 DUP4 ADD SLOAD PUSH1 0x3 DUP5 ADD SLOAD PUSH1 0x4 DUP6 ADD SLOAD PUSH1 0x5 DUP7 ADD SLOAD PUSH1 0x6 DUP8 ADD SLOAD PUSH1 0x7 SWAP1 SWAP8 ADD SLOAD SWAP6 SWAP7 PUSH1 0xFF DUP7 AND SWAP7 PUSH1 0x1 PUSH1 0x1 PUSH1 0xA0 SHL SUB PUSH2 0x100 SWAP1 SWAP8 DIV DUP8 AND SWAP7 SWAP6 DUP7 AND SWAP6 SWAP3 DUP4 AND SWAP3 SWAP2 DUP3 AND SWAP2 AND DUP10 JUMP JUMPDEST PUSH1 0x40 DUP1 MLOAD SWAP10 DUP11 MSTORE SWAP8 ISZERO ISZERO PUSH1 0x20 DUP11 ADD MSTORE PUSH1 0x1 PUSH1 0x1 PUSH1 0xA0 SHL SUB SWAP7 DUP8 AND SWAP8 DUP10 ADD SWAP8 SWAP1 SWAP8 MSTORE SWAP4 DUP6 AND PUSH1 0x60 DUP9 ADD MSTORE PUSH1 0x80 DUP8 ADD SWAP3 SWAP1 SWAP3 MSTORE PUSH1 0xA0 DUP7 ADD MSTORE DUP3 AND PUSH1 0xC0 DUP6 ADD MSTORE DUP2 AND PUSH1 0xE0 DUP5 ADD MSTORE AND PUSH2 0x100 DUP3 ADD MSTORE PUSH2 0x120 ADD PUSH2 0x326 JUMP JUMPDEST PUSH2 0x398 PUSH2 0x7D0 DUP2 JUMP JUMPDEST PUSH1 0x68 SLOAD PUSH2 0x378 SWAP1 PUSH1 0x1 PUSH1 0x1 PUSH1 0xA0 SHL SUB AND DUP2 JUMP JUMPDEST PUSH1 0x69 SLOAD PUSH2 0x378 SWAP1 PUSH1 0x1 PUSH1 0x1 PUSH1 0xA0 SHL SUB AND DUP2 JUMP JUMPDEST PUSH2 0x398 PUSH2 0x678 CALLDATASIZE PUSH1 0x4 PUSH2 0x36A1 JUMP JUMPDEST PUSH2 0x23B0 JUMP JUMPDEST PUSH2 0x260 PUSH2 0x68B CALLDATASIZE PUSH1 0x4 PUSH2 0x349A JUMP JUMPDEST PUSH2 0x2412 JUMP JUMPDEST PUSH2 0x260 PUSH2 0x69E CALLDATASIZE PUSH1 0x4 PUSH2 0x35D1 JUMP JUMPDEST PUSH2 0x24AD JUMP JUMPDEST PUSH2 0x398 PUSH2 0x1F4 DUP2 JUMP JUMPDEST PUSH1 0x65 SLOAD PUSH2 0x378 SWAP1 PUSH1 0x1 PUSH1 0x1 PUSH1 0xA0 SHL SUB AND DUP2 JUMP JUMPDEST PUSH1 0x1 PUSH1 0x1 PUSH1 0xA0 SHL SUB DUP4 AND PUSH1 0x0 SWAP1 DUP2 MSTORE PUSH1 0x6F PUSH1 0x20 MSTORE PUSH1 0x40 SWAP1 KECCAK256 PUSH1 0x1 DUP2 ADD SLOAD PUSH1 0xFF AND PUSH2 0x722 JUMPI PUSH1 0x40 MLOAD PUSH3 0x461BCD PUSH1 0xE5 SHL DUP2 MSTORE PUSH1 0x20 PUSH1 0x4 DUP3 ADD MSTORE PUSH1 0xF PUSH1 0x24 DUP3 ADD MSTORE PUSH15 0x506F6F6C206E6F7420616374697665 PUSH1 0x88 SHL PUSH1 0x44 DUP3 ADD MSTORE PUSH1 0x64 ADD JUMPDEST PUSH1 0x40 MLOAD DUP1 SWAP2 SUB SWAP1 REVERT JUMPDEST PUSH1 0x66 SLOAD PUSH1 0x40 MLOAD PUSH4 0x70A08231 PUSH1 0xE0 SHL DUP2 MSTORE ADDRESS PUSH1 0x4 DUP3 ADD MSTORE PUSH1 0x0 SWAP2 PUSH1 0x1 PUSH1 0x1 PUSH1 0xA0 SHL SUB AND SWAP1 PUSH4 0x70A08231 SWAP1 PUSH1 0x24 ADD PUSH1 0x20 PUSH1 0x40 MLOAD DUP1 DUP4 SUB DUP2 DUP7 DUP1 EXTCODESIZE ISZERO DUP1 ISZERO PUSH2 0x766 JUMPI PUSH1 0x0 DUP1 REVERT JUMPDEST POP GAS STATICCALL ISZERO DUP1 ISZERO PUSH2 0x77A JUMPI RETURNDATASIZE PUSH1 0x0 DUP1 RETURNDATACOPY RETURNDATASIZE PUSH1 0x0 REVERT JUMPDEST POP POP POP POP PUSH1 0x40 MLOAD RETURNDATASIZE PUSH1 0x1F NOT PUSH1 0x1F DUP3 ADD AND DUP3 ADD DUP1 PUSH1 0x40 MSTORE POP DUP2 ADD SWAP1 PUSH2 0x79E SWAP2 SWAP1 PUSH2 0x3688 JUMP JUMPDEST PUSH1 0x69 SLOAD DUP4 SLOAD PUSH1 0x40 MLOAD PUSH4 0x1C57762B PUSH1 0xE3 SHL DUP2 MSTORE PUSH1 0x4 DUP2 ADD SWAP2 SWAP1 SWAP2 MSTORE PUSH1 0x0 PUSH1 0x24 DUP3 ADD MSTORE SWAP2 SWAP3 POP PUSH1 0x1 PUSH1 0x1 PUSH1 0xA0 SHL SUB AND SWAP1 PUSH4 0xE2BBB158 SWAP1 PUSH1 0x44 ADD PUSH1 0x0 PUSH1 0x40 MLOAD DUP1 DUP4 SUB DUP2 PUSH1 0x0 DUP8 DUP1 EXTCODESIZE ISZERO DUP1 ISZERO PUSH2 0x7EF JUMPI PUSH1 0x0 DUP1 REVERT JUMPDEST POP GAS CALL ISZERO DUP1 ISZERO PUSH2 0x803 JUMPI RETURNDATASIZE PUSH1 0x0 DUP1 RETURNDATACOPY RETURNDATASIZE PUSH1 0x0 REVERT JUMPDEST POP POP PUSH1 0x66 SLOAD PUSH1 0x40 MLOAD PUSH4 0x70A08231 PUSH1 0xE0 SHL DUP2 MSTORE ADDRESS PUSH1 0x4 DUP3 ADD MSTORE PUSH1 0x0 SWAP4 POP DUP5 SWAP3 POP PUSH1 0x1 PUSH1 0x1 PUSH1 0xA0 SHL SUB SWAP1 SWAP2 AND SWAP1 PUSH4 0x70A08231 SWAP1 PUSH1 0x24 ADD PUSH1 0x20 PUSH1 0x40 MLOAD DUP1 DUP4 SUB DUP2 DUP7 DUP1 EXTCODESIZE ISZERO DUP1 ISZERO PUSH2 0x84F JUMPI PUSH1 0x0 DUP1 REVERT JUMPDEST POP GAS STATICCALL ISZERO DUP1 ISZERO PUSH2 0x863 JUMPI RETURNDATASIZE PUSH1 0x0 DUP1 RETURNDATACOPY RETURNDATASIZE PUSH1 0x0 REVERT JUMPDEST POP POP POP POP PUSH1 0x40 MLOAD RETURNDATASIZE PUSH1 0x1F NOT PUSH1 0x1F DUP3 ADD AND DUP3 ADD DUP1 PUSH1 0x40 MSTORE POP DUP2 ADD SWAP1 PUSH2 0x887 SWAP2 SWAP1 PUSH2 0x3688 JUMP JUMPDEST PUSH2 0x891 SWAP2 SWAP1 PUSH2 0x3989 JUMP JUMPDEST SWAP1 POP DUP1 DUP6 ISZERO PUSH2 0x9C6 JUMPI PUSH1 0x0 PUSH2 0x2710 PUSH1 0x6C SLOAD DUP5 PUSH2 0x8AD SWAP2 SWAP1 PUSH2 0x396A JUMP JUMPDEST PUSH2 0x8B7 SWAP2 SWAP1 PUSH2 0x3948 JUMP JUMPDEST PUSH1 0x66 SLOAD PUSH1 0x67 SLOAD PUSH1 0x40 MLOAD PUSH4 0x95EA7B3 PUSH1 0xE0 SHL DUP2 MSTORE SWAP3 SWAP4 POP PUSH1 0x1 PUSH1 0x1 PUSH1 0xA0 SHL SUB SWAP2 DUP3 AND SWAP3 PUSH4 0x95EA7B3 SWAP3 PUSH2 0x8EF SWAP3 AND SWAP1 DUP6 SWAP1 PUSH1 0x4 ADD PUSH2 0x3856 JUMP JUMPDEST PUSH1 0x20 PUSH1 0x40 MLOAD DUP1 DUP4 SUB DUP2 PUSH1 0x0 DUP8 DUP1 EXTCODESIZE ISZERO DUP1 ISZERO PUSH2 0x909 JUMPI PUSH1 0x0 DUP1 REVERT JUMPDEST POP GAS CALL ISZERO DUP1 ISZERO PUSH2 0x91D JUMPI RETURNDATASIZE PUSH1 0x0 DUP1 RETURNDATACOPY RETURNDATASIZE PUSH1 0x0 REVERT JUMPDEST POP POP POP POP PUSH1 0x40 MLOAD RETURNDATASIZE PUSH1 0x1F NOT PUSH1 0x1F DUP3 ADD AND DUP3 ADD DUP1 PUSH1 0x40 MSTORE POP DUP2 ADD SWAP1 PUSH2 0x941 SWAP2 SWAP1 PUSH2 0x3652 JUMP JUMPDEST POP PUSH1 0x67 SLOAD PUSH1 0x40 MLOAD PUSH4 0xB6B55F25 PUSH1 0xE0 SHL DUP2 MSTORE PUSH1 0x4 DUP2 ADD DUP4 SWAP1 MSTORE PUSH1 0x1 PUSH1 0x1 PUSH1 0xA0 SHL SUB SWAP1 SWAP2 AND SWAP1 PUSH4 0xB6B55F25 SWAP1 PUSH1 0x24 ADD PUSH1 0x0 PUSH1 0x40 MLOAD DUP1 DUP4 SUB DUP2 PUSH1 0x0 DUP8 DUP1 EXTCODESIZE ISZERO DUP1 ISZERO PUSH2 0x988 JUMPI PUSH1 0x0 DUP1 REVERT JUMPDEST POP GAS CALL ISZERO DUP1 ISZERO PUSH2 0x99C JUMPI RETURNDATASIZE PUSH1 0x0 DUP1 RETURNDATACOPY RETURNDATASIZE PUSH1 0x0 REVERT JUMPDEST POP POP PUSH1 0x67 SLOAD PUSH2 0x9B8 SWAP3 POP PUSH1 0x1 PUSH1 0x1 PUSH1 0xA0 SHL SUB AND SWAP1 POP CALLER DUP4 PUSH2 0x28EB JUMP JUMPDEST PUSH2 0x9C2 DUP2 DUP4 PUSH2 0x3989 JUMP JUMPDEST SWAP2 POP POP JUMPDEST PUSH1 0x1 DUP5 ADD SLOAD PUSH1 0x6 DUP6 ADD SLOAD PUSH2 0x9EE SWAP2 PUSH1 0x1 PUSH1 0x1 PUSH1 0xA0 SHL SUB PUSH2 0x100 SWAP1 SWAP2 DIV DUP2 AND SWAP2 AND DUP5 DUP5 DUP10 PUSH2 0x2946 JUMP JUMPDEST PUSH32 0x7EDF56D31CE00A3E83F4E441E2D7FD675722C1CEB9B699C341EE1D158D4C3623 DUP3 PUSH2 0xA1A DUP4 DUP3 PUSH2 0x3989 JUMP JUMPDEST PUSH1 0x40 DUP1 MLOAD SWAP3 DUP4 MSTORE PUSH1 0x20 DUP4 ADD SWAP2 SWAP1 SWAP2 MSTORE ADD PUSH1 0x40 MLOAD DUP1 SWAP2 SUB SWAP1 LOG1 POP POP POP POP POP POP POP JUMP JUMPDEST PUSH1 0x65 SLOAD PUSH1 0x40 MLOAD PUSH4 0x9BC8BF75 PUSH1 0xE0 SHL DUP2 MSTORE ADDRESS PUSH1 0x4 DUP3 ADD MSTORE PUSH1 0x0 SWAP2 PUSH1 0x1 PUSH1 0x1 PUSH1 0xA0 SHL SUB AND SWAP1 PUSH4 0x9BC8BF75 SWAP1 PUSH1 0x24 ADD PUSH1 0x20 PUSH1 0x40 MLOAD DUP1 DUP4 SUB DUP2 DUP7 DUP1 EXTCODESIZE ISZERO DUP1 ISZERO PUSH2 0xA7F JUMPI PUSH1 0x0 DUP1 REVERT JUMPDEST POP GAS STATICCALL ISZERO DUP1 ISZERO PUSH2 0xA93 JUMPI RETURNDATASIZE PUSH1 0x0 DUP1 RETURNDATACOPY RETURNDATASIZE PUSH1 0x0 REVERT JUMPDEST POP POP POP POP PUSH1 0x40 MLOAD RETURNDATASIZE PUSH1 0x1F NOT PUSH1 0x1F DUP3 ADD AND DUP3 ADD DUP1 PUSH1 0x40 MSTORE POP DUP2 ADD SWAP1 PUSH2 0xAB7 SWAP2 SWAP1 PUSH2 0x3688 JUMP JUMPDEST SWAP1 POP DUP1 ISZERO PUSH2 0xB28 JUMPI PUSH1 0x65 PUSH1 0x0 SWAP1 SLOAD SWAP1 PUSH2 0x100 EXP SWAP1 DIV PUSH1 0x1 PUSH1 0x1 PUSH1 0xA0 SHL SUB AND PUSH1 0x1 PUSH1 0x1 PUSH1 0xA0 SHL SUB AND PUSH4 0x4E71D92D PUSH1 0x40 MLOAD DUP2 PUSH4 0xFFFFFFFF AND PUSH1 0xE0 SHL DUP2 MSTORE PUSH1 0x4 ADD PUSH1 0x0 PUSH1 0x40 MLOAD DUP1 DUP4 SUB DUP2 PUSH1 0x0 DUP8 DUP1 EXTCODESIZE ISZERO DUP1 ISZERO PUSH2 0xB0F JUMPI PUSH1 0x0 DUP1 REVERT JUMPDEST POP GAS CALL ISZERO DUP1 ISZERO PUSH2 0xB23 JUMPI RETURNDATASIZE PUSH1 0x0 DUP1 RETURNDATACOPY RETURNDATASIZE PUSH1 0x0 REVERT JUMPDEST POP POP POP POP JUMPDEST PUSH1 0x40 MLOAD DUP2 DUP2 MSTORE PUSH32 0xF56CA5BEF7B3B41CEC7558FE59C14FD8FD059BC321A4A1473662A801842E108E SWAP1 PUSH1 0x20 ADD JUMPDEST PUSH1 0x40 MLOAD DUP1 SWAP2 SUB SWAP1 LOG1 POP JUMP JUMPDEST DUP1 ISZERO PUSH2 0xC4D JUMPI PUSH1 0x66 SLOAD PUSH1 0x65 SLOAD PUSH1 0x40 MLOAD PUSH4 0x95EA7B3 PUSH1 0xE0 SHL DUP2 MSTORE PUSH1 0x1 PUSH1 0x1 PUSH1 0xA0 SHL SUB SWAP3 DUP4 AND SWAP3 PUSH4 0x95EA7B3 SWAP3 PUSH2 0xB9B SWAP3 SWAP2 AND SWAP1 DUP6 SWAP1 PUSH1 0x4 ADD PUSH2 0x3856 JUMP JUMPDEST PUSH1 0x20 PUSH1 0x40 MLOAD DUP1 DUP4 SUB DUP2 PUSH1 0x0 DUP8 DUP1 EXTCODESIZE ISZERO DUP1 ISZERO PUSH2 0xBB5 JUMPI PUSH1 0x0 DUP1 REVERT JUMPDEST POP GAS CALL ISZERO DUP1 ISZERO PUSH2 0xBC9 JUMPI RETURNDATASIZE PUSH1 0x0 DUP1 RETURNDATACOPY RETURNDATASIZE PUSH1 0x0 REVERT JUMPDEST POP POP POP POP PUSH1 0x40 MLOAD RETURNDATASIZE PUSH1 0x1F NOT PUSH1 0x1F DUP3 ADD AND DUP3 ADD DUP1 PUSH1 0x40 MSTORE POP DUP2 ADD SWAP1 PUSH2 0xBED SWAP2 SWAP1 PUSH2 0x3652 JUMP JUMPDEST POP PUSH1 0x65 SLOAD PUSH1 0x40 MLOAD PUSH4 0xB6B55F25 PUSH1 0xE0 SHL DUP2 MSTORE PUSH1 0x4 DUP2 ADD DUP4 SWAP1 MSTORE PUSH1 0x1 PUSH1 0x1 PUSH1 0xA0 SHL SUB SWAP1 SWAP2 AND SWAP1 PUSH4 0xB6B55F25 SWAP1 PUSH1 0x24 ADD PUSH1 0x0 PUSH1 0x40 MLOAD DUP1 DUP4 SUB DUP2 PUSH1 0x0 DUP8 DUP1 EXTCODESIZE ISZERO DUP1 ISZERO PUSH2 0xC34 JUMPI PUSH1 0x0 DUP1 REVERT JUMPDEST POP GAS CALL ISZERO DUP1 ISZERO PUSH2 0xC48 JUMPI RETURNDATASIZE PUSH1 0x0 DUP1 RETURNDATACOPY RETURNDATASIZE PUSH1 0x0 REVERT JUMPDEST POP POP POP POP JUMPDEST PUSH2 0xC55 PUSH2 0xA3B JUMP JUMPDEST PUSH1 0x40 MLOAD DUP2 DUP2 MSTORE PUSH32 0x6A6F399BD745E41DFCC7AC713C8FD787618D2CB5BA6318526A21250C3854F595 SWAP1 PUSH1 0x20 ADD PUSH2 0xB54 JUMP JUMPDEST PUSH2 0xC8D PUSH2 0xA3B JUMP JUMPDEST PUSH2 0xC95 PUSH2 0x2017 JUMP JUMPDEST JUMP JUMPDEST PUSH1 0x0 SLOAD PUSH2 0x100 SWAP1 DIV PUSH1 0xFF AND PUSH2 0xCB2 JUMPI PUSH1 0x0 SLOAD PUSH1 0xFF AND ISZERO PUSH2 0xCB6 JUMP JUMPDEST ADDRESS EXTCODESIZE ISZERO JUMPDEST PUSH2 0xD19 JUMPI PUSH1 0x40 MLOAD PUSH3 0x461BCD PUSH1 0xE5 SHL DUP2 MSTORE PUSH1 0x20 PUSH1 0x4 DUP3 ADD MSTORE PUSH1 0x2E PUSH1 0x24 DUP3 ADD MSTORE PUSH32 0x496E697469616C697A61626C653A20636F6E747261637420697320616C726561 PUSH1 0x44 DUP3 ADD MSTORE PUSH14 0x191E481A5B9A5D1A585B1A5E9959 PUSH1 0x92 SHL PUSH1 0x64 DUP3 ADD MSTORE PUSH1 0x84 ADD PUSH2 0x719 JUMP JUMPDEST PUSH1 0x0 SLOAD PUSH2 0x100 SWAP1 DIV PUSH1 0xFF AND ISZERO DUP1 ISZERO PUSH2 0xD3B JUMPI PUSH1 0x0 DUP1 SLOAD PUSH2 0xFFFF NOT AND PUSH2 0x101 OR SWAP1 SSTORE JUMPDEST PUSH2 0xD43 PUSH2 0x30DC JUMP JUMPDEST PUSH1 0x65 DUP1 SLOAD PUSH1 0x1 PUSH1 0x1 PUSH1 0xA0 SHL SUB NOT SWAP1 DUP2 AND PUSH1 0x1 PUSH1 0x1 PUSH1 0xA0 SHL SUB DUP10 DUP2 AND SWAP2 SWAP1 SWAP2 OR SWAP1 SWAP3 SSTORE PUSH1 0x66 DUP1 SLOAD DUP3 AND DUP11 DUP5 AND OR SWAP1 SSTORE PUSH1 0x68 DUP1 SLOAD DUP3 AND DUP9 DUP5 AND OR SWAP1 SSTORE PUSH1 0x69 DUP1 SLOAD DUP3 AND DUP8 DUP5 AND OR SWAP1 SSTORE PUSH1 0x6A DUP1 SLOAD SWAP1 SWAP2 AND SWAP2 DUP6 AND SWAP2 SWAP1 SWAP2 OR SWAP1 SSTORE PUSH1 0x6C DUP3 SWAP1 SSTORE PUSH1 0x6D DUP3 SWAP1 SSTORE DUP1 ISZERO PUSH2 0xDB5 JUMPI PUSH1 0x0 DUP1 SLOAD PUSH2 0xFF00 NOT AND SWAP1 SSTORE JUMPDEST POP POP POP POP POP POP POP JUMP JUMPDEST PUSH1 0x65 SLOAD PUSH1 0x40 MLOAD PUSH4 0x9BC8BF75 PUSH1 0xE0 SHL DUP2 MSTORE ADDRESS PUSH1 0x4 DUP3 ADD MSTORE PUSH1 0x0 SWAP2 PUSH1 0x1 PUSH1 0x1 PUSH1 0xA0 SHL SUB AND SWAP1 PUSH4 0x9BC8BF75 SWAP1 PUSH1 0x24 ADD JUMPDEST PUSH1 0x20 PUSH1 0x40 MLOAD DUP1 DUP4 SUB DUP2 DUP7 DUP1 EXTCODESIZE ISZERO DUP1 ISZERO PUSH2 0xE03 JUMPI PUSH1 0x0 DUP1 REVERT JUMPDEST POP GAS STATICCALL ISZERO DUP1 ISZERO PUSH2 0xE17 JUMPI RETURNDATASIZE PUSH1 0x0 DUP1 RETURNDATACOPY RETURNDATASIZE PUSH1 0x0 REVERT JUMPDEST POP POP POP POP PUSH1 0x40 MLOAD RETURNDATASIZE PUSH1 0x1F NOT PUSH1 0x1F DUP3 ADD AND DUP3 ADD DUP1 PUSH1 0x40 MSTORE POP DUP2 ADD SWAP1 PUSH2 0xE3B SWAP2 SWAP1 PUSH2 0x3688 JUMP JUMPDEST SWAP1 POP SWAP1 JUMP JUMPDEST PUSH1 0x64 DUP3 GT ISZERO PUSH2 0xE89 JUMPI PUSH1 0x40 MLOAD PUSH3 0x461BCD PUSH1 0xE5 SHL DUP2 MSTORE PUSH1 0x20 PUSH1 0x4 DUP3 ADD MSTORE PUSH1 0x15 PUSH1 0x24 DUP3 ADD MSTORE PUSH21 0x536C697070616765206E6F7420696E2072616E6765 PUSH1 0x58 SHL PUSH1 0x44 DUP3 ADD MSTORE PUSH1 0x64 ADD PUSH2 0x719 JUMP JUMPDEST PUSH1 0x1 PUSH1 0x1 PUSH1 0xA0 SHL SUB DUP5 DUP2 AND PUSH1 0x0 SWAP1 DUP2 MSTORE PUSH1 0x6F PUSH1 0x20 MSTORE PUSH1 0x40 SWAP1 KECCAK256 PUSH1 0x7 DUP2 ADD SLOAD SWAP1 SWAP2 AND CALLER EQ PUSH2 0xEF8 JUMPI PUSH1 0x40 MLOAD PUSH3 0x461BCD PUSH1 0xE5 SHL DUP2 MSTORE PUSH1 0x20 PUSH1 0x4 DUP3 ADD MSTORE PUSH1 0x18 PUSH1 0x24 DUP3 ADD MSTORE PUSH32 0x4F6E6C792068656C7065722063616E2077697468647261770000000000000000 PUSH1 0x44 DUP3 ADD MSTORE PUSH1 0x64 ADD PUSH2 0x719 JUMP JUMPDEST PUSH1 0x0 PUSH2 0xF04 DUP6 DUP8 PUSH2 0x22F0 JUMP JUMPDEST SWAP1 POP PUSH1 0x0 PUSH2 0xF12 DUP3 DUP9 PUSH2 0x1311 JUMP JUMPDEST PUSH1 0x5 DUP5 ADD SLOAD PUSH1 0x40 MLOAD PUSH4 0x2770A7EB PUSH1 0xE2 SHL DUP2 MSTORE SWAP2 SWAP3 POP PUSH1 0x1 PUSH1 0x1 PUSH1 0xA0 SHL SUB AND SWAP1 PUSH4 0x9DC29FAC SWAP1 PUSH2 0xF47 SWAP1 CALLER SWAP1 DUP7 SWAP1 PUSH1 0x4 ADD PUSH2 0x3856 JUMP JUMPDEST PUSH1 0x0 PUSH1 0x40 MLOAD DUP1 DUP4 SUB DUP2 PUSH1 0x0 DUP8 DUP1 EXTCODESIZE ISZERO DUP1 ISZERO PUSH2 0xF61 JUMPI PUSH1 0x0 DUP1 REVERT JUMPDEST POP GAS CALL ISZERO DUP1 ISZERO PUSH2 0xF75 JUMPI RETURNDATASIZE PUSH1 0x0 DUP1 RETURNDATACOPY RETURNDATASIZE PUSH1 0x0 REVERT JUMPDEST POP POP POP PUSH1 0x2 DUP5 ADD SLOAD PUSH1 0x68 SLOAD PUSH1 0x40 MLOAD PUSH4 0x95EA7B3 PUSH1 0xE0 SHL DUP2 MSTORE PUSH1 0x1 PUSH1 0x1 PUSH1 0xA0 SHL SUB SWAP3 DUP4 AND SWAP4 POP PUSH4 0x95EA7B3 SWAP3 PUSH2 0xFB0 SWAP3 AND SWAP1 DUP6 SWAP1 PUSH1 0x4 ADD PUSH2 0x3856 JUMP JUMPDEST PUSH1 0x20 PUSH1 0x40 MLOAD DUP1 DUP4 SUB DUP2 PUSH1 0x0 DUP8 DUP1 EXTCODESIZE ISZERO DUP1 ISZERO PUSH2 0xFCA JUMPI PUSH1 0x0 DUP1 REVERT JUMPDEST POP GAS CALL ISZERO DUP1 ISZERO PUSH2 0xFDE JUMPI RETURNDATASIZE PUSH1 0x0 DUP1 RETURNDATACOPY RETURNDATASIZE PUSH1 0x0 REVERT JUMPDEST POP POP POP POP PUSH1 0x40 MLOAD RETURNDATASIZE PUSH1 0x1F NOT PUSH1 0x1F DUP3 ADD AND DUP3 ADD DUP1 PUSH1 0x40 MSTORE POP DUP2 ADD SWAP1 PUSH2 0x1002 SWAP2 SWAP1 PUSH2 0x3652 JUMP JUMPDEST POP PUSH1 0x69 SLOAD DUP4 SLOAD PUSH1 0x40 MLOAD PUSH4 0x441A3E7 PUSH1 0xE4 SHL DUP2 MSTORE PUSH1 0x1 PUSH1 0x1 PUSH1 0xA0 SHL SUB SWAP1 SWAP3 AND SWAP2 PUSH4 0x441A3E70 SWAP2 PUSH2 0x103E SWAP2 DUP6 SWAP1 PUSH1 0x4 ADD SWAP2 DUP3 MSTORE PUSH1 0x20 DUP3 ADD MSTORE PUSH1 0x40 ADD SWAP1 JUMP JUMPDEST PUSH1 0x0 PUSH1 0x40 MLOAD DUP1 DUP4 SUB DUP2 PUSH1 0x0 DUP8 DUP1 EXTCODESIZE ISZERO DUP1 ISZERO PUSH2 0x1058 JUMPI PUSH1 0x0 DUP1 REVERT JUMPDEST POP GAS CALL ISZERO DUP1 ISZERO PUSH2 0x106C JUMPI RETURNDATASIZE PUSH1 0x0 DUP1 RETURNDATACOPY RETURNDATASIZE PUSH1 0x0 REVERT JUMPDEST POP POP PUSH1 0x40 MLOAD PUSH4 0x70A08231 PUSH1 0xE0 SHL DUP2 MSTORE ADDRESS PUSH1 0x4 DUP3 ADD MSTORE PUSH1 0x0 SWAP3 POP PUSH1 0x1 PUSH1 0x1 PUSH1 0xA0 SHL SUB DUP11 AND SWAP2 POP PUSH4 0x70A08231 SWAP1 PUSH1 0x24 ADD PUSH1 0x20 PUSH1 0x40 MLOAD DUP1 DUP4 SUB DUP2 DUP7 DUP1 EXTCODESIZE ISZERO DUP1 ISZERO PUSH2 0x10B2 JUMPI PUSH1 0x0 DUP1 REVERT JUMPDEST POP GAS STATICCALL ISZERO DUP1 ISZERO PUSH2 0x10C6 JUMPI RETURNDATASIZE PUSH1 0x0 DUP1 RETURNDATACOPY RETURNDATASIZE PUSH1 0x0 REVERT JUMPDEST POP POP POP POP PUSH1 0x40 MLOAD RETURNDATASIZE PUSH1 0x1F NOT PUSH1 0x1F DUP3 ADD AND DUP3 ADD DUP1 PUSH1 0x40 MSTORE POP DUP2 ADD SWAP1 PUSH2 0x10EA SWAP2 SWAP1 PUSH2 0x3688 JUMP JUMPDEST PUSH1 0x68 SLOAD SWAP1 SWAP2 POP PUSH1 0x1 PUSH1 0x1 PUSH1 0xA0 SHL SUB AND PUSH4 0x9A5FCA3 DUP10 DUP5 PUSH1 0x64 PUSH2 0x110C DUP12 DUP14 PUSH2 0x396A JUMP JUMPDEST PUSH2 0x1116 SWAP2 SWAP1 PUSH2 0x3948 JUMP JUMPDEST PUSH1 0x40 MLOAD PUSH1 0x1 PUSH1 0x1 PUSH1 0xE0 SHL SUB NOT PUSH1 0xE0 DUP7 SWAP1 SHL AND DUP2 MSTORE PUSH1 0x1 PUSH1 0x1 PUSH1 0xA0 SHL SUB SWAP1 SWAP4 AND PUSH1 0x4 DUP5 ADD MSTORE PUSH1 0x24 DUP4 ADD SWAP2 SWAP1 SWAP2 MSTORE PUSH1 0x44 DUP3 ADD MSTORE ADDRESS PUSH1 0x64 DUP3 ADD MSTORE TIMESTAMP PUSH1 0x84 DUP3 ADD MSTORE PUSH1 0xA4 ADD PUSH1 0x0 PUSH1 0x40 MLOAD DUP1 DUP4 SUB DUP2 PUSH1 0x0 DUP8 DUP1 EXTCODESIZE ISZERO DUP1 ISZERO PUSH2 0x1170 JUMPI PUSH1 0x0 DUP1 REVERT JUMPDEST POP GAS CALL ISZERO DUP1 ISZERO PUSH2 0x1184 JUMPI RETURNDATASIZE PUSH1 0x0 DUP1 RETURNDATACOPY RETURNDATASIZE PUSH1 0x0 REVERT JUMPDEST POP POP POP POP DUP7 DUP5 PUSH1 0x4 ADD PUSH1 0x0 DUP3 DUP3 SLOAD PUSH2 0x119C SWAP2 SWAP1 PUSH2 0x3989 JUMP JUMPDEST SWAP3 POP POP DUP2 SWAP1 SSTORE POP DUP2 DUP5 PUSH1 0x3 ADD PUSH1 0x0 DUP3 DUP3 SLOAD PUSH2 0x11B7 SWAP2 SWAP1 PUSH2 0x3989 JUMP JUMPDEST SWAP1 SWAP2 SSTORE POP POP PUSH1 0x40 MLOAD PUSH4 0x70A08231 PUSH1 0xE0 SHL DUP2 MSTORE ADDRESS PUSH1 0x4 DUP3 ADD MSTORE PUSH2 0x1256 SWAP1 DUP7 SWAP1 DUP4 SWAP1 PUSH1 0x1 PUSH1 0x1 PUSH1 0xA0 SHL SUB DUP13 AND SWAP1 PUSH4 0x70A08231 SWAP1 PUSH1 0x24 ADD PUSH1 0x20 PUSH1 0x40 MLOAD DUP1 DUP4 SUB DUP2 DUP7 DUP1 EXTCODESIZE ISZERO DUP1 ISZERO PUSH2 0x1203 JUMPI PUSH1 0x0 DUP1 REVERT JUMPDEST POP GAS STATICCALL ISZERO DUP1 ISZERO PUSH2 0x1217 JUMPI RETURNDATASIZE PUSH1 0x0 DUP1 RETURNDATACOPY RETURNDATASIZE PUSH1 0x0 REVERT JUMPDEST POP POP POP POP PUSH1 0x40 MLOAD RETURNDATASIZE PUSH1 0x1F NOT PUSH1 0x1F DUP3 ADD AND DUP3 ADD DUP1 PUSH1 0x40 MSTORE POP DUP2 ADD SWAP1 PUSH2 0x123B SWAP2 SWAP1 PUSH2 0x3688 JUMP JUMPDEST PUSH2 0x1245 SWAP2 SWAP1 PUSH2 0x3989 JUMP JUMPDEST PUSH1 0x1 PUSH1 0x1 PUSH1 0xA0 SHL SUB DUP12 AND SWAP2 SWAP1 PUSH2 0x28EB JUMP JUMPDEST DUP8 PUSH1 0x1 PUSH1 0x1 PUSH1 0xA0 SHL SUB AND DUP6 PUSH1 0x1 PUSH1 0x1 PUSH1 0xA0 SHL SUB AND PUSH32 0x7715F7AEC5164B178862F96610F97644E00E0ABFCA2A6D3F425CC7D93284856F DUP10 PUSH1 0x40 MLOAD PUSH2 0x129B SWAP2 DUP2 MSTORE PUSH1 0x20 ADD SWAP1 JUMP JUMPDEST PUSH1 0x40 MLOAD DUP1 SWAP2 SUB SWAP1 LOG3 POP POP POP POP POP POP POP POP JUMP JUMPDEST PUSH1 0x6E DUP2 DUP2 SLOAD DUP2 LT PUSH2 0x12BD JUMPI PUSH1 0x0 DUP1 REVERT JUMPDEST PUSH1 0x0 SWAP2 DUP3 MSTORE PUSH1 0x20 SWAP1 SWAP2 KECCAK256 PUSH1 0x4 SWAP1 SWAP2 MUL ADD DUP1 SLOAD PUSH1 0x1 DUP3 ADD SLOAD PUSH1 0x2 DUP4 ADD SLOAD PUSH1 0x3 SWAP1 SWAP4 ADD SLOAD SWAP2 SWAP4 POP SWAP2 SWAP1 PUSH1 0x1 PUSH1 0x1 PUSH1 0xA0 SHL SUB DUP2 AND SWAP1 PUSH1 0xFF PUSH1 0x1 PUSH1 0xA0 SHL DUP3 DIV DUP2 AND SWAP2 PUSH1 0x1 PUSH1 0xA8 SHL DUP2 DIV DUP3 AND SWAP2 PUSH1 0x1 PUSH1 0xB0 SHL SWAP1 SWAP2 DIV AND DUP8 JUMP JUMPDEST PUSH1 0x1 PUSH1 0x1 PUSH1 0xA0 SHL SUB DUP1 DUP3 AND PUSH1 0x0 SWAP1 DUP2 MSTORE PUSH1 0x6F PUSH1 0x20 SWAP1 DUP2 MSTORE PUSH1 0x40 DUP1 DUP4 KECCAK256 PUSH1 0x3 DUP2 ADD SLOAD PUSH1 0x5 DUP3 ADD SLOAD DUP4 MLOAD PUSH4 0x18160DDD PUSH1 0xE0 SHL DUP2 MSTORE SWAP4 MLOAD SWAP6 SWAP7 SWAP3 SWAP6 SWAP2 SWAP5 DUP8 SWAP5 SWAP2 SWAP1 SWAP4 AND SWAP3 PUSH4 0x18160DDD SWAP3 PUSH1 0x4 DUP1 DUP5 ADD SWAP4 DUP3 SWAP1 SUB ADD DUP2 DUP7 DUP1 EXTCODESIZE ISZERO DUP1 ISZERO PUSH2 0x1372 JUMPI PUSH1 0x0 DUP1 REVERT JUMPDEST POP GAS STATICCALL ISZERO DUP1 ISZERO PUSH2 0x1386 JUMPI RETURNDATASIZE PUSH1 0x0 DUP1 RETURNDATACOPY RETURNDATASIZE PUSH1 0x0 REVERT JUMPDEST POP POP POP POP PUSH1 0x40 MLOAD RETURNDATASIZE PUSH1 0x1F NOT PUSH1 0x1F DUP3 ADD AND DUP3 ADD DUP1 PUSH1 0x40 MSTORE POP DUP2 ADD SWAP1 PUSH2 0x13AA SWAP2 SWAP1 PUSH2 0x3688 JUMP JUMPDEST SWAP1 POP PUSH2 0x13B6 DUP3 DUP3 PUSH2 0x396A JUMP JUMPDEST PUSH2 0x13C6 JUMPI PUSH1 0x0 SWAP4 POP POP POP POP PUSH2 0x13E1 JUMP JUMPDEST DUP1 PUSH2 0x13D1 DUP4 DUP9 PUSH2 0x396A JUMP JUMPDEST PUSH2 0x13DB SWAP2 SWAP1 PUSH2 0x3948 JUMP JUMPDEST SWAP4 POP POP POP POP JUMPDEST SWAP3 SWAP2 POP POP JUMP JUMPDEST PUSH1 0x33 SLOAD PUSH1 0x1 PUSH1 0x1 PUSH1 0xA0 SHL SUB AND CALLER EQ PUSH2 0x1411 JUMPI PUSH1 0x40 MLOAD PUSH3 0x461BCD PUSH1 0xE5 SHL DUP2 MSTORE PUSH1 0x4 ADD PUSH2 0x719 SWAP1 PUSH2 0x38B0 JUMP JUMPDEST PUSH1 0x1 PUSH1 0x1 PUSH1 0xA0 SHL SUB DUP6 AND PUSH1 0x0 SWAP1 DUP2 MSTORE PUSH1 0x6F PUSH1 0x20 MSTORE PUSH1 0x40 SWAP1 KECCAK256 PUSH1 0x1 ADD SLOAD PUSH1 0xFF AND ISZERO PUSH2 0x1489 JUMPI PUSH1 0x40 MLOAD PUSH3 0x461BCD PUSH1 0xE5 SHL DUP2 MSTORE PUSH1 0x20 PUSH1 0x4 DUP3 ADD MSTORE PUSH1 0x24 DUP1 DUP3 ADD MSTORE PUSH32 0x506F6F6C20697320616C72656164792072656769737465726564206F72206163 PUSH1 0x44 DUP3 ADD MSTORE PUSH4 0x74697665 PUSH1 0xE0 SHL PUSH1 0x64 DUP3 ADD MSTORE PUSH1 0x84 ADD PUSH2 0x719 JUMP JUMPDEST PUSH1 0x40 MLOAD PUSH4 0x478064B1 PUSH1 0xE1 SHL DUP2 MSTORE PUSH1 0x0 SWAP1 PUSH20 0x0 SWAP1 PUSH4 0x8F00C962 SWAP1 PUSH2 0x14C5 SWAP1 DUP8 SWAP1 DUP8 SWAP1 PUSH1 0x4 ADD PUSH2 0x3882 JUMP JUMPDEST PUSH1 0x20 PUSH1 0x40 MLOAD DUP1 DUP4 SUB DUP2 DUP7 DUP1 EXTCODESIZE ISZERO DUP1 ISZERO PUSH2 0x14DD JUMPI PUSH1 0x0 DUP1 REVERT JUMPDEST POP GAS DELEGATECALL ISZERO DUP1 ISZERO PUSH2 0x14F1 JUMPI RETURNDATASIZE PUSH1 0x0 DUP1 RETURNDATACOPY RETURNDATASIZE PUSH1 0x0 REVERT JUMPDEST POP POP POP POP PUSH1 0x40 MLOAD RETURNDATASIZE PUSH1 0x1F NOT PUSH1 0x1F DUP3 ADD AND DUP3 ADD DUP1 PUSH1 0x40 MSTORE POP DUP2 ADD SWAP1 PUSH2 0x1515 SWAP2 SWAP1 PUSH2 0x34B7 JUMP JUMPDEST PUSH1 0x6A SLOAD PUSH1 0x66 SLOAD PUSH1 0x40 MLOAD PUSH4 0x1D9F8773 PUSH1 0xE1 SHL DUP2 MSTORE PUSH1 0x1 PUSH1 0x1 PUSH1 0xA0 SHL SUB DUP1 DUP6 AND PUSH1 0x4 DUP4 ADD MSTORE SWAP2 DUP3 AND PUSH1 0x24 DUP3 ADD MSTORE SWAP3 SWAP4 POP PUSH1 0x0 SWAP3 SWAP2 AND SWAP1 PUSH4 0x3B3F0EE6 SWAP1 PUSH1 0x44 ADD PUSH1 0x20 PUSH1 0x40 MLOAD DUP1 DUP4 SUB DUP2 PUSH1 0x0 DUP8 DUP1 EXTCODESIZE ISZERO DUP1 ISZERO PUSH2 0x156C JUMPI PUSH1 0x0 DUP1 REVERT JUMPDEST POP GAS CALL ISZERO DUP1 ISZERO PUSH2 0x1580 JUMPI RETURNDATASIZE PUSH1 0x0 DUP1 RETURNDATACOPY RETURNDATASIZE PUSH1 0x0 REVERT JUMPDEST POP POP POP POP PUSH1 0x40 MLOAD RETURNDATASIZE PUSH1 0x1F NOT PUSH1 0x1F DUP3 ADD AND DUP3 ADD DUP1 PUSH1 0x40 MSTORE POP DUP2 ADD SWAP1 PUSH2 0x15A4 SWAP2 SWAP1 PUSH2 0x34B7 JUMP JUMPDEST PUSH1 0x6A SLOAD PUSH1 0x67 SLOAD PUSH1 0x40 MLOAD PUSH4 0x3A368CFB PUSH1 0xE1 SHL DUP2 MSTORE PUSH1 0x4 DUP2 ADD DUP13 SWAP1 MSTORE PUSH1 0x1 PUSH1 0x1 PUSH1 0xA0 SHL SUB DUP1 DUP8 AND PUSH1 0x24 DUP4 ADD MSTORE DUP1 DUP13 AND PUSH1 0x44 DUP4 ADD MSTORE ADDRESS PUSH1 0x64 DUP4 ADD MSTORE SWAP3 DUP4 AND PUSH1 0x84 DUP3 ADD MSTORE DUP3 DUP5 AND PUSH1 0xA4 DUP3 ADD MSTORE SWAP2 AND PUSH1 0xC4 DUP3 ADD MSTORE SWAP1 SWAP2 POP PUSH1 0x0 SWAP1 PUSH20 0x0 SWAP1 PUSH4 0x746D19F6 SWAP1 PUSH1 0xE4 ADD PUSH1 0x20 PUSH1 0x40 MLOAD DUP1 DUP4 SUB DUP2 DUP7 DUP1 EXTCODESIZE ISZERO DUP1 ISZERO PUSH2 0x1630 JUMPI PUSH1 0x0 DUP1 REVERT JUMPDEST POP GAS DELEGATECALL ISZERO DUP1 ISZERO PUSH2 0x1644 JUMPI RETURNDATASIZE PUSH1 0x0 DUP1 RETURNDATACOPY RETURNDATASIZE PUSH1 0x0 REVERT JUMPDEST POP POP POP POP PUSH1 0x40 MLOAD RETURNDATASIZE PUSH1 0x1F NOT PUSH1 0x1F DUP3 ADD AND DUP3 ADD DUP1 PUSH1 0x40 MSTORE POP DUP2 ADD SWAP1 PUSH2 0x1668 SWAP2 SWAP1 PUSH2 0x34B7 JUMP JUMPDEST PUSH1 0x6A SLOAD PUSH1 0x40 MLOAD PUSH4 0x266F24B7 PUSH1 0xE0 SHL DUP2 MSTORE PUSH1 0x4 DUP2 ADD DUP8 SWAP1 MSTORE PUSH1 0x1 PUSH1 0x1 PUSH1 0xA0 SHL SUB DUP7 DUP2 AND PUSH1 0x24 DUP4 ADD MSTORE DUP6 DUP2 AND PUSH1 0x44 DUP4 ADD MSTORE DUP1 DUP5 AND PUSH1 0x64 DUP4 ADD MSTORE SWAP3 SWAP4 POP SWAP2 AND SWAP1 PUSH4 0x266F24B7 SWAP1 PUSH1 0x84 ADD PUSH1 0x0 PUSH1 0x40 MLOAD DUP1 DUP4 SUB DUP2 PUSH1 0x0 DUP8 DUP1 EXTCODESIZE ISZERO DUP1 ISZERO PUSH2 0x16C8 JUMPI PUSH1 0x0 DUP1 REVERT JUMPDEST POP GAS CALL ISZERO DUP1 ISZERO PUSH2 0x16DC JUMPI RETURNDATASIZE PUSH1 0x0 DUP1 RETURNDATACOPY RETURNDATASIZE PUSH1 0x0 REVERT JUMPDEST POP POP POP POP PUSH1 0x40 MLOAD DUP1 PUSH2 0x120 ADD PUSH1 0x40 MSTORE DUP1 DUP11 DUP2 MSTORE PUSH1 0x20 ADD PUSH1 0x1 ISZERO ISZERO DUP2 MSTORE PUSH1 0x20 ADD DUP10 PUSH1 0x1 PUSH1 0x1 PUSH1 0xA0 SHL SUB AND DUP2 MSTORE PUSH1 0x20 ADD DUP9 PUSH1 0x1 PUSH1 0x1 PUSH1 0xA0 SHL SUB AND DUP2 MSTORE PUSH1 0x20 ADD PUSH1 0x0 DUP2 MSTORE PUSH1 0x20 ADD PUSH1 0x0 DUP2 MSTORE PUSH1 0x20 ADD DUP5 PUSH1 0x1 PUSH1 0x1 PUSH1 0xA0 SHL SUB AND DUP2 MSTORE PUSH1 0x20 ADD DUP4 PUSH1 0x1 PUSH1 0x1 PUSH1 0xA0 SHL SUB AND DUP2 MSTORE PUSH1 0x20 ADD DUP3 PUSH1 0x1 PUSH1 0x1 PUSH1 0xA0 SHL SUB AND DUP2 MSTORE POP PUSH1 0x6F PUSH1 0x0 DUP11 PUSH1 0x1 PUSH1 0x1 PUSH1 0xA0 SHL SUB AND PUSH1 0x1 PUSH1 0x1 PUSH1 0xA0 SHL SUB AND DUP2 MSTORE PUSH1 0x20 ADD SWAP1 DUP2 MSTORE PUSH1 0x20 ADD PUSH1 0x0 KECCAK256 PUSH1 0x0 DUP3 ADD MLOAD DUP2 PUSH1 0x0 ADD SSTORE PUSH1 0x20 DUP3 ADD MLOAD DUP2 PUSH1 0x1 ADD PUSH1 0x0 PUSH2 0x100 EXP DUP2 SLOAD DUP2 PUSH1 0xFF MUL NOT AND SWAP1 DUP4 ISZERO ISZERO MUL OR SWAP1 SSTORE POP PUSH1 0x40 DUP3 ADD MLOAD DUP2 PUSH1 0x1 ADD PUSH1 0x1 PUSH2 0x100 EXP DUP2 SLOAD DUP2 PUSH1 0x1 PUSH1 0x1 PUSH1 0xA0 SHL SUB MUL NOT AND SWAP1 DUP4 PUSH1 0x1 PUSH1 0x1 PUSH1 0xA0 SHL SUB AND MUL OR SWAP1 SSTORE POP PUSH1 0x60 DUP3 ADD MLOAD DUP2 PUSH1 0x2 ADD PUSH1 0x0 PUSH2 0x100 EXP DUP2 SLOAD DUP2 PUSH1 0x1 PUSH1 0x1 PUSH1 0xA0 SHL SUB MUL NOT AND SWAP1 DUP4 PUSH1 0x1 PUSH1 0x1 PUSH1 0xA0 SHL SUB AND MUL OR SWAP1 SSTORE POP PUSH1 0x80 DUP3 ADD MLOAD DUP2 PUSH1 0x3 ADD SSTORE PUSH1 0xA0 DUP3 ADD MLOAD DUP2 PUSH1 0x4 ADD SSTORE PUSH1 0xC0 DUP3 ADD MLOAD DUP2 PUSH1 0x5 ADD PUSH1 0x0 PUSH2 0x100 EXP DUP2 SLOAD DUP2 PUSH1 0x1 PUSH1 0x1 PUSH1 0xA0 SHL SUB MUL NOT AND SWAP1 DUP4 PUSH1 0x1 PUSH1 0x1 PUSH1 0xA0 SHL SUB AND MUL OR SWAP1 SSTORE POP PUSH1 0xE0 DUP3 ADD MLOAD DUP2 PUSH1 0x6 ADD PUSH1 0x0 PUSH2 0x100 EXP DUP2 SLOAD DUP2 PUSH1 0x1 PUSH1 0x1 PUSH1 0xA0 SHL SUB MUL NOT AND SWAP1 DUP4 PUSH1 0x1 PUSH1 0x1 PUSH1 0xA0 SHL SUB AND MUL OR SWAP1 SSTORE POP PUSH2 0x100 DUP3 ADD MLOAD DUP2 PUSH1 0x7 ADD PUSH1 0x0 PUSH2 0x100 EXP DUP2 SLOAD DUP2 PUSH1 0x1 PUSH1 0x1 PUSH1 0xA0 SHL SUB MUL NOT AND SWAP1 DUP4 PUSH1 0x1 PUSH1 0x1 PUSH1 0xA0 SHL SUB AND MUL OR SWAP1 SSTORE POP SWAP1 POP POP PUSH32 0x73CCA62AB1B520C9715BF4E6C71E3E518C754E7148F65102F43289A7DF0EFEA6 DUP9 PUSH1 0x40 MLOAD PUSH2 0x18D8 SWAP2 SWAP1 PUSH1 0x1 PUSH1 0x1 PUSH1 0xA0 SHL SUB SWAP2 SWAP1 SWAP2 AND DUP2 MSTORE PUSH1 0x20 ADD SWAP1 JUMP JUMPDEST PUSH1 0x40 MLOAD DUP1 SWAP2 SUB SWAP1 LOG1 POP POP POP POP POP POP POP POP POP JUMP JUMPDEST PUSH1 0x33 SLOAD PUSH1 0x1 PUSH1 0x1 PUSH1 0xA0 SHL SUB AND CALLER EQ PUSH2 0x1915 JUMPI PUSH1 0x40 MLOAD PUSH3 0x461BCD PUSH1 0xE5 SHL DUP2 MSTORE PUSH1 0x4 ADD PUSH2 0x719 SWAP1 PUSH2 0x38B0 JUMP JUMPDEST PUSH1 0x1 PUSH1 0x1 PUSH1 0xA0 SHL SUB AND PUSH1 0x0 SWAP1 DUP2 MSTORE PUSH1 0x6F PUSH1 0x20 MSTORE PUSH1 0x40 SWAP1 KECCAK256 PUSH1 0x1 ADD DUP1 SLOAD PUSH1 0xFF NOT AND SWAP1 SSTORE JUMP JUMPDEST PUSH1 0x33 SLOAD PUSH1 0x1 PUSH1 0x1 PUSH1 0xA0 SHL SUB AND CALLER EQ PUSH2 0x1963 JUMPI PUSH1 0x40 MLOAD PUSH3 0x461BCD PUSH1 0xE5 SHL DUP2 MSTORE PUSH1 0x4 ADD PUSH2 0x719 SWAP1 PUSH2 0x38B0 JUMP JUMPDEST PUSH1 0x0 PUSH1 0x6E DUP3 DUP2 SLOAD DUP2 LT PUSH2 0x1978 JUMPI PUSH2 0x1978 PUSH2 0x39FD JUMP JUMPDEST SWAP1 PUSH1 0x0 MSTORE PUSH1 0x20 PUSH1 0x0 KECCAK256 SWAP1 PUSH1 0x4 MUL ADD SWAP1 POP DUP1 PUSH1 0x2 ADD SLOAD PUSH1 0x6D PUSH1 0x0 DUP3 DUP3 SLOAD PUSH2 0x199E SWAP2 SWAP1 PUSH2 0x3989 JUMP JUMPDEST SWAP1 SWAP2 SSTORE POP POP PUSH1 0x3 DUP2 ADD DUP1 SLOAD PUSH1 0xFF PUSH1 0xB0 SHL NOT DUP2 AND SWAP1 SWAP2 SSTORE PUSH1 0x40 MLOAD PUSH1 0x1 PUSH1 0x1 PUSH1 0xA0 SHL SUB SWAP1 SWAP2 AND DUP2 MSTORE PUSH32 0x5493DB1723859B50D9E2F6DBCDA6DA662098EA59BF451AD2A31AD62289ED54A1 SWAP1 PUSH1 0x20 ADD PUSH1 0x40 MLOAD DUP1 SWAP2 SUB SWAP1 LOG1 POP POP JUMP JUMPDEST PUSH1 0x33 SLOAD PUSH1 0x1 PUSH1 0x1 PUSH1 0xA0 SHL SUB AND CALLER EQ PUSH2 0x1A1F JUMPI PUSH1 0x40 MLOAD PUSH3 0x461BCD PUSH1 0xE5 SHL DUP2 MSTORE PUSH1 0x4 ADD PUSH2 0x719 SWAP1 PUSH2 0x38B0 JUMP JUMPDEST PUSH1 0x0 PUSH1 0x6E DUP4 DUP2 SLOAD DUP2 LT PUSH2 0x1A34 JUMPI PUSH2 0x1A34 PUSH2 0x39FD JUMP JUMPDEST SWAP1 PUSH1 0x0 MSTORE PUSH1 0x20 PUSH1 0x0 KECCAK256 SWAP1 PUSH1 0x4 MUL ADD SWAP1 POP DUP2 DUP2 PUSH1 0x1 ADD SLOAD GT ISZERO DUP1 ISZERO PUSH2 0x1A59 JUMPI POP DUP1 SLOAD DUP3 GT ISZERO JUMPDEST PUSH2 0x1A9A JUMPI PUSH1 0x40 MLOAD PUSH3 0x461BCD PUSH1 0xE5 SHL DUP2 MSTORE PUSH1 0x20 PUSH1 0x4 DUP3 ADD MSTORE PUSH1 0x12 PUSH1 0x24 DUP3 ADD MSTORE PUSH18 0x56616C7565206E6F7420696E2072616E6765 PUSH1 0x70 SHL PUSH1 0x44 DUP3 ADD MSTORE PUSH1 0x64 ADD PUSH2 0x719 JUMP JUMPDEST PUSH2 0x7D0 DUP2 PUSH1 0x2 ADD SLOAD DUP4 PUSH1 0x6D SLOAD PUSH2 0x1AB0 SWAP2 SWAP1 PUSH2 0x3930 JUMP JUMPDEST PUSH2 0x1ABA SWAP2 SWAP1 PUSH2 0x3989 JUMP JUMPDEST GT ISZERO PUSH2 0x1AFA JUMPI PUSH1 0x40 MLOAD PUSH3 0x461BCD PUSH1 0xE5 SHL DUP2 MSTORE PUSH1 0x20 PUSH1 0x4 DUP3 ADD MSTORE PUSH1 0xF PUSH1 0x24 DUP3 ADD MSTORE PUSH15 0x13585E08199959481C995858DA1959 PUSH1 0x8A SHL PUSH1 0x44 DUP3 ADD MSTORE PUSH1 0x64 ADD PUSH2 0x719 JUMP JUMPDEST DUP2 DUP2 PUSH1 0x2 ADD SLOAD PUSH1 0x6D SLOAD PUSH2 0x1B0D SWAP2 SWAP1 PUSH2 0x3989 JUMP JUMPDEST PUSH2 0x1B17 SWAP2 SWAP1 PUSH2 0x3930 JUMP JUMPDEST PUSH1 0x6D SSTORE PUSH1 0x2 DUP2 ADD DUP3 SWAP1 SSTORE PUSH1 0x3 DUP2 ADD SLOAD PUSH1 0x40 MLOAD PUSH32 0x1FE2943BAEE27F47ADD82886C2200F910C749C461C9B63C5FE83901A53BDB49 SWAP2 PUSH2 0x1B62 SWAP2 PUSH1 0x1 PUSH1 0x1 PUSH1 0xA0 SHL SUB SWAP1 SWAP2 AND SWAP1 DUP6 SWAP1 PUSH2 0x3856 JUMP JUMPDEST PUSH1 0x40 MLOAD DUP1 SWAP2 SUB SWAP1 LOG1 POP POP POP JUMP JUMPDEST PUSH1 0x33 SLOAD PUSH1 0x1 PUSH1 0x1 PUSH1 0xA0 SHL SUB AND CALLER EQ PUSH2 0x1B99 JUMPI PUSH1 0x40 MLOAD PUSH3 0x461BCD PUSH1 0xE5 SHL DUP2 MSTORE PUSH1 0x4 ADD PUSH2 0x719 SWAP1 PUSH2 0x38B0 JUMP JUMPDEST PUSH2 0x1F4 DUP2 GT ISZERO PUSH2 0x1BDC JUMPI PUSH1 0x40 MLOAD PUSH3 0x461BCD PUSH1 0xE5 SHL DUP2 MSTORE PUSH1 0x20 PUSH1 0x4 DUP3 ADD MSTORE PUSH1 0xE PUSH1 0x24 DUP3 ADD MSTORE PUSH14 0xACC2D8EACA40E8DEDE40D0D2CED PUSH1 0x93 SHL PUSH1 0x44 DUP3 ADD MSTORE PUSH1 0x64 ADD PUSH2 0x719 JUMP JUMPDEST PUSH1 0x6C SLOAD DUP2 PUSH1 0x6D SLOAD PUSH2 0x1BED SWAP2 SWAP1 PUSH2 0x3930 JUMP JUMPDEST PUSH2 0x1BF7 SWAP2 SWAP1 PUSH2 0x3989 JUMP JUMPDEST PUSH1 0x6D DUP2 SWAP1 SSTORE PUSH2 0x7D0 LT ISZERO PUSH2 0x1C3F JUMPI PUSH1 0x40 MLOAD PUSH3 0x461BCD PUSH1 0xE5 SHL DUP2 MSTORE PUSH1 0x20 PUSH1 0x4 DUP3 ADD MSTORE PUSH1 0xF PUSH1 0x24 DUP3 ADD MSTORE PUSH15 0x13505608119959481C995858DA1959 PUSH1 0x8A SHL PUSH1 0x44 DUP3 ADD MSTORE PUSH1 0x64 ADD PUSH2 0x719 JUMP JUMPDEST PUSH1 0x6C SSTORE JUMP JUMPDEST PUSH1 0x33 SLOAD PUSH1 0x1 PUSH1 0x1 PUSH1 0xA0 SHL SUB AND CALLER EQ PUSH2 0x1C6E JUMPI PUSH1 0x40 MLOAD PUSH3 0x461BCD PUSH1 0xE5 SHL DUP2 MSTORE PUSH1 0x4 ADD PUSH2 0x719 SWAP1 PUSH2 0x38B0 JUMP JUMPDEST PUSH1 0x6B DUP1 SLOAD PUSH1 0x1 PUSH1 0x1 PUSH1 0xA0 SHL SUB NOT AND PUSH1 0x1 PUSH1 0x1 PUSH1 0xA0 SHL SUB SWAP3 SWAP1 SWAP3 AND SWAP2 SWAP1 SWAP2 OR SWAP1 SSTORE JUMP JUMPDEST PUSH1 0x33 SLOAD PUSH1 0x1 PUSH1 0x1 PUSH1 0xA0 SHL SUB AND CALLER EQ PUSH2 0x1CBA JUMPI PUSH1 0x40 MLOAD PUSH3 0x461BCD PUSH1 0xE5 SHL DUP2 MSTORE PUSH1 0x4 ADD PUSH2 0x719 SWAP1 PUSH2 0x38B0 JUMP JUMPDEST PUSH1 0x67 SLOAD PUSH1 0x1 PUSH1 0x1 PUSH1 0xA0 SHL SUB AND ISZERO PUSH2 0x1D06 JUMPI PUSH1 0x40 MLOAD PUSH3 0x461BCD PUSH1 0xE5 SHL DUP2 MSTORE PUSH1 0x20 PUSH1 0x4 DUP3 ADD MSTORE PUSH1 0x10 PUSH1 0x24 DUP3 ADD MSTORE PUSH16 0x1E14151408185B1C9958591E481CD95D PUSH1 0x82 SHL PUSH1 0x44 DUP3 ADD MSTORE PUSH1 0x64 ADD PUSH2 0x719 JUMP JUMPDEST PUSH1 0x67 DUP1 SLOAD PUSH1 0x1 PUSH1 0x1 PUSH1 0xA0 SHL SUB NOT AND PUSH1 0x1 PUSH1 0x1 PUSH1 0xA0 SHL SUB SWAP3 SWAP1 SWAP3 AND SWAP2 SWAP1 SWAP2 OR SWAP1 SSTORE JUMP JUMPDEST PUSH1 0x33 SLOAD PUSH1 0x1 PUSH1 0x1 PUSH1 0xA0 SHL SUB AND CALLER EQ PUSH2 0x1D52 JUMPI PUSH1 0x40 MLOAD PUSH3 0x461BCD PUSH1 0xE5 SHL DUP2 MSTORE PUSH1 0x4 ADD PUSH2 0x719 SWAP1 PUSH2 0x38B0 JUMP JUMPDEST PUSH2 0xC95 PUSH1 0x0 PUSH2 0x310B JUMP JUMPDEST PUSH1 0x65 SLOAD PUSH1 0x40 MLOAD PUSH4 0x70A08231 PUSH1 0xE0 SHL DUP2 MSTORE ADDRESS PUSH1 0x4 DUP3 ADD MSTORE PUSH1 0x0 SWAP2 PUSH1 0x1 PUSH1 0x1 PUSH1 0xA0 SHL SUB AND SWAP1 PUSH4 0x70A08231 SWAP1 PUSH1 0x24 ADD PUSH2 0xDEB JUMP JUMPDEST PUSH1 0x33 SLOAD PUSH1 0x1 PUSH1 0x1 PUSH1 0xA0 SHL SUB AND CALLER EQ PUSH2 0x1DB7 JUMPI PUSH1 0x40 MLOAD PUSH3 0x461BCD PUSH1 0xE5 SHL DUP2 MSTORE PUSH1 0x4 ADD PUSH2 0x719 SWAP1 PUSH2 0x38B0 JUMP JUMPDEST PUSH2 0x7D0 DUP5 PUSH1 0x6D SLOAD PUSH2 0x1DC8 SWAP2 SWAP1 PUSH2 0x3930 JUMP JUMPDEST GT ISZERO PUSH2 0x1E08 JUMPI PUSH1 0x40 MLOAD PUSH3 0x461BCD PUSH1 0xE5 SHL DUP2 MSTORE PUSH1 0x20 PUSH1 0x4 DUP3 ADD MSTORE PUSH1 0xF PUSH1 0x24 DUP3 ADD MSTORE PUSH15 0x13585E08199959481C995858DA1959 PUSH1 0x8A SHL PUSH1 0x44 DUP3 ADD MSTORE PUSH1 0x64 ADD PUSH2 0x719 JUMP JUMPDEST DUP4 DUP6 GT ISZERO DUP1 ISZERO PUSH2 0x1E18 JUMPI POP DUP6 DUP5 GT ISZERO JUMPDEST PUSH2 0x1E59 JUMPI PUSH1 0x40 MLOAD PUSH3 0x461BCD PUSH1 0xE5 SHL DUP2 MSTORE PUSH1 0x20 PUSH1 0x4 DUP3 ADD MSTORE PUSH1 0x12 PUSH1 0x24 DUP3 ADD MSTORE PUSH18 0x56616C7565206E6F7420696E2072616E6765 PUSH1 0x70 SHL PUSH1 0x44 DUP3 ADD MSTORE PUSH1 0x64 ADD PUSH2 0x719 JUMP JUMPDEST PUSH1 0x40 DUP1 MLOAD PUSH1 0xE0 DUP2 ADD DUP3 MSTORE DUP8 DUP2 MSTORE PUSH1 0x20 DUP2 ADD DUP8 DUP2 MSTORE SWAP2 DUP2 ADD DUP7 DUP2 MSTORE PUSH1 0x1 PUSH1 0x1 PUSH1 0xA0 SHL SUB DUP1 DUP8 AND PUSH1 0x60 DUP5 ADD SWAP1 DUP2 MSTORE DUP7 ISZERO ISZERO PUSH1 0x80 DUP6 ADD SWAP1 DUP2 MSTORE DUP7 ISZERO ISZERO PUSH1 0xA0 DUP7 ADD SWAP1 DUP2 MSTORE PUSH1 0x1 PUSH1 0xC0 DUP8 ADD DUP2 DUP2 MSTORE PUSH1 0x6E DUP1 SLOAD SWAP3 DUP4 ADD DUP2 SSTORE PUSH1 0x0 SWAP1 DUP2 MSTORE SWAP8 MLOAD PUSH1 0x4 SWAP1 SWAP3 MUL PUSH32 0x9930D9FF0DEE0EF5CA2F7710EA66B8F84DD0F5F5351ECFFE72B952CD9DB7142A DUP2 ADD SWAP3 SWAP1 SWAP3 SSTORE SWAP8 MLOAD PUSH32 0x9930D9FF0DEE0EF5CA2F7710EA66B8F84DD0F5F5351ECFFE72B952CD9DB7142B DUP3 ADD SSTORE SWAP5 MLOAD PUSH32 0x9930D9FF0DEE0EF5CA2F7710EA66B8F84DD0F5F5351ECFFE72B952CD9DB7142C DUP7 ADD SSTORE SWAP2 MLOAD PUSH32 0x9930D9FF0DEE0EF5CA2F7710EA66B8F84DD0F5F5351ECFFE72B952CD9DB7142D SWAP1 SWAP5 ADD DUP1 SLOAD SWAP2 MLOAD SWAP3 MLOAD SWAP7 MLOAD ISZERO ISZERO PUSH1 0x1 PUSH1 0xB0 SHL MUL PUSH1 0xFF PUSH1 0xB0 SHL NOT SWAP8 ISZERO ISZERO PUSH1 0x1 PUSH1 0xA8 SHL MUL SWAP8 SWAP1 SWAP8 AND PUSH2 0xFFFF PUSH1 0xA8 SHL NOT SWAP4 ISZERO ISZERO PUSH1 0x1 PUSH1 0xA0 SHL MUL PUSH1 0x1 PUSH1 0x1 PUSH1 0xA8 SHL SUB NOT SWAP1 SWAP4 AND SWAP6 SWAP1 SWAP5 AND SWAP5 SWAP1 SWAP5 OR OR AND OR SWAP3 SWAP1 SWAP3 OR SWAP1 SWAP2 SSTORE PUSH1 0x6D DUP1 SLOAD DUP7 SWAP3 SWAP1 PUSH2 0x1FB3 SWAP1 DUP5 SWAP1 PUSH2 0x3930 JUMP JUMPDEST SWAP1 SWAP2 SSTORE POP POP PUSH1 0x40 DUP1 MLOAD PUSH1 0x1 PUSH1 0x1 PUSH1 0xA0 SHL SUB DUP6 AND DUP2 MSTORE PUSH1 0x20 DUP2 ADD DUP7 SWAP1 MSTORE DUP4 ISZERO ISZERO SWAP2 DUP2 ADD SWAP2 SWAP1 SWAP2 MSTORE DUP2 ISZERO ISZERO PUSH1 0x60 DUP3 ADD MSTORE PUSH32 0x6B67376F541493B7DF6BCB8449800492E63D937EDFB837763A818D3BE5BAA283 SWAP1 PUSH1 0x80 ADD JUMPDEST PUSH1 0x40 MLOAD DUP1 SWAP2 SUB SWAP1 LOG1 POP POP POP POP POP POP JUMP JUMPDEST PUSH1 0x66 SLOAD PUSH1 0x40 MLOAD PUSH4 0x70A08231 PUSH1 0xE0 SHL DUP2 MSTORE ADDRESS PUSH1 0x4 DUP3 ADD MSTORE PUSH2 0xC95 SWAP2 PUSH1 0x1 PUSH1 0x1 PUSH1 0xA0 SHL SUB AND SWAP1 PUSH4 0x70A08231 SWAP1 PUSH1 0x24 ADD PUSH1 0x20 PUSH1 0x40 MLOAD DUP1 DUP4 SUB DUP2 DUP7 DUP1 EXTCODESIZE ISZERO DUP1 ISZERO PUSH2 0x205C JUMPI PUSH1 0x0 DUP1 REVERT JUMPDEST POP GAS STATICCALL ISZERO DUP1 ISZERO PUSH2 0x2070 JUMPI RETURNDATASIZE PUSH1 0x0 DUP1 RETURNDATACOPY RETURNDATASIZE PUSH1 0x0 REVERT JUMPDEST POP POP POP POP PUSH1 0x40 MLOAD RETURNDATASIZE PUSH1 0x1F NOT PUSH1 0x1F DUP3 ADD AND DUP3 ADD DUP1 PUSH1 0x40 MSTORE POP DUP2 ADD SWAP1 PUSH2 0x345 SWAP2 SWAP1 PUSH2 0x3688 JUMP JUMPDEST PUSH1 0x33 SLOAD PUSH1 0x1 PUSH1 0x1 PUSH1 0xA0 SHL SUB AND CALLER EQ PUSH2 0x20BE JUMPI PUSH1 0x40 MLOAD PUSH3 0x461BCD PUSH1 0xE5 SHL DUP2 MSTORE PUSH1 0x4 ADD PUSH2 0x719 SWAP1 PUSH2 0x38B0 JUMP JUMPDEST PUSH1 0x66 SLOAD PUSH1 0x1 PUSH1 0x1 PUSH1 0xA0 SHL SUB DUP4 DUP2 AND SWAP2 AND EQ ISZERO PUSH2 0x210D JUMPI PUSH1 0x40 MLOAD PUSH3 0x461BCD PUSH1 0xE5 SHL DUP2 MSTORE PUSH1 0x20 PUSH1 0x4 DUP3 ADD MSTORE PUSH1 0xE PUSH1 0x24 DUP3 ADD MSTORE PUSH14 0x1B9BDD08185D5D1A1BDC9A5E9959 PUSH1 0x92 SHL PUSH1 0x44 DUP3 ADD MSTORE PUSH1 0x64 ADD PUSH2 0x719 JUMP JUMPDEST PUSH1 0x1 PUSH1 0x1 PUSH1 0xA0 SHL SUB DUP3 AND PUSH1 0x0 SWAP1 DUP2 MSTORE PUSH1 0x6F PUSH1 0x20 MSTORE PUSH1 0x40 SWAP1 KECCAK256 PUSH1 0x1 ADD SLOAD PUSH1 0xFF AND ISZERO PUSH2 0x216A JUMPI PUSH1 0x40 MLOAD PUSH3 0x461BCD PUSH1 0xE5 SHL DUP2 MSTORE PUSH1 0x20 PUSH1 0x4 DUP3 ADD MSTORE PUSH1 0xE PUSH1 0x24 DUP3 ADD MSTORE PUSH14 0x139BDD08185D5D1A1BDC9A5E9959 PUSH1 0x92 SHL PUSH1 0x44 DUP3 ADD MSTORE PUSH1 0x64 ADD PUSH2 0x719 JUMP JUMPDEST PUSH1 0x40 MLOAD PUSH4 0x70A08231 PUSH1 0xE0 SHL DUP2 MSTORE ADDRESS PUSH1 0x4 DUP3 ADD MSTORE PUSH1 0x0 SWAP1 PUSH1 0x1 PUSH1 0x1 PUSH1 0xA0 SHL SUB DUP5 AND SWAP1 PUSH4 0x70A08231 SWAP1 PUSH1 0x24 ADD PUSH1 0x20 PUSH1 0x40 MLOAD DUP1 DUP4 SUB DUP2 DUP7 DUP1 EXTCODESIZE ISZERO DUP1 ISZERO PUSH2 0x21AC JUMPI PUSH1 0x0 DUP1 REVERT JUMPDEST POP GAS STATICCALL ISZERO DUP1 ISZERO PUSH2 0x21C0 JUMPI RETURNDATASIZE PUSH1 0x0 DUP1 RETURNDATACOPY RETURNDATASIZE PUSH1 0x0 REVERT JUMPDEST POP POP POP POP PUSH1 0x40 MLOAD RETURNDATASIZE PUSH1 0x1F NOT PUSH1 0x1F DUP3 ADD AND DUP3 ADD DUP1 PUSH1 0x40 MSTORE POP DUP2 ADD SWAP1 PUSH2 0x21E4 SWAP2 SWAP1 PUSH2 0x3688 JUMP JUMPDEST PUSH1 0x40 MLOAD PUSH4 0x95EA7B3 PUSH1 0xE0 SHL DUP2 MSTORE SWAP1 SWAP2 POP PUSH1 0x1 PUSH1 0x1 PUSH1 0xA0 SHL SUB DUP5 AND SWAP1 PUSH4 0x95EA7B3 SWAP1 PUSH2 0x2215 SWAP1 DUP6 SWAP1 DUP6 SWAP1 PUSH1 0x4 ADD PUSH2 0x3856 JUMP JUMPDEST PUSH1 0x20 PUSH1 0x40 MLOAD DUP1 DUP4 SUB DUP2 PUSH1 0x0 DUP8 DUP1 EXTCODESIZE ISZERO DUP1 ISZERO PUSH2 0x222F JUMPI PUSH1 0x0 DUP1 REVERT JUMPDEST POP GAS CALL ISZERO DUP1 ISZERO PUSH2 0x2243 JUMPI RETURNDATASIZE PUSH1 0x0 DUP1 RETURNDATACOPY RETURNDATASIZE PUSH1 0x0 REVERT JUMPDEST POP POP POP POP PUSH1 0x40 MLOAD RETURNDATASIZE PUSH1 0x1F NOT PUSH1 0x1F DUP3 ADD AND DUP3 ADD DUP1 PUSH1 0x40 MSTORE POP DUP2 ADD SWAP1 PUSH2 0x2267 SWAP2 SWAP1 PUSH2 0x3652 JUMP JUMPDEST POP PUSH1 0x40 MLOAD PUSH4 0x47E7A411 PUSH1 0xE1 SHL DUP2 MSTORE PUSH1 0x4 DUP2 ADD DUP3 SWAP1 MSTORE PUSH1 0x1 PUSH1 0x1 PUSH1 0xA0 SHL SUB DUP5 DUP2 AND PUSH1 0x24 DUP4 ADD MSTORE DUP4 AND SWAP1 PUSH4 0x8FCF4822 SWAP1 PUSH1 0x44 ADD PUSH1 0x20 PUSH1 0x40 MLOAD DUP1 DUP4 SUB DUP2 PUSH1 0x0 DUP8 DUP1 EXTCODESIZE ISZERO DUP1 ISZERO PUSH2 0x22B2 JUMPI PUSH1 0x0 DUP1 REVERT JUMPDEST POP GAS CALL ISZERO DUP1 ISZERO PUSH2 0x22C6 JUMPI RETURNDATASIZE PUSH1 0x0 DUP1 RETURNDATACOPY RETURNDATASIZE PUSH1 0x0 REVERT JUMPDEST POP POP POP POP PUSH1 0x40 MLOAD RETURNDATASIZE PUSH1 0x1F NOT PUSH1 0x1F DUP3 ADD AND DUP3 ADD DUP1 PUSH1 0x40 MSTORE POP DUP2 ADD SWAP1 PUSH2 0x22EA SWAP2 SWAP1 PUSH2 0x3652 JUMP JUMPDEST POP POP POP POP JUMP JUMPDEST PUSH1 0x1 PUSH1 0x1 PUSH1 0xA0 SHL SUB DUP1 DUP3 AND PUSH1 0x0 SWAP1 DUP2 MSTORE PUSH1 0x6F PUSH1 0x20 SWAP1 DUP2 MSTORE PUSH1 0x40 DUP1 DUP4 KECCAK256 PUSH1 0x4 DUP1 DUP3 ADD SLOAD PUSH1 0x5 DUP4 ADD SLOAD DUP5 MLOAD PUSH4 0x18160DDD PUSH1 0xE0 SHL DUP2 MSTORE SWAP5 MLOAD SWAP7 SWAP8 SWAP4 SWAP7 SWAP2 SWAP6 DUP9 SWAP6 SWAP2 SWAP1 SWAP5 AND SWAP4 PUSH4 0x18160DDD SWAP4 DUP3 DUP2 ADD SWAP4 SWAP2 SWAP3 DUP3 SWAP1 SUB ADD DUP2 DUP7 DUP1 EXTCODESIZE ISZERO DUP1 ISZERO PUSH2 0x2352 JUMPI PUSH1 0x0 DUP1 REVERT JUMPDEST POP GAS STATICCALL ISZERO DUP1 ISZERO PUSH2 0x2366 JUMPI RETURNDATASIZE PUSH1 0x0 DUP1 RETURNDATACOPY RETURNDATASIZE PUSH1 0x0 REVERT JUMPDEST POP POP POP POP PUSH1 0x40 MLOAD RETURNDATASIZE PUSH1 0x1F NOT PUSH1 0x1F DUP3 ADD AND DUP3 ADD DUP1 PUSH1 0x40 MSTORE POP DUP2 ADD SWAP1 PUSH2 0x238A SWAP2 SWAP1 PUSH2 0x3688 JUMP JUMPDEST SWAP1 POP PUSH2 0x2396 DUP3 DUP3 PUSH2 0x396A JUMP JUMPDEST PUSH2 0x23A5 JUMPI DUP6 SWAP4 POP POP POP POP PUSH2 0x13E1 JUMP JUMPDEST DUP2 PUSH2 0x13D1 DUP3 DUP9 PUSH2 0x396A JUMP JUMPDEST PUSH1 0x1 PUSH1 0x1 PUSH1 0xA0 SHL SUB DUP1 DUP3 AND PUSH1 0x0 SWAP1 DUP2 MSTORE PUSH1 0x6F PUSH1 0x20 SWAP1 DUP2 MSTORE PUSH1 0x40 DUP1 DUP4 KECCAK256 PUSH1 0x4 DUP1 DUP3 ADD SLOAD PUSH1 0x5 DUP4 ADD SLOAD DUP5 MLOAD PUSH4 0x18160DDD PUSH1 0xE0 SHL DUP2 MSTORE SWAP5 MLOAD SWAP7 SWAP8 SWAP4 SWAP7 SWAP2 SWAP6 DUP9 SWAP6 SWAP2 SWAP1 SWAP5 AND SWAP4 PUSH4 0x18160DDD SWAP4 DUP3 DUP2 ADD SWAP4 SWAP2 SWAP3 DUP3 SWAP1 SUB ADD DUP2 DUP7 DUP1 EXTCODESIZE ISZERO DUP1 ISZERO PUSH2 0x1372 JUMPI PUSH1 0x0 DUP1 REVERT JUMPDEST PUSH1 0x33 SLOAD PUSH1 0x1 PUSH1 0x1 PUSH1 0xA0 SHL SUB AND CALLER EQ PUSH2 0x243C JUMPI PUSH1 0x40 MLOAD PUSH3 0x461BCD PUSH1 0xE5 SHL DUP2 MSTORE PUSH1 0x4 ADD PUSH2 0x719 SWAP1 PUSH2 0x38B0 JUMP JUMPDEST PUSH1 0x1 PUSH1 0x1 PUSH1 0xA0 SHL SUB DUP2 AND PUSH2 0x24A1 JUMPI PUSH1 0x40 MLOAD PUSH3 0x461BCD PUSH1 0xE5 SHL DUP2 MSTORE PUSH1 0x20 PUSH1 0x4 DUP3 ADD MSTORE PUSH1 0x26 PUSH1 0x24 DUP3 ADD MSTORE PUSH32 0x4F776E61626C653A206E6577206F776E657220697320746865207A65726F2061 PUSH1 0x44 DUP3 ADD MSTORE PUSH6 0x646472657373 PUSH1 0xD0 SHL PUSH1 0x64 DUP3 ADD MSTORE PUSH1 0x84 ADD PUSH2 0x719 JUMP JUMPDEST PUSH2 0x24AA DUP2 PUSH2 0x310B JUMP JUMPDEST POP JUMP JUMPDEST PUSH1 0x1 PUSH1 0x1 PUSH1 0xA0 SHL SUB DUP4 AND PUSH1 0x0 SWAP1 DUP2 MSTORE PUSH1 0x6F PUSH1 0x20 MSTORE PUSH1 0x40 SWAP1 KECCAK256 PUSH1 0x1 DUP2 ADD SLOAD PUSH1 0xFF AND PUSH2 0x250B JUMPI PUSH1 0x40 MLOAD PUSH3 0x461BCD PUSH1 0xE5 SHL DUP2 MSTORE PUSH1 0x20 PUSH1 0x4 DUP3 ADD MSTORE PUSH1 0xF PUSH1 0x24 DUP3 ADD MSTORE PUSH15 0x506F6F6C206E6F7420616374697665 PUSH1 0x88 SHL PUSH1 0x44 DUP3 ADD MSTORE PUSH1 0x64 ADD PUSH2 0x719 JUMP JUMPDEST PUSH1 0x7 DUP2 ADD SLOAD PUSH1 0x1 PUSH1 0x1 PUSH1 0xA0 SHL SUB AND CALLER EQ PUSH2 0x2567 JUMPI PUSH1 0x40 MLOAD PUSH3 0x461BCD PUSH1 0xE5 SHL DUP2 MSTORE PUSH1 0x20 PUSH1 0x4 DUP3 ADD MSTORE PUSH1 0x17 PUSH1 0x24 DUP3 ADD MSTORE PUSH32 0x4F6E6C792068656C7065722063616E206465706F736974000000000000000000 PUSH1 0x44 DUP3 ADD MSTORE PUSH1 0x64 ADD PUSH2 0x719 JUMP JUMPDEST PUSH2 0x257C PUSH1 0x1 PUSH1 0x1 PUSH1 0xA0 SHL SUB DUP6 AND DUP4 ADDRESS DUP7 PUSH2 0x3167 JUMP JUMPDEST PUSH1 0x68 SLOAD PUSH1 0x40 MLOAD PUSH4 0x95EA7B3 PUSH1 0xE0 SHL DUP2 MSTORE PUSH1 0x1 PUSH1 0x1 PUSH1 0xA0 SHL SUB DUP7 DUP2 AND SWAP3 PUSH4 0x95EA7B3 SWAP3 PUSH2 0x25B0 SWAP3 SWAP1 SWAP2 AND SWAP1 DUP8 SWAP1 PUSH1 0x4 ADD PUSH2 0x3856 JUMP JUMPDEST PUSH1 0x20 PUSH1 0x40 MLOAD DUP1 DUP4 SUB DUP2 PUSH1 0x0 DUP8 DUP1 EXTCODESIZE ISZERO DUP1 ISZERO PUSH2 0x25CA JUMPI PUSH1 0x0 DUP1 REVERT JUMPDEST POP GAS CALL ISZERO DUP1 ISZERO PUSH2 0x25DE JUMPI RETURNDATASIZE PUSH1 0x0 DUP1 RETURNDATACOPY RETURNDATASIZE PUSH1 0x0 REVERT JUMPDEST POP POP POP POP PUSH1 0x40 MLOAD RETURNDATASIZE PUSH1 0x1F NOT PUSH1 0x1F DUP3 ADD AND DUP3 ADD DUP1 PUSH1 0x40 MSTORE POP DUP2 ADD SWAP1 PUSH2 0x2602 SWAP2 SWAP1 PUSH2 0x3652 JUMP JUMPDEST POP PUSH1 0x68 SLOAD PUSH1 0x40 MLOAD PUSH4 0x2434941D PUSH1 0xE2 SHL DUP2 MSTORE PUSH1 0x1 PUSH1 0x1 PUSH1 0xA0 SHL SUB DUP7 DUP2 AND PUSH1 0x4 DUP4 ADD MSTORE PUSH1 0x24 DUP3 ADD DUP7 SWAP1 MSTORE ADDRESS PUSH1 0x44 DUP4 ADD MSTORE TIMESTAMP PUSH1 0x64 DUP4 ADD MSTORE SWAP1 SWAP2 AND SWAP1 PUSH4 0x90D25074 SWAP1 PUSH1 0x84 ADD PUSH1 0x0 PUSH1 0x40 MLOAD DUP1 DUP4 SUB DUP2 PUSH1 0x0 DUP8 DUP1 EXTCODESIZE ISZERO DUP1 ISZERO PUSH2 0x265D JUMPI PUSH1 0x0 DUP1 REVERT JUMPDEST POP GAS CALL ISZERO DUP1 ISZERO PUSH2 0x2671 JUMPI RETURNDATASIZE PUSH1 0x0 DUP1 RETURNDATACOPY RETURNDATASIZE PUSH1 0x0 REVERT JUMPDEST POP POP POP POP PUSH1 0x2 DUP2 ADD SLOAD PUSH1 0x40 MLOAD PUSH4 0x70A08231 PUSH1 0xE0 SHL DUP2 MSTORE ADDRESS PUSH1 0x4 DUP3 ADD MSTORE PUSH1 0x0 SWAP2 PUSH1 0x1 PUSH1 0x1 PUSH1 0xA0 SHL SUB AND SWAP1 PUSH4 0x70A08231 SWAP1 PUSH1 0x24 ADD PUSH1 0x20 PUSH1 0x40 MLOAD DUP1 DUP4 SUB DUP2 DUP7 DUP1 EXTCODESIZE ISZERO DUP1 ISZERO PUSH2 0x26BB JUMPI PUSH1 0x0 DUP1 REVERT JUMPDEST POP GAS STATICCALL ISZERO DUP1 ISZERO PUSH2 0x26CF JUMPI RETURNDATASIZE PUSH1 0x0 DUP1 RETURNDATACOPY RETURNDATASIZE PUSH1 0x0 REVERT JUMPDEST POP POP POP POP PUSH1 0x40 MLOAD RETURNDATASIZE PUSH1 0x1F NOT PUSH1 0x1F DUP3 ADD AND DUP3 ADD DUP1 PUSH1 0x40 MSTORE POP DUP2 ADD SWAP1 PUSH2 0x26F3 SWAP2 SWAP1 PUSH2 0x3688 JUMP JUMPDEST PUSH1 0x2 DUP4 ADD SLOAD PUSH1 0x69 SLOAD PUSH1 0x40 MLOAD PUSH4 0x95EA7B3 PUSH1 0xE0 SHL DUP2 MSTORE SWAP3 SWAP4 POP PUSH1 0x1 PUSH1 0x1 PUSH1 0xA0 SHL SUB SWAP2 DUP3 AND SWAP3 PUSH4 0x95EA7B3 SWAP3 PUSH2 0x272D SWAP3 AND SWAP1 DUP6 SWAP1 PUSH1 0x4 ADD PUSH2 0x3856 JUMP JUMPDEST PUSH1 0x20 PUSH1 0x40 MLOAD DUP1 DUP4 SUB DUP2 PUSH1 0x0 DUP8 DUP1 EXTCODESIZE ISZERO DUP1 ISZERO PUSH2 0x2747 JUMPI PUSH1 0x0 DUP1 REVERT JUMPDEST POP GAS CALL ISZERO DUP1 ISZERO PUSH2 0x275B JUMPI RETURNDATASIZE PUSH1 0x0 DUP1 RETURNDATACOPY RETURNDATASIZE PUSH1 0x0 REVERT JUMPDEST POP POP POP POP PUSH1 0x40 MLOAD RETURNDATASIZE PUSH1 0x1F NOT PUSH1 0x1F DUP3 ADD AND DUP3 ADD DUP1 PUSH1 0x40 MSTORE POP DUP2 ADD SWAP1 PUSH2 0x277F SWAP2 SWAP1 PUSH2 0x3652 JUMP JUMPDEST POP PUSH1 0x69 SLOAD DUP3 SLOAD PUSH1 0x40 MLOAD PUSH4 0x1C57762B PUSH1 0xE3 SHL DUP2 MSTORE PUSH1 0x1 PUSH1 0x1 PUSH1 0xA0 SHL SUB SWAP1 SWAP3 AND SWAP2 PUSH4 0xE2BBB158 SWAP2 PUSH2 0x27BB SWAP2 DUP6 SWAP1 PUSH1 0x4 ADD SWAP2 DUP3 MSTORE PUSH1 0x20 DUP3 ADD MSTORE PUSH1 0x40 ADD SWAP1 JUMP JUMPDEST PUSH1 0x0 PUSH1 0x40 MLOAD DUP1 DUP4 SUB DUP2 PUSH1 0x0 DUP8 DUP1 EXTCODESIZE ISZERO DUP1 ISZERO PUSH2 0x27D5 JUMPI PUSH1 0x0 DUP1 REVERT JUMPDEST POP GAS CALL ISZERO DUP1 ISZERO PUSH2 0x27E9 JUMPI RETURNDATASIZE PUSH1 0x0 DUP1 RETURNDATACOPY RETURNDATASIZE PUSH1 0x0 REVERT JUMPDEST POP POP POP POP PUSH1 0x0 PUSH2 0x27F9 DUP6 DUP8 PUSH2 0x22F0 JUMP JUMPDEST PUSH1 0x5 DUP5 ADD SLOAD PUSH1 0x40 MLOAD PUSH4 0x40C10F19 PUSH1 0xE0 SHL DUP2 MSTORE SWAP2 SWAP3 POP PUSH1 0x1 PUSH1 0x1 PUSH1 0xA0 SHL SUB AND SWAP1 PUSH4 0x40C10F19 SWAP1 PUSH2 0x282E SWAP1 CALLER SWAP1 DUP6 SWAP1 PUSH1 0x4 ADD PUSH2 0x3856 JUMP JUMPDEST PUSH1 0x0 PUSH1 0x40 MLOAD DUP1 DUP4 SUB DUP2 PUSH1 0x0 DUP8 DUP1 EXTCODESIZE ISZERO DUP1 ISZERO PUSH2 0x2848 JUMPI PUSH1 0x0 DUP1 REVERT JUMPDEST POP GAS CALL ISZERO DUP1 ISZERO PUSH2 0x285C JUMPI RETURNDATASIZE PUSH1 0x0 DUP1 RETURNDATACOPY RETURNDATASIZE PUSH1 0x0 REVERT JUMPDEST POP POP POP POP DUP5 DUP4 PUSH1 0x4 ADD PUSH1 0x0 DUP3 DUP3 SLOAD PUSH2 0x2874 SWAP2 SWAP1 PUSH2 0x3930 JUMP JUMPDEST SWAP3 POP POP DUP2 SWAP1 SSTORE POP DUP2 DUP4 PUSH1 0x3 ADD PUSH1 0x0 DUP3 DUP3 SLOAD PUSH2 0x288F SWAP2 SWAP1 PUSH2 0x3930 JUMP JUMPDEST SWAP3 POP POP DUP2 SWAP1 SSTORE POP DUP6 PUSH1 0x1 PUSH1 0x1 PUSH1 0xA0 SHL SUB AND DUP5 PUSH1 0x1 PUSH1 0x1 PUSH1 0xA0 SHL SUB AND PUSH32 0x83DF459D706116D1B3F1C7B7F77CFEA4C635275F5D1E1A53827F536EF48DB77D DUP8 PUSH1 0x40 MLOAD PUSH2 0x28DB SWAP2 DUP2 MSTORE PUSH1 0x20 ADD SWAP1 JUMP JUMPDEST PUSH1 0x40 MLOAD DUP1 SWAP2 SUB SWAP1 LOG3 POP POP POP POP POP POP JUMP JUMPDEST PUSH2 0x2941 DUP4 PUSH4 0xA9059CBB PUSH1 0xE0 SHL DUP5 DUP5 PUSH1 0x40 MLOAD PUSH1 0x24 ADD PUSH2 0x290A SWAP3 SWAP2 SWAP1 PUSH2 0x3856 JUMP JUMPDEST PUSH1 0x40 DUP1 MLOAD PUSH1 0x1F NOT DUP2 DUP5 SUB ADD DUP2 MSTORE SWAP2 SWAP1 MSTORE PUSH1 0x20 DUP2 ADD DUP1 MLOAD PUSH1 0x1 PUSH1 0x1 PUSH1 0xE0 SHL SUB AND PUSH1 0x1 PUSH1 0x1 PUSH1 0xE0 SHL SUB NOT SWAP1 SWAP4 AND SWAP3 SWAP1 SWAP3 OR SWAP1 SWAP2 MSTORE PUSH2 0x3188 JUMP JUMPDEST POP POP POP JUMP JUMPDEST PUSH1 0x0 JUMPDEST PUSH1 0x6E SLOAD DUP2 LT ISZERO PUSH2 0x2EDF JUMPI PUSH1 0x0 PUSH1 0x6E DUP3 DUP2 SLOAD DUP2 LT PUSH2 0x2968 JUMPI PUSH2 0x2968 PUSH2 0x39FD JUMP JUMPDEST SWAP1 PUSH1 0x0 MSTORE PUSH1 0x20 PUSH1 0x0 KECCAK256 SWAP1 PUSH1 0x4 MUL ADD SWAP1 POP DUP1 PUSH1 0x3 ADD PUSH1 0x16 SWAP1 SLOAD SWAP1 PUSH2 0x100 EXP SWAP1 DIV PUSH1 0xFF AND ISZERO PUSH2 0x2ECC JUMPI PUSH1 0x66 SLOAD PUSH1 0x2 DUP3 ADD SLOAD PUSH1 0x1 PUSH1 0x1 PUSH1 0xA0 SHL SUB SWAP1 SWAP2 AND SWAP1 PUSH1 0x0 SWAP1 PUSH2 0x2710 SWAP1 PUSH2 0x29B4 SWAP1 DUP10 PUSH2 0x396A JUMP JUMPDEST PUSH2 0x29BE SWAP2 SWAP1 PUSH2 0x3948 JUMP JUMPDEST PUSH1 0x3 DUP5 ADD SLOAD SWAP1 SWAP2 POP PUSH1 0x1 PUSH1 0xA0 SHL SWAP1 DIV PUSH1 0xFF AND PUSH2 0x2ACA JUMPI PUSH1 0x66 SLOAD PUSH1 0x67 SLOAD PUSH1 0x40 MLOAD PUSH4 0x95EA7B3 PUSH1 0xE0 SHL DUP2 MSTORE PUSH1 0x1 PUSH1 0x1 PUSH1 0xA0 SHL SUB SWAP3 DUP4 AND SWAP3 PUSH4 0x95EA7B3 SWAP3 PUSH2 0x2A0A SWAP3 SWAP2 AND SWAP1 DUP6 SWAP1 PUSH1 0x4 ADD PUSH2 0x3856 JUMP JUMPDEST PUSH1 0x20 PUSH1 0x40 MLOAD DUP1 DUP4 SUB DUP2 PUSH1 0x0 DUP8 DUP1 EXTCODESIZE ISZERO DUP1 ISZERO PUSH2 0x2A24 JUMPI PUSH1 0x0 DUP1 REVERT JUMPDEST POP GAS CALL ISZERO DUP1 ISZERO PUSH2 0x2A38 JUMPI RETURNDATASIZE PUSH1 0x0 DUP1 RETURNDATACOPY RETURNDATASIZE PUSH1 0x0 REVERT JUMPDEST POP POP POP POP PUSH1 0x40 MLOAD RETURNDATASIZE PUSH1 0x1F NOT PUSH1 0x1F DUP3 ADD AND DUP3 ADD DUP1 PUSH1 0x40 MSTORE POP DUP2 ADD SWAP1 PUSH2 0x2A5C SWAP2 SWAP1 PUSH2 0x3652 JUMP JUMPDEST POP PUSH1 0x67 SLOAD PUSH1 0x40 MLOAD PUSH4 0xB6B55F25 PUSH1 0xE0 SHL DUP2 MSTORE PUSH1 0x4 DUP2 ADD DUP4 SWAP1 MSTORE PUSH1 0x1 PUSH1 0x1 PUSH1 0xA0 SHL SUB SWAP1 SWAP2 AND SWAP1 PUSH4 0xB6B55F25 SWAP1 PUSH1 0x24 ADD PUSH1 0x0 PUSH1 0x40 MLOAD DUP1 DUP4 SUB DUP2 PUSH1 0x0 DUP8 DUP1 EXTCODESIZE ISZERO DUP1 ISZERO PUSH2 0x2AA3 JUMPI PUSH1 0x0 DUP1 REVERT JUMPDEST POP GAS CALL ISZERO DUP1 ISZERO PUSH2 0x2AB7 JUMPI RETURNDATASIZE PUSH1 0x0 DUP1 RETURNDATACOPY RETURNDATASIZE PUSH1 0x0 REVERT JUMPDEST POP POP PUSH1 0x67 SLOAD PUSH1 0x1 PUSH1 0x1 PUSH1 0xA0 SHL SUB AND SWAP4 POP POP POP JUMPDEST PUSH1 0x3 DUP4 ADD SLOAD PUSH1 0x1 PUSH1 0xA8 SHL SWAP1 DIV PUSH1 0xFF AND PUSH2 0x2DE8 JUMPI PUSH1 0x3 DUP4 ADD SLOAD PUSH1 0x40 MLOAD PUSH4 0x95EA7B3 PUSH1 0xE0 SHL DUP2 MSTORE PUSH1 0x1 PUSH1 0x1 PUSH1 0xA0 SHL SUB DUP5 DUP2 AND SWAP3 PUSH4 0x95EA7B3 SWAP3 PUSH2 0x2B13 SWAP3 SWAP1 SWAP2 AND SWAP1 DUP6 SWAP1 PUSH1 0x4 ADD PUSH2 0x3856 JUMP JUMPDEST PUSH1 0x20 PUSH1 0x40 MLOAD DUP1 DUP4 SUB DUP2 PUSH1 0x0 DUP8 DUP1 EXTCODESIZE ISZERO DUP1 ISZERO PUSH2 0x2B2D JUMPI PUSH1 0x0 DUP1 REVERT JUMPDEST POP GAS CALL ISZERO DUP1 ISZERO PUSH2 0x2B41 JUMPI RETURNDATASIZE PUSH1 0x0 DUP1 RETURNDATACOPY RETURNDATASIZE PUSH1 0x0 REVERT JUMPDEST POP POP POP POP PUSH1 0x40 MLOAD RETURNDATASIZE PUSH1 0x1F NOT PUSH1 0x1F DUP3 ADD AND DUP3 ADD DUP1 PUSH1 0x40 MSTORE POP DUP2 ADD SWAP1 PUSH2 0x2B65 SWAP2 SWAP1 PUSH2 0x3652 JUMP JUMPDEST POP PUSH1 0x3 DUP4 ADD SLOAD PUSH1 0x40 MLOAD PUSH4 0x47E7A411 PUSH1 0xE1 SHL DUP2 MSTORE PUSH1 0x4 DUP2 ADD DUP4 SWAP1 MSTORE PUSH1 0x1 PUSH1 0x1 PUSH1 0xA0 SHL SUB DUP5 DUP2 AND PUSH1 0x24 DUP4 ADD MSTORE SWAP1 SWAP2 AND SWAP1 PUSH4 0x8FCF4822 SWAP1 PUSH1 0x44 ADD PUSH1 0x20 PUSH1 0x40 MLOAD DUP1 DUP4 SUB DUP2 PUSH1 0x0 DUP8 DUP1 EXTCODESIZE ISZERO DUP1 ISZERO PUSH2 0x2BB6 JUMPI PUSH1 0x0 DUP1 REVERT JUMPDEST POP GAS CALL ISZERO DUP1 ISZERO PUSH2 0x2BCA JUMPI RETURNDATASIZE PUSH1 0x0 DUP1 RETURNDATACOPY RETURNDATASIZE PUSH1 0x0 REVERT JUMPDEST POP POP POP POP PUSH1 0x40 MLOAD RETURNDATASIZE PUSH1 0x1F NOT PUSH1 0x1F DUP3 ADD AND DUP3 ADD DUP1 PUSH1 0x40 MSTORE POP DUP2 ADD SWAP1 PUSH2 0x2BEE SWAP2 SWAP1 PUSH2 0x3652 JUMP JUMPDEST POP DUP5 DUP1 ISZERO PUSH2 0x2C06 JUMPI POP PUSH1 0x6B SLOAD PUSH1 0x1 PUSH1 0x1 PUSH1 0xA0 SHL SUB AND ISZERO ISZERO JUMPDEST ISZERO PUSH2 0x2DE3 JUMPI PUSH1 0x6B SLOAD PUSH1 0x3 DUP5 ADD SLOAD PUSH1 0x40 DUP1 MLOAD PUSH4 0x9F9106D1 PUSH1 0xE0 SHL DUP2 MSTORE SWAP1 MLOAD PUSH1 0x1 PUSH1 0x1 PUSH1 0xA0 SHL SUB SWAP4 DUP5 AND SWAP4 PUSH4 0xD2472B1B SWAP4 DUP15 SWAP4 SWAP2 AND SWAP2 PUSH4 0x9F9106D1 SWAP2 PUSH1 0x4 DUP1 DUP3 ADD SWAP3 PUSH1 0x20 SWAP3 SWAP1 SWAP2 SWAP1 DUP3 SWAP1 SUB ADD DUP2 DUP7 DUP1 EXTCODESIZE ISZERO DUP1 ISZERO PUSH2 0x2C60 JUMPI PUSH1 0x0 DUP1 REVERT JUMPDEST POP GAS STATICCALL ISZERO DUP1 ISZERO PUSH2 0x2C74 JUMPI RETURNDATASIZE PUSH1 0x0 DUP1 RETURNDATACOPY RETURNDATASIZE PUSH1 0x0 REVERT JUMPDEST POP POP POP POP PUSH1 0x40 MLOAD RETURNDATASIZE PUSH1 0x1F NOT PUSH1 0x1F DUP3 ADD AND DUP3 ADD DUP1 PUSH1 0x40 MSTORE POP DUP2 ADD SWAP1 PUSH2 0x2C98 SWAP2 SWAP1 PUSH2 0x34B7 JUMP JUMPDEST DUP6 DUP6 DUP9 PUSH1 0x3 ADD PUSH1 0x0 SWAP1 SLOAD SWAP1 PUSH2 0x100 EXP SWAP1 DIV PUSH1 0x1 PUSH1 0x1 PUSH1 0xA0 SHL SUB AND PUSH1 0x1 PUSH1 0x1 PUSH1 0xA0 SHL SUB AND PUSH4 0x18160DDD PUSH1 0x40 MLOAD DUP2 PUSH4 0xFFFFFFFF AND PUSH1 0xE0 SHL DUP2 MSTORE PUSH1 0x4 ADD PUSH1 0x20 PUSH1 0x40 MLOAD DUP1 DUP4 SUB DUP2 DUP7 DUP1 EXTCODESIZE ISZERO DUP1 ISZERO PUSH2 0x2CEA JUMPI PUSH1 0x0 DUP1 REVERT JUMPDEST POP GAS STATICCALL ISZERO DUP1 ISZERO PUSH2 0x2CFE JUMPI RETURNDATASIZE PUSH1 0x0 DUP1 RETURNDATACOPY RETURNDATASIZE PUSH1 0x0 REVERT JUMPDEST POP POP POP POP PUSH1 0x40 MLOAD RETURNDATASIZE PUSH1 0x1F NOT PUSH1 0x1F DUP3 ADD AND DUP3 ADD DUP1 PUSH1 0x40 MSTORE POP DUP2 ADD SWAP1 PUSH2 0x2D22 SWAP2 SWAP1 PUSH2 0x3688 JUMP JUMPDEST PUSH1 0x40 MLOAD PUSH1 0x1 PUSH1 0x1 PUSH1 0xE0 SHL SUB NOT PUSH1 0xE0 DUP9 SWAP1 SHL AND DUP2 MSTORE PUSH1 0x1 PUSH1 0x1 PUSH1 0xA0 SHL SUB SWAP6 DUP7 AND PUSH1 0x4 DUP3 ADD MSTORE SWAP4 DUP6 AND PUSH1 0x24 DUP6 ADD MSTORE SWAP4 SWAP1 SWAP2 AND PUSH1 0x44 DUP4 ADD MSTORE PUSH1 0x64 DUP3 ADD MSTORE PUSH1 0x84 DUP2 ADD SWAP2 SWAP1 SWAP2 MSTORE PUSH1 0xA4 ADD PUSH1 0x0 PUSH1 0x40 MLOAD DUP1 DUP4 SUB DUP2 PUSH1 0x0 DUP8 DUP1 EXTCODESIZE ISZERO DUP1 ISZERO PUSH2 0x2D81 JUMPI PUSH1 0x0 DUP1 REVERT JUMPDEST POP GAS CALL ISZERO DUP1 ISZERO PUSH2 0x2D95 JUMPI RETURNDATASIZE PUSH1 0x0 DUP1 RETURNDATACOPY RETURNDATASIZE PUSH1 0x0 REVERT JUMPDEST POP POP POP PUSH1 0x3 DUP5 ADD SLOAD PUSH1 0x40 MLOAD PUSH32 0x6C33B8F6B4F8BA21A4621CC77C018FBB4C7663CFA25929F02DC8D36ABDE462C5 SWAP3 POP PUSH2 0x2DDA SWAP2 PUSH1 0x1 PUSH1 0x1 PUSH1 0xA0 SHL SUB AND SWAP1 DUP6 SWAP1 DUP6 SWAP1 PUSH2 0x3832 JUMP JUMPDEST PUSH1 0x40 MLOAD DUP1 SWAP2 SUB SWAP1 LOG1 JUMPDEST PUSH2 0x2EBD JUMP JUMPDEST PUSH1 0x3 DUP4 ADD SLOAD PUSH1 0x40 MLOAD PUSH4 0xA9059CBB PUSH1 0xE0 SHL DUP2 MSTORE PUSH1 0x1 PUSH1 0x1 PUSH1 0xA0 SHL SUB DUP5 DUP2 AND SWAP3 PUSH4 0xA9059CBB SWAP3 PUSH2 0x2E1E SWAP3 SWAP1 SWAP2 AND SWAP1 DUP6 SWAP1 PUSH1 0x4 ADD PUSH2 0x3856 JUMP JUMPDEST PUSH1 0x20 PUSH1 0x40 MLOAD DUP1 DUP4 SUB DUP2 PUSH1 0x0 DUP8 DUP1 EXTCODESIZE ISZERO DUP1 ISZERO PUSH2 0x2E38 JUMPI PUSH1 0x0 DUP1 REVERT JUMPDEST POP GAS CALL ISZERO DUP1 ISZERO PUSH2 0x2E4C JUMPI RETURNDATASIZE PUSH1 0x0 DUP1 RETURNDATACOPY RETURNDATASIZE PUSH1 0x0 REVERT JUMPDEST POP POP POP POP PUSH1 0x40 MLOAD RETURNDATASIZE PUSH1 0x1F NOT PUSH1 0x1F DUP3 ADD AND DUP3 ADD DUP1 PUSH1 0x40 MSTORE POP DUP2 ADD SWAP1 PUSH2 0x2E70 SWAP2 SWAP1 PUSH2 0x3652 JUMP JUMPDEST POP PUSH1 0x3 DUP4 ADD SLOAD PUSH1 0x40 MLOAD PUSH32 0x6C33B8F6B4F8BA21A4621CC77C018FBB4C7663CFA25929F02DC8D36ABDE462C5 SWAP2 PUSH2 0x2EB4 SWAP2 PUSH1 0x1 PUSH1 0x1 PUSH1 0xA0 SHL SUB SWAP1 SWAP2 AND SWAP1 DUP6 SWAP1 DUP6 SWAP1 PUSH2 0x3832 JUMP JUMPDEST PUSH1 0x40 MLOAD DUP1 SWAP2 SUB SWAP1 LOG1 JUMPDEST PUSH2 0x2EC7 DUP2 DUP8 PUSH2 0x3989 JUMP JUMPDEST SWAP6 POP POP POP JUMPDEST POP DUP1 PUSH2 0x2ED7 DUP2 PUSH2 0x39CC JUMP JUMPDEST SWAP2 POP POP PUSH2 0x2949 JUMP JUMPDEST POP PUSH1 0x66 SLOAD PUSH1 0x40 MLOAD PUSH4 0x95EA7B3 PUSH1 0xE0 SHL DUP2 MSTORE PUSH1 0x1 PUSH1 0x1 PUSH1 0xA0 SHL SUB SWAP1 SWAP2 AND SWAP1 PUSH4 0x95EA7B3 SWAP1 PUSH2 0x2F12 SWAP1 DUP8 SWAP1 DUP7 SWAP1 PUSH1 0x4 ADD PUSH2 0x3856 JUMP JUMPDEST PUSH1 0x20 PUSH1 0x40 MLOAD DUP1 DUP4 SUB DUP2 PUSH1 0x0 DUP8 DUP1 EXTCODESIZE ISZERO DUP1 ISZERO PUSH2 0x2F2C JUMPI PUSH1 0x0 DUP1 REVERT JUMPDEST POP GAS CALL ISZERO DUP1 ISZERO PUSH2 0x2F40 JUMPI RETURNDATASIZE PUSH1 0x0 DUP1 RETURNDATACOPY RETURNDATASIZE PUSH1 0x0 REVERT JUMPDEST POP POP POP POP PUSH1 0x40 MLOAD RETURNDATASIZE PUSH1 0x1F NOT PUSH1 0x1F DUP3 ADD AND DUP3 ADD DUP1 PUSH1 0x40 MSTORE POP DUP2 ADD SWAP1 PUSH2 0x2F64 SWAP2 SWAP1 PUSH2 0x3652 JUMP JUMPDEST POP PUSH1 0x66 SLOAD PUSH1 0x40 MLOAD PUSH4 0x47E7A411 PUSH1 0xE1 SHL DUP2 MSTORE PUSH1 0x4 DUP2 ADD DUP5 SWAP1 MSTORE PUSH1 0x1 PUSH1 0x1 PUSH1 0xA0 SHL SUB SWAP2 DUP3 AND PUSH1 0x24 DUP3 ADD MSTORE SWAP1 DUP6 AND SWAP1 PUSH4 0x8FCF4822 SWAP1 PUSH1 0x44 ADD PUSH1 0x20 PUSH1 0x40 MLOAD DUP1 DUP4 SUB DUP2 PUSH1 0x0 DUP8 DUP1 EXTCODESIZE ISZERO DUP1 ISZERO PUSH2 0x2FB3 JUMPI PUSH1 0x0 DUP1 REVERT JUMPDEST POP GAS CALL ISZERO DUP1 ISZERO PUSH2 0x2FC7 JUMPI RETURNDATASIZE PUSH1 0x0 DUP1 RETURNDATACOPY RETURNDATASIZE PUSH1 0x0 REVERT JUMPDEST POP POP POP POP PUSH1 0x40 MLOAD RETURNDATASIZE PUSH1 0x1F NOT PUSH1 0x1F DUP3 ADD AND DUP3 ADD DUP1 PUSH1 0x40 MSTORE POP DUP2 ADD SWAP1 PUSH2 0x2FEB SWAP2 SWAP1 PUSH2 0x3652 JUMP JUMPDEST POP DUP1 DUP1 ISZERO PUSH2 0x3003 JUMPI POP PUSH1 0x6B SLOAD PUSH1 0x1 PUSH1 0x1 PUSH1 0xA0 SHL SUB AND ISZERO ISZERO JUMPDEST ISZERO PUSH2 0x30D5 JUMPI PUSH1 0x1 PUSH1 0x1 PUSH1 0xA0 SHL SUB DUP6 DUP2 AND PUSH1 0x0 DUP2 DUP2 MSTORE PUSH1 0x6F PUSH1 0x20 MSTORE PUSH1 0x40 SWAP1 DUP2 SWAP1 KECCAK256 PUSH1 0x6B SLOAD PUSH1 0x66 SLOAD PUSH1 0x4 DUP1 DUP5 ADD SLOAD SWAP5 MLOAD PUSH4 0xAC2DDB3B PUSH1 0xE0 SHL DUP2 MSTORE SWAP1 DUP2 ADD SWAP6 SWAP1 SWAP6 MSTORE DUP6 AND PUSH1 0x24 DUP6 ADD MSTORE PUSH1 0x44 DUP5 ADD DUP8 SWAP1 MSTORE PUSH1 0x64 DUP5 ADD SWAP3 SWAP1 SWAP3 MSTORE SWAP3 AND SWAP1 PUSH4 0xAC2DDB3B SWAP1 PUSH1 0x84 ADD PUSH1 0x0 PUSH1 0x40 MLOAD DUP1 DUP4 SUB DUP2 PUSH1 0x0 DUP8 DUP1 EXTCODESIZE ISZERO DUP1 ISZERO PUSH2 0x307E JUMPI PUSH1 0x0 DUP1 REVERT JUMPDEST POP GAS CALL ISZERO DUP1 ISZERO PUSH2 0x3092 JUMPI RETURNDATASIZE PUSH1 0x0 DUP1 RETURNDATACOPY RETURNDATASIZE PUSH1 0x0 REVERT JUMPDEST POP POP PUSH1 0x66 SLOAD PUSH1 0x40 MLOAD PUSH32 0x6C33B8F6B4F8BA21A4621CC77C018FBB4C7663CFA25929F02DC8D36ABDE462C5 SWAP4 POP PUSH2 0x2007 SWAP3 POP DUP9 SWAP2 PUSH1 0x1 PUSH1 0x1 PUSH1 0xA0 SHL SUB AND SWAP1 DUP8 SWAP1 PUSH2 0x3832 JUMP JUMPDEST POP POP POP POP POP JUMP JUMPDEST PUSH1 0x0 SLOAD PUSH2 0x100 SWAP1 DIV PUSH1 0xFF AND PUSH2 0x3103 JUMPI PUSH1 0x40 MLOAD PUSH3 0x461BCD PUSH1 0xE5 SHL DUP2 MSTORE PUSH1 0x4 ADD PUSH2 0x719 SWAP1 PUSH2 0x38E5 JUMP JUMPDEST PUSH2 0xC95 PUSH2 0x325A JUMP JUMPDEST PUSH1 0x33 SLOAD PUSH1 0x40 MLOAD PUSH1 0x1 PUSH1 0x1 PUSH1 0xA0 SHL SUB DUP1 DUP5 AND SWAP3 AND SWAP1 PUSH32 0x8BE0079C531659141344CD1FD0A4F28419497F9722A3DAAFE3B4186F6B6457E0 SWAP1 PUSH1 0x0 SWAP1 LOG3 PUSH1 0x33 DUP1 SLOAD PUSH1 0x1 PUSH1 0x1 PUSH1 0xA0 SHL SUB NOT AND PUSH1 0x1 PUSH1 0x1 PUSH1 0xA0 SHL SUB SWAP3 SWAP1 SWAP3 AND SWAP2 SWAP1 SWAP2 OR SWAP1 SSTORE JUMP JUMPDEST PUSH2 0x22EA DUP5 PUSH4 0x23B872DD PUSH1 0xE0 SHL DUP6 DUP6 DUP6 PUSH1 0x40 MLOAD PUSH1 0x24 ADD PUSH2 0x290A SWAP4 SWAP3 SWAP2 SWAP1 PUSH2 0x3832 JUMP JUMPDEST PUSH1 0x0 PUSH2 0x31DD DUP3 PUSH1 0x40 MLOAD DUP1 PUSH1 0x40 ADD PUSH1 0x40 MSTORE DUP1 PUSH1 0x20 DUP2 MSTORE PUSH1 0x20 ADD PUSH32 0x5361666545524332303A206C6F772D6C6576656C2063616C6C206661696C6564 DUP2 MSTORE POP DUP6 PUSH1 0x1 PUSH1 0x1 PUSH1 0xA0 SHL SUB AND PUSH2 0x328A SWAP1 SWAP3 SWAP2 SWAP1 PUSH4 0xFFFFFFFF AND JUMP JUMPDEST DUP1 MLOAD SWAP1 SWAP2 POP ISZERO PUSH2 0x2941 JUMPI DUP1 DUP1 PUSH1 0x20 ADD SWAP1 MLOAD DUP2 ADD SWAP1 PUSH2 0x31FB SWAP2 SWAP1 PUSH2 0x3652 JUMP JUMPDEST PUSH2 0x2941 JUMPI PUSH1 0x40 MLOAD PUSH3 0x461BCD PUSH1 0xE5 SHL DUP2 MSTORE PUSH1 0x20 PUSH1 0x4 DUP3 ADD MSTORE PUSH1 0x2A PUSH1 0x24 DUP3 ADD MSTORE PUSH32 0x5361666545524332303A204552433230206F7065726174696F6E20646964206E PUSH1 0x44 DUP3 ADD MSTORE PUSH10 0x1BDD081CDD58D8D95959 PUSH1 0xB2 SHL PUSH1 0x64 DUP3 ADD MSTORE PUSH1 0x84 ADD PUSH2 0x719 JUMP JUMPDEST PUSH1 0x0 SLOAD PUSH2 0x100 SWAP1 DIV PUSH1 0xFF AND PUSH2 0x3281 JUMPI PUSH1 0x40 MLOAD PUSH3 0x461BCD PUSH1 0xE5 SHL DUP2 MSTORE PUSH1 0x4 ADD PUSH2 0x719 SWAP1 PUSH2 0x38E5 JUMP JUMPDEST PUSH2 0xC95 CALLER PUSH2 0x310B JUMP JUMPDEST PUSH1 0x60 PUSH2 0x3299 DUP5 DUP5 PUSH1 0x0 DUP6 PUSH2 0x32A3 JUMP JUMPDEST SWAP1 POP JUMPDEST SWAP4 SWAP3 POP POP POP JUMP JUMPDEST PUSH1 0x60 DUP3 SELFBALANCE LT ISZERO PUSH2 0x3304 JUMPI PUSH1 0x40 MLOAD PUSH3 0x461BCD PUSH1 0xE5 SHL DUP2 MSTORE PUSH1 0x20 PUSH1 0x4 DUP3 ADD MSTORE PUSH1 0x26 PUSH1 0x24 DUP3 ADD MSTORE PUSH32 0x416464726573733A20696E73756666696369656E742062616C616E636520666F PUSH1 0x44 DUP3 ADD MSTORE PUSH6 0x1C8818D85B1B PUSH1 0xD2 SHL PUSH1 0x64 DUP3 ADD MSTORE PUSH1 0x84 ADD PUSH2 0x719 JUMP JUMPDEST PUSH1 0x1 PUSH1 0x1 PUSH1 0xA0 SHL SUB DUP6 AND EXTCODESIZE PUSH2 0x335B JUMPI PUSH1 0x40 MLOAD PUSH3 0x461BCD PUSH1 0xE5 SHL DUP2 MSTORE PUSH1 0x20 PUSH1 0x4 DUP3 ADD MSTORE PUSH1 0x1D PUSH1 0x24 DUP3 ADD MSTORE PUSH32 0x416464726573733A2063616C6C20746F206E6F6E2D636F6E7472616374000000 PUSH1 0x44 DUP3 ADD MSTORE PUSH1 0x64 ADD PUSH2 0x719 JUMP JUMPDEST PUSH1 0x0 DUP1 DUP7 PUSH1 0x1 PUSH1 0x1 PUSH1 0xA0 SHL SUB AND DUP6 DUP8 PUSH1 0x40 MLOAD PUSH2 0x3377 SWAP2 SWAP1 PUSH2 0x3816 JUMP JUMPDEST PUSH1 0x0 PUSH1 0x40 MLOAD DUP1 DUP4 SUB DUP2 DUP6 DUP8 GAS CALL SWAP3 POP POP POP RETURNDATASIZE DUP1 PUSH1 0x0 DUP2 EQ PUSH2 0x33B4 JUMPI PUSH1 0x40 MLOAD SWAP2 POP PUSH1 0x1F NOT PUSH1 0x3F RETURNDATASIZE ADD AND DUP3 ADD PUSH1 0x40 MSTORE RETURNDATASIZE DUP3 MSTORE RETURNDATASIZE PUSH1 0x0 PUSH1 0x20 DUP5 ADD RETURNDATACOPY PUSH2 0x33B9 JUMP JUMPDEST PUSH1 0x60 SWAP2 POP JUMPDEST POP SWAP2 POP SWAP2 POP PUSH2 0x33C9 DUP3 DUP3 DUP7 PUSH2 0x33D4 JUMP JUMPDEST SWAP8 SWAP7 POP POP POP POP POP POP POP JUMP JUMPDEST PUSH1 0x60 DUP4 ISZERO PUSH2 0x33E3 JUMPI POP DUP2 PUSH2 0x329C JUMP JUMPDEST DUP3 MLOAD ISZERO PUSH2 0x33F3 JUMPI DUP3 MLOAD DUP1 DUP5 PUSH1 0x20 ADD REVERT JUMPDEST DUP2 PUSH1 0x40 MLOAD PUSH3 0x461BCD PUSH1 0xE5 SHL DUP2 MSTORE PUSH1 0x4 ADD PUSH2 0x719 SWAP2 SWAP1 PUSH2 0x386F JUMP JUMPDEST PUSH1 0x0 DUP3 PUSH1 0x1F DUP4 ADD SLT PUSH2 0x341E JUMPI PUSH1 0x0 DUP1 REVERT JUMPDEST DUP2 CALLDATALOAD PUSH8 0xFFFFFFFFFFFFFFFF DUP1 DUP3 GT ISZERO PUSH2 0x3439 JUMPI PUSH2 0x3439 PUSH2 0x3A13 JUMP JUMPDEST PUSH1 0x40 MLOAD PUSH1 0x1F DUP4 ADD PUSH1 0x1F NOT SWAP1 DUP2 AND PUSH1 0x3F ADD AND DUP2 ADD SWAP1 DUP3 DUP3 GT DUP2 DUP4 LT OR ISZERO PUSH2 0x3461 JUMPI PUSH2 0x3461 PUSH2 0x3A13 JUMP JUMPDEST DUP2 PUSH1 0x40 MSTORE DUP4 DUP2 MSTORE DUP7 PUSH1 0x20 DUP6 DUP9 ADD ADD GT ISZERO PUSH2 0x347A JUMPI PUSH1 0x0 DUP1 REVERT JUMPDEST DUP4 PUSH1 0x20 DUP8 ADD PUSH1 0x20 DUP4 ADD CALLDATACOPY PUSH1 0x0 PUSH1 0x20 DUP6 DUP4 ADD ADD MSTORE DUP1 SWAP5 POP POP POP POP POP SWAP3 SWAP2 POP POP JUMP JUMPDEST PUSH1 0x0 PUSH1 0x20 DUP3 DUP5 SUB SLT ISZERO PUSH2 0x34AC JUMPI PUSH1 0x0 DUP1 REVERT JUMPDEST DUP2 CALLDATALOAD PUSH2 0x329C DUP2 PUSH2 0x3A29 JUMP JUMPDEST PUSH1 0x0 PUSH1 0x20 DUP3 DUP5 SUB SLT ISZERO PUSH2 0x34C9 JUMPI PUSH1 0x0 DUP1 REVERT JUMPDEST DUP2 MLOAD PUSH2 0x329C DUP2 PUSH2 0x3A29 JUMP JUMPDEST PUSH1 0x0 DUP1 PUSH1 0x40 DUP4 DUP6 SUB SLT ISZERO PUSH2 0x34E7 JUMPI PUSH1 0x0 DUP1 REVERT JUMPDEST DUP3 CALLDATALOAD PUSH2 0x34F2 DUP2 PUSH2 0x3A29 JUMP JUMPDEST SWAP2 POP PUSH1 0x20 DUP4 ADD CALLDATALOAD PUSH2 0x3502 DUP2 PUSH2 0x3A29 JUMP JUMPDEST DUP1 SWAP2 POP POP SWAP3 POP SWAP3 SWAP1 POP JUMP JUMPDEST PUSH1 0x0 DUP1 PUSH1 0x0 DUP1 PUSH1 0x0 DUP1 PUSH1 0xC0 DUP8 DUP10 SUB SLT ISZERO PUSH2 0x3526 JUMPI PUSH1 0x0 DUP1 REVERT JUMPDEST DUP7 CALLDATALOAD PUSH2 0x3531 DUP2 PUSH2 0x3A29 JUMP JUMPDEST SWAP6 POP PUSH1 0x20 DUP8 ADD CALLDATALOAD PUSH2 0x3541 DUP2 PUSH2 0x3A29 JUMP JUMPDEST SWAP5 POP PUSH1 0x40 DUP8 ADD CALLDATALOAD PUSH2 0x3551 DUP2 PUSH2 0x3A29 JUMP JUMPDEST SWAP4 POP PUSH1 0x60 DUP8 ADD CALLDATALOAD PUSH2 0x3561 DUP2 PUSH2 0x3A29 JUMP JUMPDEST SWAP3 POP PUSH1 0x80 DUP8 ADD CALLDATALOAD PUSH2 0x3571 DUP2 PUSH2 0x3A29 JUMP JUMPDEST DUP1 SWAP3 POP POP PUSH1 0xA0 DUP8 ADD CALLDATALOAD SWAP1 POP SWAP3 SWAP6 POP SWAP3 SWAP6 POP SWAP3 SWAP6 JUMP JUMPDEST PUSH1 0x0 DUP1 PUSH1 0x0 PUSH1 0x60 DUP5 DUP7 SUB SLT ISZERO PUSH2 0x359B JUMPI PUSH1 0x0 DUP1 REVERT JUMPDEST DUP4 CALLDATALOAD PUSH2 0x35A6 DUP2 PUSH2 0x3A29 JUMP JUMPDEST SWAP3 POP PUSH1 0x20 DUP5 ADD CALLDATALOAD PUSH2 0x35B6 DUP2 PUSH2 0x3A3E JUMP JUMPDEST SWAP2 POP PUSH1 0x40 DUP5 ADD CALLDATALOAD PUSH2 0x35C6 DUP2 PUSH2 0x3A3E JUMP JUMPDEST DUP1 SWAP2 POP POP SWAP3 POP SWAP3 POP SWAP3 JUMP JUMPDEST PUSH1 0x0 DUP1 PUSH1 0x0 PUSH1 0x60 DUP5 DUP7 SUB SLT ISZERO PUSH2 0x35E6 JUMPI PUSH1 0x0 DUP1 REVERT JUMPDEST DUP4 CALLDATALOAD PUSH2 0x35F1 DUP2 PUSH2 0x3A29 JUMP JUMPDEST SWAP3 POP PUSH1 0x20 DUP5 ADD CALLDATALOAD SWAP2 POP PUSH1 0x40 DUP5 ADD CALLDATALOAD PUSH2 0x35C6 DUP2 PUSH2 0x3A29 JUMP JUMPDEST PUSH1 0x0 DUP1 PUSH1 0x0 DUP1 PUSH1 0x80 DUP6 DUP8 SUB SLT ISZERO PUSH2 0x361E JUMPI PUSH1 0x0 DUP1 REVERT JUMPDEST DUP5 CALLDATALOAD PUSH2 0x3629 DUP2 PUSH2 0x3A29 JUMP JUMPDEST SWAP4 POP PUSH1 0x20 DUP6 ADD CALLDATALOAD SWAP3 POP PUSH1 0x40 DUP6 ADD CALLDATALOAD SWAP2 POP PUSH1 0x60 DUP6 ADD CALLDATALOAD PUSH2 0x3647 DUP2 PUSH2 0x3A29 JUMP JUMPDEST SWAP4 SWAP7 SWAP3 SWAP6 POP SWAP1 SWAP4 POP POP JUMP JUMPDEST PUSH1 0x0 PUSH1 0x20 DUP3 DUP5 SUB SLT ISZERO PUSH2 0x3664 JUMPI PUSH1 0x0 DUP1 REVERT JUMPDEST DUP2 MLOAD PUSH2 0x329C DUP2 PUSH2 0x3A3E JUMP JUMPDEST PUSH1 0x0 PUSH1 0x20 DUP3 DUP5 SUB SLT ISZERO PUSH2 0x3681 JUMPI PUSH1 0x0 DUP1 REVERT JUMPDEST POP CALLDATALOAD SWAP2 SWAP1 POP JUMP JUMPDEST PUSH1 0x0 PUSH1 0x20 DUP3 DUP5 SUB SLT ISZERO PUSH2 0x369A JUMPI PUSH1 0x0 DUP1 REVERT JUMPDEST POP MLOAD SWAP2 SWAP1 POP JUMP JUMPDEST PUSH1 0x0 DUP1 PUSH1 0x40 DUP4 DUP6 SUB SLT ISZERO PUSH2 0x36B4 JUMPI PUSH1 0x0 DUP1 REVERT JUMPDEST DUP3 CALLDATALOAD SWAP2 POP PUSH1 0x20 DUP4 ADD CALLDATALOAD PUSH2 0x3502 DUP2 PUSH2 0x3A29 JUMP JUMPDEST PUSH1 0x0 DUP1 PUSH1 0x0 DUP1 PUSH1 0x0 DUP1 PUSH1 0xC0 DUP8 DUP10 SUB SLT ISZERO PUSH2 0x36DF JUMPI PUSH1 0x0 DUP1 REVERT JUMPDEST DUP7 CALLDATALOAD SWAP6 POP PUSH1 0x20 DUP8 ADD CALLDATALOAD PUSH2 0x36F1 DUP2 PUSH2 0x3A29 JUMP JUMPDEST SWAP5 POP PUSH1 0x40 DUP8 ADD CALLDATALOAD PUSH2 0x3701 DUP2 PUSH2 0x3A29 JUMP JUMPDEST SWAP4 POP PUSH1 0x60 DUP8 ADD CALLDATALOAD PUSH8 0xFFFFFFFFFFFFFFFF DUP1 DUP3 GT ISZERO PUSH2 0x371E JUMPI PUSH1 0x0 DUP1 REVERT JUMPDEST PUSH2 0x372A DUP11 DUP4 DUP12 ADD PUSH2 0x340D JUMP JUMPDEST SWAP5 POP PUSH1 0x80 DUP10 ADD CALLDATALOAD SWAP2 POP DUP1 DUP3 GT ISZERO PUSH2 0x3740 JUMPI PUSH1 0x0 DUP1 REVERT JUMPDEST POP PUSH2 0x374D DUP10 DUP3 DUP11 ADD PUSH2 0x340D JUMP JUMPDEST SWAP3 POP POP PUSH1 0xA0 DUP8 ADD CALLDATALOAD SWAP1 POP SWAP3 SWAP6 POP SWAP3 SWAP6 POP SWAP3 SWAP6 JUMP JUMPDEST PUSH1 0x0 DUP1 PUSH1 0x40 DUP4 DUP6 SUB SLT ISZERO PUSH2 0x3774 JUMPI PUSH1 0x0 DUP1 REVERT JUMPDEST POP POP DUP1 CALLDATALOAD SWAP3 PUSH1 0x20 SWAP1 SWAP2 ADD CALLDATALOAD SWAP2 POP JUMP JUMPDEST PUSH1 0x0 DUP1 PUSH1 0x0 DUP1 PUSH1 0x0 DUP1 PUSH1 0xC0 DUP8 DUP10 SUB SLT ISZERO PUSH2 0x379C JUMPI PUSH1 0x0 DUP1 REVERT JUMPDEST DUP7 CALLDATALOAD SWAP6 POP PUSH1 0x20 DUP8 ADD CALLDATALOAD SWAP5 POP PUSH1 0x40 DUP8 ADD CALLDATALOAD SWAP4 POP PUSH1 0x60 DUP8 ADD CALLDATALOAD PUSH2 0x37BC DUP2 PUSH2 0x3A29 JUMP JUMPDEST SWAP3 POP PUSH1 0x80 DUP8 ADD CALLDATALOAD PUSH2 0x37CC DUP2 PUSH2 0x3A3E JUMP JUMPDEST SWAP2 POP PUSH1 0xA0 DUP8 ADD CALLDATALOAD PUSH2 0x37DC DUP2 PUSH2 0x3A3E JUMP JUMPDEST DUP1 SWAP2 POP POP SWAP3 SWAP6 POP SWAP3 SWAP6 POP SWAP3 SWAP6 JUMP JUMPDEST PUSH1 0x0 DUP2 MLOAD DUP1 DUP5 MSTORE PUSH2 0x3802 DUP2 PUSH1 0x20 DUP7 ADD PUSH1 0x20 DUP7 ADD PUSH2 0x39A0 JUMP JUMPDEST PUSH1 0x1F ADD PUSH1 0x1F NOT AND SWAP3 SWAP1 SWAP3 ADD PUSH1 0x20 ADD SWAP3 SWAP2 POP POP JUMP JUMPDEST PUSH1 0x0 DUP3 MLOAD PUSH2 0x3828 DUP2 DUP5 PUSH1 0x20 DUP8 ADD PUSH2 0x39A0 JUMP JUMPDEST SWAP2 SWAP1 SWAP2 ADD SWAP3 SWAP2 POP POP JUMP JUMPDEST PUSH1 0x1 PUSH1 0x1 PUSH1 0xA0 SHL SUB SWAP4 DUP5 AND DUP2 MSTORE SWAP2 SWAP1 SWAP3 AND PUSH1 0x20 DUP3 ADD MSTORE PUSH1 0x40 DUP2 ADD SWAP2 SWAP1 SWAP2 MSTORE PUSH1 0x60 ADD SWAP1 JUMP JUMPDEST PUSH1 0x1 PUSH1 0x1 PUSH1 0xA0 SHL SUB SWAP3 SWAP1 SWAP3 AND DUP3 MSTORE PUSH1 0x20 DUP3 ADD MSTORE PUSH1 0x40 ADD SWAP1 JUMP JUMPDEST PUSH1 0x20 DUP2 MSTORE PUSH1 0x0 PUSH2 0x329C PUSH1 0x20 DUP4 ADD DUP5 PUSH2 0x37EA JUMP JUMPDEST PUSH1 0x40 DUP2 MSTORE PUSH1 0x0 PUSH2 0x3895 PUSH1 0x40 DUP4 ADD DUP6 PUSH2 0x37EA JUMP JUMPDEST DUP3 DUP2 SUB PUSH1 0x20 DUP5 ADD MSTORE PUSH2 0x38A7 DUP2 DUP6 PUSH2 0x37EA JUMP JUMPDEST SWAP6 SWAP5 POP POP POP POP POP JUMP JUMPDEST PUSH1 0x20 DUP1 DUP3 MSTORE DUP2 DUP2 ADD MSTORE PUSH32 0x4F776E61626C653A2063616C6C6572206973206E6F7420746865206F776E6572 PUSH1 0x40 DUP3 ADD MSTORE PUSH1 0x60 ADD SWAP1 JUMP JUMPDEST PUSH1 0x20 DUP1 DUP3 MSTORE PUSH1 0x2B SWAP1 DUP3 ADD MSTORE PUSH32 0x496E697469616C697A61626C653A20636F6E7472616374206973206E6F742069 PUSH1 0x40 DUP3 ADD MSTORE PUSH11 0x6E697469616C697A696E67 PUSH1 0xA8 SHL PUSH1 0x60 DUP3 ADD MSTORE PUSH1 0x80 ADD SWAP1 JUMP JUMPDEST PUSH1 0x0 DUP3 NOT DUP3 GT ISZERO PUSH2 0x3943 JUMPI PUSH2 0x3943 PUSH2 0x39E7 JUMP JUMPDEST POP ADD SWAP1 JUMP JUMPDEST PUSH1 0x0 DUP3 PUSH2 0x3965 JUMPI PUSH4 0x4E487B71 PUSH1 0xE0 SHL PUSH1 0x0 MSTORE PUSH1 0x12 PUSH1 0x4 MSTORE PUSH1 0x24 PUSH1 0x0 REVERT JUMPDEST POP DIV SWAP1 JUMP JUMPDEST PUSH1 0x0 DUP2 PUSH1 0x0 NOT DIV DUP4 GT DUP3 ISZERO ISZERO AND ISZERO PUSH2 0x3984 JUMPI PUSH2 0x3984 PUSH2 0x39E7 JUMP JUMPDEST POP MUL SWAP1 JUMP JUMPDEST PUSH1 0x0 DUP3 DUP3 LT ISZERO PUSH2 0x399B JUMPI PUSH2 0x399B PUSH2 0x39E7 JUMP JUMPDEST POP SUB SWAP1 JUMP JUMPDEST PUSH1 0x0 JUMPDEST DUP4 DUP2 LT ISZERO PUSH2 0x39BB JUMPI DUP2 DUP2 ADD MLOAD DUP4 DUP3 ADD MSTORE PUSH1 0x20 ADD PUSH2 0x39A3 JUMP JUMPDEST DUP4 DUP2 GT ISZERO PUSH2 0x22EA JUMPI POP POP PUSH1 0x0 SWAP2 ADD MSTORE JUMP JUMPDEST PUSH1 0x0 PUSH1 0x0 NOT DUP3 EQ ISZERO PUSH2 0x39E0 JUMPI PUSH2 0x39E0 PUSH2 0x39E7 JUMP JUMPDEST POP PUSH1 0x1 ADD SWAP1 JUMP JUMPDEST PUSH4 0x4E487B71 PUSH1 0xE0 SHL PUSH1 0x0 MSTORE PUSH1 0x11 PUSH1 0x4 MSTORE PUSH1 0x24 PUSH1 0x0 REVERT JUMPDEST PUSH4 0x4E487B71 PUSH1 0xE0 SHL PUSH1 0x0 MSTORE PUSH1 0x32 PUSH1 0x4 MSTORE PUSH1 0x24 PUSH1 0x0 REVERT JUMPDEST PUSH4 0x4E487B71 PUSH1 0xE0 SHL PUSH1 0x0 MSTORE PUSH1 0x41 PUSH1 0x4 MSTORE PUSH1 0x24 PUSH1 0x0 REVERT JUMPDEST PUSH1 0x1 PUSH1 0x1 PUSH1 0xA0 SHL SUB DUP2 AND DUP2 EQ PUSH2 0x24AA JUMPI PUSH1 0x0 DUP1 REVERT JUMPDEST DUP1 ISZERO ISZERO DUP2 EQ PUSH2 0x24AA JUMPI PUSH1 0x0 DUP1 REVERT INVALID LOG2 PUSH5 0x6970667358 0x22 SLT KECCAK256 0xEA PUSH19 0x47C2D2F48C5EF097ED83245962CBB93CDB13A6 0xDD 0xCC 0xB5 0xDF MSTORE8 0xC SWAP5 PUSH31 0xDC5BA464736F6C634300080700330000000000000000000000000000000000 ",
  "sha1": "4b6ed7cc88d11cb72f6a422c7b39acea464f307f",
  "source": "// SPDX-License-Identifier: MIT\npragma solidity ^0.8.0;\n\nimport \"./ERC20FactoryLib.sol\";\nimport \"./PoolHelperFactoryLib.sol\";\nimport \"../interfaces/IPTPStaking.sol\";\nimport \"../interfaces/IERC20.sol\";\nimport \"../interfaces/IStableStaking.sol\";\nimport \"../interfaces/IMasterPlatypus.sol\";\nimport \"../interfaces/IBaseRewardPool.sol\";\nimport \"../interfaces/IPoolHelper.sol\";\n\nimport \"../interfaces/IMasterChefVTX.sol\";\nimport \"../interfaces/IxPTP.sol\";\nimport \"../interfaces/IComputeAPR.sol\";\n\nimport \"./transparent_proxy/OwnableUpgradeable.sol\";\nimport \"./transparent_proxy/Initializable.sol\";\n\ncontract MainStaking is Initializable, OwnableUpgradeable {\n    using SafeERC20 for IERC20;\n\n    // Addresses\n    address public staking_ptp;\n    address public ptp;\n    address public xPTP;\n    address public stakingStable;\n    address public masterPlatypus;\n    address public masterVtx;\n    // APR Compute\n    address public computeAPR;\n    // Fees\n    uint256 constant FEE_DENOMINATOR = 10000;\n    uint256 public constant MAX_FEE = 2000;\n    uint256 public CALLER_FEE;\n    uint256 public constant MAX_CALLER_FEE = 500;\n    uint256 public totalFee;\n\n    struct Pair {\n        uint256 tokenAmount0;\n        uint256 tokenAmount1;\n        uint256 ratio;\n    }\n\n    struct Fees {\n        uint256 max_value;\n        uint256 min_value;\n        uint256 value;\n        address to;\n        bool isPTP;\n        bool isAddress;\n        bool isActive;\n    }\n\n    Fees[] public feeInfos;\n\n    struct Pool {\n        uint256 pid;\n        bool isActive;\n        address token;\n        address lpAddress;\n        uint256 sizeLp;\n        uint256 size;\n        address receiptToken;\n        address rewarder;\n        address helper;\n    }\n    mapping(address => Pool) public pools;\n    mapping(address => address) public tokenToAvaxPool;\n\n    event AddFee(address to, uint256 value, bool isPTP, bool isAddress);\n    event SetFee(address to, uint256 value);\n    event RemoveFee(address to);\n    event NewDeposit(\n        address indexed user,\n        address indexed token,\n        uint256 amount\n    );\n    event PtpClaimed(uint256 amount);\n    event PtpHarvested(uint256 amount, uint256 callerFee);\n    event RewardPaidTo(address to, address rewardToken, uint256 feeAmount);\n    event NewWithdraw(\n        address indexed user,\n        address indexed token,\n        uint256 amount\n    );\n    event NewPtpStaked(uint256 amount);\n    event PoolAdded(address tokenAddress);\n\n    function __MainStaking_init(\n        address _ptp,\n        address _staking_ptp,\n        address _stakingStable,\n        address _masterPlatypus,\n        address _masterVtx,\n        uint256 _callerFee\n    ) public initializer {\n        __Ownable_init();\n        staking_ptp = _staking_ptp;\n        // Address of the PTP Token\n        ptp = _ptp;\n        // Address of the Platypus Contract for depositing Stablecoins\n        stakingStable = _stakingStable;\n        // Address of the MasterPlatypus Contract for Staking Stablecoins\n        masterPlatypus = _masterPlatypus;\n        masterVtx = _masterVtx;\n        CALLER_FEE = _callerFee;\n        totalFee = _callerFee;\n    }\n\n    function setXPTP(address _xPTP) external onlyOwner {\n        require(xPTP == address(0), \"xPTP already set\");\n        xPTP = _xPTP;\n    }\n\n    function setComputeAPR(address _computeAPR) external onlyOwner {\n        computeAPR = _computeAPR;\n    }\n\n    function addFee(\n        uint256 max,\n        uint256 min,\n        uint256 value,\n        address to,\n        bool isPTP,\n        bool isAddress\n    ) external onlyOwner {\n        require(totalFee + value <= MAX_FEE, \"Max fee reached\");\n        require(min <= value && value <= max, \"Value not in range\");\n        feeInfos.push(\n            Fees({\n                max_value: max,\n                min_value: min,\n                value: value,\n                to: to,\n                isPTP: isPTP,\n                isAddress: isAddress,\n                isActive: true\n            })\n        );\n        totalFee += value;\n        emit AddFee(to, value, isPTP, isAddress);\n    }\n\n    function setFee(uint256 index, uint256 value) external onlyOwner {\n        Fees storage fee = feeInfos[index];\n        require(\n            fee.min_value <= value && value <= fee.max_value,\n            \"Value not in range\"\n        );\n        require(totalFee + value - fee.value <= MAX_FEE, \"Max fee reached\");\n        totalFee = totalFee - fee.value + value;\n        fee.value = value;\n        emit SetFee(fee.to, value);\n    }\n\n    function removeFee(uint256 index) external onlyOwner {\n        Fees storage fee = feeInfos[index];\n        totalFee -= fee.value;\n        fee.isActive = false;\n        emit RemoveFee(fee.to);\n    }\n\n    function setCallerFee(uint256 value) external onlyOwner {\n        require(value <= MAX_CALLER_FEE, \"Value too high\");\n        // Check if the fee delta does not make the total fee go over the limit\n        totalFee = totalFee + value - CALLER_FEE;\n        require(totalFee <= MAX_FEE, \"MAX Fee reached\");\n        CALLER_FEE = value;\n    }\n\n    function deposit(\n        address token,\n        uint256 amount,\n        address sender\n    ) external {\n        // Get information of the pool of the token\n        Pool storage poolInfo = pools[token];\n        //Requirements\n        require(poolInfo.isActive, \"Pool not active\");\n        require(msg.sender == poolInfo.helper, \"Only helper can deposit\");\n        IERC20(token).safeTransferFrom(sender, address(this), amount);\n        // Deposit to StableStaking Contract\n        IERC20(token).approve(stakingStable, amount);\n        IStableStaking(stakingStable).deposit(\n            token,\n            amount,\n            address(this),\n            block.timestamp\n        );\n        // Approve Transfer to Master Platypus for Staking\n        uint256 lpReceived = IERC20(poolInfo.lpAddress).balanceOf(\n            address(this)\n        );\n        IERC20(poolInfo.lpAddress).approve(masterPlatypus, lpReceived);\n        IMasterPlatypus(masterPlatypus).deposit(poolInfo.pid, lpReceived);\n        // update variables\n        uint256 amountTokenReceipt = getSharesForDepositTokens(amount, token);\n        IERC20(poolInfo.receiptToken).mint(msg.sender, amountTokenReceipt);\n        poolInfo.size += amount;\n        poolInfo.sizeLp += lpReceived;\n        emit NewDeposit(sender, token, amount);\n    }\n\n    function harvest(\n        address token,\n        bool isUser,\n        bool verbose\n    ) public {\n        Pool storage poolInfo = pools[token];\n        require(poolInfo.isActive, \"Pool not active\");\n        uint256 beforeBalance = IERC20(ptp).balanceOf(address(this));\n        IMasterPlatypus(masterPlatypus).deposit(poolInfo.pid, 0); //stock pour la pool chaque reward, vue ?\n        uint256 rewards = IERC20(ptp).balanceOf(address(this)) - beforeBalance;\n        uint256 afterFee = rewards;\n        if (isUser) {\n            uint256 feeAmount = (rewards * CALLER_FEE) / FEE_DENOMINATOR;\n            IERC20(ptp).approve(xPTP, feeAmount);\n            IxPTP(xPTP).deposit(feeAmount);\n            IERC20(xPTP).safeTransfer(msg.sender, feeAmount);\n            afterFee = afterFee - feeAmount;\n        }\n        sendRewards(\n            poolInfo.token,\n            poolInfo.rewarder,\n            rewards,\n            afterFee,\n            verbose\n        );\n        emit PtpHarvested(rewards, rewards - afterFee);\n    }\n\n    function sendRewards(\n        address token,\n        address rewarder,\n        uint256 _amount,\n        uint256 afterFee,\n        bool verbose\n    ) internal {\n        for (uint256 i = 0; i < feeInfos.length; i++) {\n            Fees storage feeInfo = feeInfos[i];\n            if (feeInfo.isActive) {\n                address rewardToken = ptp;\n                uint256 feeAmount = (_amount * feeInfo.value) / FEE_DENOMINATOR;\n                if (!feeInfo.isPTP) {\n                    IERC20(ptp).approve(xPTP, feeAmount);\n                    IxPTP(xPTP).deposit(feeAmount);\n                    rewardToken = xPTP;\n                }\n                if (!feeInfo.isAddress) {\n                    IERC20(rewardToken).approve(feeInfo.to, feeAmount);\n                    IBaseRewardPool(feeInfo.to).queueNewRewards(\n                        feeAmount,\n                        rewardToken\n                    );\n                    if (verbose && !(computeAPR == address(0))) {\n                        IComputeAPR(computeAPR).computeAPR(\n                            token,\n                            IBaseRewardPool(feeInfo.to).getStakingToken(),\n                            rewardToken,\n                            feeAmount,\n                            IBaseRewardPool(feeInfo.to).totalSupply()\n                        );\n                        emit RewardPaidTo(feeInfo.to, rewardToken, feeAmount);\n                    }\n                } else {\n                    ERC20(rewardToken).transfer(feeInfo.to, feeAmount);\n                    emit RewardPaidTo(feeInfo.to, rewardToken, feeAmount);\n                }\n                afterFee -= feeAmount;\n            }\n        }\n        IERC20(ptp).approve(rewarder, afterFee);\n        IBaseRewardPool(rewarder).queueNewRewards(afterFee, ptp);\n        if (verbose && !(computeAPR == address(0))) {\n            Pool storage poolInfo = pools[token];\n            IComputeAPR(computeAPR).computeAPRStable(\n                token,\n                ptp,\n                afterFee,\n                poolInfo.size\n            );\n            emit RewardPaidTo(rewarder, ptp, afterFee);\n        }\n    }\n\n    // In case of an airdrop\n    function sendTokenRewards(address _token, address _rewarder)\n        external\n        onlyOwner\n    {\n        require(_token != ptp, \"not authorized\");\n        require(!pools[_token].isActive, \"Not authorized\");\n        uint256 amount = IERC20(_token).balanceOf(address(this));\n        IERC20(_token).approve(_rewarder, amount);\n        IBaseRewardPool(_rewarder).queueNewRewards(amount, _token);\n    }\n\n    function withdraw(\n        address token,\n        uint256 _amount,\n        uint256 _slippage,\n        address sender\n    ) external {\n        // _amount is the amount of stable\n        require(_slippage <= 100, \"Slippage not in range\");\n        Pool storage poolInfo = pools[token];\n        require(msg.sender == poolInfo.helper, \"Only helper can withdraw\");\n        uint256 sharesAmount = getSharesForDepositTokens(_amount, token);\n        uint256 lpAmount = getLPTokensForShares(sharesAmount, token);\n        IERC20(poolInfo.receiptToken).burn(msg.sender, sharesAmount);\n        IERC20(poolInfo.lpAddress).approve(stakingStable, lpAmount);\n        IMasterPlatypus(masterPlatypus).withdraw(poolInfo.pid, lpAmount);\n        uint256 beforeWithdraw = IERC20(token).balanceOf(address(this));\n        IStableStaking(stakingStable).withdraw(\n            token,\n            lpAmount,\n            (_amount * _slippage) / 100, // SLIPPAGE\n            address(this),\n            block.timestamp\n        );\n\n        poolInfo.size -= _amount;\n        poolInfo.sizeLp -= lpAmount;\n\n        IERC20(token).safeTransfer(\n            sender,\n            IERC20(token).balanceOf(address(this)) - beforeWithdraw\n        );\n        emit NewWithdraw(sender, token, _amount);\n    }\n\n    function stakePTP(uint256 amount) public {\n        if (amount > 0) {\n            IERC20(ptp).approve(staking_ptp, amount);\n            IPTPStaking(staking_ptp).deposit(amount);\n        }\n        claimPTP();\n        emit NewPtpStaked(amount);\n    }\n\n    function stakeAllPtp() public {\n        stakePTP(IERC20(ptp).balanceOf(address(this)));\n    }\n\n    function claimPTP() public {\n        uint256 amount = IPTPStaking(staking_ptp).getStakedPtp(address(this));\n        if (amount > 0) {\n            IPTPStaking(staking_ptp).claim();\n        }\n        emit PtpClaimed(amount);\n    }\n\n    function claimdAndStakePTP() external {\n        claimPTP();\n        stakeAllPtp();\n    }\n\n    function getStakedPtp() external view returns (uint256) {\n        return IPTPStaking(staking_ptp).getStakedPtp(address(this));\n    }\n\n    function getVePtp() external view returns (uint256) {\n        return IERC20(staking_ptp).balanceOf(address(this));\n    }\n\n    /**\n     * @notice Calculate deposit tokens for a given amount of receipt tokens\n     * @param amount receipt tokens\n     * @return deposit tokens\n     */\n    function getLPTokensForShares(uint256 amount, address token)\n        public\n        view\n        returns (uint256)\n    {\n        Pool storage poolInfo = pools[token];\n        uint256 totalDeposits = poolInfo.sizeLp;\n        uint256 totalSupply = IERC20(poolInfo.receiptToken).totalSupply();\n        if (totalSupply * totalDeposits == 0) {\n            return 0;\n        }\n        return (amount * totalDeposits) / totalSupply;\n    }\n\n    function getSharesForDepositTokens(uint256 amount, address token)\n        public\n        view\n        returns (uint256)\n    {\n        Pool storage poolInfo = pools[token];\n        uint256 totalDeposits = poolInfo.size;\n        uint256 totalSupply = IERC20(poolInfo.receiptToken).totalSupply();\n\n        if (totalSupply * totalDeposits == 0) {\n            return amount;\n        }\n        return (amount * totalSupply) / totalDeposits;\n    }\n\n    /**\n     * @notice Calculate deposit tokens for a given amount of receipt tokens\n     * @param amount receipt tokens\n     * @return deposit tokens\n     */\n    function getDepositTokensForShares(uint256 amount, address token)\n        public\n        view\n        returns (uint256)\n    {\n        Pool storage poolInfo = pools[token];\n        uint256 totalDeposits = poolInfo.size;\n        uint256 totalSupply = IERC20(poolInfo.receiptToken).totalSupply();\n        if (totalSupply * totalDeposits == 0) {\n            return 0;\n        }\n        return (amount * totalDeposits) / totalSupply;\n    }\n\n    function registerPool(\n        uint256 _pid,\n        address _token,\n        address _lpAddress,\n        string memory receiptName,\n        string memory receiptSymbol,\n        uint256 allocPoints\n    ) external onlyOwner {\n        require(\n            pools[_token].isActive == false,\n            \"Pool is already registered or active\"\n        );\n        IERC20 newToken = IERC20(\n            ERC20FactoryLib.createERC20(receiptName, receiptSymbol)\n        );\n        address rewarder = IMasterChefVTX(masterVtx).createRewarder(\n            address(newToken),\n            address(ptp)\n        );\n        IPoolHelper helper = IPoolHelper(\n            PoolHelperFactoryLib.createPoolHelper(\n                _pid,\n                address(newToken),\n                address(_token),\n                address(this),\n                address(masterVtx),\n                address(rewarder),\n                address(xPTP)\n            )\n        );\n        IMasterChefVTX(masterVtx).add(\n            allocPoints,\n            address(newToken),\n            address(rewarder),\n            address(helper)\n        );\n        pools[_token] = Pool({\n            pid: _pid,\n            isActive: true,\n            token: _token,\n            lpAddress: _lpAddress,\n            sizeLp: 0,\n            size: 0,\n            receiptToken: address(newToken),\n            rewarder: address(rewarder),\n            helper: address(helper)\n        });\n        emit PoolAdded(_token);\n    }\n\n    function getPoolInfo(address _address)\n        external\n        view\n        returns (\n            uint256 pid,\n            bool isActive,\n            address token,\n            address lp,\n            uint256 sizeLp,\n            address receipt,\n            uint256 size,\n            address rewards_addr,\n            address helper\n        )\n    {\n        Pool storage tokenInfo = pools[_address];\n        pid = tokenInfo.pid;\n        isActive = tokenInfo.isActive;\n        token = tokenInfo.token;\n        lp = tokenInfo.lpAddress;\n        sizeLp = tokenInfo.sizeLp;\n        receipt = tokenInfo.receiptToken;\n        size = tokenInfo.size;\n        rewards_addr = tokenInfo.rewarder;\n        helper = tokenInfo.helper;\n    }\n\n    function removePool(address token) external onlyOwner {\n        pools[token].isActive = false;\n    }\n\n    uint256[40] private __gap;\n}\n",
  "sourcePath": "contracts/MainStaking.sol",
  "type": "contract"
}