{
  "abi": [
    {
      "inputs": [
        {
          "internalType": "address",
          "name": "_xptp",
          "type": "address"
        },
        {
          "internalType": "address",
          "name": "_ptp",
          "type": "address"
        },
        {
          "internalType": "address",
          "name": "_router",
          "type": "address"
        },
        {
          "internalType": "address",
          "name": "_pair",
          "type": "address"
        }
      ],
      "stateMutability": "nonpayable",
      "type": "constructor"
    },
    {
      "anonymous": false,
      "inputs": [
        {
          "indexed": true,
          "internalType": "address",
          "name": "previousOwner",
          "type": "address"
        },
        {
          "indexed": true,
          "internalType": "address",
          "name": "newOwner",
          "type": "address"
        }
      ],
      "name": "OwnershipTransferred",
      "type": "event"
    },
    {
      "anonymous": false,
      "inputs": [
        {
          "indexed": false,
          "internalType": "address",
          "name": "user",
          "type": "address"
        },
        {
          "indexed": false,
          "internalType": "uint256",
          "name": "depositedPTP",
          "type": "uint256"
        },
        {
          "indexed": false,
          "internalType": "uint256",
          "name": "obtainedxPTP",
          "type": "uint256"
        }
      ],
      "name": "xPTPObtained",
      "type": "event"
    },
    {
      "inputs": [],
      "name": "DENOMINATOR",
      "outputs": [
        {
          "internalType": "uint256",
          "name": "",
          "type": "uint256"
        }
      ],
      "stateMutability": "view",
      "type": "function"
    },
    {
      "inputs": [],
      "name": "buyPercent",
      "outputs": [
        {
          "internalType": "uint256",
          "name": "",
          "type": "uint256"
        }
      ],
      "stateMutability": "view",
      "type": "function"
    },
    {
      "inputs": [],
      "name": "buyThreshold",
      "outputs": [
        {
          "internalType": "uint256",
          "name": "",
          "type": "uint256"
        }
      ],
      "stateMutability": "view",
      "type": "function"
    },
    {
      "inputs": [],
      "name": "deltaPercentage",
      "outputs": [
        {
          "internalType": "uint256",
          "name": "",
          "type": "uint256"
        }
      ],
      "stateMutability": "view",
      "type": "function"
    },
    {
      "inputs": [
        {
          "internalType": "uint256",
          "name": "_amount",
          "type": "uint256"
        }
      ],
      "name": "deposit",
      "outputs": [
        {
          "internalType": "uint256",
          "name": "obtainedxPtpAmount",
          "type": "uint256"
        }
      ],
      "stateMutability": "nonpayable",
      "type": "function"
    },
    {
      "inputs": [
        {
          "internalType": "uint256",
          "name": "_amount",
          "type": "uint256"
        },
        {
          "internalType": "address",
          "name": "_for",
          "type": "address"
        }
      ],
      "name": "depositFor",
      "outputs": [
        {
          "internalType": "uint256",
          "name": "obtainedxPtpAmount",
          "type": "uint256"
        }
      ],
      "stateMutability": "nonpayable",
      "type": "function"
    },
    {
      "inputs": [
        {
          "internalType": "uint256",
          "name": "amountSold",
          "type": "uint256"
        }
      ],
      "name": "estimateOutAmount",
      "outputs": [
        {
          "internalType": "uint256",
          "name": "amountOut",
          "type": "uint256"
        }
      ],
      "stateMutability": "view",
      "type": "function"
    },
    {
      "inputs": [
        {
          "internalType": "uint256",
          "name": "_amount",
          "type": "uint256"
        }
      ],
      "name": "estimateTotalConversion",
      "outputs": [
        {
          "internalType": "uint256",
          "name": "minimumEstimatedTotal",
          "type": "uint256"
        }
      ],
      "stateMutability": "view",
      "type": "function"
    },
    {
      "inputs": [],
      "name": "getxPTPRatio",
      "outputs": [
        {
          "internalType": "uint256",
          "name": "xPTPRatio",
          "type": "uint256"
        }
      ],
      "stateMutability": "view",
      "type": "function"
    },
    {
      "inputs": [],
      "name": "maxAmountToBuy",
      "outputs": [
        {
          "internalType": "uint256",
          "name": "",
          "type": "uint256"
        }
      ],
      "stateMutability": "view",
      "type": "function"
    },
    {
      "inputs": [],
      "name": "owner",
      "outputs": [
        {
          "internalType": "address",
          "name": "",
          "type": "address"
        }
      ],
      "stateMutability": "view",
      "type": "function"
    },
    {
      "inputs": [],
      "name": "pair",
      "outputs": [
        {
          "internalType": "address",
          "name": "",
          "type": "address"
        }
      ],
      "stateMutability": "view",
      "type": "function"
    },
    {
      "inputs": [],
      "name": "ptp",
      "outputs": [
        {
          "internalType": "address",
          "name": "",
          "type": "address"
        }
      ],
      "stateMutability": "view",
      "type": "function"
    },
    {
      "inputs": [],
      "name": "renounceOwnership",
      "outputs": [],
      "stateMutability": "nonpayable",
      "type": "function"
    },
    {
      "inputs": [],
      "name": "router",
      "outputs": [
        {
          "internalType": "address",
          "name": "",
          "type": "address"
        }
      ],
      "stateMutability": "view",
      "type": "function"
    },
    {
      "inputs": [
        {
          "internalType": "uint256",
          "name": "newValue",
          "type": "uint256"
        }
      ],
      "name": "setBuyPercent",
      "outputs": [],
      "stateMutability": "nonpayable",
      "type": "function"
    },
    {
      "inputs": [
        {
          "internalType": "uint256",
          "name": "newValue",
          "type": "uint256"
        }
      ],
      "name": "setBuyThreshold",
      "outputs": [],
      "stateMutability": "nonpayable",
      "type": "function"
    },
    {
      "inputs": [
        {
          "internalType": "uint256",
          "name": "newValue",
          "type": "uint256"
        }
      ],
      "name": "setDeltaPercentage",
      "outputs": [],
      "stateMutability": "nonpayable",
      "type": "function"
    },
    {
      "inputs": [
        {
          "internalType": "uint256",
          "name": "newValue",
          "type": "uint256"
        }
      ],
      "name": "setSlippage",
      "outputs": [],
      "stateMutability": "nonpayable",
      "type": "function"
    },
    {
      "inputs": [],
      "name": "slippagePct",
      "outputs": [
        {
          "internalType": "uint256",
          "name": "",
          "type": "uint256"
        }
      ],
      "stateMutability": "view",
      "type": "function"
    },
    {
      "inputs": [
        {
          "internalType": "address",
          "name": "newOwner",
          "type": "address"
        }
      ],
      "name": "transferOwnership",
      "outputs": [],
      "stateMutability": "nonpayable",
      "type": "function"
    },
    {
      "inputs": [],
      "name": "xptp",
      "outputs": [
        {
          "internalType": "address",
          "name": "",
          "type": "address"
        }
      ],
      "stateMutability": "view",
      "type": "function"
    }
  ],
  "bytecode": "61010060405261251c6003556101f46004553480156200001e57600080fd5b5060405162001c1838038062001c188339810160408190526200004191620000e9565b6200004c336200007c565b6001600160601b0319606094851b811660805292841b831660a05290831b821660c05290911b1660e05262000146565b600080546001600160a01b038381166001600160a01b0319831681178455604051919092169283917f8be0079c531659141344cd1fd0a4f28419497f9722a3daafe3b4186f6b6457e09190a35050565b80516001600160a01b0381168114620000e457600080fd5b919050565b600080600080608085870312156200010057600080fd5b6200010b85620000cc565b93506200011b60208601620000cc565b92506200012b60408601620000cc565b91506200013b60608601620000cc565b905092959194509250565b60805160601c60a05160601c60c05160601c60e05160601c6119eb6200022d600039600081816102310152818161033e01528181610412015281816104e7015281816105d6015281816106a80152818161096c0152610a3e0152600081816102b60152818161076a0152818161081701528181610dcc0152610ebc0152600081816101e801528181610d1401528181610dab01528181610e14015261101f015260008181610185015281816103e8015281816104bd0152818161067e01528181610a1401528181610e68015281816110400152818161107b01526110ec01526119eb6000f3fe608060405234801561001057600080fd5b50600436106101125760003560e01c80630bdcd8fb14610117578063170f06711461012c5780631e828d951461014757806334e66b381461015a57806336efd16f1461016d578063383d78e01461018057806342ebbe1c146101bf5780634f1455c9146101c7578063512b466a146101d05780636af66772146101e3578063715018a61461020a5780638da5cb5b14610212578063918f86741461021a578063a082ccd014610223578063a8aa1b311461022c578063b6b55f2514610253578063b84f7e5314610266578063c2f5d97e14610279578063f0fa55a914610282578063f13cff4114610295578063f2fde38b1461029e578063f887ea40146102b1575b600080fd5b61012a61012536600461172c565b6102d8565b005b610134610337565b6040519081526020015b60405180910390f35b61013461015536600461172c565b6105cf565b61013461016836600461172c565b6108a3565b61013461017b36600461175e565b610952565b6101a77f000000000000000000000000000000000000000000000000000000000000000081565b6040516001600160a01b03909116815260200161013e565b610134610965565b61013460025481565b61012a6101de36600461172c565b610b07565b6101a77f000000000000000000000000000000000000000000000000000000000000000081565b61012a610b5d565b6101a7610b98565b61013461271081565b61013460045481565b6101a77f000000000000000000000000000000000000000000000000000000000000000081565b61013461026136600461172c565b610ba7565b61012a61027436600461172c565b610bb9565b61013460035481565b61012a61029036600461172c565b610c0f565b61013460015481565b61012a6102ac3660046115bc565b610c65565b6101a77f000000000000000000000000000000000000000000000000000000000000000081565b336102e1610b98565b6001600160a01b0316146103105760405162461bcd60e51b81526004016103079061181c565b60405180910390fd5b6127108111156103325760405162461bcd60e51b8152600401610307906117f6565b600255565b60008060007f00000000000000000000000000000000000000000000000000000000000000006001600160a01b0316630902f1ac6040518163ffffffff1660e01b815260040160606040518083038186803b15801561039557600080fd5b505afa1580156103a9573d6000803e3d6000fd5b505050506040513d601f19601f820116820180604052508101906103cd91906116dc565b506001600160701b031691506001600160701b0316915060007f00000000000000000000000000000000000000000000000000000000000000006001600160a01b03167f00000000000000000000000000000000000000000000000000000000000000006001600160a01b0316630dfe16816040518163ffffffff1660e01b815260040160206040518083038186803b15801561046957600080fd5b505afa15801561047d573d6000803e3d6000fd5b505050506040513d601f19601f820116820180604052508101906104a191906115d9565b6001600160a01b0316146104b557816104b7565b825b905060007f00000000000000000000000000000000000000000000000000000000000000006001600160a01b03167f00000000000000000000000000000000000000000000000000000000000000006001600160a01b0316630dfe16816040518163ffffffff1660e01b815260040160206040518083038186803b15801561053e57600080fd5b505afa158015610552573d6000803e3d6000fd5b505050506040513d601f19601f8201168201806040525081019061057691906115d9565b6001600160a01b03161461058a578361058c565b825b9050818111156105a157600094505050505090565b600354612710906105b2838561191b565b6105bc91906118fc565b6105c691906118da565b94505050505090565b60008060007f00000000000000000000000000000000000000000000000000000000000000006001600160a01b0316630902f1ac6040518163ffffffff1660e01b815260040160606040518083038186803b15801561062d57600080fd5b505afa158015610641573d6000803e3d6000fd5b505050506040513d601f19601f8201168201806040525081019061066591906116dc565b506001600160701b031691506001600160701b031691507f00000000000000000000000000000000000000000000000000000000000000006001600160a01b03167f00000000000000000000000000000000000000000000000000000000000000006001600160a01b031663d21220a76040518163ffffffff1660e01b815260040160206040518083038186803b1580156106ff57600080fd5b505afa158015610713573d6000803e3d6000fd5b505050506040513d601f19601f8201168201806040525081019061073791906115d9565b6001600160a01b031614156107f357604051630153543560e21b81526004810185905260248101839052604481018290527f00000000000000000000000000000000000000000000000000000000000000006001600160a01b03169063054d50d49060640160206040518083038186803b1580156107b457600080fd5b505afa1580156107c8573d6000803e3d6000fd5b505050506040513d601f19601f820116820180604052508101906107ec9190611745565b925061089c565b604051630153543560e21b81526004810185905260248101829052604481018390527f00000000000000000000000000000000000000000000000000000000000000006001600160a01b03169063054d50d49060640160206040518083038186803b15801561086157600080fd5b505afa158015610875573d6000803e3d6000fd5b505050506040513d601f19601f820116820180604052508101906108999190611745565b92505b5050919050565b6000806108ae610965565b9050829150600154811161094c576000612710600254846108cf91906118fc565b6108d991906118da565b905060006108e5610337565b9050808211156108f3578091505b60006108fe836105cf565b90508083101561094857610912838661191b565b9450612710600454612710610927919061191b565b61093190836118fc565b61093b91906118da565b61094590866118c2565b94505b5050505b50919050565b600061095e8383610d05565b9392505050565b60008060007f00000000000000000000000000000000000000000000000000000000000000006001600160a01b0316630902f1ac6040518163ffffffff1660e01b815260040160606040518083038186803b1580156109c357600080fd5b505afa1580156109d7573d6000803e3d6000fd5b505050506040513d601f19601f820116820180604052508101906109fb91906116dc565b506001600160701b031691506001600160701b031691507f00000000000000000000000000000000000000000000000000000000000000006001600160a01b03167f00000000000000000000000000000000000000000000000000000000000000006001600160a01b0316630dfe16816040518163ffffffff1660e01b815260040160206040518083038186803b158015610a9557600080fd5b505afa158015610aa9573d6000803e3d6000fd5b505050506040513d601f19601f82011682018060405250810190610acd91906115d9565b6001600160a01b03161415610afa5781610ae9612710836118fc565b610af391906118da565b9250505090565b80610ae9612710846118fc565b33610b10610b98565b6001600160a01b031614610b365760405162461bcd60e51b81526004016103079061181c565b612710811115610b585760405162461bcd60e51b8152600401610307906117f6565b600155565b33610b66610b98565b6001600160a01b031614610b8c5760405162461bcd60e51b81526004016103079061181c565b610b966000611167565b565b6000546001600160a01b031690565b6000610bb38233610d05565b92915050565b33610bc2610b98565b6001600160a01b031614610be85760405162461bcd60e51b81526004016103079061181c565b612710811115610c0a5760405162461bcd60e51b8152600401610307906117f6565b600355565b33610c18610b98565b6001600160a01b031614610c3e5760405162461bcd60e51b81526004016103079061181c565b612710811115610c605760405162461bcd60e51b8152600401610307906117f6565b600455565b33610c6e610b98565b6001600160a01b031614610c945760405162461bcd60e51b81526004016103079061181c565b6001600160a01b038116610cf95760405162461bcd60e51b815260206004820152602660248201527f4f776e61626c653a206e6577206f776e657220697320746865207a65726f206160448201526564647265737360d01b6064820152608401610307565b610d0281611167565b50565b6000610d3c6001600160a01b037f0000000000000000000000000000000000000000000000000000000000000000163330866111b7565b6000610d46610965565b6001549091508490821161100857600061271060025483610d6791906118fc565b610d7191906118da565b90506000610d7d610337565b905080821115610d8b578091505b8115611005576000610d9c836105cf565b90508083101561100357610df17f00000000000000000000000000000000000000000000000000000000000000007f000000000000000000000000000000000000000000000000000000000000000085611228565b6040805160028082526060820183526000926020830190803683370190505090507f000000000000000000000000000000000000000000000000000000000000000081600081518110610e4657610e46611974565b60200260200101906001600160a01b031690816001600160a01b0316815250507f000000000000000000000000000000000000000000000000000000000000000081600181518110610e9a57610e9a611974565b60200260200101906001600160a01b031690816001600160a01b0316815250507f00000000000000000000000000000000000000000000000000000000000000006001600160a01b03166338ed173985612710600454612710610efd919061191b565b610f0790876118fc565b610f1191906118da565b848c426040518663ffffffff1660e01b8152600401610f34959493929190611851565b600060405180830381600087803b158015610f4e57600080fd5b505af1158015610f62573d6000803e3d6000fd5b505050506040513d6000823e601f3d908101601f19168201604052610f8a91908101906115f6565b600181518110610f9c57610f9c611974565b60200260200101519650838711610ff55760405162461bcd60e51b815260206004820152601e60248201527f5472616e73616374696f6e20697320646973616476616e746167656f757300006044820152606401610307565b610fff848661191b565b9450505b505b50505b80156111155761101881846118c2565b92506110657f00000000000000000000000000000000000000000000000000000000000000007f000000000000000000000000000000000000000000000000000000000000000083611228565b60405163b6b55f2560e01b8152600481018290527f00000000000000000000000000000000000000000000000000000000000000006001600160a01b03169063b6b55f2590602401600060405180830381600087803b1580156110c757600080fd5b505af11580156110db573d6000803e3d6000fd5b506111159250506001600160a01b037f00000000000000000000000000000000000000000000000000000000000000001690508583611337565b604080516001600160a01b0386168152602081018790529081018490527fa91037ba08e3c8b150648a5ad60512dcede6ff057dfb3cb89bbdf11ed528f42c9060600160405180910390a1505092915050565b600080546001600160a01b038381166001600160a01b0319831681178455604051919092169283917f8be0079c531659141344cd1fd0a4f28419497f9722a3daafe3b4186f6b6457e09190a35050565b6040516001600160a01b03808516602483015283166044820152606481018290526112229085906323b872dd60e01b906084015b60408051601f198184030181529190526020810180516001600160e01b03166001600160e01b031990931692909217909152611356565b50505050565b604051636eb1769f60e11b81523060048201526001600160a01b03838116602483015282919085169063dd62ed3e9060440160206040518083038186803b15801561127257600080fd5b505afa158015611286573d6000803e3d6000fd5b505050506040513d601f19601f820116820180604052508101906112aa9190611745565b10156113325760405163095ea7b360e01b81526001600160a01b0384169063095ea7b3906112e0908590600019906004016117aa565b602060405180830381600087803b1580156112fa57600080fd5b505af115801561130e573d6000803e3d6000fd5b505050506040513d601f19601f8201168201806040525081019061122291906116ba565b505050565b6113328363a9059cbb60e01b84846040516024016111eb9291906117aa565b60006113ab826040518060400160405280602081526020017f5361666545524332303a206c6f772d6c6576656c2063616c6c206661696c6564815250856001600160a01b03166114289092919063ffffffff16565b80519091501561133257808060200190518101906113c991906116ba565b6113325760405162461bcd60e51b815260206004820152602a60248201527f5361666545524332303a204552433230206f7065726174696f6e20646964206e6044820152691bdd081cdd58d8d9595960b21b6064820152608401610307565b6060611437848460008561143f565b949350505050565b6060824710156114a05760405162461bcd60e51b815260206004820152602660248201527f416464726573733a20696e73756666696369656e742062616c616e636520666f6044820152651c8818d85b1b60d21b6064820152608401610307565b843b6114ee5760405162461bcd60e51b815260206004820152601d60248201527f416464726573733a2063616c6c20746f206e6f6e2d636f6e74726163740000006044820152606401610307565b600080866001600160a01b0316858760405161150a919061178e565b60006040518083038185875af1925050503d8060008114611547576040519150601f19603f3d011682016040523d82523d6000602084013e61154c565b606091505b509150915061155c828286611567565b979650505050505050565b6060831561157657508161095e565b8251156115865782518084602001fd5b8160405162461bcd60e51b815260040161030791906117c3565b80516001600160701b03811681146115b757600080fd5b919050565b6000602082840312156115ce57600080fd5b813561095e816119a0565b6000602082840312156115eb57600080fd5b815161095e816119a0565b6000602080838503121561160957600080fd5b82516001600160401b038082111561162057600080fd5b818501915085601f83011261163457600080fd5b8151818111156116465761164661198a565b8060051b604051601f19603f8301168101818110858211171561166b5761166b61198a565b604052828152858101935084860182860187018a101561168a57600080fd5b600095505b838610156116ad57805185526001959095019493860193860161168f565b5098975050505050505050565b6000602082840312156116cc57600080fd5b8151801515811461095e57600080fd5b6000806000606084860312156116f157600080fd5b6116fa846115a0565b9250611708602085016115a0565b9150604084015163ffffffff8116811461172157600080fd5b809150509250925092565b60006020828403121561173e57600080fd5b5035919050565b60006020828403121561175757600080fd5b5051919050565b6000806040838503121561177157600080fd5b823591506020830135611783816119a0565b809150509250929050565b600082516117a0818460208701611932565b9190910192915050565b6001600160a01b03929092168252602082015260400190565b60208152600082518060208401526117e2816040850160208701611932565b601f01601f19169190910160400192915050565b6020808252600c908201526b4e6f7420696e2072616e676560a01b604082015260600190565b6020808252818101527f4f776e61626c653a2063616c6c6572206973206e6f7420746865206f776e6572604082015260600190565b600060a082018783526020878185015260a0604085015281875180845260c086019150828901935060005b818110156118a15784516001600160a01b03168352938301939183019160010161187c565b50506001600160a01b03969096166060850152505050608001529392505050565b600082198211156118d5576118d561195e565b500190565b6000826118f757634e487b7160e01b600052601260045260246000fd5b500490565b60008160001904831182151516156119165761191661195e565b500290565b60008282101561192d5761192d61195e565b500390565b60005b8381101561194d578181015183820152602001611935565b838111156112225750506000910152565b634e487b7160e01b600052601160045260246000fd5b634e487b7160e01b600052603260045260246000fd5b634e487b7160e01b600052604160045260246000fd5b6001600160a01b0381168114610d0257600080fdfea264697066735822122018cacff02a563d0a37874be5572682846d2bdc092ca035e4534ea1d57baab20664736f6c63430008070033",
  "bytecodeSha1": "0c93cd5a9788c58fb3816996c3e123f75bae7a92",
  "compiler": {
    "evm_version": "istanbul",
    "optimizer": {
      "enabled": true,
      "runs": 10
    },
    "version": "0.8.7+commit.e28d00a7"
  },
  "contractName": "xPTPConvertor",
  "language": "Solidity",
  "natspec": {
    "author": "Vector Team",
    "kind": "dev",
    "methods": {
      "deposit(uint256)": {
        "details": "if xPTPRation < buyThreshold, will buy in open market a % of the depositthis % is determined by buyPercent",
        "notice": "deposit PTP in vector protocol and get xPTP",
        "params": {
          "_amount": "the amount of PTP"
        }
      },
      "depositFor(uint256,address)": {
        "details": "if xPTPRation < buyThreshold, will buy in open market a % of the depositthis % is determined by buyPercent",
        "notice": "deposit PTP in vector protocol and get xPTP",
        "params": {
          "_amount": "the amount of PTP"
        }
      },
      "estimateOutAmount(uint256)": {
        "notice": "estimates the amount of xPTP recieved if bought on traderJoe"
      },
      "estimateTotalConversion(uint256)": {
        "details": "if xPTPRation < buyThreshold, will buy in open market a % of the depositthis % is determined by buyPercent",
        "notice": "deposit PTP in vector protocol and get xPTP",
        "params": {
          "_amount": "the amount of PTP"
        }
      },
      "getxPTPRatio()": {
        "notice": "returns the ratio between xPTP and PTP. 10000= 1:1 rate"
      },
      "owner()": {
        "details": "Returns the address of the current owner."
      },
      "renounceOwnership()": {
        "details": "Leaves the contract without owner. It will not be possible to call `onlyOwner` functions anymore. Can only be called by the current owner. NOTE: Renouncing ownership will leave the contract without an owner, thereby removing any functionality that is only available to the owner."
      },
      "transferOwnership(address)": {
        "details": "Transfers ownership of the contract to a new account (`newOwner`). Can only be called by the current owner."
      }
    },
    "notice": "Smart Convertor is a convertor to manage conversion or buying on trader Joe",
    "title": "Smart Convertor",
    "version": 1
  },
  "opcodes": "PUSH1 0x80 PUSH1 0x40 MSTORE CALLVALUE DUP1 ISZERO PUSH2 0x10 JUMPI PUSH1 0x0 DUP1 REVERT JUMPDEST POP PUSH1 0x4 CALLDATASIZE LT PUSH2 0x112 JUMPI PUSH1 0x0 CALLDATALOAD PUSH1 0xE0 SHR DUP1 PUSH4 0xBDCD8FB EQ PUSH2 0x117 JUMPI DUP1 PUSH4 0x170F0671 EQ PUSH2 0x12C JUMPI DUP1 PUSH4 0x1E828D95 EQ PUSH2 0x147 JUMPI DUP1 PUSH4 0x34E66B38 EQ PUSH2 0x15A JUMPI DUP1 PUSH4 0x36EFD16F EQ PUSH2 0x16D JUMPI DUP1 PUSH4 0x383D78E0 EQ PUSH2 0x180 JUMPI DUP1 PUSH4 0x42EBBE1C EQ PUSH2 0x1BF JUMPI DUP1 PUSH4 0x4F1455C9 EQ PUSH2 0x1C7 JUMPI DUP1 PUSH4 0x512B466A EQ PUSH2 0x1D0 JUMPI DUP1 PUSH4 0x6AF66772 EQ PUSH2 0x1E3 JUMPI DUP1 PUSH4 0x715018A6 EQ PUSH2 0x20A JUMPI DUP1 PUSH4 0x8DA5CB5B EQ PUSH2 0x212 JUMPI DUP1 PUSH4 0x918F8674 EQ PUSH2 0x21A JUMPI DUP1 PUSH4 0xA082CCD0 EQ PUSH2 0x223 JUMPI DUP1 PUSH4 0xA8AA1B31 EQ PUSH2 0x22C JUMPI DUP1 PUSH4 0xB6B55F25 EQ PUSH2 0x253 JUMPI DUP1 PUSH4 0xB84F7E53 EQ PUSH2 0x266 JUMPI DUP1 PUSH4 0xC2F5D97E EQ PUSH2 0x279 JUMPI DUP1 PUSH4 0xF0FA55A9 EQ PUSH2 0x282 JUMPI DUP1 PUSH4 0xF13CFF41 EQ PUSH2 0x295 JUMPI DUP1 PUSH4 0xF2FDE38B EQ PUSH2 0x29E JUMPI DUP1 PUSH4 0xF887EA40 EQ PUSH2 0x2B1 JUMPI JUMPDEST PUSH1 0x0 DUP1 REVERT JUMPDEST PUSH2 0x12A PUSH2 0x125 CALLDATASIZE PUSH1 0x4 PUSH2 0x172C JUMP JUMPDEST PUSH2 0x2D8 JUMP JUMPDEST STOP JUMPDEST PUSH2 0x134 PUSH2 0x337 JUMP JUMPDEST PUSH1 0x40 MLOAD SWAP1 DUP2 MSTORE PUSH1 0x20 ADD JUMPDEST PUSH1 0x40 MLOAD DUP1 SWAP2 SUB SWAP1 RETURN JUMPDEST PUSH2 0x134 PUSH2 0x155 CALLDATASIZE PUSH1 0x4 PUSH2 0x172C JUMP JUMPDEST PUSH2 0x5CF JUMP JUMPDEST PUSH2 0x134 PUSH2 0x168 CALLDATASIZE PUSH1 0x4 PUSH2 0x172C JUMP JUMPDEST PUSH2 0x8A3 JUMP JUMPDEST PUSH2 0x134 PUSH2 0x17B CALLDATASIZE PUSH1 0x4 PUSH2 0x175E JUMP JUMPDEST PUSH2 0x952 JUMP JUMPDEST PUSH2 0x1A7 PUSH32 0x0 DUP2 JUMP JUMPDEST PUSH1 0x40 MLOAD PUSH1 0x1 PUSH1 0x1 PUSH1 0xA0 SHL SUB SWAP1 SWAP2 AND DUP2 MSTORE PUSH1 0x20 ADD PUSH2 0x13E JUMP JUMPDEST PUSH2 0x134 PUSH2 0x965 JUMP JUMPDEST PUSH2 0x134 PUSH1 0x2 SLOAD DUP2 JUMP JUMPDEST PUSH2 0x12A PUSH2 0x1DE CALLDATASIZE PUSH1 0x4 PUSH2 0x172C JUMP JUMPDEST PUSH2 0xB07 JUMP JUMPDEST PUSH2 0x1A7 PUSH32 0x0 DUP2 JUMP JUMPDEST PUSH2 0x12A PUSH2 0xB5D JUMP JUMPDEST PUSH2 0x1A7 PUSH2 0xB98 JUMP JUMPDEST PUSH2 0x134 PUSH2 0x2710 DUP2 JUMP JUMPDEST PUSH2 0x134 PUSH1 0x4 SLOAD DUP2 JUMP JUMPDEST PUSH2 0x1A7 PUSH32 0x0 DUP2 JUMP JUMPDEST PUSH2 0x134 PUSH2 0x261 CALLDATASIZE PUSH1 0x4 PUSH2 0x172C JUMP JUMPDEST PUSH2 0xBA7 JUMP JUMPDEST PUSH2 0x12A PUSH2 0x274 CALLDATASIZE PUSH1 0x4 PUSH2 0x172C JUMP JUMPDEST PUSH2 0xBB9 JUMP JUMPDEST PUSH2 0x134 PUSH1 0x3 SLOAD DUP2 JUMP JUMPDEST PUSH2 0x12A PUSH2 0x290 CALLDATASIZE PUSH1 0x4 PUSH2 0x172C JUMP JUMPDEST PUSH2 0xC0F JUMP JUMPDEST PUSH2 0x134 PUSH1 0x1 SLOAD DUP2 JUMP JUMPDEST PUSH2 0x12A PUSH2 0x2AC CALLDATASIZE PUSH1 0x4 PUSH2 0x15BC JUMP JUMPDEST PUSH2 0xC65 JUMP JUMPDEST PUSH2 0x1A7 PUSH32 0x0 DUP2 JUMP JUMPDEST CALLER PUSH2 0x2E1 PUSH2 0xB98 JUMP JUMPDEST PUSH1 0x1 PUSH1 0x1 PUSH1 0xA0 SHL SUB AND EQ PUSH2 0x310 JUMPI PUSH1 0x40 MLOAD PUSH3 0x461BCD PUSH1 0xE5 SHL DUP2 MSTORE PUSH1 0x4 ADD PUSH2 0x307 SWAP1 PUSH2 0x181C JUMP JUMPDEST PUSH1 0x40 MLOAD DUP1 SWAP2 SUB SWAP1 REVERT JUMPDEST PUSH2 0x2710 DUP2 GT ISZERO PUSH2 0x332 JUMPI PUSH1 0x40 MLOAD PUSH3 0x461BCD PUSH1 0xE5 SHL DUP2 MSTORE PUSH1 0x4 ADD PUSH2 0x307 SWAP1 PUSH2 0x17F6 JUMP JUMPDEST PUSH1 0x2 SSTORE JUMP JUMPDEST PUSH1 0x0 DUP1 PUSH1 0x0 PUSH32 0x0 PUSH1 0x1 PUSH1 0x1 PUSH1 0xA0 SHL SUB AND PUSH4 0x902F1AC PUSH1 0x40 MLOAD DUP2 PUSH4 0xFFFFFFFF AND PUSH1 0xE0 SHL DUP2 MSTORE PUSH1 0x4 ADD PUSH1 0x60 PUSH1 0x40 MLOAD DUP1 DUP4 SUB DUP2 DUP7 DUP1 EXTCODESIZE ISZERO DUP1 ISZERO PUSH2 0x395 JUMPI PUSH1 0x0 DUP1 REVERT JUMPDEST POP GAS STATICCALL ISZERO DUP1 ISZERO PUSH2 0x3A9 JUMPI RETURNDATASIZE PUSH1 0x0 DUP1 RETURNDATACOPY RETURNDATASIZE PUSH1 0x0 REVERT JUMPDEST POP POP POP POP PUSH1 0x40 MLOAD RETURNDATASIZE PUSH1 0x1F NOT PUSH1 0x1F DUP3 ADD AND DUP3 ADD DUP1 PUSH1 0x40 MSTORE POP DUP2 ADD SWAP1 PUSH2 0x3CD SWAP2 SWAP1 PUSH2 0x16DC JUMP JUMPDEST POP PUSH1 0x1 PUSH1 0x1 PUSH1 0x70 SHL SUB AND SWAP2 POP PUSH1 0x1 PUSH1 0x1 PUSH1 0x70 SHL SUB AND SWAP2 POP PUSH1 0x0 PUSH32 0x0 PUSH1 0x1 PUSH1 0x1 PUSH1 0xA0 SHL SUB AND PUSH32 0x0 PUSH1 0x1 PUSH1 0x1 PUSH1 0xA0 SHL SUB AND PUSH4 0xDFE1681 PUSH1 0x40 MLOAD DUP2 PUSH4 0xFFFFFFFF AND PUSH1 0xE0 SHL DUP2 MSTORE PUSH1 0x4 ADD PUSH1 0x20 PUSH1 0x40 MLOAD DUP1 DUP4 SUB DUP2 DUP7 DUP1 EXTCODESIZE ISZERO DUP1 ISZERO PUSH2 0x469 JUMPI PUSH1 0x0 DUP1 REVERT JUMPDEST POP GAS STATICCALL ISZERO DUP1 ISZERO PUSH2 0x47D JUMPI RETURNDATASIZE PUSH1 0x0 DUP1 RETURNDATACOPY RETURNDATASIZE PUSH1 0x0 REVERT JUMPDEST POP POP POP POP PUSH1 0x40 MLOAD RETURNDATASIZE PUSH1 0x1F NOT PUSH1 0x1F DUP3 ADD AND DUP3 ADD DUP1 PUSH1 0x40 MSTORE POP DUP2 ADD SWAP1 PUSH2 0x4A1 SWAP2 SWAP1 PUSH2 0x15D9 JUMP JUMPDEST PUSH1 0x1 PUSH1 0x1 PUSH1 0xA0 SHL SUB AND EQ PUSH2 0x4B5 JUMPI DUP2 PUSH2 0x4B7 JUMP JUMPDEST DUP3 JUMPDEST SWAP1 POP PUSH1 0x0 PUSH32 0x0 PUSH1 0x1 PUSH1 0x1 PUSH1 0xA0 SHL SUB AND PUSH32 0x0 PUSH1 0x1 PUSH1 0x1 PUSH1 0xA0 SHL SUB AND PUSH4 0xDFE1681 PUSH1 0x40 MLOAD DUP2 PUSH4 0xFFFFFFFF AND PUSH1 0xE0 SHL DUP2 MSTORE PUSH1 0x4 ADD PUSH1 0x20 PUSH1 0x40 MLOAD DUP1 DUP4 SUB DUP2 DUP7 DUP1 EXTCODESIZE ISZERO DUP1 ISZERO PUSH2 0x53E JUMPI PUSH1 0x0 DUP1 REVERT JUMPDEST POP GAS STATICCALL ISZERO DUP1 ISZERO PUSH2 0x552 JUMPI RETURNDATASIZE PUSH1 0x0 DUP1 RETURNDATACOPY RETURNDATASIZE PUSH1 0x0 REVERT JUMPDEST POP POP POP POP PUSH1 0x40 MLOAD RETURNDATASIZE PUSH1 0x1F NOT PUSH1 0x1F DUP3 ADD AND DUP3 ADD DUP1 PUSH1 0x40 MSTORE POP DUP2 ADD SWAP1 PUSH2 0x576 SWAP2 SWAP1 PUSH2 0x15D9 JUMP JUMPDEST PUSH1 0x1 PUSH1 0x1 PUSH1 0xA0 SHL SUB AND EQ PUSH2 0x58A JUMPI DUP4 PUSH2 0x58C JUMP JUMPDEST DUP3 JUMPDEST SWAP1 POP DUP2 DUP2 GT ISZERO PUSH2 0x5A1 JUMPI PUSH1 0x0 SWAP5 POP POP POP POP POP SWAP1 JUMP JUMPDEST PUSH1 0x3 SLOAD PUSH2 0x2710 SWAP1 PUSH2 0x5B2 DUP4 DUP6 PUSH2 0x191B JUMP JUMPDEST PUSH2 0x5BC SWAP2 SWAP1 PUSH2 0x18FC JUMP JUMPDEST PUSH2 0x5C6 SWAP2 SWAP1 PUSH2 0x18DA JUMP JUMPDEST SWAP5 POP POP POP POP POP SWAP1 JUMP JUMPDEST PUSH1 0x0 DUP1 PUSH1 0x0 PUSH32 0x0 PUSH1 0x1 PUSH1 0x1 PUSH1 0xA0 SHL SUB AND PUSH4 0x902F1AC PUSH1 0x40 MLOAD DUP2 PUSH4 0xFFFFFFFF AND PUSH1 0xE0 SHL DUP2 MSTORE PUSH1 0x4 ADD PUSH1 0x60 PUSH1 0x40 MLOAD DUP1 DUP4 SUB DUP2 DUP7 DUP1 EXTCODESIZE ISZERO DUP1 ISZERO PUSH2 0x62D JUMPI PUSH1 0x0 DUP1 REVERT JUMPDEST POP GAS STATICCALL ISZERO DUP1 ISZERO PUSH2 0x641 JUMPI RETURNDATASIZE PUSH1 0x0 DUP1 RETURNDATACOPY RETURNDATASIZE PUSH1 0x0 REVERT JUMPDEST POP POP POP POP PUSH1 0x40 MLOAD RETURNDATASIZE PUSH1 0x1F NOT PUSH1 0x1F DUP3 ADD AND DUP3 ADD DUP1 PUSH1 0x40 MSTORE POP DUP2 ADD SWAP1 PUSH2 0x665 SWAP2 SWAP1 PUSH2 0x16DC JUMP JUMPDEST POP PUSH1 0x1 PUSH1 0x1 PUSH1 0x70 SHL SUB AND SWAP2 POP PUSH1 0x1 PUSH1 0x1 PUSH1 0x70 SHL SUB AND SWAP2 POP PUSH32 0x0 PUSH1 0x1 PUSH1 0x1 PUSH1 0xA0 SHL SUB AND PUSH32 0x0 PUSH1 0x1 PUSH1 0x1 PUSH1 0xA0 SHL SUB AND PUSH4 0xD21220A7 PUSH1 0x40 MLOAD DUP2 PUSH4 0xFFFFFFFF AND PUSH1 0xE0 SHL DUP2 MSTORE PUSH1 0x4 ADD PUSH1 0x20 PUSH1 0x40 MLOAD DUP1 DUP4 SUB DUP2 DUP7 DUP1 EXTCODESIZE ISZERO DUP1 ISZERO PUSH2 0x6FF JUMPI PUSH1 0x0 DUP1 REVERT JUMPDEST POP GAS STATICCALL ISZERO DUP1 ISZERO PUSH2 0x713 JUMPI RETURNDATASIZE PUSH1 0x0 DUP1 RETURNDATACOPY RETURNDATASIZE PUSH1 0x0 REVERT JUMPDEST POP POP POP POP PUSH1 0x40 MLOAD RETURNDATASIZE PUSH1 0x1F NOT PUSH1 0x1F DUP3 ADD AND DUP3 ADD DUP1 PUSH1 0x40 MSTORE POP DUP2 ADD SWAP1 PUSH2 0x737 SWAP2 SWAP1 PUSH2 0x15D9 JUMP JUMPDEST PUSH1 0x1 PUSH1 0x1 PUSH1 0xA0 SHL SUB AND EQ ISZERO PUSH2 0x7F3 JUMPI PUSH1 0x40 MLOAD PUSH4 0x1535435 PUSH1 0xE2 SHL DUP2 MSTORE PUSH1 0x4 DUP2 ADD DUP6 SWAP1 MSTORE PUSH1 0x24 DUP2 ADD DUP4 SWAP1 MSTORE PUSH1 0x44 DUP2 ADD DUP3 SWAP1 MSTORE PUSH32 0x0 PUSH1 0x1 PUSH1 0x1 PUSH1 0xA0 SHL SUB AND SWAP1 PUSH4 0x54D50D4 SWAP1 PUSH1 0x64 ADD PUSH1 0x20 PUSH1 0x40 MLOAD DUP1 DUP4 SUB DUP2 DUP7 DUP1 EXTCODESIZE ISZERO DUP1 ISZERO PUSH2 0x7B4 JUMPI PUSH1 0x0 DUP1 REVERT JUMPDEST POP GAS STATICCALL ISZERO DUP1 ISZERO PUSH2 0x7C8 JUMPI RETURNDATASIZE PUSH1 0x0 DUP1 RETURNDATACOPY RETURNDATASIZE PUSH1 0x0 REVERT JUMPDEST POP POP POP POP PUSH1 0x40 MLOAD RETURNDATASIZE PUSH1 0x1F NOT PUSH1 0x1F DUP3 ADD AND DUP3 ADD DUP1 PUSH1 0x40 MSTORE POP DUP2 ADD SWAP1 PUSH2 0x7EC SWAP2 SWAP1 PUSH2 0x1745 JUMP JUMPDEST SWAP3 POP PUSH2 0x89C JUMP JUMPDEST PUSH1 0x40 MLOAD PUSH4 0x1535435 PUSH1 0xE2 SHL DUP2 MSTORE PUSH1 0x4 DUP2 ADD DUP6 SWAP1 MSTORE PUSH1 0x24 DUP2 ADD DUP3 SWAP1 MSTORE PUSH1 0x44 DUP2 ADD DUP4 SWAP1 MSTORE PUSH32 0x0 PUSH1 0x1 PUSH1 0x1 PUSH1 0xA0 SHL SUB AND SWAP1 PUSH4 0x54D50D4 SWAP1 PUSH1 0x64 ADD PUSH1 0x20 PUSH1 0x40 MLOAD DUP1 DUP4 SUB DUP2 DUP7 DUP1 EXTCODESIZE ISZERO DUP1 ISZERO PUSH2 0x861 JUMPI PUSH1 0x0 DUP1 REVERT JUMPDEST POP GAS STATICCALL ISZERO DUP1 ISZERO PUSH2 0x875 JUMPI RETURNDATASIZE PUSH1 0x0 DUP1 RETURNDATACOPY RETURNDATASIZE PUSH1 0x0 REVERT JUMPDEST POP POP POP POP PUSH1 0x40 MLOAD RETURNDATASIZE PUSH1 0x1F NOT PUSH1 0x1F DUP3 ADD AND DUP3 ADD DUP1 PUSH1 0x40 MSTORE POP DUP2 ADD SWAP1 PUSH2 0x899 SWAP2 SWAP1 PUSH2 0x1745 JUMP JUMPDEST SWAP3 POP JUMPDEST POP POP SWAP2 SWAP1 POP JUMP JUMPDEST PUSH1 0x0 DUP1 PUSH2 0x8AE PUSH2 0x965 JUMP JUMPDEST SWAP1 POP DUP3 SWAP2 POP PUSH1 0x1 SLOAD DUP2 GT PUSH2 0x94C JUMPI PUSH1 0x0 PUSH2 0x2710 PUSH1 0x2 SLOAD DUP5 PUSH2 0x8CF SWAP2 SWAP1 PUSH2 0x18FC JUMP JUMPDEST PUSH2 0x8D9 SWAP2 SWAP1 PUSH2 0x18DA JUMP JUMPDEST SWAP1 POP PUSH1 0x0 PUSH2 0x8E5 PUSH2 0x337 JUMP JUMPDEST SWAP1 POP DUP1 DUP3 GT ISZERO PUSH2 0x8F3 JUMPI DUP1 SWAP2 POP JUMPDEST PUSH1 0x0 PUSH2 0x8FE DUP4 PUSH2 0x5CF JUMP JUMPDEST SWAP1 POP DUP1 DUP4 LT ISZERO PUSH2 0x948 JUMPI PUSH2 0x912 DUP4 DUP7 PUSH2 0x191B JUMP JUMPDEST SWAP5 POP PUSH2 0x2710 PUSH1 0x4 SLOAD PUSH2 0x2710 PUSH2 0x927 SWAP2 SWAP1 PUSH2 0x191B JUMP JUMPDEST PUSH2 0x931 SWAP1 DUP4 PUSH2 0x18FC JUMP JUMPDEST PUSH2 0x93B SWAP2 SWAP1 PUSH2 0x18DA JUMP JUMPDEST PUSH2 0x945 SWAP1 DUP7 PUSH2 0x18C2 JUMP JUMPDEST SWAP5 POP JUMPDEST POP POP POP JUMPDEST POP SWAP2 SWAP1 POP JUMP JUMPDEST PUSH1 0x0 PUSH2 0x95E DUP4 DUP4 PUSH2 0xD05 JUMP JUMPDEST SWAP4 SWAP3 POP POP POP JUMP JUMPDEST PUSH1 0x0 DUP1 PUSH1 0x0 PUSH32 0x0 PUSH1 0x1 PUSH1 0x1 PUSH1 0xA0 SHL SUB AND PUSH4 0x902F1AC PUSH1 0x40 MLOAD DUP2 PUSH4 0xFFFFFFFF AND PUSH1 0xE0 SHL DUP2 MSTORE PUSH1 0x4 ADD PUSH1 0x60 PUSH1 0x40 MLOAD DUP1 DUP4 SUB DUP2 DUP7 DUP1 EXTCODESIZE ISZERO DUP1 ISZERO PUSH2 0x9C3 JUMPI PUSH1 0x0 DUP1 REVERT JUMPDEST POP GAS STATICCALL ISZERO DUP1 ISZERO PUSH2 0x9D7 JUMPI RETURNDATASIZE PUSH1 0x0 DUP1 RETURNDATACOPY RETURNDATASIZE PUSH1 0x0 REVERT JUMPDEST POP POP POP POP PUSH1 0x40 MLOAD RETURNDATASIZE PUSH1 0x1F NOT PUSH1 0x1F DUP3 ADD AND DUP3 ADD DUP1 PUSH1 0x40 MSTORE POP DUP2 ADD SWAP1 PUSH2 0x9FB SWAP2 SWAP1 PUSH2 0x16DC JUMP JUMPDEST POP PUSH1 0x1 PUSH1 0x1 PUSH1 0x70 SHL SUB AND SWAP2 POP PUSH1 0x1 PUSH1 0x1 PUSH1 0x70 SHL SUB AND SWAP2 POP PUSH32 0x0 PUSH1 0x1 PUSH1 0x1 PUSH1 0xA0 SHL SUB AND PUSH32 0x0 PUSH1 0x1 PUSH1 0x1 PUSH1 0xA0 SHL SUB AND PUSH4 0xDFE1681 PUSH1 0x40 MLOAD DUP2 PUSH4 0xFFFFFFFF AND PUSH1 0xE0 SHL DUP2 MSTORE PUSH1 0x4 ADD PUSH1 0x20 PUSH1 0x40 MLOAD DUP1 DUP4 SUB DUP2 DUP7 DUP1 EXTCODESIZE ISZERO DUP1 ISZERO PUSH2 0xA95 JUMPI PUSH1 0x0 DUP1 REVERT JUMPDEST POP GAS STATICCALL ISZERO DUP1 ISZERO PUSH2 0xAA9 JUMPI RETURNDATASIZE PUSH1 0x0 DUP1 RETURNDATACOPY RETURNDATASIZE PUSH1 0x0 REVERT JUMPDEST POP POP POP POP PUSH1 0x40 MLOAD RETURNDATASIZE PUSH1 0x1F NOT PUSH1 0x1F DUP3 ADD AND DUP3 ADD DUP1 PUSH1 0x40 MSTORE POP DUP2 ADD SWAP1 PUSH2 0xACD SWAP2 SWAP1 PUSH2 0x15D9 JUMP JUMPDEST PUSH1 0x1 PUSH1 0x1 PUSH1 0xA0 SHL SUB AND EQ ISZERO PUSH2 0xAFA JUMPI DUP2 PUSH2 0xAE9 PUSH2 0x2710 DUP4 PUSH2 0x18FC JUMP JUMPDEST PUSH2 0xAF3 SWAP2 SWAP1 PUSH2 0x18DA JUMP JUMPDEST SWAP3 POP POP POP SWAP1 JUMP JUMPDEST DUP1 PUSH2 0xAE9 PUSH2 0x2710 DUP5 PUSH2 0x18FC JUMP JUMPDEST CALLER PUSH2 0xB10 PUSH2 0xB98 JUMP JUMPDEST PUSH1 0x1 PUSH1 0x1 PUSH1 0xA0 SHL SUB AND EQ PUSH2 0xB36 JUMPI PUSH1 0x40 MLOAD PUSH3 0x461BCD PUSH1 0xE5 SHL DUP2 MSTORE PUSH1 0x4 ADD PUSH2 0x307 SWAP1 PUSH2 0x181C JUMP JUMPDEST PUSH2 0x2710 DUP2 GT ISZERO PUSH2 0xB58 JUMPI PUSH1 0x40 MLOAD PUSH3 0x461BCD PUSH1 0xE5 SHL DUP2 MSTORE PUSH1 0x4 ADD PUSH2 0x307 SWAP1 PUSH2 0x17F6 JUMP JUMPDEST PUSH1 0x1 SSTORE JUMP JUMPDEST CALLER PUSH2 0xB66 PUSH2 0xB98 JUMP JUMPDEST PUSH1 0x1 PUSH1 0x1 PUSH1 0xA0 SHL SUB AND EQ PUSH2 0xB8C JUMPI PUSH1 0x40 MLOAD PUSH3 0x461BCD PUSH1 0xE5 SHL DUP2 MSTORE PUSH1 0x4 ADD PUSH2 0x307 SWAP1 PUSH2 0x181C JUMP JUMPDEST PUSH2 0xB96 PUSH1 0x0 PUSH2 0x1167 JUMP JUMPDEST JUMP JUMPDEST PUSH1 0x0 SLOAD PUSH1 0x1 PUSH1 0x1 PUSH1 0xA0 SHL SUB AND SWAP1 JUMP JUMPDEST PUSH1 0x0 PUSH2 0xBB3 DUP3 CALLER PUSH2 0xD05 JUMP JUMPDEST SWAP3 SWAP2 POP POP JUMP JUMPDEST CALLER PUSH2 0xBC2 PUSH2 0xB98 JUMP JUMPDEST PUSH1 0x1 PUSH1 0x1 PUSH1 0xA0 SHL SUB AND EQ PUSH2 0xBE8 JUMPI PUSH1 0x40 MLOAD PUSH3 0x461BCD PUSH1 0xE5 SHL DUP2 MSTORE PUSH1 0x4 ADD PUSH2 0x307 SWAP1 PUSH2 0x181C JUMP JUMPDEST PUSH2 0x2710 DUP2 GT ISZERO PUSH2 0xC0A JUMPI PUSH1 0x40 MLOAD PUSH3 0x461BCD PUSH1 0xE5 SHL DUP2 MSTORE PUSH1 0x4 ADD PUSH2 0x307 SWAP1 PUSH2 0x17F6 JUMP JUMPDEST PUSH1 0x3 SSTORE JUMP JUMPDEST CALLER PUSH2 0xC18 PUSH2 0xB98 JUMP JUMPDEST PUSH1 0x1 PUSH1 0x1 PUSH1 0xA0 SHL SUB AND EQ PUSH2 0xC3E JUMPI PUSH1 0x40 MLOAD PUSH3 0x461BCD PUSH1 0xE5 SHL DUP2 MSTORE PUSH1 0x4 ADD PUSH2 0x307 SWAP1 PUSH2 0x181C JUMP JUMPDEST PUSH2 0x2710 DUP2 GT ISZERO PUSH2 0xC60 JUMPI PUSH1 0x40 MLOAD PUSH3 0x461BCD PUSH1 0xE5 SHL DUP2 MSTORE PUSH1 0x4 ADD PUSH2 0x307 SWAP1 PUSH2 0x17F6 JUMP JUMPDEST PUSH1 0x4 SSTORE JUMP JUMPDEST CALLER PUSH2 0xC6E PUSH2 0xB98 JUMP JUMPDEST PUSH1 0x1 PUSH1 0x1 PUSH1 0xA0 SHL SUB AND EQ PUSH2 0xC94 JUMPI PUSH1 0x40 MLOAD PUSH3 0x461BCD PUSH1 0xE5 SHL DUP2 MSTORE PUSH1 0x4 ADD PUSH2 0x307 SWAP1 PUSH2 0x181C JUMP JUMPDEST PUSH1 0x1 PUSH1 0x1 PUSH1 0xA0 SHL SUB DUP2 AND PUSH2 0xCF9 JUMPI PUSH1 0x40 MLOAD PUSH3 0x461BCD PUSH1 0xE5 SHL DUP2 MSTORE PUSH1 0x20 PUSH1 0x4 DUP3 ADD MSTORE PUSH1 0x26 PUSH1 0x24 DUP3 ADD MSTORE PUSH32 0x4F776E61626C653A206E6577206F776E657220697320746865207A65726F2061 PUSH1 0x44 DUP3 ADD MSTORE PUSH6 0x646472657373 PUSH1 0xD0 SHL PUSH1 0x64 DUP3 ADD MSTORE PUSH1 0x84 ADD PUSH2 0x307 JUMP JUMPDEST PUSH2 0xD02 DUP2 PUSH2 0x1167 JUMP JUMPDEST POP JUMP JUMPDEST PUSH1 0x0 PUSH2 0xD3C PUSH1 0x1 PUSH1 0x1 PUSH1 0xA0 SHL SUB PUSH32 0x0 AND CALLER ADDRESS DUP7 PUSH2 0x11B7 JUMP JUMPDEST PUSH1 0x0 PUSH2 0xD46 PUSH2 0x965 JUMP JUMPDEST PUSH1 0x1 SLOAD SWAP1 SWAP2 POP DUP5 SWAP1 DUP3 GT PUSH2 0x1008 JUMPI PUSH1 0x0 PUSH2 0x2710 PUSH1 0x2 SLOAD DUP4 PUSH2 0xD67 SWAP2 SWAP1 PUSH2 0x18FC JUMP JUMPDEST PUSH2 0xD71 SWAP2 SWAP1 PUSH2 0x18DA JUMP JUMPDEST SWAP1 POP PUSH1 0x0 PUSH2 0xD7D PUSH2 0x337 JUMP JUMPDEST SWAP1 POP DUP1 DUP3 GT ISZERO PUSH2 0xD8B JUMPI DUP1 SWAP2 POP JUMPDEST DUP2 ISZERO PUSH2 0x1005 JUMPI PUSH1 0x0 PUSH2 0xD9C DUP4 PUSH2 0x5CF JUMP JUMPDEST SWAP1 POP DUP1 DUP4 LT ISZERO PUSH2 0x1003 JUMPI PUSH2 0xDF1 PUSH32 0x0 PUSH32 0x0 DUP6 PUSH2 0x1228 JUMP JUMPDEST PUSH1 0x40 DUP1 MLOAD PUSH1 0x2 DUP1 DUP3 MSTORE PUSH1 0x60 DUP3 ADD DUP4 MSTORE PUSH1 0x0 SWAP3 PUSH1 0x20 DUP4 ADD SWAP1 DUP1 CALLDATASIZE DUP4 CALLDATACOPY ADD SWAP1 POP POP SWAP1 POP PUSH32 0x0 DUP2 PUSH1 0x0 DUP2 MLOAD DUP2 LT PUSH2 0xE46 JUMPI PUSH2 0xE46 PUSH2 0x1974 JUMP JUMPDEST PUSH1 0x20 MUL PUSH1 0x20 ADD ADD SWAP1 PUSH1 0x1 PUSH1 0x1 PUSH1 0xA0 SHL SUB AND SWAP1 DUP2 PUSH1 0x1 PUSH1 0x1 PUSH1 0xA0 SHL SUB AND DUP2 MSTORE POP POP PUSH32 0x0 DUP2 PUSH1 0x1 DUP2 MLOAD DUP2 LT PUSH2 0xE9A JUMPI PUSH2 0xE9A PUSH2 0x1974 JUMP JUMPDEST PUSH1 0x20 MUL PUSH1 0x20 ADD ADD SWAP1 PUSH1 0x1 PUSH1 0x1 PUSH1 0xA0 SHL SUB AND SWAP1 DUP2 PUSH1 0x1 PUSH1 0x1 PUSH1 0xA0 SHL SUB AND DUP2 MSTORE POP POP PUSH32 0x0 PUSH1 0x1 PUSH1 0x1 PUSH1 0xA0 SHL SUB AND PUSH4 0x38ED1739 DUP6 PUSH2 0x2710 PUSH1 0x4 SLOAD PUSH2 0x2710 PUSH2 0xEFD SWAP2 SWAP1 PUSH2 0x191B JUMP JUMPDEST PUSH2 0xF07 SWAP1 DUP8 PUSH2 0x18FC JUMP JUMPDEST PUSH2 0xF11 SWAP2 SWAP1 PUSH2 0x18DA JUMP JUMPDEST DUP5 DUP13 TIMESTAMP PUSH1 0x40 MLOAD DUP7 PUSH4 0xFFFFFFFF AND PUSH1 0xE0 SHL DUP2 MSTORE PUSH1 0x4 ADD PUSH2 0xF34 SWAP6 SWAP5 SWAP4 SWAP3 SWAP2 SWAP1 PUSH2 0x1851 JUMP JUMPDEST PUSH1 0x0 PUSH1 0x40 MLOAD DUP1 DUP4 SUB DUP2 PUSH1 0x0 DUP8 DUP1 EXTCODESIZE ISZERO DUP1 ISZERO PUSH2 0xF4E JUMPI PUSH1 0x0 DUP1 REVERT JUMPDEST POP GAS CALL ISZERO DUP1 ISZERO PUSH2 0xF62 JUMPI RETURNDATASIZE PUSH1 0x0 DUP1 RETURNDATACOPY RETURNDATASIZE PUSH1 0x0 REVERT JUMPDEST POP POP POP POP PUSH1 0x40 MLOAD RETURNDATASIZE PUSH1 0x0 DUP3 RETURNDATACOPY PUSH1 0x1F RETURNDATASIZE SWAP1 DUP2 ADD PUSH1 0x1F NOT AND DUP3 ADD PUSH1 0x40 MSTORE PUSH2 0xF8A SWAP2 SWAP1 DUP2 ADD SWAP1 PUSH2 0x15F6 JUMP JUMPDEST PUSH1 0x1 DUP2 MLOAD DUP2 LT PUSH2 0xF9C JUMPI PUSH2 0xF9C PUSH2 0x1974 JUMP JUMPDEST PUSH1 0x20 MUL PUSH1 0x20 ADD ADD MLOAD SWAP7 POP DUP4 DUP8 GT PUSH2 0xFF5 JUMPI PUSH1 0x40 MLOAD PUSH3 0x461BCD PUSH1 0xE5 SHL DUP2 MSTORE PUSH1 0x20 PUSH1 0x4 DUP3 ADD MSTORE PUSH1 0x1E PUSH1 0x24 DUP3 ADD MSTORE PUSH32 0x5472616E73616374696F6E20697320646973616476616E746167656F75730000 PUSH1 0x44 DUP3 ADD MSTORE PUSH1 0x64 ADD PUSH2 0x307 JUMP JUMPDEST PUSH2 0xFFF DUP5 DUP7 PUSH2 0x191B JUMP JUMPDEST SWAP5 POP POP JUMPDEST POP JUMPDEST POP POP JUMPDEST DUP1 ISZERO PUSH2 0x1115 JUMPI PUSH2 0x1018 DUP2 DUP5 PUSH2 0x18C2 JUMP JUMPDEST SWAP3 POP PUSH2 0x1065 PUSH32 0x0 PUSH32 0x0 DUP4 PUSH2 0x1228 JUMP JUMPDEST PUSH1 0x40 MLOAD PUSH4 0xB6B55F25 PUSH1 0xE0 SHL DUP2 MSTORE PUSH1 0x4 DUP2 ADD DUP3 SWAP1 MSTORE PUSH32 0x0 PUSH1 0x1 PUSH1 0x1 PUSH1 0xA0 SHL SUB AND SWAP1 PUSH4 0xB6B55F25 SWAP1 PUSH1 0x24 ADD PUSH1 0x0 PUSH1 0x40 MLOAD DUP1 DUP4 SUB DUP2 PUSH1 0x0 DUP8 DUP1 EXTCODESIZE ISZERO DUP1 ISZERO PUSH2 0x10C7 JUMPI PUSH1 0x0 DUP1 REVERT JUMPDEST POP GAS CALL ISZERO DUP1 ISZERO PUSH2 0x10DB JUMPI RETURNDATASIZE PUSH1 0x0 DUP1 RETURNDATACOPY RETURNDATASIZE PUSH1 0x0 REVERT JUMPDEST POP PUSH2 0x1115 SWAP3 POP POP PUSH1 0x1 PUSH1 0x1 PUSH1 0xA0 SHL SUB PUSH32 0x0 AND SWAP1 POP DUP6 DUP4 PUSH2 0x1337 JUMP JUMPDEST PUSH1 0x40 DUP1 MLOAD PUSH1 0x1 PUSH1 0x1 PUSH1 0xA0 SHL SUB DUP7 AND DUP2 MSTORE PUSH1 0x20 DUP2 ADD DUP8 SWAP1 MSTORE SWAP1 DUP2 ADD DUP5 SWAP1 MSTORE PUSH32 0xA91037BA08E3C8B150648A5AD60512DCEDE6FF057DFB3CB89BBDF11ED528F42C SWAP1 PUSH1 0x60 ADD PUSH1 0x40 MLOAD DUP1 SWAP2 SUB SWAP1 LOG1 POP POP SWAP3 SWAP2 POP POP JUMP JUMPDEST PUSH1 0x0 DUP1 SLOAD PUSH1 0x1 PUSH1 0x1 PUSH1 0xA0 SHL SUB DUP4 DUP2 AND PUSH1 0x1 PUSH1 0x1 PUSH1 0xA0 SHL SUB NOT DUP4 AND DUP2 OR DUP5 SSTORE PUSH1 0x40 MLOAD SWAP2 SWAP1 SWAP3 AND SWAP3 DUP4 SWAP2 PUSH32 0x8BE0079C531659141344CD1FD0A4F28419497F9722A3DAAFE3B4186F6B6457E0 SWAP2 SWAP1 LOG3 POP POP JUMP JUMPDEST PUSH1 0x40 MLOAD PUSH1 0x1 PUSH1 0x1 PUSH1 0xA0 SHL SUB DUP1 DUP6 AND PUSH1 0x24 DUP4 ADD MSTORE DUP4 AND PUSH1 0x44 DUP3 ADD MSTORE PUSH1 0x64 DUP2 ADD DUP3 SWAP1 MSTORE PUSH2 0x1222 SWAP1 DUP6 SWAP1 PUSH4 0x23B872DD PUSH1 0xE0 SHL SWAP1 PUSH1 0x84 ADD JUMPDEST PUSH1 0x40 DUP1 MLOAD PUSH1 0x1F NOT DUP2 DUP5 SUB ADD DUP2 MSTORE SWAP2 SWAP1 MSTORE PUSH1 0x20 DUP2 ADD DUP1 MLOAD PUSH1 0x1 PUSH1 0x1 PUSH1 0xE0 SHL SUB AND PUSH1 0x1 PUSH1 0x1 PUSH1 0xE0 SHL SUB NOT SWAP1 SWAP4 AND SWAP3 SWAP1 SWAP3 OR SWAP1 SWAP2 MSTORE PUSH2 0x1356 JUMP JUMPDEST POP POP POP POP JUMP JUMPDEST PUSH1 0x40 MLOAD PUSH4 0x6EB1769F PUSH1 0xE1 SHL DUP2 MSTORE ADDRESS PUSH1 0x4 DUP3 ADD MSTORE PUSH1 0x1 PUSH1 0x1 PUSH1 0xA0 SHL SUB DUP4 DUP2 AND PUSH1 0x24 DUP4 ADD MSTORE DUP3 SWAP2 SWAP1 DUP6 AND SWAP1 PUSH4 0xDD62ED3E SWAP1 PUSH1 0x44 ADD PUSH1 0x20 PUSH1 0x40 MLOAD DUP1 DUP4 SUB DUP2 DUP7 DUP1 EXTCODESIZE ISZERO DUP1 ISZERO PUSH2 0x1272 JUMPI PUSH1 0x0 DUP1 REVERT JUMPDEST POP GAS STATICCALL ISZERO DUP1 ISZERO PUSH2 0x1286 JUMPI RETURNDATASIZE PUSH1 0x0 DUP1 RETURNDATACOPY RETURNDATASIZE PUSH1 0x0 REVERT JUMPDEST POP POP POP POP PUSH1 0x40 MLOAD RETURNDATASIZE PUSH1 0x1F NOT PUSH1 0x1F DUP3 ADD AND DUP3 ADD DUP1 PUSH1 0x40 MSTORE POP DUP2 ADD SWAP1 PUSH2 0x12AA SWAP2 SWAP1 PUSH2 0x1745 JUMP JUMPDEST LT ISZERO PUSH2 0x1332 JUMPI PUSH1 0x40 MLOAD PUSH4 0x95EA7B3 PUSH1 0xE0 SHL DUP2 MSTORE PUSH1 0x1 PUSH1 0x1 PUSH1 0xA0 SHL SUB DUP5 AND SWAP1 PUSH4 0x95EA7B3 SWAP1 PUSH2 0x12E0 SWAP1 DUP6 SWAP1 PUSH1 0x0 NOT SWAP1 PUSH1 0x4 ADD PUSH2 0x17AA JUMP JUMPDEST PUSH1 0x20 PUSH1 0x40 MLOAD DUP1 DUP4 SUB DUP2 PUSH1 0x0 DUP8 DUP1 EXTCODESIZE ISZERO DUP1 ISZERO PUSH2 0x12FA JUMPI PUSH1 0x0 DUP1 REVERT JUMPDEST POP GAS CALL ISZERO DUP1 ISZERO PUSH2 0x130E JUMPI RETURNDATASIZE PUSH1 0x0 DUP1 RETURNDATACOPY RETURNDATASIZE PUSH1 0x0 REVERT JUMPDEST POP POP POP POP PUSH1 0x40 MLOAD RETURNDATASIZE PUSH1 0x1F NOT PUSH1 0x1F DUP3 ADD AND DUP3 ADD DUP1 PUSH1 0x40 MSTORE POP DUP2 ADD SWAP1 PUSH2 0x1222 SWAP2 SWAP1 PUSH2 0x16BA JUMP JUMPDEST POP POP POP JUMP JUMPDEST PUSH2 0x1332 DUP4 PUSH4 0xA9059CBB PUSH1 0xE0 SHL DUP5 DUP5 PUSH1 0x40 MLOAD PUSH1 0x24 ADD PUSH2 0x11EB SWAP3 SWAP2 SWAP1 PUSH2 0x17AA JUMP JUMPDEST PUSH1 0x0 PUSH2 0x13AB DUP3 PUSH1 0x40 MLOAD DUP1 PUSH1 0x40 ADD PUSH1 0x40 MSTORE DUP1 PUSH1 0x20 DUP2 MSTORE PUSH1 0x20 ADD PUSH32 0x5361666545524332303A206C6F772D6C6576656C2063616C6C206661696C6564 DUP2 MSTORE POP DUP6 PUSH1 0x1 PUSH1 0x1 PUSH1 0xA0 SHL SUB AND PUSH2 0x1428 SWAP1 SWAP3 SWAP2 SWAP1 PUSH4 0xFFFFFFFF AND JUMP JUMPDEST DUP1 MLOAD SWAP1 SWAP2 POP ISZERO PUSH2 0x1332 JUMPI DUP1 DUP1 PUSH1 0x20 ADD SWAP1 MLOAD DUP2 ADD SWAP1 PUSH2 0x13C9 SWAP2 SWAP1 PUSH2 0x16BA JUMP JUMPDEST PUSH2 0x1332 JUMPI PUSH1 0x40 MLOAD PUSH3 0x461BCD PUSH1 0xE5 SHL DUP2 MSTORE PUSH1 0x20 PUSH1 0x4 DUP3 ADD MSTORE PUSH1 0x2A PUSH1 0x24 DUP3 ADD MSTORE PUSH32 0x5361666545524332303A204552433230206F7065726174696F6E20646964206E PUSH1 0x44 DUP3 ADD MSTORE PUSH10 0x1BDD081CDD58D8D95959 PUSH1 0xB2 SHL PUSH1 0x64 DUP3 ADD MSTORE PUSH1 0x84 ADD PUSH2 0x307 JUMP JUMPDEST PUSH1 0x60 PUSH2 0x1437 DUP5 DUP5 PUSH1 0x0 DUP6 PUSH2 0x143F JUMP JUMPDEST SWAP5 SWAP4 POP POP POP POP JUMP JUMPDEST PUSH1 0x60 DUP3 SELFBALANCE LT ISZERO PUSH2 0x14A0 JUMPI PUSH1 0x40 MLOAD PUSH3 0x461BCD PUSH1 0xE5 SHL DUP2 MSTORE PUSH1 0x20 PUSH1 0x4 DUP3 ADD MSTORE PUSH1 0x26 PUSH1 0x24 DUP3 ADD MSTORE PUSH32 0x416464726573733A20696E73756666696369656E742062616C616E636520666F PUSH1 0x44 DUP3 ADD MSTORE PUSH6 0x1C8818D85B1B PUSH1 0xD2 SHL PUSH1 0x64 DUP3 ADD MSTORE PUSH1 0x84 ADD PUSH2 0x307 JUMP JUMPDEST DUP5 EXTCODESIZE PUSH2 0x14EE JUMPI PUSH1 0x40 MLOAD PUSH3 0x461BCD PUSH1 0xE5 SHL DUP2 MSTORE PUSH1 0x20 PUSH1 0x4 DUP3 ADD MSTORE PUSH1 0x1D PUSH1 0x24 DUP3 ADD MSTORE PUSH32 0x416464726573733A2063616C6C20746F206E6F6E2D636F6E7472616374000000 PUSH1 0x44 DUP3 ADD MSTORE PUSH1 0x64 ADD PUSH2 0x307 JUMP JUMPDEST PUSH1 0x0 DUP1 DUP7 PUSH1 0x1 PUSH1 0x1 PUSH1 0xA0 SHL SUB AND DUP6 DUP8 PUSH1 0x40 MLOAD PUSH2 0x150A SWAP2 SWAP1 PUSH2 0x178E JUMP JUMPDEST PUSH1 0x0 PUSH1 0x40 MLOAD DUP1 DUP4 SUB DUP2 DUP6 DUP8 GAS CALL SWAP3 POP POP POP RETURNDATASIZE DUP1 PUSH1 0x0 DUP2 EQ PUSH2 0x1547 JUMPI PUSH1 0x40 MLOAD SWAP2 POP PUSH1 0x1F NOT PUSH1 0x3F RETURNDATASIZE ADD AND DUP3 ADD PUSH1 0x40 MSTORE RETURNDATASIZE DUP3 MSTORE RETURNDATASIZE PUSH1 0x0 PUSH1 0x20 DUP5 ADD RETURNDATACOPY PUSH2 0x154C JUMP JUMPDEST PUSH1 0x60 SWAP2 POP JUMPDEST POP SWAP2 POP SWAP2 POP PUSH2 0x155C DUP3 DUP3 DUP7 PUSH2 0x1567 JUMP JUMPDEST SWAP8 SWAP7 POP POP POP POP POP POP POP JUMP JUMPDEST PUSH1 0x60 DUP4 ISZERO PUSH2 0x1576 JUMPI POP DUP2 PUSH2 0x95E JUMP JUMPDEST DUP3 MLOAD ISZERO PUSH2 0x1586 JUMPI DUP3 MLOAD DUP1 DUP5 PUSH1 0x20 ADD REVERT JUMPDEST DUP2 PUSH1 0x40 MLOAD PUSH3 0x461BCD PUSH1 0xE5 SHL DUP2 MSTORE PUSH1 0x4 ADD PUSH2 0x307 SWAP2 SWAP1 PUSH2 0x17C3 JUMP JUMPDEST DUP1 MLOAD PUSH1 0x1 PUSH1 0x1 PUSH1 0x70 SHL SUB DUP2 AND DUP2 EQ PUSH2 0x15B7 JUMPI PUSH1 0x0 DUP1 REVERT JUMPDEST SWAP2 SWAP1 POP JUMP JUMPDEST PUSH1 0x0 PUSH1 0x20 DUP3 DUP5 SUB SLT ISZERO PUSH2 0x15CE JUMPI PUSH1 0x0 DUP1 REVERT JUMPDEST DUP2 CALLDATALOAD PUSH2 0x95E DUP2 PUSH2 0x19A0 JUMP JUMPDEST PUSH1 0x0 PUSH1 0x20 DUP3 DUP5 SUB SLT ISZERO PUSH2 0x15EB JUMPI PUSH1 0x0 DUP1 REVERT JUMPDEST DUP2 MLOAD PUSH2 0x95E DUP2 PUSH2 0x19A0 JUMP JUMPDEST PUSH1 0x0 PUSH1 0x20 DUP1 DUP4 DUP6 SUB SLT ISZERO PUSH2 0x1609 JUMPI PUSH1 0x0 DUP1 REVERT JUMPDEST DUP3 MLOAD PUSH1 0x1 PUSH1 0x1 PUSH1 0x40 SHL SUB DUP1 DUP3 GT ISZERO PUSH2 0x1620 JUMPI PUSH1 0x0 DUP1 REVERT JUMPDEST DUP2 DUP6 ADD SWAP2 POP DUP6 PUSH1 0x1F DUP4 ADD SLT PUSH2 0x1634 JUMPI PUSH1 0x0 DUP1 REVERT JUMPDEST DUP2 MLOAD DUP2 DUP2 GT ISZERO PUSH2 0x1646 JUMPI PUSH2 0x1646 PUSH2 0x198A JUMP JUMPDEST DUP1 PUSH1 0x5 SHL PUSH1 0x40 MLOAD PUSH1 0x1F NOT PUSH1 0x3F DUP4 ADD AND DUP2 ADD DUP2 DUP2 LT DUP6 DUP3 GT OR ISZERO PUSH2 0x166B JUMPI PUSH2 0x166B PUSH2 0x198A JUMP JUMPDEST PUSH1 0x40 MSTORE DUP3 DUP2 MSTORE DUP6 DUP2 ADD SWAP4 POP DUP5 DUP7 ADD DUP3 DUP7 ADD DUP8 ADD DUP11 LT ISZERO PUSH2 0x168A JUMPI PUSH1 0x0 DUP1 REVERT JUMPDEST PUSH1 0x0 SWAP6 POP JUMPDEST DUP4 DUP7 LT ISZERO PUSH2 0x16AD JUMPI DUP1 MLOAD DUP6 MSTORE PUSH1 0x1 SWAP6 SWAP1 SWAP6 ADD SWAP5 SWAP4 DUP7 ADD SWAP4 DUP7 ADD PUSH2 0x168F JUMP JUMPDEST POP SWAP9 SWAP8 POP POP POP POP POP POP POP POP JUMP JUMPDEST PUSH1 0x0 PUSH1 0x20 DUP3 DUP5 SUB SLT ISZERO PUSH2 0x16CC JUMPI PUSH1 0x0 DUP1 REVERT JUMPDEST DUP2 MLOAD DUP1 ISZERO ISZERO DUP2 EQ PUSH2 0x95E JUMPI PUSH1 0x0 DUP1 REVERT JUMPDEST PUSH1 0x0 DUP1 PUSH1 0x0 PUSH1 0x60 DUP5 DUP7 SUB SLT ISZERO PUSH2 0x16F1 JUMPI PUSH1 0x0 DUP1 REVERT JUMPDEST PUSH2 0x16FA DUP5 PUSH2 0x15A0 JUMP JUMPDEST SWAP3 POP PUSH2 0x1708 PUSH1 0x20 DUP6 ADD PUSH2 0x15A0 JUMP JUMPDEST SWAP2 POP PUSH1 0x40 DUP5 ADD MLOAD PUSH4 0xFFFFFFFF DUP2 AND DUP2 EQ PUSH2 0x1721 JUMPI PUSH1 0x0 DUP1 REVERT JUMPDEST DUP1 SWAP2 POP POP SWAP3 POP SWAP3 POP SWAP3 JUMP JUMPDEST PUSH1 0x0 PUSH1 0x20 DUP3 DUP5 SUB SLT ISZERO PUSH2 0x173E JUMPI PUSH1 0x0 DUP1 REVERT JUMPDEST POP CALLDATALOAD SWAP2 SWAP1 POP JUMP JUMPDEST PUSH1 0x0 PUSH1 0x20 DUP3 DUP5 SUB SLT ISZERO PUSH2 0x1757 JUMPI PUSH1 0x0 DUP1 REVERT JUMPDEST POP MLOAD SWAP2 SWAP1 POP JUMP JUMPDEST PUSH1 0x0 DUP1 PUSH1 0x40 DUP4 DUP6 SUB SLT ISZERO PUSH2 0x1771 JUMPI PUSH1 0x0 DUP1 REVERT JUMPDEST DUP3 CALLDATALOAD SWAP2 POP PUSH1 0x20 DUP4 ADD CALLDATALOAD PUSH2 0x1783 DUP2 PUSH2 0x19A0 JUMP JUMPDEST DUP1 SWAP2 POP POP SWAP3 POP SWAP3 SWAP1 POP JUMP JUMPDEST PUSH1 0x0 DUP3 MLOAD PUSH2 0x17A0 DUP2 DUP5 PUSH1 0x20 DUP8 ADD PUSH2 0x1932 JUMP JUMPDEST SWAP2 SWAP1 SWAP2 ADD SWAP3 SWAP2 POP POP JUMP JUMPDEST PUSH1 0x1 PUSH1 0x1 PUSH1 0xA0 SHL SUB SWAP3 SWAP1 SWAP3 AND DUP3 MSTORE PUSH1 0x20 DUP3 ADD MSTORE PUSH1 0x40 ADD SWAP1 JUMP JUMPDEST PUSH1 0x20 DUP2 MSTORE PUSH1 0x0 DUP3 MLOAD DUP1 PUSH1 0x20 DUP5 ADD MSTORE PUSH2 0x17E2 DUP2 PUSH1 0x40 DUP6 ADD PUSH1 0x20 DUP8 ADD PUSH2 0x1932 JUMP JUMPDEST PUSH1 0x1F ADD PUSH1 0x1F NOT AND SWAP2 SWAP1 SWAP2 ADD PUSH1 0x40 ADD SWAP3 SWAP2 POP POP JUMP JUMPDEST PUSH1 0x20 DUP1 DUP3 MSTORE PUSH1 0xC SWAP1 DUP3 ADD MSTORE PUSH12 0x4E6F7420696E2072616E6765 PUSH1 0xA0 SHL PUSH1 0x40 DUP3 ADD MSTORE PUSH1 0x60 ADD SWAP1 JUMP JUMPDEST PUSH1 0x20 DUP1 DUP3 MSTORE DUP2 DUP2 ADD MSTORE PUSH32 0x4F776E61626C653A2063616C6C6572206973206E6F7420746865206F776E6572 PUSH1 0x40 DUP3 ADD MSTORE PUSH1 0x60 ADD SWAP1 JUMP JUMPDEST PUSH1 0x0 PUSH1 0xA0 DUP3 ADD DUP8 DUP4 MSTORE PUSH1 0x20 DUP8 DUP2 DUP6 ADD MSTORE PUSH1 0xA0 PUSH1 0x40 DUP6 ADD MSTORE DUP2 DUP8 MLOAD DUP1 DUP5 MSTORE PUSH1 0xC0 DUP7 ADD SWAP2 POP DUP3 DUP10 ADD SWAP4 POP PUSH1 0x0 JUMPDEST DUP2 DUP2 LT ISZERO PUSH2 0x18A1 JUMPI DUP5 MLOAD PUSH1 0x1 PUSH1 0x1 PUSH1 0xA0 SHL SUB AND DUP4 MSTORE SWAP4 DUP4 ADD SWAP4 SWAP2 DUP4 ADD SWAP2 PUSH1 0x1 ADD PUSH2 0x187C JUMP JUMPDEST POP POP PUSH1 0x1 PUSH1 0x1 PUSH1 0xA0 SHL SUB SWAP7 SWAP1 SWAP7 AND PUSH1 0x60 DUP6 ADD MSTORE POP POP POP PUSH1 0x80 ADD MSTORE SWAP4 SWAP3 POP POP POP JUMP JUMPDEST PUSH1 0x0 DUP3 NOT DUP3 GT ISZERO PUSH2 0x18D5 JUMPI PUSH2 0x18D5 PUSH2 0x195E JUMP JUMPDEST POP ADD SWAP1 JUMP JUMPDEST PUSH1 0x0 DUP3 PUSH2 0x18F7 JUMPI PUSH4 0x4E487B71 PUSH1 0xE0 SHL PUSH1 0x0 MSTORE PUSH1 0x12 PUSH1 0x4 MSTORE PUSH1 0x24 PUSH1 0x0 REVERT JUMPDEST POP DIV SWAP1 JUMP JUMPDEST PUSH1 0x0 DUP2 PUSH1 0x0 NOT DIV DUP4 GT DUP3 ISZERO ISZERO AND ISZERO PUSH2 0x1916 JUMPI PUSH2 0x1916 PUSH2 0x195E JUMP JUMPDEST POP MUL SWAP1 JUMP JUMPDEST PUSH1 0x0 DUP3 DUP3 LT ISZERO PUSH2 0x192D JUMPI PUSH2 0x192D PUSH2 0x195E JUMP JUMPDEST POP SUB SWAP1 JUMP JUMPDEST PUSH1 0x0 JUMPDEST DUP4 DUP2 LT ISZERO PUSH2 0x194D JUMPI DUP2 DUP2 ADD MLOAD DUP4 DUP3 ADD MSTORE PUSH1 0x20 ADD PUSH2 0x1935 JUMP JUMPDEST DUP4 DUP2 GT ISZERO PUSH2 0x1222 JUMPI POP POP PUSH1 0x0 SWAP2 ADD MSTORE JUMP JUMPDEST PUSH4 0x4E487B71 PUSH1 0xE0 SHL PUSH1 0x0 MSTORE PUSH1 0x11 PUSH1 0x4 MSTORE PUSH1 0x24 PUSH1 0x0 REVERT JUMPDEST PUSH4 0x4E487B71 PUSH1 0xE0 SHL PUSH1 0x0 MSTORE PUSH1 0x32 PUSH1 0x4 MSTORE PUSH1 0x24 PUSH1 0x0 REVERT JUMPDEST PUSH4 0x4E487B71 PUSH1 0xE0 SHL PUSH1 0x0 MSTORE PUSH1 0x41 PUSH1 0x4 MSTORE PUSH1 0x24 PUSH1 0x0 REVERT JUMPDEST PUSH1 0x1 PUSH1 0x1 PUSH1 0xA0 SHL SUB DUP2 AND DUP2 EQ PUSH2 0xD02 JUMPI PUSH1 0x0 DUP1 REVERT INVALID LOG2 PUSH5 0x6970667358 0x22 SLT KECCAK256 XOR 0xCA 0xCF CREATE 0x2A JUMP RETURNDATASIZE EXP CALLDATACOPY DUP8 0x4B 0xE5 JUMPI 0x26 DUP3 DUP5 PUSH14 0x2BDC092CA035E4534EA1D57BAAB2 MOD PUSH5 0x736F6C6343 STOP ADDMOD SMOD STOP CALLER ",
  "sha1": "14aa1700d27339b34be007f570f15aa6c6c0227b",
  "source": "// SPDX-License-Identifier: MIT\npragma solidity ^0.8.0;\n\nimport \"@openzeppelin/contracts/token/ERC20/utils/SafeERC20.sol\";\nimport \"@openzeppelin/contracts/token/ERC20/IERC20.sol\";\nimport \"@openzeppelin/contracts/access/Ownable.sol\";\nimport \"../interfaces/IxPTP.sol\";\nimport \"../interfaces/IJoeRouter01.sol\";\nimport \"../interfaces/IJoePair.sol\";\n\n/// @title Smart Convertor\n/// @author Vector Team\n/// @notice Smart Convertor is a convertor to manage conversion or buying on trader Joe\ncontract xPTPConvertor is Ownable {\n    using SafeERC20 for IERC20;\n    address public immutable xptp;\n    address public immutable ptp;\n    address public immutable router;\n    address public immutable pair;\n\n    uint256 public buyThreshold;\n    uint256 public constant DENOMINATOR = 10000;\n    uint256 public buyPercent;\n    uint256 public deltaPercentage = 9500;\n    uint256 public slippagePct = 500;\n\n    event xPTPObtained(address user, uint256 depositedPTP, uint256 obtainedxPTP);\n\n    constructor(\n        address _xptp,\n        address _ptp,\n        address _router,\n        address _pair\n    ) {\n        xptp = _xptp;\n        ptp = _ptp;\n        router = _router;\n        pair = _pair;\n    }\n\n    function setBuyThreshold(uint256 newValue) external onlyOwner {\n        require(newValue >= 0 && newValue <= 10000, \"Not in range\");\n        buyThreshold = newValue;\n    }\n\n    function setBuyPercent(uint256 newValue) external onlyOwner {\n        require(newValue >= 0 && newValue <= 10000, \"Not in range\");\n        buyPercent = newValue;\n    }\n\n    function setDeltaPercentage(uint256 newValue) external onlyOwner {\n        require(newValue >= 0 && newValue <= 10000, \"Not in range\");\n        deltaPercentage = newValue;\n    }\n\n    function setSlippage(uint256 newValue) external onlyOwner {\n        require(newValue >= 0 && newValue <= 10000, \"Not in range\");\n        slippagePct = newValue;\n    }\n\n    /// @notice returns the ratio between xPTP and PTP. 10000= 1:1 rate\n    function getxPTPRatio() public view returns (uint256 xPTPRatio) {\n        (uint256 r0, uint256 r1, ) = IJoePair(pair).getReserves();\n        if (IJoePair(pair).token0() == xptp) {\n            xPTPRatio = (r1 * DENOMINATOR) / r0;\n        } else {\n            xPTPRatio = (r0 * DENOMINATOR) / r1;\n        }\n    }\n\n    /// @notice estimates the amount of xPTP recieved if bought on traderJoe\n    function estimateOutAmount(uint256 amountSold) public view returns (uint256 amountOut) {\n        (uint256 r0, uint256 r1, ) = IJoePair(pair).getReserves();\n        if (IJoePair(pair).token1() == xptp) {\n            amountOut = IJoeRouter01(router).getAmountOut(amountSold, r0, r1);\n            // amountOut = (((r1 * amountSold) / (r0 + amountSold)) * 997) / 1000;\n        } else {\n            amountOut = IJoeRouter01(router).getAmountOut(amountSold, r1, r0);\n            // amountOut = (((r0 * amountSold) / (r1 + amountSold)) * 997) / 1000;\n        }\n    }\n\n    /// @notice increase allowance to a contract to the maximum amount for a specific token if it is needed\n    /// @param token the token to increase the allowance of\n    /// @param _to the contract to increase the allowance\n    /// @param _amount the amount of allowance that the contract needs\n    function _approveTokenIfNeeded(\n        address token,\n        address _to,\n        uint256 _amount\n    ) private {\n        if (IERC20(token).allowance(address(this), _to) < _amount) {\n            IERC20(token).approve(_to, type(uint256).max);\n        }\n    }\n\n    function maxAmountToBuy() public view returns (uint256) {\n        (uint256 r0, uint256 r1, ) = IJoePair(pair).getReserves();\n        uint256 xptpReserves = (IJoePair(pair).token0() == xptp ? r0 : r1);\n        uint256 ptpReserves = (IJoePair(pair).token0() == xptp ? r1 : r0);\n        if (ptpReserves > xptpReserves) {\n            return 0;\n        } else {\n            return ((xptpReserves - ptpReserves) * deltaPercentage) / DENOMINATOR;\n        }\n    }\n\n    /// @notice deposit PTP in vector protocol and get xPTP\n    /// @dev if xPTPRation < buyThreshold, will buy in open market a % of the deposit\n    /// @dev this % is determined by buyPercent\n    /// @param _amount the amount of PTP\n    function estimateTotalConversion(uint256 _amount)\n        external\n        view\n        returns (uint256 minimumEstimatedTotal)\n    {\n        uint256 xPTPRatio = getxPTPRatio();\n        minimumEstimatedTotal = _amount;\n        if (xPTPRatio <= buyThreshold) {\n            uint256 amountToBuy = (minimumEstimatedTotal * buyPercent) / DENOMINATOR;\n            uint256 maxAmountToRespectPriceImpact = maxAmountToBuy();\n            if (amountToBuy > maxAmountToRespectPriceImpact) {\n                amountToBuy = maxAmountToRespectPriceImpact;\n            }\n            uint256 estimatedOutAmount = estimateOutAmount(amountToBuy);\n            if (amountToBuy < estimatedOutAmount) {\n                minimumEstimatedTotal -= amountToBuy;\n                minimumEstimatedTotal +=\n                    (estimatedOutAmount * (DENOMINATOR - slippagePct)) /\n                    DENOMINATOR;\n            }\n        }\n    }\n\n    /// @notice deposit PTP in vector protocol and get xPTP\n    /// @dev if xPTPRation < buyThreshold, will buy in open market a % of the deposit\n    /// @dev this % is determined by buyPercent\n    /// @param _amount the amount of PTP\n    /// @param _for, receiver of the xPTP\n    function _depositFor(uint256 _amount, address _for)\n        internal\n        returns (uint256 obtainedxPtpAmount)\n    {\n        IERC20(ptp).safeTransferFrom(msg.sender, address(this), _amount);\n        uint256 xPTPRatio = getxPTPRatio();\n        uint256 amountToConvert = _amount;\n        if (xPTPRatio <= buyThreshold) {\n            uint256 amountToBuy = (amountToConvert * buyPercent) / DENOMINATOR;\n            uint256 maxAmountToRespectPriceImpact = maxAmountToBuy();\n            if (amountToBuy > maxAmountToRespectPriceImpact) {\n                amountToBuy = maxAmountToRespectPriceImpact;\n            }\n            if (amountToBuy > 0) {\n                uint256 estimatedOutAmount = estimateOutAmount(amountToBuy);\n                if (amountToBuy < estimatedOutAmount) {\n                    _approveTokenIfNeeded(ptp, router, amountToBuy);\n                    address[] memory path = new address[](2);\n                    path[0] = ptp;\n                    path[1] = xptp;\n                    obtainedxPtpAmount = IJoeRouter01(router).swapExactTokensForTokens(\n                        amountToBuy,\n                        (estimatedOutAmount * (DENOMINATOR - slippagePct)) / DENOMINATOR,\n                        path,\n                        _for,\n                        block.timestamp\n                    )[1];\n                    require(obtainedxPtpAmount > amountToBuy, \"Transaction is disadvantageous\");\n                    amountToConvert -= amountToBuy;\n                }\n            }\n        }\n        if (amountToConvert > 0) {\n            obtainedxPtpAmount += amountToConvert;\n            _approveTokenIfNeeded(ptp, xptp, amountToConvert);\n            // IERC20(ptp).approve(xptp, amountToConvert);\n            IxPTP(xptp).deposit(amountToConvert);\n            IERC20(xptp).safeTransfer(_for, amountToConvert);\n        }\n        emit xPTPObtained(_for, _amount, obtainedxPtpAmount);\n    }\n\n    /// @notice deposit PTP in vector protocol and get xPTP\n    /// @dev if xPTPRation < buyThreshold, will buy in open market a % of the deposit\n    /// @dev this % is determined by buyPercent\n    /// @param _amount the amount of PTP\n    function deposit(uint256 _amount) external returns (uint256 obtainedxPtpAmount) {\n        obtainedxPtpAmount = _depositFor(_amount, msg.sender);\n    }\n\n    /// @notice deposit PTP in vector protocol and get xPTP\n    /// @dev if xPTPRation < buyThreshold, will buy in open market a % of the deposit\n    /// @dev this % is determined by buyPercent\n    /// @param _amount the amount of PTP\n    function depositFor(uint256 _amount, address _for)\n        external\n        returns (uint256 obtainedxPtpAmount)\n    {\n        obtainedxPtpAmount = _depositFor(_amount, _for);\n    }\n}\n",
  "sourcePath": "contracts/xPTPConvertor.sol",
  "type": "contract"
}